{
	"contracts/Library.sol": {
		"Library": {
			"abi": [
				{
					"inputs": [
						{
							"internalType": "string",
							"name": "_name",
							"type": "string"
						}
					],
					"name": "addNewBook",
					"outputs": [],
					"stateMutability": "nonpayable",
					"type": "function"
				},
				{
					"inputs": [
						{
							"internalType": "uint256",
							"name": "",
							"type": "uint256"
						}
					],
					"name": "books",
					"outputs": [
						{
							"internalType": "string",
							"name": "name",
							"type": "string"
						},
						{
							"components": [
								{
									"internalType": "uint256",
									"name": "_value",
									"type": "uint256"
								}
							],
							"internalType": "struct Counters.Counter",
							"name": "id",
							"type": "tuple"
						}
					],
					"stateMutability": "view",
					"type": "function"
				},
				{
					"inputs": [],
					"name": "borrowBook",
					"outputs": [],
					"stateMutability": "nonpayable",
					"type": "function"
				},
				{
					"inputs": [],
					"name": "owner",
					"outputs": [
						{
							"internalType": "address",
							"name": "",
							"type": "address"
						}
					],
					"stateMutability": "view",
					"type": "function"
				},
				{
					"inputs": [],
					"name": "returnBook",
					"outputs": [],
					"stateMutability": "nonpayable",
					"type": "function"
				},
				{
					"inputs": [],
					"name": "seeRecord",
					"outputs": [],
					"stateMutability": "view",
					"type": "function"
				}
			],
			"devdoc": {
				"kind": "dev",
				"methods": {},
				"version": 1
			},
			"evm": {
				"assembly": "    /* \"contracts/Library.sol\":162:666  contract Library is Ownable {... */\n  mstore(0x40, 0x80)\n  callvalue\n  dup1\n  iszero\n  tag_1\n  jumpi\n  0x00\n  dup1\n  revert\ntag_1:\n  pop\n    /* \"contracts/Ownable.sol\":265:275  msg.sender */\n  caller\n    /* \"contracts/Ownable.sol\":257:262  owner */\n  0x00\n  dup1\n    /* \"contracts/Ownable.sol\":257:275  owner = msg.sender */\n  0x0100\n  exp\n  dup2\n  sload\n  dup2\n  0xffffffffffffffffffffffffffffffffffffffff\n  mul\n  not\n  and\n  swap1\n  dup4\n  0xffffffffffffffffffffffffffffffffffffffff\n  and\n  mul\n  or\n  swap1\n  sstore\n  pop\n    /* \"contracts/Library.sol\":162:666  contract Library is Ownable {... */\n  dataSize(sub_0)\n  dup1\n  dataOffset(sub_0)\n  0x00\n  codecopy\n  0x00\n  return\nstop\n\nsub_0: assembly {\n        /* \"contracts/Library.sol\":162:666  contract Library is Ownable {... */\n      mstore(0x40, 0x80)\n      callvalue\n      dup1\n      iszero\n      tag_1\n      jumpi\n      0x00\n      dup1\n      revert\n    tag_1:\n      pop\n      jumpi(tag_2, lt(calldatasize, 0x04))\n      shr(0xe0, calldataload(0x00))\n      dup1\n      0x57a2b4d5\n      eq\n      tag_3\n      jumpi\n      dup1\n      0x68744046\n      eq\n      tag_4\n      jumpi\n      dup1\n      0x772aaeb5\n      eq\n      tag_5\n      jumpi\n      dup1\n      0x8da5cb5b\n      eq\n      tag_6\n      jumpi\n      dup1\n      0xbc072787\n      eq\n      tag_7\n      jumpi\n      dup1\n      0xeef2dc68\n      eq\n      tag_8\n      jumpi\n    tag_2:\n      0x00\n      dup1\n      revert\n        /* \"contracts/Library.sol\":430:547  function addNewBook (string memory _name) external onlyOwner {... */\n    tag_3:\n      tag_9\n      0x04\n      dup1\n      calldatasize\n      sub\n      dup2\n      add\n      swap1\n      tag_10\n      swap2\n      swap1\n      tag_11\n      jump\t// in\n    tag_10:\n      tag_12\n      jump\t// in\n    tag_9:\n      stop\n        /* \"contracts/Library.sol\":378:397  Book[] public books */\n    tag_4:\n      tag_13\n      0x04\n      dup1\n      calldatasize\n      sub\n      dup2\n      add\n      swap1\n      tag_14\n      swap2\n      swap1\n      tag_15\n      jump\t// in\n    tag_14:\n      tag_16\n      jump\t// in\n    tag_13:\n      mload(0x40)\n      tag_17\n      swap3\n      swap2\n      swap1\n      tag_18\n      jump\t// in\n    tag_17:\n      mload(0x40)\n      dup1\n      swap2\n      sub\n      swap1\n      return\n        /* \"contracts/Library.sol\":585:619  function returnBook () public {... */\n    tag_5:\n      tag_19\n      tag_20\n      jump\t// in\n    tag_19:\n      stop\n        /* \"contracts/Ownable.sol\":87:107  address public owner */\n    tag_6:\n      tag_21\n      tag_22\n      jump\t// in\n    tag_21:\n      mload(0x40)\n      tag_23\n      swap2\n      swap1\n      tag_24\n      jump\t// in\n    tag_23:\n      mload(0x40)\n      dup1\n      swap2\n      sub\n      swap1\n      return\n        /* \"contracts/Library.sol\":621:663  function seeRecord () public view {... */\n    tag_7:\n      tag_25\n      tag_26\n      jump\t// in\n    tag_25:\n      stop\n        /* \"contracts/Library.sol\":549:583  function borrowBook () public {... */\n    tag_8:\n      tag_27\n      tag_28\n      jump\t// in\n    tag_27:\n      stop\n        /* \"contracts/Library.sol\":430:547  function addNewBook (string memory _name) external onlyOwner {... */\n    tag_12:\n        /* \"contracts/Ownable.sol\":166:176  msg.sender */\n      caller\n        /* \"contracts/Ownable.sol\":157:176  owner == msg.sender */\n      0xffffffffffffffffffffffffffffffffffffffff\n      and\n        /* \"contracts/Ownable.sol\":157:162  owner */\n      0x00\n      dup1\n      sload\n      swap1\n      0x0100\n      exp\n      swap1\n      div\n      0xffffffffffffffffffffffffffffffffffffffff\n      and\n        /* \"contracts/Ownable.sol\":157:176  owner == msg.sender */\n      0xffffffffffffffffffffffffffffffffffffffff\n      and\n      eq\n        /* \"contracts/Ownable.sol\":149:205  require(owner == msg.sender, \"Not invoked by the owner\") */\n      tag_30\n      jumpi\n      mload(0x40)\n      0x08c379a000000000000000000000000000000000000000000000000000000000\n      dup2\n      mstore\n      0x04\n      add\n      tag_31\n      swap1\n      tag_32\n      jump\t// in\n    tag_31:\n      mload(0x40)\n      dup1\n      swap2\n      sub\n      swap1\n      revert\n    tag_30:\n        /* \"contracts/Library.sol\":497:502  books */\n      0x01\n        /* \"contracts/Library.sol\":508:523  Book(_name, id) */\n      mload(0x40)\n      dup1\n      0x40\n      add\n      0x40\n      mstore\n      dup1\n        /* \"contracts/Library.sol\":513:518  _name */\n      dup4\n        /* \"contracts/Library.sol\":508:523  Book(_name, id) */\n      dup2\n      mstore\n      0x20\n      add\n        /* \"contracts/Library.sol\":520:522  id */\n      0x02\n        /* \"contracts/Library.sol\":508:523  Book(_name, id) */\n      mload(0x40)\n      dup1\n      0x20\n      add\n      0x40\n      mstore\n      swap1\n      dup2\n      0x00\n      dup3\n      add\n      sload\n      dup2\n      mstore\n      pop\n      pop\n      dup2\n      mstore\n      pop\n        /* \"contracts/Library.sol\":497:524  books.push(Book(_name, id)) */\n      swap1\n      dup1\n      0x01\n      dup2\n      sload\n      add\n      dup1\n      dup3\n      sstore\n      dup1\n      swap2\n      pop\n      pop\n      0x01\n      swap1\n      sub\n      swap1\n      0x00\n      mstore\n      keccak256(0x00, 0x20)\n      swap1\n      0x02\n      mul\n      add\n      0x00\n      swap1\n      swap2\n      swap1\n      swap2\n      swap1\n      swap2\n      pop\n      0x00\n      dup3\n      add\n      mload\n      dup2\n      0x00\n      add\n      swap1\n      dup1\n      mload\n      swap1\n      0x20\n      add\n      swap1\n      tag_35\n      swap3\n      swap2\n      swap1\n      tag_36\n      jump\t// in\n    tag_35:\n      pop\n      0x20\n      dup3\n      add\n      mload\n      dup2\n      0x01\n      add\n      0x00\n      dup3\n      add\n      mload\n      dup2\n      0x00\n      add\n      sstore\n      pop\n      pop\n      pop\n      pop\n        /* \"contracts/Library.sol\":530:544  id.increment() */\n      tag_37\n        /* \"contracts/Library.sol\":530:532  id */\n      0x02\n        /* \"contracts/Library.sol\":530:542  id.increment */\n      tag_38\n        /* \"contracts/Library.sol\":530:544  id.increment() */\n      jump\t// in\n    tag_37:\n        /* \"contracts/Library.sol\":430:547  function addNewBook (string memory _name) external onlyOwner {... */\n      pop\n      jump\t// out\n        /* \"contracts/Library.sol\":378:397  Book[] public books */\n    tag_16:\n      0x01\n      dup2\n      dup2\n      sload\n      dup2\n      lt\n      tag_39\n      jumpi\n      0x00\n      dup1\n      revert\n    tag_39:\n      swap1\n      0x00\n      mstore\n      keccak256(0x00, 0x20)\n      swap1\n      0x02\n      mul\n      add\n      0x00\n      swap2\n      pop\n      swap1\n      pop\n      dup1\n      0x00\n      add\n      dup1\n      sload\n      tag_41\n      swap1\n      tag_42\n      jump\t// in\n    tag_41:\n      dup1\n      0x1f\n      add\n      0x20\n      dup1\n      swap2\n      div\n      mul\n      0x20\n      add\n      mload(0x40)\n      swap1\n      dup2\n      add\n      0x40\n      mstore\n      dup1\n      swap3\n      swap2\n      swap1\n      dup2\n      dup2\n      mstore\n      0x20\n      add\n      dup3\n      dup1\n      sload\n      tag_43\n      swap1\n      tag_42\n      jump\t// in\n    tag_43:\n      dup1\n      iszero\n      tag_44\n      jumpi\n      dup1\n      0x1f\n      lt\n      tag_45\n      jumpi\n      0x0100\n      dup1\n      dup4\n      sload\n      div\n      mul\n      dup4\n      mstore\n      swap2\n      0x20\n      add\n      swap2\n      jump(tag_44)\n    tag_45:\n      dup3\n      add\n      swap2\n      swap1\n      0x00\n      mstore\n      keccak256(0x00, 0x20)\n      swap1\n    tag_46:\n      dup2\n      sload\n      dup2\n      mstore\n      swap1\n      0x01\n      add\n      swap1\n      0x20\n      add\n      dup1\n      dup4\n      gt\n      tag_46\n      jumpi\n      dup3\n      swap1\n      sub\n      0x1f\n      and\n      dup3\n      add\n      swap2\n    tag_44:\n      pop\n      pop\n      pop\n      pop\n      pop\n      swap1\n      dup1\n      0x01\n      add\n      mload(0x40)\n      dup1\n      0x20\n      add\n      0x40\n      mstore\n      swap1\n      dup2\n      0x00\n      dup3\n      add\n      sload\n      dup2\n      mstore\n      pop\n      pop\n      swap1\n      pop\n      dup3\n      jump\t// out\n        /* \"contracts/Library.sol\":585:619  function returnBook () public {... */\n    tag_20:\n      jump\t// out\n        /* \"contracts/Ownable.sol\":87:107  address public owner */\n    tag_22:\n      0x00\n      dup1\n      sload\n      swap1\n      0x0100\n      exp\n      swap1\n      div\n      0xffffffffffffffffffffffffffffffffffffffff\n      and\n      dup2\n      jump\t// out\n        /* \"contracts/Library.sol\":621:663  function seeRecord () public view {... */\n    tag_26:\n      jump\t// out\n        /* \"contracts/Library.sol\":549:583  function borrowBook () public {... */\n    tag_28:\n      jump\t// out\n        /* \"@openzeppelin/contracts/utils/Counters.sol\":945:1068  function increment(Counter storage counter) internal {... */\n    tag_38:\n        /* \"@openzeppelin/contracts/utils/Counters.sol\":1050:1051  1 */\n      0x01\n        /* \"@openzeppelin/contracts/utils/Counters.sol\":1032:1039  counter */\n      dup2\n        /* \"@openzeppelin/contracts/utils/Counters.sol\":1032:1046  counter._value */\n      0x00\n      add\n      0x00\n        /* \"@openzeppelin/contracts/utils/Counters.sol\":1032:1051  counter._value += 1 */\n      dup3\n      dup3\n      sload\n      add\n      swap3\n      pop\n      pop\n      dup2\n      swap1\n      sstore\n      pop\n        /* \"@openzeppelin/contracts/utils/Counters.sol\":945:1068  function increment(Counter storage counter) internal {... */\n      pop\n      jump\t// out\n    tag_36:\n      dup3\n      dup1\n      sload\n      tag_51\n      swap1\n      tag_42\n      jump\t// in\n    tag_51:\n      swap1\n      0x00\n      mstore\n      keccak256(0x00, 0x20)\n      swap1\n      0x1f\n      add\n      0x20\n      swap1\n      div\n      dup2\n      add\n      swap3\n      dup3\n      tag_53\n      jumpi\n      0x00\n      dup6\n      sstore\n      jump(tag_52)\n    tag_53:\n      dup3\n      0x1f\n      lt\n      tag_54\n      jumpi\n      dup1\n      mload\n      not(0xff)\n      and\n      dup4\n      dup1\n      add\n      or\n      dup6\n      sstore\n      jump(tag_52)\n    tag_54:\n      dup3\n      dup1\n      add\n      0x01\n      add\n      dup6\n      sstore\n      dup3\n      iszero\n      tag_52\n      jumpi\n      swap2\n      dup3\n      add\n    tag_55:\n      dup3\n      dup2\n      gt\n      iszero\n      tag_56\n      jumpi\n      dup3\n      mload\n      dup3\n      sstore\n      swap2\n      0x20\n      add\n      swap2\n      swap1\n      0x01\n      add\n      swap1\n      jump(tag_55)\n    tag_56:\n    tag_52:\n      pop\n      swap1\n      pop\n      tag_57\n      swap2\n      swap1\n      tag_58\n      jump\t// in\n    tag_57:\n      pop\n      swap1\n      jump\t// out\n    tag_58:\n    tag_59:\n      dup1\n      dup3\n      gt\n      iszero\n      tag_60\n      jumpi\n      0x00\n      dup2\n      0x00\n      swap1\n      sstore\n      pop\n      0x01\n      add\n      jump(tag_59)\n    tag_60:\n      pop\n      swap1\n      jump\t// out\n        /* \"#utility.yul\":7:351   */\n    tag_62:\n      0x00\n        /* \"#utility.yul\":110:175   */\n      tag_64\n        /* \"#utility.yul\":125:174   */\n      tag_65\n        /* \"#utility.yul\":167:173   */\n      dup5\n        /* \"#utility.yul\":125:174   */\n      tag_66\n      jump\t// in\n    tag_65:\n        /* \"#utility.yul\":110:175   */\n      tag_67\n      jump\t// in\n    tag_64:\n        /* \"#utility.yul\":101:175   */\n      swap1\n      pop\n        /* \"#utility.yul\":198:204   */\n      dup3\n        /* \"#utility.yul\":191:196   */\n      dup2\n        /* \"#utility.yul\":184:205   */\n      mstore\n        /* \"#utility.yul\":236:240   */\n      0x20\n        /* \"#utility.yul\":229:234   */\n      dup2\n        /* \"#utility.yul\":225:241   */\n      add\n        /* \"#utility.yul\":274:277   */\n      dup5\n        /* \"#utility.yul\":265:271   */\n      dup5\n        /* \"#utility.yul\":260:263   */\n      dup5\n        /* \"#utility.yul\":256:272   */\n      add\n        /* \"#utility.yul\":253:278   */\n      gt\n        /* \"#utility.yul\":250:252   */\n      iszero\n      tag_68\n      jumpi\n        /* \"#utility.yul\":291:292   */\n      0x00\n        /* \"#utility.yul\":288:289   */\n      dup1\n        /* \"#utility.yul\":281:293   */\n      revert\n        /* \"#utility.yul\":250:252   */\n    tag_68:\n        /* \"#utility.yul\":304:345   */\n      tag_69\n        /* \"#utility.yul\":338:344   */\n      dup5\n        /* \"#utility.yul\":333:336   */\n      dup3\n        /* \"#utility.yul\":328:331   */\n      dup6\n        /* \"#utility.yul\":304:345   */\n      tag_70\n      jump\t// in\n    tag_69:\n        /* \"#utility.yul\":91:351   */\n      pop\n      swap4\n      swap3\n      pop\n      pop\n      pop\n      jump\t// out\n        /* \"#utility.yul\":371:644   */\n    tag_71:\n      0x00\n        /* \"#utility.yul\":476:479   */\n      dup3\n        /* \"#utility.yul\":469:473   */\n      0x1f\n        /* \"#utility.yul\":461:467   */\n      dup4\n        /* \"#utility.yul\":457:474   */\n      add\n        /* \"#utility.yul\":453:480   */\n      slt\n        /* \"#utility.yul\":443:445   */\n      tag_73\n      jumpi\n        /* \"#utility.yul\":494:495   */\n      0x00\n        /* \"#utility.yul\":491:492   */\n      dup1\n        /* \"#utility.yul\":484:496   */\n      revert\n        /* \"#utility.yul\":443:445   */\n    tag_73:\n        /* \"#utility.yul\":534:540   */\n      dup2\n        /* \"#utility.yul\":521:541   */\n      calldataload\n        /* \"#utility.yul\":559:638   */\n      tag_74\n        /* \"#utility.yul\":634:637   */\n      dup5\n        /* \"#utility.yul\":626:632   */\n      dup3\n        /* \"#utility.yul\":619:623   */\n      0x20\n        /* \"#utility.yul\":611:617   */\n      dup7\n        /* \"#utility.yul\":607:624   */\n      add\n        /* \"#utility.yul\":559:638   */\n      tag_62\n      jump\t// in\n    tag_74:\n        /* \"#utility.yul\":550:638   */\n      swap2\n      pop\n        /* \"#utility.yul\":433:644   */\n      pop\n      swap3\n      swap2\n      pop\n      pop\n      jump\t// out\n        /* \"#utility.yul\":650:789   */\n    tag_75:\n      0x00\n        /* \"#utility.yul\":734:740   */\n      dup2\n        /* \"#utility.yul\":721:741   */\n      calldataload\n        /* \"#utility.yul\":712:741   */\n      swap1\n      pop\n        /* \"#utility.yul\":750:783   */\n      tag_77\n        /* \"#utility.yul\":777:782   */\n      dup2\n        /* \"#utility.yul\":750:783   */\n      tag_78\n      jump\t// in\n    tag_77:\n        /* \"#utility.yul\":702:789   */\n      swap3\n      swap2\n      pop\n      pop\n      jump\t// out\n        /* \"#utility.yul\":795:1170   */\n    tag_11:\n      0x00\n        /* \"#utility.yul\":913:915   */\n      0x20\n        /* \"#utility.yul\":901:910   */\n      dup3\n        /* \"#utility.yul\":892:899   */\n      dup5\n        /* \"#utility.yul\":888:911   */\n      sub\n        /* \"#utility.yul\":884:916   */\n      slt\n        /* \"#utility.yul\":881:883   */\n      iszero\n      tag_80\n      jumpi\n        /* \"#utility.yul\":929:930   */\n      0x00\n        /* \"#utility.yul\":926:927   */\n      dup1\n        /* \"#utility.yul\":919:931   */\n      revert\n        /* \"#utility.yul\":881:883   */\n    tag_80:\n        /* \"#utility.yul\":1000:1001   */\n      0x00\n        /* \"#utility.yul\":989:998   */\n      dup3\n        /* \"#utility.yul\":985:1002   */\n      add\n        /* \"#utility.yul\":972:1003   */\n      calldataload\n        /* \"#utility.yul\":1030:1048   */\n      0xffffffffffffffff\n        /* \"#utility.yul\":1022:1028   */\n      dup2\n        /* \"#utility.yul\":1019:1049   */\n      gt\n        /* \"#utility.yul\":1016:1018   */\n      iszero\n      tag_81\n      jumpi\n        /* \"#utility.yul\":1062:1063   */\n      0x00\n        /* \"#utility.yul\":1059:1060   */\n      dup1\n        /* \"#utility.yul\":1052:1064   */\n      revert\n        /* \"#utility.yul\":1016:1018   */\n    tag_81:\n        /* \"#utility.yul\":1090:1153   */\n      tag_82\n        /* \"#utility.yul\":1145:1152   */\n      dup5\n        /* \"#utility.yul\":1136:1142   */\n      dup3\n        /* \"#utility.yul\":1125:1134   */\n      dup6\n        /* \"#utility.yul\":1121:1143   */\n      add\n        /* \"#utility.yul\":1090:1153   */\n      tag_71\n      jump\t// in\n    tag_82:\n        /* \"#utility.yul\":1080:1153   */\n      swap2\n      pop\n        /* \"#utility.yul\":943:1163   */\n      pop\n        /* \"#utility.yul\":871:1170   */\n      swap3\n      swap2\n      pop\n      pop\n      jump\t// out\n        /* \"#utility.yul\":1176:1438   */\n    tag_15:\n      0x00\n        /* \"#utility.yul\":1284:1286   */\n      0x20\n        /* \"#utility.yul\":1272:1281   */\n      dup3\n        /* \"#utility.yul\":1263:1270   */\n      dup5\n        /* \"#utility.yul\":1259:1282   */\n      sub\n        /* \"#utility.yul\":1255:1287   */\n      slt\n        /* \"#utility.yul\":1252:1254   */\n      iszero\n      tag_84\n      jumpi\n        /* \"#utility.yul\":1300:1301   */\n      0x00\n        /* \"#utility.yul\":1297:1298   */\n      dup1\n        /* \"#utility.yul\":1290:1302   */\n      revert\n        /* \"#utility.yul\":1252:1254   */\n    tag_84:\n        /* \"#utility.yul\":1343:1344   */\n      0x00\n        /* \"#utility.yul\":1368:1421   */\n      tag_85\n        /* \"#utility.yul\":1413:1420   */\n      dup5\n        /* \"#utility.yul\":1404:1410   */\n      dup3\n        /* \"#utility.yul\":1393:1402   */\n      dup6\n        /* \"#utility.yul\":1389:1411   */\n      add\n        /* \"#utility.yul\":1368:1421   */\n      tag_75\n      jump\t// in\n    tag_85:\n        /* \"#utility.yul\":1358:1421   */\n      swap2\n      pop\n        /* \"#utility.yul\":1314:1431   */\n      pop\n        /* \"#utility.yul\":1242:1438   */\n      swap3\n      swap2\n      pop\n      pop\n      jump\t// out\n        /* \"#utility.yul\":1444:1562   */\n    tag_86:\n        /* \"#utility.yul\":1531:1555   */\n      tag_88\n        /* \"#utility.yul\":1549:1554   */\n      dup2\n        /* \"#utility.yul\":1531:1555   */\n      tag_89\n      jump\t// in\n    tag_88:\n        /* \"#utility.yul\":1526:1529   */\n      dup3\n        /* \"#utility.yul\":1519:1556   */\n      mstore\n        /* \"#utility.yul\":1509:1562   */\n      pop\n      pop\n      jump\t// out\n        /* \"#utility.yul\":1568:1932   */\n    tag_90:\n      0x00\n        /* \"#utility.yul\":1684:1723   */\n      tag_92\n        /* \"#utility.yul\":1717:1722   */\n      dup3\n        /* \"#utility.yul\":1684:1723   */\n      tag_93\n      jump\t// in\n    tag_92:\n        /* \"#utility.yul\":1739:1810   */\n      tag_94\n        /* \"#utility.yul\":1803:1809   */\n      dup2\n        /* \"#utility.yul\":1798:1801   */\n      dup6\n        /* \"#utility.yul\":1739:1810   */\n      tag_95\n      jump\t// in\n    tag_94:\n        /* \"#utility.yul\":1732:1810   */\n      swap4\n      pop\n        /* \"#utility.yul\":1819:1871   */\n      tag_96\n        /* \"#utility.yul\":1864:1870   */\n      dup2\n        /* \"#utility.yul\":1859:1862   */\n      dup6\n        /* \"#utility.yul\":1852:1856   */\n      0x20\n        /* \"#utility.yul\":1845:1850   */\n      dup7\n        /* \"#utility.yul\":1841:1857   */\n      add\n        /* \"#utility.yul\":1819:1871   */\n      tag_97\n      jump\t// in\n    tag_96:\n        /* \"#utility.yul\":1896:1925   */\n      tag_98\n        /* \"#utility.yul\":1918:1924   */\n      dup2\n        /* \"#utility.yul\":1896:1925   */\n      tag_99\n      jump\t// in\n    tag_98:\n        /* \"#utility.yul\":1891:1894   */\n      dup5\n        /* \"#utility.yul\":1887:1926   */\n      add\n        /* \"#utility.yul\":1880:1926   */\n      swap2\n      pop\n        /* \"#utility.yul\":1660:1932   */\n      pop\n      swap3\n      swap2\n      pop\n      pop\n      jump\t// out\n        /* \"#utility.yul\":1938:2260   */\n    tag_100:\n      0x00\n        /* \"#utility.yul\":2101:2168   */\n      tag_102\n        /* \"#utility.yul\":2165:2167   */\n      0x18\n        /* \"#utility.yul\":2160:2163   */\n      dup4\n        /* \"#utility.yul\":2101:2168   */\n      tag_95\n      jump\t// in\n    tag_102:\n        /* \"#utility.yul\":2094:2168   */\n      swap2\n      pop\n        /* \"#utility.yul\":2198:2224   */\n      0x4e6f7420696e766f6b656420627920746865206f776e65720000000000000000\n        /* \"#utility.yul\":2194:2195   */\n      0x00\n        /* \"#utility.yul\":2189:2192   */\n      dup4\n        /* \"#utility.yul\":2185:2196   */\n      add\n        /* \"#utility.yul\":2178:2225   */\n      mstore\n        /* \"#utility.yul\":2251:2253   */\n      0x20\n        /* \"#utility.yul\":2246:2249   */\n      dup3\n        /* \"#utility.yul\":2242:2254   */\n      add\n        /* \"#utility.yul\":2235:2254   */\n      swap1\n      pop\n        /* \"#utility.yul\":2084:2260   */\n      swap2\n      swap1\n      pop\n      jump\t// out\n        /* \"#utility.yul\":2324:2653   */\n    tag_103:\n        /* \"#utility.yul\":2465:2469   */\n      0x20\n        /* \"#utility.yul\":2460:2463   */\n      dup3\n        /* \"#utility.yul\":2456:2470   */\n      add\n        /* \"#utility.yul\":2554:2558   */\n      0x00\n        /* \"#utility.yul\":2547:2552   */\n      dup3\n        /* \"#utility.yul\":2543:2559   */\n      add\n        /* \"#utility.yul\":2537:2560   */\n      mload\n        /* \"#utility.yul\":2573:2636   */\n      tag_105\n        /* \"#utility.yul\":2630:2634   */\n      0x00\n        /* \"#utility.yul\":2625:2628   */\n      dup6\n        /* \"#utility.yul\":2621:2635   */\n      add\n        /* \"#utility.yul\":2607:2619   */\n      dup3\n        /* \"#utility.yul\":2573:2636   */\n      tag_106\n      jump\t// in\n    tag_105:\n        /* \"#utility.yul\":2480:2646   */\n      pop\n        /* \"#utility.yul\":2434:2653   */\n      pop\n      pop\n      pop\n      jump\t// out\n        /* \"#utility.yul\":2659:2767   */\n    tag_106:\n        /* \"#utility.yul\":2736:2760   */\n      tag_108\n        /* \"#utility.yul\":2754:2759   */\n      dup2\n        /* \"#utility.yul\":2736:2760   */\n      tag_109\n      jump\t// in\n    tag_108:\n        /* \"#utility.yul\":2731:2734   */\n      dup3\n        /* \"#utility.yul\":2724:2761   */\n      mstore\n        /* \"#utility.yul\":2714:2767   */\n      pop\n      pop\n      jump\t// out\n        /* \"#utility.yul\":2773:2995   */\n    tag_24:\n      0x00\n        /* \"#utility.yul\":2904:2906   */\n      0x20\n        /* \"#utility.yul\":2893:2902   */\n      dup3\n        /* \"#utility.yul\":2889:2907   */\n      add\n        /* \"#utility.yul\":2881:2907   */\n      swap1\n      pop\n        /* \"#utility.yul\":2917:2988   */\n      tag_111\n        /* \"#utility.yul\":2985:2986   */\n      0x00\n        /* \"#utility.yul\":2974:2983   */\n      dup4\n        /* \"#utility.yul\":2970:2987   */\n      add\n        /* \"#utility.yul\":2961:2967   */\n      dup5\n        /* \"#utility.yul\":2917:2988   */\n      tag_86\n      jump\t// in\n    tag_111:\n        /* \"#utility.yul\":2871:2995   */\n      swap3\n      swap2\n      pop\n      pop\n      jump\t// out\n        /* \"#utility.yul\":3001:3512   */\n    tag_18:\n      0x00\n        /* \"#utility.yul\":3224:3226   */\n      0x40\n        /* \"#utility.yul\":3213:3222   */\n      dup3\n        /* \"#utility.yul\":3209:3227   */\n      add\n        /* \"#utility.yul\":3201:3227   */\n      swap1\n      pop\n        /* \"#utility.yul\":3273:3282   */\n      dup2\n        /* \"#utility.yul\":3267:3271   */\n      dup2\n        /* \"#utility.yul\":3263:3283   */\n      sub\n        /* \"#utility.yul\":3259:3260   */\n      0x00\n        /* \"#utility.yul\":3248:3257   */\n      dup4\n        /* \"#utility.yul\":3244:3261   */\n      add\n        /* \"#utility.yul\":3237:3284   */\n      mstore\n        /* \"#utility.yul\":3301:3379   */\n      tag_113\n        /* \"#utility.yul\":3374:3378   */\n      dup2\n        /* \"#utility.yul\":3365:3371   */\n      dup6\n        /* \"#utility.yul\":3301:3379   */\n      tag_90\n      jump\t// in\n    tag_113:\n        /* \"#utility.yul\":3293:3379   */\n      swap1\n      pop\n        /* \"#utility.yul\":3389:3505   */\n      tag_114\n        /* \"#utility.yul\":3501:3503   */\n      0x20\n        /* \"#utility.yul\":3490:3499   */\n      dup4\n        /* \"#utility.yul\":3486:3504   */\n      add\n        /* \"#utility.yul\":3477:3483   */\n      dup5\n        /* \"#utility.yul\":3389:3505   */\n      tag_103\n      jump\t// in\n    tag_114:\n        /* \"#utility.yul\":3191:3512   */\n      swap4\n      swap3\n      pop\n      pop\n      pop\n      jump\t// out\n        /* \"#utility.yul\":3518:3937   */\n    tag_32:\n      0x00\n        /* \"#utility.yul\":3722:3724   */\n      0x20\n        /* \"#utility.yul\":3711:3720   */\n      dup3\n        /* \"#utility.yul\":3707:3725   */\n      add\n        /* \"#utility.yul\":3699:3725   */\n      swap1\n      pop\n        /* \"#utility.yul\":3771:3780   */\n      dup2\n        /* \"#utility.yul\":3765:3769   */\n      dup2\n        /* \"#utility.yul\":3761:3781   */\n      sub\n        /* \"#utility.yul\":3757:3758   */\n      0x00\n        /* \"#utility.yul\":3746:3755   */\n      dup4\n        /* \"#utility.yul\":3742:3759   */\n      add\n        /* \"#utility.yul\":3735:3782   */\n      mstore\n        /* \"#utility.yul\":3799:3930   */\n      tag_116\n        /* \"#utility.yul\":3925:3929   */\n      dup2\n        /* \"#utility.yul\":3799:3930   */\n      tag_100\n      jump\t// in\n    tag_116:\n        /* \"#utility.yul\":3791:3930   */\n      swap1\n      pop\n        /* \"#utility.yul\":3689:3937   */\n      swap2\n      swap1\n      pop\n      jump\t// out\n        /* \"#utility.yul\":3943:4226   */\n    tag_67:\n      0x00\n        /* \"#utility.yul\":4009:4011   */\n      0x40\n        /* \"#utility.yul\":4003:4012   */\n      mload\n        /* \"#utility.yul\":3993:4012   */\n      swap1\n      pop\n        /* \"#utility.yul\":4051:4055   */\n      dup2\n        /* \"#utility.yul\":4043:4049   */\n      dup2\n        /* \"#utility.yul\":4039:4056   */\n      add\n        /* \"#utility.yul\":4158:4164   */\n      dup2\n        /* \"#utility.yul\":4146:4156   */\n      dup2\n        /* \"#utility.yul\":4143:4165   */\n      lt\n        /* \"#utility.yul\":4122:4140   */\n      0xffffffffffffffff\n        /* \"#utility.yul\":4110:4120   */\n      dup3\n        /* \"#utility.yul\":4107:4141   */\n      gt\n        /* \"#utility.yul\":4104:4166   */\n      or\n        /* \"#utility.yul\":4101:4103   */\n      iszero\n      tag_118\n      jumpi\n        /* \"#utility.yul\":4169:4187   */\n      tag_119\n      tag_120\n      jump\t// in\n    tag_119:\n        /* \"#utility.yul\":4101:4103   */\n    tag_118:\n        /* \"#utility.yul\":4209:4219   */\n      dup1\n        /* \"#utility.yul\":4205:4207   */\n      0x40\n        /* \"#utility.yul\":4198:4220   */\n      mstore\n        /* \"#utility.yul\":3983:4226   */\n      pop\n      swap2\n      swap1\n      pop\n      jump\t// out\n        /* \"#utility.yul\":4232:4564   */\n    tag_66:\n      0x00\n        /* \"#utility.yul\":4384:4402   */\n      0xffffffffffffffff\n        /* \"#utility.yul\":4376:4382   */\n      dup3\n        /* \"#utility.yul\":4373:4403   */\n      gt\n        /* \"#utility.yul\":4370:4372   */\n      iszero\n      tag_122\n      jumpi\n        /* \"#utility.yul\":4406:4424   */\n      tag_123\n      tag_120\n      jump\t// in\n    tag_123:\n        /* \"#utility.yul\":4370:4372   */\n    tag_122:\n        /* \"#utility.yul\":4491:4495   */\n      0x1f\n        /* \"#utility.yul\":4487:4496   */\n      not\n        /* \"#utility.yul\":4480:4484   */\n      0x1f\n        /* \"#utility.yul\":4472:4478   */\n      dup4\n        /* \"#utility.yul\":4468:4485   */\n      add\n        /* \"#utility.yul\":4464:4497   */\n      and\n        /* \"#utility.yul\":4456:4497   */\n      swap1\n      pop\n        /* \"#utility.yul\":4552:4556   */\n      0x20\n        /* \"#utility.yul\":4546:4550   */\n      dup2\n        /* \"#utility.yul\":4542:4557   */\n      add\n        /* \"#utility.yul\":4534:4557   */\n      swap1\n      pop\n        /* \"#utility.yul\":4299:4564   */\n      swap2\n      swap1\n      pop\n      jump\t// out\n        /* \"#utility.yul\":4570:4669   */\n    tag_93:\n      0x00\n        /* \"#utility.yul\":4656:4661   */\n      dup2\n        /* \"#utility.yul\":4650:4662   */\n      mload\n        /* \"#utility.yul\":4640:4662   */\n      swap1\n      pop\n        /* \"#utility.yul\":4629:4669   */\n      swap2\n      swap1\n      pop\n      jump\t// out\n        /* \"#utility.yul\":4675:4844   */\n    tag_95:\n      0x00\n        /* \"#utility.yul\":4793:4799   */\n      dup3\n        /* \"#utility.yul\":4788:4791   */\n      dup3\n        /* \"#utility.yul\":4781:4800   */\n      mstore\n        /* \"#utility.yul\":4833:4837   */\n      0x20\n        /* \"#utility.yul\":4828:4831   */\n      dup3\n        /* \"#utility.yul\":4824:4838   */\n      add\n        /* \"#utility.yul\":4809:4838   */\n      swap1\n      pop\n        /* \"#utility.yul\":4771:4844   */\n      swap3\n      swap2\n      pop\n      pop\n      jump\t// out\n        /* \"#utility.yul\":4850:4946   */\n    tag_89:\n      0x00\n        /* \"#utility.yul\":4916:4940   */\n      tag_127\n        /* \"#utility.yul\":4934:4939   */\n      dup3\n        /* \"#utility.yul\":4916:4940   */\n      tag_128\n      jump\t// in\n    tag_127:\n        /* \"#utility.yul\":4905:4940   */\n      swap1\n      pop\n        /* \"#utility.yul\":4895:4946   */\n      swap2\n      swap1\n      pop\n      jump\t// out\n        /* \"#utility.yul\":4952:5078   */\n    tag_128:\n      0x00\n        /* \"#utility.yul\":5029:5071   */\n      0xffffffffffffffffffffffffffffffffffffffff\n        /* \"#utility.yul\":5022:5027   */\n      dup3\n        /* \"#utility.yul\":5018:5072   */\n      and\n        /* \"#utility.yul\":5007:5072   */\n      swap1\n      pop\n        /* \"#utility.yul\":4997:5078   */\n      swap2\n      swap1\n      pop\n      jump\t// out\n        /* \"#utility.yul\":5084:5161   */\n    tag_109:\n      0x00\n        /* \"#utility.yul\":5150:5155   */\n      dup2\n        /* \"#utility.yul\":5139:5155   */\n      swap1\n      pop\n        /* \"#utility.yul\":5129:5161   */\n      swap2\n      swap1\n      pop\n      jump\t// out\n        /* \"#utility.yul\":5167:5321   */\n    tag_70:\n        /* \"#utility.yul\":5251:5257   */\n      dup3\n        /* \"#utility.yul\":5246:5249   */\n      dup2\n        /* \"#utility.yul\":5241:5244   */\n      dup4\n        /* \"#utility.yul\":5228:5258   */\n      calldatacopy\n        /* \"#utility.yul\":5313:5314   */\n      0x00\n        /* \"#utility.yul\":5304:5310   */\n      dup4\n        /* \"#utility.yul\":5299:5302   */\n      dup4\n        /* \"#utility.yul\":5295:5311   */\n      add\n        /* \"#utility.yul\":5288:5315   */\n      mstore\n        /* \"#utility.yul\":5218:5321   */\n      pop\n      pop\n      pop\n      jump\t// out\n        /* \"#utility.yul\":5327:5634   */\n    tag_97:\n        /* \"#utility.yul\":5395:5396   */\n      0x00\n        /* \"#utility.yul\":5405:5518   */\n    tag_133:\n        /* \"#utility.yul\":5419:5425   */\n      dup4\n        /* \"#utility.yul\":5416:5417   */\n      dup2\n        /* \"#utility.yul\":5413:5426   */\n      lt\n        /* \"#utility.yul\":5405:5518   */\n      iszero\n      tag_135\n      jumpi\n        /* \"#utility.yul\":5504:5505   */\n      dup1\n        /* \"#utility.yul\":5499:5502   */\n      dup3\n        /* \"#utility.yul\":5495:5506   */\n      add\n        /* \"#utility.yul\":5489:5507   */\n      mload\n        /* \"#utility.yul\":5485:5486   */\n      dup2\n        /* \"#utility.yul\":5480:5483   */\n      dup5\n        /* \"#utility.yul\":5476:5487   */\n      add\n        /* \"#utility.yul\":5469:5508   */\n      mstore\n        /* \"#utility.yul\":5441:5443   */\n      0x20\n        /* \"#utility.yul\":5438:5439   */\n      dup2\n        /* \"#utility.yul\":5434:5444   */\n      add\n        /* \"#utility.yul\":5429:5444   */\n      swap1\n      pop\n        /* \"#utility.yul\":5405:5518   */\n      jump(tag_133)\n    tag_135:\n        /* \"#utility.yul\":5536:5542   */\n      dup4\n        /* \"#utility.yul\":5533:5534   */\n      dup2\n        /* \"#utility.yul\":5530:5543   */\n      gt\n        /* \"#utility.yul\":5527:5529   */\n      iszero\n      tag_136\n      jumpi\n        /* \"#utility.yul\":5616:5617   */\n      0x00\n        /* \"#utility.yul\":5607:5613   */\n      dup5\n        /* \"#utility.yul\":5602:5605   */\n      dup5\n        /* \"#utility.yul\":5598:5614   */\n      add\n        /* \"#utility.yul\":5591:5618   */\n      mstore\n        /* \"#utility.yul\":5527:5529   */\n    tag_136:\n        /* \"#utility.yul\":5376:5634   */\n      pop\n      pop\n      pop\n      pop\n      jump\t// out\n        /* \"#utility.yul\":5640:5960   */\n    tag_42:\n      0x00\n        /* \"#utility.yul\":5721:5722   */\n      0x02\n        /* \"#utility.yul\":5715:5719   */\n      dup3\n        /* \"#utility.yul\":5711:5723   */\n      div\n        /* \"#utility.yul\":5701:5723   */\n      swap1\n      pop\n        /* \"#utility.yul\":5768:5769   */\n      0x01\n        /* \"#utility.yul\":5762:5766   */\n      dup3\n        /* \"#utility.yul\":5758:5770   */\n      and\n        /* \"#utility.yul\":5789:5807   */\n      dup1\n        /* \"#utility.yul\":5779:5781   */\n      tag_138\n      jumpi\n        /* \"#utility.yul\":5845:5849   */\n      0x7f\n        /* \"#utility.yul\":5837:5843   */\n      dup3\n        /* \"#utility.yul\":5833:5850   */\n      and\n        /* \"#utility.yul\":5823:5850   */\n      swap2\n      pop\n        /* \"#utility.yul\":5779:5781   */\n    tag_138:\n        /* \"#utility.yul\":5907:5909   */\n      0x20\n        /* \"#utility.yul\":5899:5905   */\n      dup3\n        /* \"#utility.yul\":5896:5910   */\n      lt\n        /* \"#utility.yul\":5876:5894   */\n      dup2\n        /* \"#utility.yul\":5873:5911   */\n      eq\n        /* \"#utility.yul\":5870:5872   */\n      iszero\n      tag_139\n      jumpi\n        /* \"#utility.yul\":5926:5944   */\n      tag_140\n      tag_141\n      jump\t// in\n    tag_140:\n        /* \"#utility.yul\":5870:5872   */\n    tag_139:\n        /* \"#utility.yul\":5691:5960   */\n      pop\n      swap2\n      swap1\n      pop\n      jump\t// out\n        /* \"#utility.yul\":5966:6146   */\n    tag_141:\n        /* \"#utility.yul\":6014:6091   */\n      0x4e487b7100000000000000000000000000000000000000000000000000000000\n        /* \"#utility.yul\":6011:6012   */\n      0x00\n        /* \"#utility.yul\":6004:6092   */\n      mstore\n        /* \"#utility.yul\":6111:6115   */\n      0x22\n        /* \"#utility.yul\":6108:6109   */\n      0x04\n        /* \"#utility.yul\":6101:6116   */\n      mstore\n        /* \"#utility.yul\":6135:6139   */\n      0x24\n        /* \"#utility.yul\":6132:6133   */\n      0x00\n        /* \"#utility.yul\":6125:6140   */\n      revert\n        /* \"#utility.yul\":6152:6332   */\n    tag_120:\n        /* \"#utility.yul\":6200:6277   */\n      0x4e487b7100000000000000000000000000000000000000000000000000000000\n        /* \"#utility.yul\":6197:6198   */\n      0x00\n        /* \"#utility.yul\":6190:6278   */\n      mstore\n        /* \"#utility.yul\":6297:6301   */\n      0x41\n        /* \"#utility.yul\":6294:6295   */\n      0x04\n        /* \"#utility.yul\":6287:6302   */\n      mstore\n        /* \"#utility.yul\":6321:6325   */\n      0x24\n        /* \"#utility.yul\":6318:6319   */\n      0x00\n        /* \"#utility.yul\":6311:6326   */\n      revert\n        /* \"#utility.yul\":6338:6440   */\n    tag_99:\n      0x00\n        /* \"#utility.yul\":6430:6432   */\n      0x1f\n        /* \"#utility.yul\":6426:6433   */\n      not\n        /* \"#utility.yul\":6421:6423   */\n      0x1f\n        /* \"#utility.yul\":6414:6419   */\n      dup4\n        /* \"#utility.yul\":6410:6424   */\n      add\n        /* \"#utility.yul\":6406:6434   */\n      and\n        /* \"#utility.yul\":6396:6434   */\n      swap1\n      pop\n        /* \"#utility.yul\":6386:6440   */\n      swap2\n      swap1\n      pop\n      jump\t// out\n        /* \"#utility.yul\":6446:6568   */\n    tag_78:\n        /* \"#utility.yul\":6519:6543   */\n      tag_146\n        /* \"#utility.yul\":6537:6542   */\n      dup2\n        /* \"#utility.yul\":6519:6543   */\n      tag_109\n      jump\t// in\n    tag_146:\n        /* \"#utility.yul\":6512:6517   */\n      dup2\n        /* \"#utility.yul\":6509:6544   */\n      eq\n        /* \"#utility.yul\":6499:6501   */\n      tag_147\n      jumpi\n        /* \"#utility.yul\":6558:6559   */\n      0x00\n        /* \"#utility.yul\":6555:6556   */\n      dup1\n        /* \"#utility.yul\":6548:6560   */\n      revert\n        /* \"#utility.yul\":6499:6501   */\n    tag_147:\n        /* \"#utility.yul\":6489:6568   */\n      pop\n      jump\t// out\n\n    auxdata: 0xa26469706673582212208467122b6bd458ede448f839c954556c3439aa4d13e9aba89cc86a2a8635112764736f6c63430008000033\n}\n",
				"bytecode": {
					"linkReferences": {},
					"object": "608060405234801561001057600080fd5b50336000806101000a81548173ffffffffffffffffffffffffffffffffffffffff021916908373ffffffffffffffffffffffffffffffffffffffff1602179055506107b6806100606000396000f3fe608060405234801561001057600080fd5b50600436106100625760003560e01c806357a2b4d5146100675780636874404614610083578063772aaeb5146100b45780638da5cb5b146100be578063bc072787146100dc578063eef2dc68146100e6575b600080fd5b610081600480360381019061007c9190610445565b6100f0565b005b61009d60048036038101906100989190610486565b610215565b6040516100ab92919061057d565b60405180910390f35b6100bc6102e5565b005b6100c66102e7565b6040516100d39190610562565b60405180910390f35b6100e461030b565b005b6100ee61030d565b005b3373ffffffffffffffffffffffffffffffffffffffff1660008054906101000a900473ffffffffffffffffffffffffffffffffffffffff1673ffffffffffffffffffffffffffffffffffffffff161461017e576040517f08c379a0000000000000000000000000000000000000000000000000000000008152600401610175906105ad565b60405180910390fd5b600160405180604001604052808381526020016002604051806020016040529081600082015481525050815250908060018154018082558091505060019003906000526020600020906002020160009091909190915060008201518160000190805190602001906101f0929190610325565b506020820151816001016000820151816000015550505050610212600261030f565b50565b6001818154811061022557600080fd5b9060005260206000209060020201600091509050806000018054610248906106c8565b80601f0160208091040260200160405190810160405280929190818152602001828054610274906106c8565b80156102c15780601f10610296576101008083540402835291602001916102c1565b820191906000526020600020905b8154815290600101906020018083116102a457829003601f168201915b50505050509080600101604051806020016040529081600082015481525050905082565b565b60008054906101000a900473ffffffffffffffffffffffffffffffffffffffff1681565b565b565b6001816000016000828254019250508190555050565b828054610331906106c8565b90600052602060002090601f016020900481019282610353576000855561039a565b82601f1061036c57805160ff191683800117855561039a565b8280016001018555821561039a579182015b8281111561039957825182559160200191906001019061037e565b5b5090506103a791906103ab565b5090565b5b808211156103c45760008160009055506001016103ac565b5090565b60006103db6103d6846105fe565b6105cd565b9050828152602081018484840111156103f357600080fd5b6103fe848285610686565b509392505050565b600082601f83011261041757600080fd5b81356104278482602086016103c8565b91505092915050565b60008135905061043f81610769565b92915050565b60006020828403121561045757600080fd5b600082013567ffffffffffffffff81111561047157600080fd5b61047d84828501610406565b91505092915050565b60006020828403121561049857600080fd5b60006104a684828501610430565b91505092915050565b6104b88161064a565b82525050565b60006104c98261062e565b6104d38185610639565b93506104e3818560208601610695565b6104ec81610758565b840191505092915050565b6000610504601883610639565b91507f4e6f7420696e766f6b656420627920746865206f776e657200000000000000006000830152602082019050919050565b60208201600082015161054d6000850182610553565b50505050565b61055c8161067c565b82525050565b600060208201905061057760008301846104af565b92915050565b6000604082019050818103600083015261059781856104be565b90506105a66020830184610537565b9392505050565b600060208201905081810360008301526105c6816104f7565b9050919050565b6000604051905081810181811067ffffffffffffffff821117156105f4576105f3610729565b5b8060405250919050565b600067ffffffffffffffff82111561061957610618610729565b5b601f19601f8301169050602081019050919050565b600081519050919050565b600082825260208201905092915050565b60006106558261065c565b9050919050565b600073ffffffffffffffffffffffffffffffffffffffff82169050919050565b6000819050919050565b82818337600083830152505050565b60005b838110156106b3578082015181840152602081019050610698565b838111156106c2576000848401525b50505050565b600060028204905060018216806106e057607f821691505b602082108114156106f4576106f36106fa565b5b50919050565b7f4e487b7100000000000000000000000000000000000000000000000000000000600052602260045260246000fd5b7f4e487b7100000000000000000000000000000000000000000000000000000000600052604160045260246000fd5b6000601f19601f8301169050919050565b6107728161067c565b811461077d57600080fd5b5056fea26469706673582212208467122b6bd458ede448f839c954556c3439aa4d13e9aba89cc86a2a8635112764736f6c63430008000033",
					"opcodes": "PUSH1 0x80 PUSH1 0x40 MSTORE CALLVALUE DUP1 ISZERO PUSH2 0x10 JUMPI PUSH1 0x0 DUP1 REVERT JUMPDEST POP CALLER PUSH1 0x0 DUP1 PUSH2 0x100 EXP DUP2 SLOAD DUP2 PUSH20 0xFFFFFFFFFFFFFFFFFFFFFFFFFFFFFFFFFFFFFFFF MUL NOT AND SWAP1 DUP4 PUSH20 0xFFFFFFFFFFFFFFFFFFFFFFFFFFFFFFFFFFFFFFFF AND MUL OR SWAP1 SSTORE POP PUSH2 0x7B6 DUP1 PUSH2 0x60 PUSH1 0x0 CODECOPY PUSH1 0x0 RETURN INVALID PUSH1 0x80 PUSH1 0x40 MSTORE CALLVALUE DUP1 ISZERO PUSH2 0x10 JUMPI PUSH1 0x0 DUP1 REVERT JUMPDEST POP PUSH1 0x4 CALLDATASIZE LT PUSH2 0x62 JUMPI PUSH1 0x0 CALLDATALOAD PUSH1 0xE0 SHR DUP1 PUSH4 0x57A2B4D5 EQ PUSH2 0x67 JUMPI DUP1 PUSH4 0x68744046 EQ PUSH2 0x83 JUMPI DUP1 PUSH4 0x772AAEB5 EQ PUSH2 0xB4 JUMPI DUP1 PUSH4 0x8DA5CB5B EQ PUSH2 0xBE JUMPI DUP1 PUSH4 0xBC072787 EQ PUSH2 0xDC JUMPI DUP1 PUSH4 0xEEF2DC68 EQ PUSH2 0xE6 JUMPI JUMPDEST PUSH1 0x0 DUP1 REVERT JUMPDEST PUSH2 0x81 PUSH1 0x4 DUP1 CALLDATASIZE SUB DUP2 ADD SWAP1 PUSH2 0x7C SWAP2 SWAP1 PUSH2 0x445 JUMP JUMPDEST PUSH2 0xF0 JUMP JUMPDEST STOP JUMPDEST PUSH2 0x9D PUSH1 0x4 DUP1 CALLDATASIZE SUB DUP2 ADD SWAP1 PUSH2 0x98 SWAP2 SWAP1 PUSH2 0x486 JUMP JUMPDEST PUSH2 0x215 JUMP JUMPDEST PUSH1 0x40 MLOAD PUSH2 0xAB SWAP3 SWAP2 SWAP1 PUSH2 0x57D JUMP JUMPDEST PUSH1 0x40 MLOAD DUP1 SWAP2 SUB SWAP1 RETURN JUMPDEST PUSH2 0xBC PUSH2 0x2E5 JUMP JUMPDEST STOP JUMPDEST PUSH2 0xC6 PUSH2 0x2E7 JUMP JUMPDEST PUSH1 0x40 MLOAD PUSH2 0xD3 SWAP2 SWAP1 PUSH2 0x562 JUMP JUMPDEST PUSH1 0x40 MLOAD DUP1 SWAP2 SUB SWAP1 RETURN JUMPDEST PUSH2 0xE4 PUSH2 0x30B JUMP JUMPDEST STOP JUMPDEST PUSH2 0xEE PUSH2 0x30D JUMP JUMPDEST STOP JUMPDEST CALLER PUSH20 0xFFFFFFFFFFFFFFFFFFFFFFFFFFFFFFFFFFFFFFFF AND PUSH1 0x0 DUP1 SLOAD SWAP1 PUSH2 0x100 EXP SWAP1 DIV PUSH20 0xFFFFFFFFFFFFFFFFFFFFFFFFFFFFFFFFFFFFFFFF AND PUSH20 0xFFFFFFFFFFFFFFFFFFFFFFFFFFFFFFFFFFFFFFFF AND EQ PUSH2 0x17E JUMPI PUSH1 0x40 MLOAD PUSH32 0x8C379A000000000000000000000000000000000000000000000000000000000 DUP2 MSTORE PUSH1 0x4 ADD PUSH2 0x175 SWAP1 PUSH2 0x5AD JUMP JUMPDEST PUSH1 0x40 MLOAD DUP1 SWAP2 SUB SWAP1 REVERT JUMPDEST PUSH1 0x1 PUSH1 0x40 MLOAD DUP1 PUSH1 0x40 ADD PUSH1 0x40 MSTORE DUP1 DUP4 DUP2 MSTORE PUSH1 0x20 ADD PUSH1 0x2 PUSH1 0x40 MLOAD DUP1 PUSH1 0x20 ADD PUSH1 0x40 MSTORE SWAP1 DUP2 PUSH1 0x0 DUP3 ADD SLOAD DUP2 MSTORE POP POP DUP2 MSTORE POP SWAP1 DUP1 PUSH1 0x1 DUP2 SLOAD ADD DUP1 DUP3 SSTORE DUP1 SWAP2 POP POP PUSH1 0x1 SWAP1 SUB SWAP1 PUSH1 0x0 MSTORE PUSH1 0x20 PUSH1 0x0 KECCAK256 SWAP1 PUSH1 0x2 MUL ADD PUSH1 0x0 SWAP1 SWAP2 SWAP1 SWAP2 SWAP1 SWAP2 POP PUSH1 0x0 DUP3 ADD MLOAD DUP2 PUSH1 0x0 ADD SWAP1 DUP1 MLOAD SWAP1 PUSH1 0x20 ADD SWAP1 PUSH2 0x1F0 SWAP3 SWAP2 SWAP1 PUSH2 0x325 JUMP JUMPDEST POP PUSH1 0x20 DUP3 ADD MLOAD DUP2 PUSH1 0x1 ADD PUSH1 0x0 DUP3 ADD MLOAD DUP2 PUSH1 0x0 ADD SSTORE POP POP POP POP PUSH2 0x212 PUSH1 0x2 PUSH2 0x30F JUMP JUMPDEST POP JUMP JUMPDEST PUSH1 0x1 DUP2 DUP2 SLOAD DUP2 LT PUSH2 0x225 JUMPI PUSH1 0x0 DUP1 REVERT JUMPDEST SWAP1 PUSH1 0x0 MSTORE PUSH1 0x20 PUSH1 0x0 KECCAK256 SWAP1 PUSH1 0x2 MUL ADD PUSH1 0x0 SWAP2 POP SWAP1 POP DUP1 PUSH1 0x0 ADD DUP1 SLOAD PUSH2 0x248 SWAP1 PUSH2 0x6C8 JUMP JUMPDEST DUP1 PUSH1 0x1F ADD PUSH1 0x20 DUP1 SWAP2 DIV MUL PUSH1 0x20 ADD PUSH1 0x40 MLOAD SWAP1 DUP2 ADD PUSH1 0x40 MSTORE DUP1 SWAP3 SWAP2 SWAP1 DUP2 DUP2 MSTORE PUSH1 0x20 ADD DUP3 DUP1 SLOAD PUSH2 0x274 SWAP1 PUSH2 0x6C8 JUMP JUMPDEST DUP1 ISZERO PUSH2 0x2C1 JUMPI DUP1 PUSH1 0x1F LT PUSH2 0x296 JUMPI PUSH2 0x100 DUP1 DUP4 SLOAD DIV MUL DUP4 MSTORE SWAP2 PUSH1 0x20 ADD SWAP2 PUSH2 0x2C1 JUMP JUMPDEST DUP3 ADD SWAP2 SWAP1 PUSH1 0x0 MSTORE PUSH1 0x20 PUSH1 0x0 KECCAK256 SWAP1 JUMPDEST DUP2 SLOAD DUP2 MSTORE SWAP1 PUSH1 0x1 ADD SWAP1 PUSH1 0x20 ADD DUP1 DUP4 GT PUSH2 0x2A4 JUMPI DUP3 SWAP1 SUB PUSH1 0x1F AND DUP3 ADD SWAP2 JUMPDEST POP POP POP POP POP SWAP1 DUP1 PUSH1 0x1 ADD PUSH1 0x40 MLOAD DUP1 PUSH1 0x20 ADD PUSH1 0x40 MSTORE SWAP1 DUP2 PUSH1 0x0 DUP3 ADD SLOAD DUP2 MSTORE POP POP SWAP1 POP DUP3 JUMP JUMPDEST JUMP JUMPDEST PUSH1 0x0 DUP1 SLOAD SWAP1 PUSH2 0x100 EXP SWAP1 DIV PUSH20 0xFFFFFFFFFFFFFFFFFFFFFFFFFFFFFFFFFFFFFFFF AND DUP2 JUMP JUMPDEST JUMP JUMPDEST JUMP JUMPDEST PUSH1 0x1 DUP2 PUSH1 0x0 ADD PUSH1 0x0 DUP3 DUP3 SLOAD ADD SWAP3 POP POP DUP2 SWAP1 SSTORE POP POP JUMP JUMPDEST DUP3 DUP1 SLOAD PUSH2 0x331 SWAP1 PUSH2 0x6C8 JUMP JUMPDEST SWAP1 PUSH1 0x0 MSTORE PUSH1 0x20 PUSH1 0x0 KECCAK256 SWAP1 PUSH1 0x1F ADD PUSH1 0x20 SWAP1 DIV DUP2 ADD SWAP3 DUP3 PUSH2 0x353 JUMPI PUSH1 0x0 DUP6 SSTORE PUSH2 0x39A JUMP JUMPDEST DUP3 PUSH1 0x1F LT PUSH2 0x36C JUMPI DUP1 MLOAD PUSH1 0xFF NOT AND DUP4 DUP1 ADD OR DUP6 SSTORE PUSH2 0x39A JUMP JUMPDEST DUP3 DUP1 ADD PUSH1 0x1 ADD DUP6 SSTORE DUP3 ISZERO PUSH2 0x39A JUMPI SWAP2 DUP3 ADD JUMPDEST DUP3 DUP2 GT ISZERO PUSH2 0x399 JUMPI DUP3 MLOAD DUP3 SSTORE SWAP2 PUSH1 0x20 ADD SWAP2 SWAP1 PUSH1 0x1 ADD SWAP1 PUSH2 0x37E JUMP JUMPDEST JUMPDEST POP SWAP1 POP PUSH2 0x3A7 SWAP2 SWAP1 PUSH2 0x3AB JUMP JUMPDEST POP SWAP1 JUMP JUMPDEST JUMPDEST DUP1 DUP3 GT ISZERO PUSH2 0x3C4 JUMPI PUSH1 0x0 DUP2 PUSH1 0x0 SWAP1 SSTORE POP PUSH1 0x1 ADD PUSH2 0x3AC JUMP JUMPDEST POP SWAP1 JUMP JUMPDEST PUSH1 0x0 PUSH2 0x3DB PUSH2 0x3D6 DUP5 PUSH2 0x5FE JUMP JUMPDEST PUSH2 0x5CD JUMP JUMPDEST SWAP1 POP DUP3 DUP2 MSTORE PUSH1 0x20 DUP2 ADD DUP5 DUP5 DUP5 ADD GT ISZERO PUSH2 0x3F3 JUMPI PUSH1 0x0 DUP1 REVERT JUMPDEST PUSH2 0x3FE DUP5 DUP3 DUP6 PUSH2 0x686 JUMP JUMPDEST POP SWAP4 SWAP3 POP POP POP JUMP JUMPDEST PUSH1 0x0 DUP3 PUSH1 0x1F DUP4 ADD SLT PUSH2 0x417 JUMPI PUSH1 0x0 DUP1 REVERT JUMPDEST DUP2 CALLDATALOAD PUSH2 0x427 DUP5 DUP3 PUSH1 0x20 DUP7 ADD PUSH2 0x3C8 JUMP JUMPDEST SWAP2 POP POP SWAP3 SWAP2 POP POP JUMP JUMPDEST PUSH1 0x0 DUP2 CALLDATALOAD SWAP1 POP PUSH2 0x43F DUP2 PUSH2 0x769 JUMP JUMPDEST SWAP3 SWAP2 POP POP JUMP JUMPDEST PUSH1 0x0 PUSH1 0x20 DUP3 DUP5 SUB SLT ISZERO PUSH2 0x457 JUMPI PUSH1 0x0 DUP1 REVERT JUMPDEST PUSH1 0x0 DUP3 ADD CALLDATALOAD PUSH8 0xFFFFFFFFFFFFFFFF DUP2 GT ISZERO PUSH2 0x471 JUMPI PUSH1 0x0 DUP1 REVERT JUMPDEST PUSH2 0x47D DUP5 DUP3 DUP6 ADD PUSH2 0x406 JUMP JUMPDEST SWAP2 POP POP SWAP3 SWAP2 POP POP JUMP JUMPDEST PUSH1 0x0 PUSH1 0x20 DUP3 DUP5 SUB SLT ISZERO PUSH2 0x498 JUMPI PUSH1 0x0 DUP1 REVERT JUMPDEST PUSH1 0x0 PUSH2 0x4A6 DUP5 DUP3 DUP6 ADD PUSH2 0x430 JUMP JUMPDEST SWAP2 POP POP SWAP3 SWAP2 POP POP JUMP JUMPDEST PUSH2 0x4B8 DUP2 PUSH2 0x64A JUMP JUMPDEST DUP3 MSTORE POP POP JUMP JUMPDEST PUSH1 0x0 PUSH2 0x4C9 DUP3 PUSH2 0x62E JUMP JUMPDEST PUSH2 0x4D3 DUP2 DUP6 PUSH2 0x639 JUMP JUMPDEST SWAP4 POP PUSH2 0x4E3 DUP2 DUP6 PUSH1 0x20 DUP7 ADD PUSH2 0x695 JUMP JUMPDEST PUSH2 0x4EC DUP2 PUSH2 0x758 JUMP JUMPDEST DUP5 ADD SWAP2 POP POP SWAP3 SWAP2 POP POP JUMP JUMPDEST PUSH1 0x0 PUSH2 0x504 PUSH1 0x18 DUP4 PUSH2 0x639 JUMP JUMPDEST SWAP2 POP PUSH32 0x4E6F7420696E766F6B656420627920746865206F776E65720000000000000000 PUSH1 0x0 DUP4 ADD MSTORE PUSH1 0x20 DUP3 ADD SWAP1 POP SWAP2 SWAP1 POP JUMP JUMPDEST PUSH1 0x20 DUP3 ADD PUSH1 0x0 DUP3 ADD MLOAD PUSH2 0x54D PUSH1 0x0 DUP6 ADD DUP3 PUSH2 0x553 JUMP JUMPDEST POP POP POP POP JUMP JUMPDEST PUSH2 0x55C DUP2 PUSH2 0x67C JUMP JUMPDEST DUP3 MSTORE POP POP JUMP JUMPDEST PUSH1 0x0 PUSH1 0x20 DUP3 ADD SWAP1 POP PUSH2 0x577 PUSH1 0x0 DUP4 ADD DUP5 PUSH2 0x4AF JUMP JUMPDEST SWAP3 SWAP2 POP POP JUMP JUMPDEST PUSH1 0x0 PUSH1 0x40 DUP3 ADD SWAP1 POP DUP2 DUP2 SUB PUSH1 0x0 DUP4 ADD MSTORE PUSH2 0x597 DUP2 DUP6 PUSH2 0x4BE JUMP JUMPDEST SWAP1 POP PUSH2 0x5A6 PUSH1 0x20 DUP4 ADD DUP5 PUSH2 0x537 JUMP JUMPDEST SWAP4 SWAP3 POP POP POP JUMP JUMPDEST PUSH1 0x0 PUSH1 0x20 DUP3 ADD SWAP1 POP DUP2 DUP2 SUB PUSH1 0x0 DUP4 ADD MSTORE PUSH2 0x5C6 DUP2 PUSH2 0x4F7 JUMP JUMPDEST SWAP1 POP SWAP2 SWAP1 POP JUMP JUMPDEST PUSH1 0x0 PUSH1 0x40 MLOAD SWAP1 POP DUP2 DUP2 ADD DUP2 DUP2 LT PUSH8 0xFFFFFFFFFFFFFFFF DUP3 GT OR ISZERO PUSH2 0x5F4 JUMPI PUSH2 0x5F3 PUSH2 0x729 JUMP JUMPDEST JUMPDEST DUP1 PUSH1 0x40 MSTORE POP SWAP2 SWAP1 POP JUMP JUMPDEST PUSH1 0x0 PUSH8 0xFFFFFFFFFFFFFFFF DUP3 GT ISZERO PUSH2 0x619 JUMPI PUSH2 0x618 PUSH2 0x729 JUMP JUMPDEST JUMPDEST PUSH1 0x1F NOT PUSH1 0x1F DUP4 ADD AND SWAP1 POP PUSH1 0x20 DUP2 ADD SWAP1 POP SWAP2 SWAP1 POP JUMP JUMPDEST PUSH1 0x0 DUP2 MLOAD SWAP1 POP SWAP2 SWAP1 POP JUMP JUMPDEST PUSH1 0x0 DUP3 DUP3 MSTORE PUSH1 0x20 DUP3 ADD SWAP1 POP SWAP3 SWAP2 POP POP JUMP JUMPDEST PUSH1 0x0 PUSH2 0x655 DUP3 PUSH2 0x65C JUMP JUMPDEST SWAP1 POP SWAP2 SWAP1 POP JUMP JUMPDEST PUSH1 0x0 PUSH20 0xFFFFFFFFFFFFFFFFFFFFFFFFFFFFFFFFFFFFFFFF DUP3 AND SWAP1 POP SWAP2 SWAP1 POP JUMP JUMPDEST PUSH1 0x0 DUP2 SWAP1 POP SWAP2 SWAP1 POP JUMP JUMPDEST DUP3 DUP2 DUP4 CALLDATACOPY PUSH1 0x0 DUP4 DUP4 ADD MSTORE POP POP POP JUMP JUMPDEST PUSH1 0x0 JUMPDEST DUP4 DUP2 LT ISZERO PUSH2 0x6B3 JUMPI DUP1 DUP3 ADD MLOAD DUP2 DUP5 ADD MSTORE PUSH1 0x20 DUP2 ADD SWAP1 POP PUSH2 0x698 JUMP JUMPDEST DUP4 DUP2 GT ISZERO PUSH2 0x6C2 JUMPI PUSH1 0x0 DUP5 DUP5 ADD MSTORE JUMPDEST POP POP POP POP JUMP JUMPDEST PUSH1 0x0 PUSH1 0x2 DUP3 DIV SWAP1 POP PUSH1 0x1 DUP3 AND DUP1 PUSH2 0x6E0 JUMPI PUSH1 0x7F DUP3 AND SWAP2 POP JUMPDEST PUSH1 0x20 DUP3 LT DUP2 EQ ISZERO PUSH2 0x6F4 JUMPI PUSH2 0x6F3 PUSH2 0x6FA JUMP JUMPDEST JUMPDEST POP SWAP2 SWAP1 POP JUMP JUMPDEST PUSH32 0x4E487B7100000000000000000000000000000000000000000000000000000000 PUSH1 0x0 MSTORE PUSH1 0x22 PUSH1 0x4 MSTORE PUSH1 0x24 PUSH1 0x0 REVERT JUMPDEST PUSH32 0x4E487B7100000000000000000000000000000000000000000000000000000000 PUSH1 0x0 MSTORE PUSH1 0x41 PUSH1 0x4 MSTORE PUSH1 0x24 PUSH1 0x0 REVERT JUMPDEST PUSH1 0x0 PUSH1 0x1F NOT PUSH1 0x1F DUP4 ADD AND SWAP1 POP SWAP2 SWAP1 POP JUMP JUMPDEST PUSH2 0x772 DUP2 PUSH2 0x67C JUMP JUMPDEST DUP2 EQ PUSH2 0x77D JUMPI PUSH1 0x0 DUP1 REVERT JUMPDEST POP JUMP INVALID LOG2 PUSH5 0x6970667358 0x22 SLT KECCAK256 DUP5 PUSH8 0x122B6BD458EDE448 0xF8 CODECOPY 0xC9 SLOAD SSTORE PUSH13 0x3439AA4D13E9ABA89CC86A2A86 CALLDATALOAD GT 0x27 PUSH5 0x736F6C6343 STOP ADDMOD STOP STOP CALLER "
				},
				"gasEstimates": {
					"creation": {
						"codeDepositCost": "394800",
						"executionCost": "21296",
						"totalCost": "416096"
					},
					"external": {
						"addNewBook(string)": "infinite",
						"books(uint256)": "infinite",
						"borrowBook()": "232",
						"owner()": "1255",
						"returnBook()": "166",
						"seeRecord()": "210"
					}
				},
				"methodIdentifiers": {
					"addNewBook(string)": "57a2b4d5",
					"books(uint256)": "68744046",
					"borrowBook()": "eef2dc68",
					"owner()": "8da5cb5b",
					"returnBook()": "772aaeb5",
					"seeRecord()": "bc072787"
				}
			},
			"storageLayout": {
				"storage": [
					{
						"astId": 136,
						"contract": "contracts/Library.sol:Library",
						"label": "owner",
						"offset": 0,
						"slot": "0",
						"type": "t_address"
					},
					{
						"astId": 94,
						"contract": "contracts/Library.sol:Library",
						"label": "books",
						"offset": 0,
						"slot": "1",
						"type": "t_array(t_struct(Book)90_storage)dyn_storage"
					},
					{
						"astId": 97,
						"contract": "contracts/Library.sol:Library",
						"label": "id",
						"offset": 0,
						"slot": "2",
						"type": "t_struct(Counter)5_storage"
					}
				],
				"types": {
					"t_address": {
						"encoding": "inplace",
						"label": "address",
						"numberOfBytes": "20"
					},
					"t_array(t_struct(Book)90_storage)dyn_storage": {
						"base": "t_struct(Book)90_storage",
						"encoding": "dynamic_array",
						"label": "struct Library.Book[]",
						"numberOfBytes": "32"
					},
					"t_string_storage": {
						"encoding": "bytes",
						"label": "string",
						"numberOfBytes": "32"
					},
					"t_struct(Book)90_storage": {
						"encoding": "inplace",
						"label": "struct Library.Book",
						"members": [
							{
								"astId": 86,
								"contract": "contracts/Library.sol:Library",
								"label": "name",
								"offset": 0,
								"slot": "0",
								"type": "t_string_storage"
							},
							{
								"astId": 89,
								"contract": "contracts/Library.sol:Library",
								"label": "id",
								"offset": 0,
								"slot": "1",
								"type": "t_struct(Counter)5_storage"
							}
						],
						"numberOfBytes": "64"
					},
					"t_struct(Counter)5_storage": {
						"encoding": "inplace",
						"label": "struct Counters.Counter",
						"members": [
							{
								"astId": 4,
								"contract": "contracts/Library.sol:Library",
								"label": "_value",
								"offset": 0,
								"slot": "0",
								"type": "t_uint256"
							}
						],
						"numberOfBytes": "32"
					},
					"t_uint256": {
						"encoding": "inplace",
						"label": "uint256",
						"numberOfBytes": "32"
					}
				}
			},
			"userdoc": {
				"kind": "user",
				"methods": {},
				"version": 1
			}
		}
	}
}