{
	"contracts/Library.sol": {
		"Library": {
			"abi": [
				{
					"inputs": [
						{
							"internalType": "string",
							"name": "_name",
							"type": "string"
						}
					],
					"name": "addNewBook",
					"outputs": [],
					"stateMutability": "nonpayable",
					"type": "function"
				},
				{
					"inputs": [
						{
							"internalType": "uint256",
							"name": "",
							"type": "uint256"
						}
					],
					"name": "books",
					"outputs": [
						{
							"internalType": "string",
							"name": "name",
							"type": "string"
						},
						{
							"components": [
								{
									"internalType": "uint256",
									"name": "_value",
									"type": "uint256"
								}
							],
							"internalType": "struct Counters.Counter",
							"name": "id",
							"type": "tuple"
						}
					],
					"stateMutability": "view",
					"type": "function"
				},
				{
					"inputs": [],
					"name": "borrowBook",
					"outputs": [],
					"stateMutability": "nonpayable",
					"type": "function"
				},
				{
					"inputs": [],
					"name": "owner",
					"outputs": [
						{
							"internalType": "address",
							"name": "",
							"type": "address"
						}
					],
					"stateMutability": "view",
					"type": "function"
				},
				{
					"inputs": [],
					"name": "returnBook",
					"outputs": [],
					"stateMutability": "nonpayable",
					"type": "function"
				},
				{
					"inputs": [],
					"name": "seeRecord",
					"outputs": [
						{
							"components": [
								{
									"internalType": "string",
									"name": "name",
									"type": "string"
								},
								{
									"components": [
										{
											"internalType": "uint256",
											"name": "_value",
											"type": "uint256"
										}
									],
									"internalType": "struct Counters.Counter",
									"name": "id",
									"type": "tuple"
								}
							],
							"internalType": "struct Library.Book[]",
							"name": "",
							"type": "tuple[]"
						}
					],
					"stateMutability": "view",
					"type": "function"
				}
			],
			"devdoc": {
				"kind": "dev",
				"methods": {},
				"version": 1
			},
			"evm": {
				"assembly": "    /* \"contracts/Library.sol\":162:701  contract Library is Ownable {... */\n  mstore(0x40, 0x80)\n  callvalue\n  dup1\n  iszero\n  tag_1\n  jumpi\n  0x00\n  dup1\n  revert\ntag_1:\n  pop\n    /* \"contracts/Ownable.sol\":265:275  msg.sender */\n  caller\n    /* \"contracts/Ownable.sol\":257:262  owner */\n  0x00\n  dup1\n    /* \"contracts/Ownable.sol\":257:275  owner = msg.sender */\n  0x0100\n  exp\n  dup2\n  sload\n  dup2\n  0xffffffffffffffffffffffffffffffffffffffff\n  mul\n  not\n  and\n  swap1\n  dup4\n  0xffffffffffffffffffffffffffffffffffffffff\n  and\n  mul\n  or\n  swap1\n  sstore\n  pop\n    /* \"contracts/Library.sol\":162:701  contract Library is Ownable {... */\n  dataSize(sub_0)\n  dup1\n  dataOffset(sub_0)\n  0x00\n  codecopy\n  0x00\n  return\nstop\n\nsub_0: assembly {\n        /* \"contracts/Library.sol\":162:701  contract Library is Ownable {... */\n      mstore(0x40, 0x80)\n      callvalue\n      dup1\n      iszero\n      tag_1\n      jumpi\n      0x00\n      dup1\n      revert\n    tag_1:\n      pop\n      jumpi(tag_2, lt(calldatasize, 0x04))\n      shr(0xe0, calldataload(0x00))\n      dup1\n      0x57a2b4d5\n      eq\n      tag_3\n      jumpi\n      dup1\n      0x68744046\n      eq\n      tag_4\n      jumpi\n      dup1\n      0x772aaeb5\n      eq\n      tag_5\n      jumpi\n      dup1\n      0x8da5cb5b\n      eq\n      tag_6\n      jumpi\n      dup1\n      0xbc072787\n      eq\n      tag_7\n      jumpi\n      dup1\n      0xeef2dc68\n      eq\n      tag_8\n      jumpi\n    tag_2:\n      0x00\n      dup1\n      revert\n        /* \"contracts/Library.sol\":429:546  function addNewBook (string memory _name) external onlyOwner {... */\n    tag_3:\n      tag_9\n      0x04\n      dup1\n      calldatasize\n      sub\n      dup2\n      add\n      swap1\n      tag_10\n      swap2\n      swap1\n      tag_11\n      jump\t// in\n    tag_10:\n      tag_12\n      jump\t// in\n    tag_9:\n      stop\n        /* \"contracts/Library.sol\":378:397  Book[] public books */\n    tag_4:\n      tag_13\n      0x04\n      dup1\n      calldatasize\n      sub\n      dup2\n      add\n      swap1\n      tag_14\n      swap2\n      swap1\n      tag_15\n      jump\t// in\n    tag_14:\n      tag_16\n      jump\t// in\n    tag_13:\n      mload(0x40)\n      tag_17\n      swap3\n      swap2\n      swap1\n      tag_18\n      jump\t// in\n    tag_17:\n      mload(0x40)\n      dup1\n      swap2\n      sub\n      swap1\n      return\n        /* \"contracts/Library.sol\":584:618  function returnBook () public {... */\n    tag_5:\n      tag_19\n      tag_20\n      jump\t// in\n    tag_19:\n      stop\n        /* \"contracts/Ownable.sol\":87:107  address public owner */\n    tag_6:\n      tag_21\n      tag_22\n      jump\t// in\n    tag_21:\n      mload(0x40)\n      tag_23\n      swap2\n      swap1\n      tag_24\n      jump\t// in\n    tag_23:\n      mload(0x40)\n      dup1\n      swap2\n      sub\n      swap1\n      return\n        /* \"contracts/Library.sol\":620:698  function seeRecord () public view returns(Book[] memory) {... */\n    tag_7:\n      tag_25\n      tag_26\n      jump\t// in\n    tag_25:\n      mload(0x40)\n      tag_27\n      swap2\n      swap1\n      tag_28\n      jump\t// in\n    tag_27:\n      mload(0x40)\n      dup1\n      swap2\n      sub\n      swap1\n      return\n        /* \"contracts/Library.sol\":548:582  function borrowBook () public {... */\n    tag_8:\n      tag_29\n      tag_30\n      jump\t// in\n    tag_29:\n      stop\n        /* \"contracts/Library.sol\":429:546  function addNewBook (string memory _name) external onlyOwner {... */\n    tag_12:\n        /* \"contracts/Ownable.sol\":166:176  msg.sender */\n      caller\n        /* \"contracts/Ownable.sol\":157:176  owner == msg.sender */\n      0xffffffffffffffffffffffffffffffffffffffff\n      and\n        /* \"contracts/Ownable.sol\":157:162  owner */\n      0x00\n      dup1\n      sload\n      swap1\n      0x0100\n      exp\n      swap1\n      div\n      0xffffffffffffffffffffffffffffffffffffffff\n      and\n        /* \"contracts/Ownable.sol\":157:176  owner == msg.sender */\n      0xffffffffffffffffffffffffffffffffffffffff\n      and\n      eq\n        /* \"contracts/Ownable.sol\":149:205  require(owner == msg.sender, \"Not invoked by the owner\") */\n      tag_32\n      jumpi\n      mload(0x40)\n      0x08c379a000000000000000000000000000000000000000000000000000000000\n      dup2\n      mstore\n      0x04\n      add\n      tag_33\n      swap1\n      tag_34\n      jump\t// in\n    tag_33:\n      mload(0x40)\n      dup1\n      swap2\n      sub\n      swap1\n      revert\n    tag_32:\n        /* \"contracts/Library.sol\":496:501  books */\n      0x01\n        /* \"contracts/Library.sol\":507:522  Book(_name, id) */\n      mload(0x40)\n      dup1\n      0x40\n      add\n      0x40\n      mstore\n      dup1\n        /* \"contracts/Library.sol\":512:517  _name */\n      dup4\n        /* \"contracts/Library.sol\":507:522  Book(_name, id) */\n      dup2\n      mstore\n      0x20\n      add\n        /* \"contracts/Library.sol\":519:521  id */\n      0x02\n        /* \"contracts/Library.sol\":507:522  Book(_name, id) */\n      mload(0x40)\n      dup1\n      0x20\n      add\n      0x40\n      mstore\n      swap1\n      dup2\n      0x00\n      dup3\n      add\n      sload\n      dup2\n      mstore\n      pop\n      pop\n      dup2\n      mstore\n      pop\n        /* \"contracts/Library.sol\":496:523  books.push(Book(_name, id)) */\n      swap1\n      dup1\n      0x01\n      dup2\n      sload\n      add\n      dup1\n      dup3\n      sstore\n      dup1\n      swap2\n      pop\n      pop\n      0x01\n      swap1\n      sub\n      swap1\n      0x00\n      mstore\n      keccak256(0x00, 0x20)\n      swap1\n      0x02\n      mul\n      add\n      0x00\n      swap1\n      swap2\n      swap1\n      swap2\n      swap1\n      swap2\n      pop\n      0x00\n      dup3\n      add\n      mload\n      dup2\n      0x00\n      add\n      swap1\n      dup1\n      mload\n      swap1\n      0x20\n      add\n      swap1\n      tag_37\n      swap3\n      swap2\n      swap1\n      tag_38\n      jump\t// in\n    tag_37:\n      pop\n      0x20\n      dup3\n      add\n      mload\n      dup2\n      0x01\n      add\n      0x00\n      dup3\n      add\n      mload\n      dup2\n      0x00\n      add\n      sstore\n      pop\n      pop\n      pop\n      pop\n        /* \"contracts/Library.sol\":529:543  id.increment() */\n      tag_39\n        /* \"contracts/Library.sol\":529:531  id */\n      0x02\n        /* \"contracts/Library.sol\":529:541  id.increment */\n      tag_40\n        /* \"contracts/Library.sol\":529:543  id.increment() */\n      jump\t// in\n    tag_39:\n        /* \"contracts/Library.sol\":429:546  function addNewBook (string memory _name) external onlyOwner {... */\n      pop\n      jump\t// out\n        /* \"contracts/Library.sol\":378:397  Book[] public books */\n    tag_16:\n      0x01\n      dup2\n      dup2\n      sload\n      dup2\n      lt\n      tag_41\n      jumpi\n      0x00\n      dup1\n      revert\n    tag_41:\n      swap1\n      0x00\n      mstore\n      keccak256(0x00, 0x20)\n      swap1\n      0x02\n      mul\n      add\n      0x00\n      swap2\n      pop\n      swap1\n      pop\n      dup1\n      0x00\n      add\n      dup1\n      sload\n      tag_43\n      swap1\n      tag_44\n      jump\t// in\n    tag_43:\n      dup1\n      0x1f\n      add\n      0x20\n      dup1\n      swap2\n      div\n      mul\n      0x20\n      add\n      mload(0x40)\n      swap1\n      dup2\n      add\n      0x40\n      mstore\n      dup1\n      swap3\n      swap2\n      swap1\n      dup2\n      dup2\n      mstore\n      0x20\n      add\n      dup3\n      dup1\n      sload\n      tag_45\n      swap1\n      tag_44\n      jump\t// in\n    tag_45:\n      dup1\n      iszero\n      tag_46\n      jumpi\n      dup1\n      0x1f\n      lt\n      tag_47\n      jumpi\n      0x0100\n      dup1\n      dup4\n      sload\n      div\n      mul\n      dup4\n      mstore\n      swap2\n      0x20\n      add\n      swap2\n      jump(tag_46)\n    tag_47:\n      dup3\n      add\n      swap2\n      swap1\n      0x00\n      mstore\n      keccak256(0x00, 0x20)\n      swap1\n    tag_48:\n      dup2\n      sload\n      dup2\n      mstore\n      swap1\n      0x01\n      add\n      swap1\n      0x20\n      add\n      dup1\n      dup4\n      gt\n      tag_48\n      jumpi\n      dup3\n      swap1\n      sub\n      0x1f\n      and\n      dup3\n      add\n      swap2\n    tag_46:\n      pop\n      pop\n      pop\n      pop\n      pop\n      swap1\n      dup1\n      0x01\n      add\n      mload(0x40)\n      dup1\n      0x20\n      add\n      0x40\n      mstore\n      swap1\n      dup2\n      0x00\n      dup3\n      add\n      sload\n      dup2\n      mstore\n      pop\n      pop\n      swap1\n      pop\n      dup3\n      jump\t// out\n        /* \"contracts/Library.sol\":584:618  function returnBook () public {... */\n    tag_20:\n      jump\t// out\n        /* \"contracts/Ownable.sol\":87:107  address public owner */\n    tag_22:\n      0x00\n      dup1\n      sload\n      swap1\n      0x0100\n      exp\n      swap1\n      div\n      0xffffffffffffffffffffffffffffffffffffffff\n      and\n      dup2\n      jump\t// out\n        /* \"contracts/Library.sol\":620:698  function seeRecord () public view returns(Book[] memory) {... */\n    tag_26:\n        /* \"contracts/Library.sol\":662:675  Book[] memory */\n      0x60\n        /* \"contracts/Library.sol\":690:695  books */\n      0x01\n        /* \"contracts/Library.sol\":683:695  return books */\n      dup1\n      sload\n      dup1\n      0x20\n      mul\n      0x20\n      add\n      mload(0x40)\n      swap1\n      dup2\n      add\n      0x40\n      mstore\n      dup1\n      swap3\n      swap2\n      swap1\n      dup2\n      dup2\n      mstore\n      0x20\n      add\n      0x00\n      swap1\n    tag_51:\n      dup3\n      dup3\n      lt\n      iszero\n      tag_52\n      jumpi\n      dup4\n      dup3\n      swap1\n      0x00\n      mstore\n      keccak256(0x00, 0x20)\n      swap1\n      0x02\n      mul\n      add\n      mload(0x40)\n      dup1\n      0x40\n      add\n      0x40\n      mstore\n      swap1\n      dup2\n      0x00\n      dup3\n      add\n      dup1\n      sload\n      tag_54\n      swap1\n      tag_44\n      jump\t// in\n    tag_54:\n      dup1\n      0x1f\n      add\n      0x20\n      dup1\n      swap2\n      div\n      mul\n      0x20\n      add\n      mload(0x40)\n      swap1\n      dup2\n      add\n      0x40\n      mstore\n      dup1\n      swap3\n      swap2\n      swap1\n      dup2\n      dup2\n      mstore\n      0x20\n      add\n      dup3\n      dup1\n      sload\n      tag_55\n      swap1\n      tag_44\n      jump\t// in\n    tag_55:\n      dup1\n      iszero\n      tag_56\n      jumpi\n      dup1\n      0x1f\n      lt\n      tag_57\n      jumpi\n      0x0100\n      dup1\n      dup4\n      sload\n      div\n      mul\n      dup4\n      mstore\n      swap2\n      0x20\n      add\n      swap2\n      jump(tag_56)\n    tag_57:\n      dup3\n      add\n      swap2\n      swap1\n      0x00\n      mstore\n      keccak256(0x00, 0x20)\n      swap1\n    tag_58:\n      dup2\n      sload\n      dup2\n      mstore\n      swap1\n      0x01\n      add\n      swap1\n      0x20\n      add\n      dup1\n      dup4\n      gt\n      tag_58\n      jumpi\n      dup3\n      swap1\n      sub\n      0x1f\n      and\n      dup3\n      add\n      swap2\n    tag_56:\n      pop\n      pop\n      pop\n      pop\n      pop\n      dup2\n      mstore\n      0x20\n      add\n      0x01\n      dup3\n      add\n      mload(0x40)\n      dup1\n      0x20\n      add\n      0x40\n      mstore\n      swap1\n      dup2\n      0x00\n      dup3\n      add\n      sload\n      dup2\n      mstore\n      pop\n      pop\n      dup2\n      mstore\n      pop\n      pop\n      dup2\n      mstore\n      0x20\n      add\n      swap1\n      0x01\n      add\n      swap1\n      jump(tag_51)\n    tag_52:\n      pop\n      pop\n      pop\n      pop\n      swap1\n      pop\n        /* \"contracts/Library.sol\":620:698  function seeRecord () public view returns(Book[] memory) {... */\n      swap1\n      jump\t// out\n        /* \"contracts/Library.sol\":548:582  function borrowBook () public {... */\n    tag_30:\n      jump\t// out\n        /* \"@openzeppelin/contracts/utils/Counters.sol\":945:1068  function increment(Counter storage counter) internal {... */\n    tag_40:\n        /* \"@openzeppelin/contracts/utils/Counters.sol\":1050:1051  1 */\n      0x01\n        /* \"@openzeppelin/contracts/utils/Counters.sol\":1032:1039  counter */\n      dup2\n        /* \"@openzeppelin/contracts/utils/Counters.sol\":1032:1046  counter._value */\n      0x00\n      add\n      0x00\n        /* \"@openzeppelin/contracts/utils/Counters.sol\":1032:1051  counter._value += 1 */\n      dup3\n      dup3\n      sload\n      add\n      swap3\n      pop\n      pop\n      dup2\n      swap1\n      sstore\n      pop\n        /* \"@openzeppelin/contracts/utils/Counters.sol\":945:1068  function increment(Counter storage counter) internal {... */\n      pop\n      jump\t// out\n    tag_38:\n      dup3\n      dup1\n      sload\n      tag_61\n      swap1\n      tag_44\n      jump\t// in\n    tag_61:\n      swap1\n      0x00\n      mstore\n      keccak256(0x00, 0x20)\n      swap1\n      0x1f\n      add\n      0x20\n      swap1\n      div\n      dup2\n      add\n      swap3\n      dup3\n      tag_63\n      jumpi\n      0x00\n      dup6\n      sstore\n      jump(tag_62)\n    tag_63:\n      dup3\n      0x1f\n      lt\n      tag_64\n      jumpi\n      dup1\n      mload\n      not(0xff)\n      and\n      dup4\n      dup1\n      add\n      or\n      dup6\n      sstore\n      jump(tag_62)\n    tag_64:\n      dup3\n      dup1\n      add\n      0x01\n      add\n      dup6\n      sstore\n      dup3\n      iszero\n      tag_62\n      jumpi\n      swap2\n      dup3\n      add\n    tag_65:\n      dup3\n      dup2\n      gt\n      iszero\n      tag_66\n      jumpi\n      dup3\n      mload\n      dup3\n      sstore\n      swap2\n      0x20\n      add\n      swap2\n      swap1\n      0x01\n      add\n      swap1\n      jump(tag_65)\n    tag_66:\n    tag_62:\n      pop\n      swap1\n      pop\n      tag_67\n      swap2\n      swap1\n      tag_68\n      jump\t// in\n    tag_67:\n      pop\n      swap1\n      jump\t// out\n    tag_68:\n    tag_69:\n      dup1\n      dup3\n      gt\n      iszero\n      tag_70\n      jumpi\n      0x00\n      dup2\n      0x00\n      swap1\n      sstore\n      pop\n      0x01\n      add\n      jump(tag_69)\n    tag_70:\n      pop\n      swap1\n      jump\t// out\n        /* \"#utility.yul\":7:351   */\n    tag_72:\n      0x00\n        /* \"#utility.yul\":110:175   */\n      tag_74\n        /* \"#utility.yul\":125:174   */\n      tag_75\n        /* \"#utility.yul\":167:173   */\n      dup5\n        /* \"#utility.yul\":125:174   */\n      tag_76\n      jump\t// in\n    tag_75:\n        /* \"#utility.yul\":110:175   */\n      tag_77\n      jump\t// in\n    tag_74:\n        /* \"#utility.yul\":101:175   */\n      swap1\n      pop\n        /* \"#utility.yul\":198:204   */\n      dup3\n        /* \"#utility.yul\":191:196   */\n      dup2\n        /* \"#utility.yul\":184:205   */\n      mstore\n        /* \"#utility.yul\":236:240   */\n      0x20\n        /* \"#utility.yul\":229:234   */\n      dup2\n        /* \"#utility.yul\":225:241   */\n      add\n        /* \"#utility.yul\":274:277   */\n      dup5\n        /* \"#utility.yul\":265:271   */\n      dup5\n        /* \"#utility.yul\":260:263   */\n      dup5\n        /* \"#utility.yul\":256:272   */\n      add\n        /* \"#utility.yul\":253:278   */\n      gt\n        /* \"#utility.yul\":250:252   */\n      iszero\n      tag_78\n      jumpi\n        /* \"#utility.yul\":291:292   */\n      0x00\n        /* \"#utility.yul\":288:289   */\n      dup1\n        /* \"#utility.yul\":281:293   */\n      revert\n        /* \"#utility.yul\":250:252   */\n    tag_78:\n        /* \"#utility.yul\":304:345   */\n      tag_79\n        /* \"#utility.yul\":338:344   */\n      dup5\n        /* \"#utility.yul\":333:336   */\n      dup3\n        /* \"#utility.yul\":328:331   */\n      dup6\n        /* \"#utility.yul\":304:345   */\n      tag_80\n      jump\t// in\n    tag_79:\n        /* \"#utility.yul\":91:351   */\n      pop\n      swap4\n      swap3\n      pop\n      pop\n      pop\n      jump\t// out\n        /* \"#utility.yul\":371:644   */\n    tag_81:\n      0x00\n        /* \"#utility.yul\":476:479   */\n      dup3\n        /* \"#utility.yul\":469:473   */\n      0x1f\n        /* \"#utility.yul\":461:467   */\n      dup4\n        /* \"#utility.yul\":457:474   */\n      add\n        /* \"#utility.yul\":453:480   */\n      slt\n        /* \"#utility.yul\":443:445   */\n      tag_83\n      jumpi\n        /* \"#utility.yul\":494:495   */\n      0x00\n        /* \"#utility.yul\":491:492   */\n      dup1\n        /* \"#utility.yul\":484:496   */\n      revert\n        /* \"#utility.yul\":443:445   */\n    tag_83:\n        /* \"#utility.yul\":534:540   */\n      dup2\n        /* \"#utility.yul\":521:541   */\n      calldataload\n        /* \"#utility.yul\":559:638   */\n      tag_84\n        /* \"#utility.yul\":634:637   */\n      dup5\n        /* \"#utility.yul\":626:632   */\n      dup3\n        /* \"#utility.yul\":619:623   */\n      0x20\n        /* \"#utility.yul\":611:617   */\n      dup7\n        /* \"#utility.yul\":607:624   */\n      add\n        /* \"#utility.yul\":559:638   */\n      tag_72\n      jump\t// in\n    tag_84:\n        /* \"#utility.yul\":550:638   */\n      swap2\n      pop\n        /* \"#utility.yul\":433:644   */\n      pop\n      swap3\n      swap2\n      pop\n      pop\n      jump\t// out\n        /* \"#utility.yul\":650:789   */\n    tag_85:\n      0x00\n        /* \"#utility.yul\":734:740   */\n      dup2\n        /* \"#utility.yul\":721:741   */\n      calldataload\n        /* \"#utility.yul\":712:741   */\n      swap1\n      pop\n        /* \"#utility.yul\":750:783   */\n      tag_87\n        /* \"#utility.yul\":777:782   */\n      dup2\n        /* \"#utility.yul\":750:783   */\n      tag_88\n      jump\t// in\n    tag_87:\n        /* \"#utility.yul\":702:789   */\n      swap3\n      swap2\n      pop\n      pop\n      jump\t// out\n        /* \"#utility.yul\":795:1170   */\n    tag_11:\n      0x00\n        /* \"#utility.yul\":913:915   */\n      0x20\n        /* \"#utility.yul\":901:910   */\n      dup3\n        /* \"#utility.yul\":892:899   */\n      dup5\n        /* \"#utility.yul\":888:911   */\n      sub\n        /* \"#utility.yul\":884:916   */\n      slt\n        /* \"#utility.yul\":881:883   */\n      iszero\n      tag_90\n      jumpi\n        /* \"#utility.yul\":929:930   */\n      0x00\n        /* \"#utility.yul\":926:927   */\n      dup1\n        /* \"#utility.yul\":919:931   */\n      revert\n        /* \"#utility.yul\":881:883   */\n    tag_90:\n        /* \"#utility.yul\":1000:1001   */\n      0x00\n        /* \"#utility.yul\":989:998   */\n      dup3\n        /* \"#utility.yul\":985:1002   */\n      add\n        /* \"#utility.yul\":972:1003   */\n      calldataload\n        /* \"#utility.yul\":1030:1048   */\n      0xffffffffffffffff\n        /* \"#utility.yul\":1022:1028   */\n      dup2\n        /* \"#utility.yul\":1019:1049   */\n      gt\n        /* \"#utility.yul\":1016:1018   */\n      iszero\n      tag_91\n      jumpi\n        /* \"#utility.yul\":1062:1063   */\n      0x00\n        /* \"#utility.yul\":1059:1060   */\n      dup1\n        /* \"#utility.yul\":1052:1064   */\n      revert\n        /* \"#utility.yul\":1016:1018   */\n    tag_91:\n        /* \"#utility.yul\":1090:1153   */\n      tag_92\n        /* \"#utility.yul\":1145:1152   */\n      dup5\n        /* \"#utility.yul\":1136:1142   */\n      dup3\n        /* \"#utility.yul\":1125:1134   */\n      dup6\n        /* \"#utility.yul\":1121:1143   */\n      add\n        /* \"#utility.yul\":1090:1153   */\n      tag_81\n      jump\t// in\n    tag_92:\n        /* \"#utility.yul\":1080:1153   */\n      swap2\n      pop\n        /* \"#utility.yul\":943:1163   */\n      pop\n        /* \"#utility.yul\":871:1170   */\n      swap3\n      swap2\n      pop\n      pop\n      jump\t// out\n        /* \"#utility.yul\":1176:1438   */\n    tag_15:\n      0x00\n        /* \"#utility.yul\":1284:1286   */\n      0x20\n        /* \"#utility.yul\":1272:1281   */\n      dup3\n        /* \"#utility.yul\":1263:1270   */\n      dup5\n        /* \"#utility.yul\":1259:1282   */\n      sub\n        /* \"#utility.yul\":1255:1287   */\n      slt\n        /* \"#utility.yul\":1252:1254   */\n      iszero\n      tag_94\n      jumpi\n        /* \"#utility.yul\":1300:1301   */\n      0x00\n        /* \"#utility.yul\":1297:1298   */\n      dup1\n        /* \"#utility.yul\":1290:1302   */\n      revert\n        /* \"#utility.yul\":1252:1254   */\n    tag_94:\n        /* \"#utility.yul\":1343:1344   */\n      0x00\n        /* \"#utility.yul\":1368:1421   */\n      tag_95\n        /* \"#utility.yul\":1413:1420   */\n      dup5\n        /* \"#utility.yul\":1404:1410   */\n      dup3\n        /* \"#utility.yul\":1393:1402   */\n      dup6\n        /* \"#utility.yul\":1389:1411   */\n      add\n        /* \"#utility.yul\":1368:1421   */\n      tag_85\n      jump\t// in\n    tag_95:\n        /* \"#utility.yul\":1358:1421   */\n      swap2\n      pop\n        /* \"#utility.yul\":1314:1431   */\n      pop\n        /* \"#utility.yul\":1242:1438   */\n      swap3\n      swap2\n      pop\n      pop\n      jump\t// out\n        /* \"#utility.yul\":1444:1680   */\n    tag_96:\n      0x00\n        /* \"#utility.yul\":1588:1674   */\n      tag_98\n        /* \"#utility.yul\":1670:1673   */\n      dup4\n        /* \"#utility.yul\":1662:1668   */\n      dup4\n        /* \"#utility.yul\":1588:1674   */\n      tag_99\n      jump\t// in\n    tag_98:\n        /* \"#utility.yul\":1574:1674   */\n      swap1\n      pop\n        /* \"#utility.yul\":1564:1680   */\n      swap3\n      swap2\n      pop\n      pop\n      jump\t// out\n        /* \"#utility.yul\":1686:1804   */\n    tag_100:\n        /* \"#utility.yul\":1773:1797   */\n      tag_102\n        /* \"#utility.yul\":1791:1796   */\n      dup2\n        /* \"#utility.yul\":1773:1797   */\n      tag_103\n      jump\t// in\n    tag_102:\n        /* \"#utility.yul\":1768:1771   */\n      dup3\n        /* \"#utility.yul\":1761:1798   */\n      mstore\n        /* \"#utility.yul\":1751:1804   */\n      pop\n      pop\n      jump\t// out\n        /* \"#utility.yul\":1864:2935   */\n    tag_104:\n      0x00\n        /* \"#utility.yul\":2052:2126   */\n      tag_106\n        /* \"#utility.yul\":2120:2125   */\n      dup3\n        /* \"#utility.yul\":2052:2126   */\n      tag_107\n      jump\t// in\n    tag_106:\n        /* \"#utility.yul\":2142:2248   */\n      tag_108\n        /* \"#utility.yul\":2241:2247   */\n      dup2\n        /* \"#utility.yul\":2236:2239   */\n      dup6\n        /* \"#utility.yul\":2142:2248   */\n      tag_109\n      jump\t// in\n    tag_108:\n        /* \"#utility.yul\":2135:2248   */\n      swap4\n      pop\n        /* \"#utility.yul\":2274:2277   */\n      dup4\n        /* \"#utility.yul\":2319:2323   */\n      0x20\n        /* \"#utility.yul\":2311:2317   */\n      dup3\n        /* \"#utility.yul\":2307:2324   */\n      mul\n        /* \"#utility.yul\":2302:2305   */\n      dup6\n        /* \"#utility.yul\":2298:2325   */\n      add\n        /* \"#utility.yul\":2349:2425   */\n      tag_110\n        /* \"#utility.yul\":2419:2424   */\n      dup6\n        /* \"#utility.yul\":2349:2425   */\n      tag_111\n      jump\t// in\n    tag_110:\n        /* \"#utility.yul\":2448:2455   */\n      dup1\n        /* \"#utility.yul\":2479:2480   */\n      0x00\n        /* \"#utility.yul\":2464:2890   */\n    tag_112:\n        /* \"#utility.yul\":2489:2495   */\n      dup6\n        /* \"#utility.yul\":2486:2487   */\n      dup2\n        /* \"#utility.yul\":2483:2496   */\n      lt\n        /* \"#utility.yul\":2464:2890   */\n      iszero\n      tag_114\n      jumpi\n        /* \"#utility.yul\":2560:2569   */\n      dup5\n        /* \"#utility.yul\":2554:2558   */\n      dup5\n        /* \"#utility.yul\":2550:2570   */\n      sub\n        /* \"#utility.yul\":2545:2548   */\n      dup10\n        /* \"#utility.yul\":2538:2571   */\n      mstore\n        /* \"#utility.yul\":2611:2617   */\n      dup2\n        /* \"#utility.yul\":2605:2618   */\n      mload\n        /* \"#utility.yul\":2639:2743   */\n      tag_115\n        /* \"#utility.yul\":2738:2742   */\n      dup6\n        /* \"#utility.yul\":2723:2736   */\n      dup3\n        /* \"#utility.yul\":2639:2743   */\n      tag_96\n      jump\t// in\n    tag_115:\n        /* \"#utility.yul\":2631:2743   */\n      swap5\n      pop\n        /* \"#utility.yul\":2766:2846   */\n      tag_116\n        /* \"#utility.yul\":2839:2845   */\n      dup4\n        /* \"#utility.yul\":2766:2846   */\n      tag_117\n      jump\t// in\n    tag_116:\n        /* \"#utility.yul\":2756:2846   */\n      swap3\n      pop\n        /* \"#utility.yul\":2875:2879   */\n      0x20\n        /* \"#utility.yul\":2870:2873   */\n      dup11\n        /* \"#utility.yul\":2866:2880   */\n      add\n        /* \"#utility.yul\":2859:2880   */\n      swap10\n      pop\n        /* \"#utility.yul\":2524:2890   */\n      pop\n        /* \"#utility.yul\":2511:2512   */\n      0x01\n        /* \"#utility.yul\":2508:2509   */\n      dup2\n        /* \"#utility.yul\":2504:2513   */\n      add\n        /* \"#utility.yul\":2499:2513   */\n      swap1\n      pop\n        /* \"#utility.yul\":2464:2890   */\n      jump(tag_112)\n    tag_114:\n        /* \"#utility.yul\":2468:2482   */\n      pop\n        /* \"#utility.yul\":2906:2910   */\n      dup3\n        /* \"#utility.yul\":2899:2910   */\n      swap8\n      pop\n        /* \"#utility.yul\":2926:2929   */\n      dup8\n        /* \"#utility.yul\":2919:2929   */\n      swap6\n      pop\n        /* \"#utility.yul\":2028:2935   */\n      pop\n      pop\n      pop\n      pop\n      pop\n      swap3\n      swap2\n      pop\n      pop\n      jump\t// out\n        /* \"#utility.yul\":2941:3285   */\n    tag_118:\n      0x00\n        /* \"#utility.yul\":3047:3086   */\n      tag_120\n        /* \"#utility.yul\":3080:3085   */\n      dup3\n        /* \"#utility.yul\":3047:3086   */\n      tag_121\n      jump\t// in\n    tag_120:\n        /* \"#utility.yul\":3102:3163   */\n      tag_122\n        /* \"#utility.yul\":3156:3162   */\n      dup2\n        /* \"#utility.yul\":3151:3154   */\n      dup6\n        /* \"#utility.yul\":3102:3163   */\n      tag_123\n      jump\t// in\n    tag_122:\n        /* \"#utility.yul\":3095:3163   */\n      swap4\n      pop\n        /* \"#utility.yul\":3172:3224   */\n      tag_124\n        /* \"#utility.yul\":3217:3223   */\n      dup2\n        /* \"#utility.yul\":3212:3215   */\n      dup6\n        /* \"#utility.yul\":3205:3209   */\n      0x20\n        /* \"#utility.yul\":3198:3203   */\n      dup7\n        /* \"#utility.yul\":3194:3210   */\n      add\n        /* \"#utility.yul\":3172:3224   */\n      tag_125\n      jump\t// in\n    tag_124:\n        /* \"#utility.yul\":3249:3278   */\n      tag_126\n        /* \"#utility.yul\":3271:3277   */\n      dup2\n        /* \"#utility.yul\":3249:3278   */\n      tag_127\n      jump\t// in\n    tag_126:\n        /* \"#utility.yul\":3244:3247   */\n      dup5\n        /* \"#utility.yul\":3240:3279   */\n      add\n        /* \"#utility.yul\":3233:3279   */\n      swap2\n      pop\n        /* \"#utility.yul\":3023:3285   */\n      pop\n      swap3\n      swap2\n      pop\n      pop\n      jump\t// out\n        /* \"#utility.yul\":3291:3655   */\n    tag_128:\n      0x00\n        /* \"#utility.yul\":3407:3446   */\n      tag_130\n        /* \"#utility.yul\":3440:3445   */\n      dup3\n        /* \"#utility.yul\":3407:3446   */\n      tag_121\n      jump\t// in\n    tag_130:\n        /* \"#utility.yul\":3462:3533   */\n      tag_131\n        /* \"#utility.yul\":3526:3532   */\n      dup2\n        /* \"#utility.yul\":3521:3524   */\n      dup6\n        /* \"#utility.yul\":3462:3533   */\n      tag_132\n      jump\t// in\n    tag_131:\n        /* \"#utility.yul\":3455:3533   */\n      swap4\n      pop\n        /* \"#utility.yul\":3542:3594   */\n      tag_133\n        /* \"#utility.yul\":3587:3593   */\n      dup2\n        /* \"#utility.yul\":3582:3585   */\n      dup6\n        /* \"#utility.yul\":3575:3579   */\n      0x20\n        /* \"#utility.yul\":3568:3573   */\n      dup7\n        /* \"#utility.yul\":3564:3580   */\n      add\n        /* \"#utility.yul\":3542:3594   */\n      tag_125\n      jump\t// in\n    tag_133:\n        /* \"#utility.yul\":3619:3648   */\n      tag_134\n        /* \"#utility.yul\":3641:3647   */\n      dup2\n        /* \"#utility.yul\":3619:3648   */\n      tag_127\n      jump\t// in\n    tag_134:\n        /* \"#utility.yul\":3614:3617   */\n      dup5\n        /* \"#utility.yul\":3610:3649   */\n      add\n        /* \"#utility.yul\":3603:3649   */\n      swap2\n      pop\n        /* \"#utility.yul\":3383:3655   */\n      pop\n      swap3\n      swap2\n      pop\n      pop\n      jump\t// out\n        /* \"#utility.yul\":3661:3983   */\n    tag_135:\n      0x00\n        /* \"#utility.yul\":3824:3891   */\n      tag_137\n        /* \"#utility.yul\":3888:3890   */\n      0x18\n        /* \"#utility.yul\":3883:3886   */\n      dup4\n        /* \"#utility.yul\":3824:3891   */\n      tag_132\n      jump\t// in\n    tag_137:\n        /* \"#utility.yul\":3817:3891   */\n      swap2\n      pop\n        /* \"#utility.yul\":3921:3947   */\n      0x4e6f7420696e766f6b656420627920746865206f776e65720000000000000000\n        /* \"#utility.yul\":3917:3918   */\n      0x00\n        /* \"#utility.yul\":3912:3915   */\n      dup4\n        /* \"#utility.yul\":3908:3919   */\n      add\n        /* \"#utility.yul\":3901:3948   */\n      mstore\n        /* \"#utility.yul\":3974:3976   */\n      0x20\n        /* \"#utility.yul\":3969:3972   */\n      dup3\n        /* \"#utility.yul\":3965:3977   */\n      add\n        /* \"#utility.yul\":3958:3977   */\n      swap1\n      pop\n        /* \"#utility.yul\":3807:3983   */\n      swap2\n      swap1\n      pop\n      jump\t// out\n        /* \"#utility.yul\":4039:4667   */\n    tag_99:\n      0x00\n        /* \"#utility.yul\":4174:4178   */\n      0x40\n        /* \"#utility.yul\":4169:4172   */\n      dup4\n        /* \"#utility.yul\":4165:4179   */\n      add\n        /* \"#utility.yul\":4261:4265   */\n      0x00\n        /* \"#utility.yul\":4254:4259   */\n      dup4\n        /* \"#utility.yul\":4250:4266   */\n      add\n        /* \"#utility.yul\":4244:4267   */\n      mload\n        /* \"#utility.yul\":4314:4317   */\n      dup5\n        /* \"#utility.yul\":4308:4312   */\n      dup3\n        /* \"#utility.yul\":4304:4318   */\n      sub\n        /* \"#utility.yul\":4297:4301   */\n      0x00\n        /* \"#utility.yul\":4292:4295   */\n      dup7\n        /* \"#utility.yul\":4288:4302   */\n      add\n        /* \"#utility.yul\":4281:4319   */\n      mstore\n        /* \"#utility.yul\":4340:4413   */\n      tag_139\n        /* \"#utility.yul\":4408:4412   */\n      dup3\n        /* \"#utility.yul\":4394:4406   */\n      dup3\n        /* \"#utility.yul\":4340:4413   */\n      tag_118\n      jump\t// in\n    tag_139:\n        /* \"#utility.yul\":4332:4413   */\n      swap2\n      pop\n        /* \"#utility.yul\":4189:4424   */\n      pop\n        /* \"#utility.yul\":4504:4508   */\n      0x20\n        /* \"#utility.yul\":4497:4502   */\n      dup4\n        /* \"#utility.yul\":4493:4509   */\n      add\n        /* \"#utility.yul\":4487:4510   */\n      mload\n        /* \"#utility.yul\":4523:4630   */\n      tag_140\n        /* \"#utility.yul\":4624:4628   */\n      0x20\n        /* \"#utility.yul\":4619:4622   */\n      dup7\n        /* \"#utility.yul\":4615:4629   */\n      add\n        /* \"#utility.yul\":4601:4613   */\n      dup3\n        /* \"#utility.yul\":4523:4630   */\n      tag_141\n      jump\t// in\n    tag_140:\n        /* \"#utility.yul\":4434:4640   */\n      pop\n        /* \"#utility.yul\":4657:4661   */\n      dup1\n        /* \"#utility.yul\":4650:4661   */\n      swap2\n      pop\n        /* \"#utility.yul\":4143:4667   */\n      pop\n      swap3\n      swap2\n      pop\n      pop\n      jump\t// out\n        /* \"#utility.yul\":4731:5050   */\n    tag_141:\n        /* \"#utility.yul\":4862:4866   */\n      0x20\n        /* \"#utility.yul\":4857:4860   */\n      dup3\n        /* \"#utility.yul\":4853:4867   */\n      add\n        /* \"#utility.yul\":4951:4955   */\n      0x00\n        /* \"#utility.yul\":4944:4949   */\n      dup3\n        /* \"#utility.yul\":4940:4956   */\n      add\n        /* \"#utility.yul\":4934:4957   */\n      mload\n        /* \"#utility.yul\":4970:5033   */\n      tag_143\n        /* \"#utility.yul\":5027:5031   */\n      0x00\n        /* \"#utility.yul\":5022:5025   */\n      dup6\n        /* \"#utility.yul\":5018:5032   */\n      add\n        /* \"#utility.yul\":5004:5016   */\n      dup3\n        /* \"#utility.yul\":4970:5033   */\n      tag_144\n      jump\t// in\n    tag_143:\n        /* \"#utility.yul\":4877:5043   */\n      pop\n        /* \"#utility.yul\":4831:5050   */\n      pop\n      pop\n      pop\n      jump\t// out\n        /* \"#utility.yul\":5114:5443   */\n    tag_145:\n        /* \"#utility.yul\":5255:5259   */\n      0x20\n        /* \"#utility.yul\":5250:5253   */\n      dup3\n        /* \"#utility.yul\":5246:5260   */\n      add\n        /* \"#utility.yul\":5344:5348   */\n      0x00\n        /* \"#utility.yul\":5337:5342   */\n      dup3\n        /* \"#utility.yul\":5333:5349   */\n      add\n        /* \"#utility.yul\":5327:5350   */\n      mload\n        /* \"#utility.yul\":5363:5426   */\n      tag_147\n        /* \"#utility.yul\":5420:5424   */\n      0x00\n        /* \"#utility.yul\":5415:5418   */\n      dup6\n        /* \"#utility.yul\":5411:5425   */\n      add\n        /* \"#utility.yul\":5397:5409   */\n      dup3\n        /* \"#utility.yul\":5363:5426   */\n      tag_144\n      jump\t// in\n    tag_147:\n        /* \"#utility.yul\":5270:5436   */\n      pop\n        /* \"#utility.yul\":5224:5443   */\n      pop\n      pop\n      pop\n      jump\t// out\n        /* \"#utility.yul\":5449:5557   */\n    tag_144:\n        /* \"#utility.yul\":5526:5550   */\n      tag_149\n        /* \"#utility.yul\":5544:5549   */\n      dup2\n        /* \"#utility.yul\":5526:5550   */\n      tag_150\n      jump\t// in\n    tag_149:\n        /* \"#utility.yul\":5521:5524   */\n      dup3\n        /* \"#utility.yul\":5514:5551   */\n      mstore\n        /* \"#utility.yul\":5504:5557   */\n      pop\n      pop\n      jump\t// out\n        /* \"#utility.yul\":5563:5785   */\n    tag_24:\n      0x00\n        /* \"#utility.yul\":5694:5696   */\n      0x20\n        /* \"#utility.yul\":5683:5692   */\n      dup3\n        /* \"#utility.yul\":5679:5697   */\n      add\n        /* \"#utility.yul\":5671:5697   */\n      swap1\n      pop\n        /* \"#utility.yul\":5707:5778   */\n      tag_152\n        /* \"#utility.yul\":5775:5776   */\n      0x00\n        /* \"#utility.yul\":5764:5773   */\n      dup4\n        /* \"#utility.yul\":5760:5777   */\n      add\n        /* \"#utility.yul\":5751:5757   */\n      dup5\n        /* \"#utility.yul\":5707:5778   */\n      tag_100\n      jump\t// in\n    tag_152:\n        /* \"#utility.yul\":5661:5785   */\n      swap3\n      swap2\n      pop\n      pop\n      jump\t// out\n        /* \"#utility.yul\":5791:6244   */\n    tag_28:\n      0x00\n        /* \"#utility.yul\":6012:6014   */\n      0x20\n        /* \"#utility.yul\":6001:6010   */\n      dup3\n        /* \"#utility.yul\":5997:6015   */\n      add\n        /* \"#utility.yul\":5989:6015   */\n      swap1\n      pop\n        /* \"#utility.yul\":6061:6070   */\n      dup2\n        /* \"#utility.yul\":6055:6059   */\n      dup2\n        /* \"#utility.yul\":6051:6071   */\n      sub\n        /* \"#utility.yul\":6047:6048   */\n      0x00\n        /* \"#utility.yul\":6036:6045   */\n      dup4\n        /* \"#utility.yul\":6032:6049   */\n      add\n        /* \"#utility.yul\":6025:6072   */\n      mstore\n        /* \"#utility.yul\":6089:6237   */\n      tag_154\n        /* \"#utility.yul\":6232:6236   */\n      dup2\n        /* \"#utility.yul\":6223:6229   */\n      dup5\n        /* \"#utility.yul\":6089:6237   */\n      tag_104\n      jump\t// in\n    tag_154:\n        /* \"#utility.yul\":6081:6237   */\n      swap1\n      pop\n        /* \"#utility.yul\":5979:6244   */\n      swap3\n      swap2\n      pop\n      pop\n      jump\t// out\n        /* \"#utility.yul\":6250:6761   */\n    tag_18:\n      0x00\n        /* \"#utility.yul\":6473:6475   */\n      0x40\n        /* \"#utility.yul\":6462:6471   */\n      dup3\n        /* \"#utility.yul\":6458:6476   */\n      add\n        /* \"#utility.yul\":6450:6476   */\n      swap1\n      pop\n        /* \"#utility.yul\":6522:6531   */\n      dup2\n        /* \"#utility.yul\":6516:6520   */\n      dup2\n        /* \"#utility.yul\":6512:6532   */\n      sub\n        /* \"#utility.yul\":6508:6509   */\n      0x00\n        /* \"#utility.yul\":6497:6506   */\n      dup4\n        /* \"#utility.yul\":6493:6510   */\n      add\n        /* \"#utility.yul\":6486:6533   */\n      mstore\n        /* \"#utility.yul\":6550:6628   */\n      tag_156\n        /* \"#utility.yul\":6623:6627   */\n      dup2\n        /* \"#utility.yul\":6614:6620   */\n      dup6\n        /* \"#utility.yul\":6550:6628   */\n      tag_128\n      jump\t// in\n    tag_156:\n        /* \"#utility.yul\":6542:6628   */\n      swap1\n      pop\n        /* \"#utility.yul\":6638:6754   */\n      tag_157\n        /* \"#utility.yul\":6750:6752   */\n      0x20\n        /* \"#utility.yul\":6739:6748   */\n      dup4\n        /* \"#utility.yul\":6735:6753   */\n      add\n        /* \"#utility.yul\":6726:6732   */\n      dup5\n        /* \"#utility.yul\":6638:6754   */\n      tag_145\n      jump\t// in\n    tag_157:\n        /* \"#utility.yul\":6440:6761   */\n      swap4\n      swap3\n      pop\n      pop\n      pop\n      jump\t// out\n        /* \"#utility.yul\":6767:7186   */\n    tag_34:\n      0x00\n        /* \"#utility.yul\":6971:6973   */\n      0x20\n        /* \"#utility.yul\":6960:6969   */\n      dup3\n        /* \"#utility.yul\":6956:6974   */\n      add\n        /* \"#utility.yul\":6948:6974   */\n      swap1\n      pop\n        /* \"#utility.yul\":7020:7029   */\n      dup2\n        /* \"#utility.yul\":7014:7018   */\n      dup2\n        /* \"#utility.yul\":7010:7030   */\n      sub\n        /* \"#utility.yul\":7006:7007   */\n      0x00\n        /* \"#utility.yul\":6995:7004   */\n      dup4\n        /* \"#utility.yul\":6991:7008   */\n      add\n        /* \"#utility.yul\":6984:7031   */\n      mstore\n        /* \"#utility.yul\":7048:7179   */\n      tag_159\n        /* \"#utility.yul\":7174:7178   */\n      dup2\n        /* \"#utility.yul\":7048:7179   */\n      tag_135\n      jump\t// in\n    tag_159:\n        /* \"#utility.yul\":7040:7179   */\n      swap1\n      pop\n        /* \"#utility.yul\":6938:7186   */\n      swap2\n      swap1\n      pop\n      jump\t// out\n        /* \"#utility.yul\":7192:7475   */\n    tag_77:\n      0x00\n        /* \"#utility.yul\":7258:7260   */\n      0x40\n        /* \"#utility.yul\":7252:7261   */\n      mload\n        /* \"#utility.yul\":7242:7261   */\n      swap1\n      pop\n        /* \"#utility.yul\":7300:7304   */\n      dup2\n        /* \"#utility.yul\":7292:7298   */\n      dup2\n        /* \"#utility.yul\":7288:7305   */\n      add\n        /* \"#utility.yul\":7407:7413   */\n      dup2\n        /* \"#utility.yul\":7395:7405   */\n      dup2\n        /* \"#utility.yul\":7392:7414   */\n      lt\n        /* \"#utility.yul\":7371:7389   */\n      0xffffffffffffffff\n        /* \"#utility.yul\":7359:7369   */\n      dup3\n        /* \"#utility.yul\":7356:7390   */\n      gt\n        /* \"#utility.yul\":7353:7415   */\n      or\n        /* \"#utility.yul\":7350:7352   */\n      iszero\n      tag_161\n      jumpi\n        /* \"#utility.yul\":7418:7436   */\n      tag_162\n      tag_163\n      jump\t// in\n    tag_162:\n        /* \"#utility.yul\":7350:7352   */\n    tag_161:\n        /* \"#utility.yul\":7458:7468   */\n      dup1\n        /* \"#utility.yul\":7454:7456   */\n      0x40\n        /* \"#utility.yul\":7447:7469   */\n      mstore\n        /* \"#utility.yul\":7232:7475   */\n      pop\n      swap2\n      swap1\n      pop\n      jump\t// out\n        /* \"#utility.yul\":7481:7813   */\n    tag_76:\n      0x00\n        /* \"#utility.yul\":7633:7651   */\n      0xffffffffffffffff\n        /* \"#utility.yul\":7625:7631   */\n      dup3\n        /* \"#utility.yul\":7622:7652   */\n      gt\n        /* \"#utility.yul\":7619:7621   */\n      iszero\n      tag_165\n      jumpi\n        /* \"#utility.yul\":7655:7673   */\n      tag_166\n      tag_163\n      jump\t// in\n    tag_166:\n        /* \"#utility.yul\":7619:7621   */\n    tag_165:\n        /* \"#utility.yul\":7740:7744   */\n      0x1f\n        /* \"#utility.yul\":7736:7745   */\n      not\n        /* \"#utility.yul\":7729:7733   */\n      0x1f\n        /* \"#utility.yul\":7721:7727   */\n      dup4\n        /* \"#utility.yul\":7717:7734   */\n      add\n        /* \"#utility.yul\":7713:7746   */\n      and\n        /* \"#utility.yul\":7705:7746   */\n      swap1\n      pop\n        /* \"#utility.yul\":7801:7805   */\n      0x20\n        /* \"#utility.yul\":7795:7799   */\n      dup2\n        /* \"#utility.yul\":7791:7806   */\n      add\n        /* \"#utility.yul\":7783:7806   */\n      swap1\n      pop\n        /* \"#utility.yul\":7548:7813   */\n      swap2\n      swap1\n      pop\n      jump\t// out\n        /* \"#utility.yul\":7819:7971   */\n    tag_111:\n      0x00\n        /* \"#utility.yul\":7929:7932   */\n      dup2\n        /* \"#utility.yul\":7921:7932   */\n      swap1\n      pop\n        /* \"#utility.yul\":7959:7963   */\n      0x20\n        /* \"#utility.yul\":7954:7957   */\n      dup3\n        /* \"#utility.yul\":7950:7964   */\n      add\n        /* \"#utility.yul\":7942:7964   */\n      swap1\n      pop\n        /* \"#utility.yul\":7911:7971   */\n      swap2\n      swap1\n      pop\n      jump\t// out\n        /* \"#utility.yul\":7977:8111   */\n    tag_107:\n      0x00\n        /* \"#utility.yul\":8098:8103   */\n      dup2\n        /* \"#utility.yul\":8092:8104   */\n      mload\n        /* \"#utility.yul\":8082:8104   */\n      swap1\n      pop\n        /* \"#utility.yul\":8071:8111   */\n      swap2\n      swap1\n      pop\n      jump\t// out\n        /* \"#utility.yul\":8117:8216   */\n    tag_121:\n      0x00\n        /* \"#utility.yul\":8203:8208   */\n      dup2\n        /* \"#utility.yul\":8197:8209   */\n      mload\n        /* \"#utility.yul\":8187:8209   */\n      swap1\n      pop\n        /* \"#utility.yul\":8176:8216   */\n      swap2\n      swap1\n      pop\n      jump\t// out\n        /* \"#utility.yul\":8222:8355   */\n    tag_117:\n      0x00\n        /* \"#utility.yul\":8344:8348   */\n      0x20\n        /* \"#utility.yul\":8339:8342   */\n      dup3\n        /* \"#utility.yul\":8335:8349   */\n      add\n        /* \"#utility.yul\":8327:8349   */\n      swap1\n      pop\n        /* \"#utility.yul\":8317:8355   */\n      swap2\n      swap1\n      pop\n      jump\t// out\n        /* \"#utility.yul\":8361:8565   */\n    tag_109:\n      0x00\n        /* \"#utility.yul\":8514:8520   */\n      dup3\n        /* \"#utility.yul\":8509:8512   */\n      dup3\n        /* \"#utility.yul\":8502:8521   */\n      mstore\n        /* \"#utility.yul\":8554:8558   */\n      0x20\n        /* \"#utility.yul\":8549:8552   */\n      dup3\n        /* \"#utility.yul\":8545:8559   */\n      add\n        /* \"#utility.yul\":8530:8559   */\n      swap1\n      pop\n        /* \"#utility.yul\":8492:8565   */\n      swap3\n      swap2\n      pop\n      pop\n      jump\t// out\n        /* \"#utility.yul\":8571:8730   */\n    tag_123:\n      0x00\n        /* \"#utility.yul\":8679:8685   */\n      dup3\n        /* \"#utility.yul\":8674:8677   */\n      dup3\n        /* \"#utility.yul\":8667:8686   */\n      mstore\n        /* \"#utility.yul\":8719:8723   */\n      0x20\n        /* \"#utility.yul\":8714:8717   */\n      dup3\n        /* \"#utility.yul\":8710:8724   */\n      add\n        /* \"#utility.yul\":8695:8724   */\n      swap1\n      pop\n        /* \"#utility.yul\":8657:8730   */\n      swap3\n      swap2\n      pop\n      pop\n      jump\t// out\n        /* \"#utility.yul\":8736:8905   */\n    tag_132:\n      0x00\n        /* \"#utility.yul\":8854:8860   */\n      dup3\n        /* \"#utility.yul\":8849:8852   */\n      dup3\n        /* \"#utility.yul\":8842:8861   */\n      mstore\n        /* \"#utility.yul\":8894:8898   */\n      0x20\n        /* \"#utility.yul\":8889:8892   */\n      dup3\n        /* \"#utility.yul\":8885:8899   */\n      add\n        /* \"#utility.yul\":8870:8899   */\n      swap1\n      pop\n        /* \"#utility.yul\":8832:8905   */\n      swap3\n      swap2\n      pop\n      pop\n      jump\t// out\n        /* \"#utility.yul\":8911:9007   */\n    tag_103:\n      0x00\n        /* \"#utility.yul\":8977:9001   */\n      tag_175\n        /* \"#utility.yul\":8995:9000   */\n      dup3\n        /* \"#utility.yul\":8977:9001   */\n      tag_176\n      jump\t// in\n    tag_175:\n        /* \"#utility.yul\":8966:9001   */\n      swap1\n      pop\n        /* \"#utility.yul\":8956:9007   */\n      swap2\n      swap1\n      pop\n      jump\t// out\n        /* \"#utility.yul\":9013:9139   */\n    tag_176:\n      0x00\n        /* \"#utility.yul\":9090:9132   */\n      0xffffffffffffffffffffffffffffffffffffffff\n        /* \"#utility.yul\":9083:9088   */\n      dup3\n        /* \"#utility.yul\":9079:9133   */\n      and\n        /* \"#utility.yul\":9068:9133   */\n      swap1\n      pop\n        /* \"#utility.yul\":9058:9139   */\n      swap2\n      swap1\n      pop\n      jump\t// out\n        /* \"#utility.yul\":9145:9222   */\n    tag_150:\n      0x00\n        /* \"#utility.yul\":9211:9216   */\n      dup2\n        /* \"#utility.yul\":9200:9216   */\n      swap1\n      pop\n        /* \"#utility.yul\":9190:9222   */\n      swap2\n      swap1\n      pop\n      jump\t// out\n        /* \"#utility.yul\":9228:9382   */\n    tag_80:\n        /* \"#utility.yul\":9312:9318   */\n      dup3\n        /* \"#utility.yul\":9307:9310   */\n      dup2\n        /* \"#utility.yul\":9302:9305   */\n      dup4\n        /* \"#utility.yul\":9289:9319   */\n      calldatacopy\n        /* \"#utility.yul\":9374:9375   */\n      0x00\n        /* \"#utility.yul\":9365:9371   */\n      dup4\n        /* \"#utility.yul\":9360:9363   */\n      dup4\n        /* \"#utility.yul\":9356:9372   */\n      add\n        /* \"#utility.yul\":9349:9376   */\n      mstore\n        /* \"#utility.yul\":9279:9382   */\n      pop\n      pop\n      pop\n      jump\t// out\n        /* \"#utility.yul\":9388:9695   */\n    tag_125:\n        /* \"#utility.yul\":9456:9457   */\n      0x00\n        /* \"#utility.yul\":9466:9579   */\n    tag_181:\n        /* \"#utility.yul\":9480:9486   */\n      dup4\n        /* \"#utility.yul\":9477:9478   */\n      dup2\n        /* \"#utility.yul\":9474:9487   */\n      lt\n        /* \"#utility.yul\":9466:9579   */\n      iszero\n      tag_183\n      jumpi\n        /* \"#utility.yul\":9565:9566   */\n      dup1\n        /* \"#utility.yul\":9560:9563   */\n      dup3\n        /* \"#utility.yul\":9556:9567   */\n      add\n        /* \"#utility.yul\":9550:9568   */\n      mload\n        /* \"#utility.yul\":9546:9547   */\n      dup2\n        /* \"#utility.yul\":9541:9544   */\n      dup5\n        /* \"#utility.yul\":9537:9548   */\n      add\n        /* \"#utility.yul\":9530:9569   */\n      mstore\n        /* \"#utility.yul\":9502:9504   */\n      0x20\n        /* \"#utility.yul\":9499:9500   */\n      dup2\n        /* \"#utility.yul\":9495:9505   */\n      add\n        /* \"#utility.yul\":9490:9505   */\n      swap1\n      pop\n        /* \"#utility.yul\":9466:9579   */\n      jump(tag_181)\n    tag_183:\n        /* \"#utility.yul\":9597:9603   */\n      dup4\n        /* \"#utility.yul\":9594:9595   */\n      dup2\n        /* \"#utility.yul\":9591:9604   */\n      gt\n        /* \"#utility.yul\":9588:9590   */\n      iszero\n      tag_184\n      jumpi\n        /* \"#utility.yul\":9677:9678   */\n      0x00\n        /* \"#utility.yul\":9668:9674   */\n      dup5\n        /* \"#utility.yul\":9663:9666   */\n      dup5\n        /* \"#utility.yul\":9659:9675   */\n      add\n        /* \"#utility.yul\":9652:9679   */\n      mstore\n        /* \"#utility.yul\":9588:9590   */\n    tag_184:\n        /* \"#utility.yul\":9437:9695   */\n      pop\n      pop\n      pop\n      pop\n      jump\t// out\n        /* \"#utility.yul\":9701:10021   */\n    tag_44:\n      0x00\n        /* \"#utility.yul\":9782:9783   */\n      0x02\n        /* \"#utility.yul\":9776:9780   */\n      dup3\n        /* \"#utility.yul\":9772:9784   */\n      div\n        /* \"#utility.yul\":9762:9784   */\n      swap1\n      pop\n        /* \"#utility.yul\":9829:9830   */\n      0x01\n        /* \"#utility.yul\":9823:9827   */\n      dup3\n        /* \"#utility.yul\":9819:9831   */\n      and\n        /* \"#utility.yul\":9850:9868   */\n      dup1\n        /* \"#utility.yul\":9840:9842   */\n      tag_186\n      jumpi\n        /* \"#utility.yul\":9906:9910   */\n      0x7f\n        /* \"#utility.yul\":9898:9904   */\n      dup3\n        /* \"#utility.yul\":9894:9911   */\n      and\n        /* \"#utility.yul\":9884:9911   */\n      swap2\n      pop\n        /* \"#utility.yul\":9840:9842   */\n    tag_186:\n        /* \"#utility.yul\":9968:9970   */\n      0x20\n        /* \"#utility.yul\":9960:9966   */\n      dup3\n        /* \"#utility.yul\":9957:9971   */\n      lt\n        /* \"#utility.yul\":9937:9955   */\n      dup2\n        /* \"#utility.yul\":9934:9972   */\n      eq\n        /* \"#utility.yul\":9931:9933   */\n      iszero\n      tag_187\n      jumpi\n        /* \"#utility.yul\":9987:10005   */\n      tag_188\n      tag_189\n      jump\t// in\n    tag_188:\n        /* \"#utility.yul\":9931:9933   */\n    tag_187:\n        /* \"#utility.yul\":9752:10021   */\n      pop\n      swap2\n      swap1\n      pop\n      jump\t// out\n        /* \"#utility.yul\":10027:10207   */\n    tag_189:\n        /* \"#utility.yul\":10075:10152   */\n      0x4e487b7100000000000000000000000000000000000000000000000000000000\n        /* \"#utility.yul\":10072:10073   */\n      0x00\n        /* \"#utility.yul\":10065:10153   */\n      mstore\n        /* \"#utility.yul\":10172:10176   */\n      0x22\n        /* \"#utility.yul\":10169:10170   */\n      0x04\n        /* \"#utility.yul\":10162:10177   */\n      mstore\n        /* \"#utility.yul\":10196:10200   */\n      0x24\n        /* \"#utility.yul\":10193:10194   */\n      0x00\n        /* \"#utility.yul\":10186:10201   */\n      revert\n        /* \"#utility.yul\":10213:10393   */\n    tag_163:\n        /* \"#utility.yul\":10261:10338   */\n      0x4e487b7100000000000000000000000000000000000000000000000000000000\n        /* \"#utility.yul\":10258:10259   */\n      0x00\n        /* \"#utility.yul\":10251:10339   */\n      mstore\n        /* \"#utility.yul\":10358:10362   */\n      0x41\n        /* \"#utility.yul\":10355:10356   */\n      0x04\n        /* \"#utility.yul\":10348:10363   */\n      mstore\n        /* \"#utility.yul\":10382:10386   */\n      0x24\n        /* \"#utility.yul\":10379:10380   */\n      0x00\n        /* \"#utility.yul\":10372:10387   */\n      revert\n        /* \"#utility.yul\":10399:10501   */\n    tag_127:\n      0x00\n        /* \"#utility.yul\":10491:10493   */\n      0x1f\n        /* \"#utility.yul\":10487:10494   */\n      not\n        /* \"#utility.yul\":10482:10484   */\n      0x1f\n        /* \"#utility.yul\":10475:10480   */\n      dup4\n        /* \"#utility.yul\":10471:10485   */\n      add\n        /* \"#utility.yul\":10467:10495   */\n      and\n        /* \"#utility.yul\":10457:10495   */\n      swap1\n      pop\n        /* \"#utility.yul\":10447:10501   */\n      swap2\n      swap1\n      pop\n      jump\t// out\n        /* \"#utility.yul\":10507:10629   */\n    tag_88:\n        /* \"#utility.yul\":10580:10604   */\n      tag_194\n        /* \"#utility.yul\":10598:10603   */\n      dup2\n        /* \"#utility.yul\":10580:10604   */\n      tag_150\n      jump\t// in\n    tag_194:\n        /* \"#utility.yul\":10573:10578   */\n      dup2\n        /* \"#utility.yul\":10570:10605   */\n      eq\n        /* \"#utility.yul\":10560:10562   */\n      tag_195\n      jumpi\n        /* \"#utility.yul\":10619:10620   */\n      0x00\n        /* \"#utility.yul\":10616:10617   */\n      dup1\n        /* \"#utility.yul\":10609:10621   */\n      revert\n        /* \"#utility.yul\":10560:10562   */\n    tag_195:\n        /* \"#utility.yul\":10550:10629   */\n      pop\n      jump\t// out\n\n    auxdata: 0xa2646970667358221220a4d1271ad3c92b1b44b889cebda9df8072d46182960a1c1b0fab46d7a03b1e5c64736f6c63430008000033\n}\n",
				"bytecode": {
					"linkReferences": {},
					"object": "608060405234801561001057600080fd5b50336000806101000a81548173ffffffffffffffffffffffffffffffffffffffff021916908373ffffffffffffffffffffffffffffffffffffffff160217905550610a5e806100606000396000f3fe608060405234801561001057600080fd5b50600436106100625760003560e01c806357a2b4d5146100675780636874404614610083578063772aaeb5146100b45780638da5cb5b146100be578063bc072787146100dc578063eef2dc68146100fa575b600080fd5b610081600480360381019061007c9190610566565b610104565b005b61009d600480360381019061009891906105a7565b610229565b6040516100ab9291906107db565b60405180910390f35b6100bc6102f9565b005b6100c66102fb565b6040516100d3919061079e565b60405180910390f35b6100e461031f565b6040516100f191906107b9565b60405180910390f35b61010261042e565b005b3373ffffffffffffffffffffffffffffffffffffffff1660008054906101000a900473ffffffffffffffffffffffffffffffffffffffff1673ffffffffffffffffffffffffffffffffffffffff1614610192576040517f08c379a00000000000000000000000000000000000000000000000000000000081526004016101899061080b565b60405180910390fd5b60016040518060400160405280838152602001600260405180602001604052908160008201548152505081525090806001815401808255809150506001900390600052602060002090600202016000909190919091506000820151816000019080519060200190610204929190610446565b5060208201518160010160008201518160000155505050506102266002610430565b50565b6001818154811061023957600080fd5b906000526020600020906002020160009150905080600001805461025c90610970565b80601f016020809104026020016040519081016040528092919081815260200182805461028890610970565b80156102d55780601f106102aa576101008083540402835291602001916102d5565b820191906000526020600020905b8154815290600101906020018083116102b857829003601f168201915b50505050509080600101604051806020016040529081600082015481525050905082565b565b60008054906101000a900473ffffffffffffffffffffffffffffffffffffffff1681565b60606001805480602002602001604051908101604052809291908181526020016000905b82821015610425578382906000526020600020906002020160405180604001604052908160008201805461037690610970565b80601f01602080910402602001604051908101604052809291908181526020018280546103a290610970565b80156103ef5780601f106103c4576101008083540402835291602001916103ef565b820191906000526020600020905b8154815290600101906020018083116103d257829003601f168201915b50505050508152602001600182016040518060200160405290816000820154815250508152505081526020019060010190610343565b50505050905090565b565b6001816000016000828254019250508190555050565b82805461045290610970565b90600052602060002090601f01602090048101928261047457600085556104bb565b82601f1061048d57805160ff19168380011785556104bb565b828001600101855582156104bb579182015b828111156104ba57825182559160200191906001019061049f565b5b5090506104c891906104cc565b5090565b5b808211156104e55760008160009055506001016104cd565b5090565b60006104fc6104f78461085c565b61082b565b90508281526020810184848401111561051457600080fd5b61051f84828561092e565b509392505050565b600082601f83011261053857600080fd5b81356105488482602086016104e9565b91505092915050565b60008135905061056081610a11565b92915050565b60006020828403121561057857600080fd5b600082013567ffffffffffffffff81111561059257600080fd5b61059e84828501610527565b91505092915050565b6000602082840312156105b957600080fd5b60006105c784828501610551565b91505092915050565b60006105dc838361071a565b905092915050565b6105ed816108f2565b82525050565b60006105fe8261089c565b61060881856108bf565b93508360208202850161061a8561088c565b8060005b85811015610656578484038952815161063785826105d0565b9450610642836108b2565b925060208a0199505060018101905061061e565b50829750879550505050505092915050565b6000610673826108a7565b61067d81856108d0565b935061068d81856020860161093d565b61069681610a00565b840191505092915050565b60006106ac826108a7565b6106b681856108e1565b93506106c681856020860161093d565b6106cf81610a00565b840191505092915050565b60006106e76018836108e1565b91507f4e6f7420696e766f6b656420627920746865206f776e657200000000000000006000830152602082019050919050565b600060408301600083015184820360008601526107378282610668565b915050602083015161074c6020860182610757565b508091505092915050565b60208201600082015161076d600085018261078f565b50505050565b602082016000820151610789600085018261078f565b50505050565b61079881610924565b82525050565b60006020820190506107b360008301846105e4565b92915050565b600060208201905081810360008301526107d381846105f3565b905092915050565b600060408201905081810360008301526107f581856106a1565b90506108046020830184610773565b9392505050565b60006020820190508181036000830152610824816106da565b9050919050565b6000604051905081810181811067ffffffffffffffff82111715610852576108516109d1565b5b8060405250919050565b600067ffffffffffffffff821115610877576108766109d1565b5b601f19601f8301169050602081019050919050565b6000819050602082019050919050565b600081519050919050565b600081519050919050565b6000602082019050919050565b600082825260208201905092915050565b600082825260208201905092915050565b600082825260208201905092915050565b60006108fd82610904565b9050919050565b600073ffffffffffffffffffffffffffffffffffffffff82169050919050565b6000819050919050565b82818337600083830152505050565b60005b8381101561095b578082015181840152602081019050610940565b8381111561096a576000848401525b50505050565b6000600282049050600182168061098857607f821691505b6020821081141561099c5761099b6109a2565b5b50919050565b7f4e487b7100000000000000000000000000000000000000000000000000000000600052602260045260246000fd5b7f4e487b7100000000000000000000000000000000000000000000000000000000600052604160045260246000fd5b6000601f19601f8301169050919050565b610a1a81610924565b8114610a2557600080fd5b5056fea2646970667358221220a4d1271ad3c92b1b44b889cebda9df8072d46182960a1c1b0fab46d7a03b1e5c64736f6c63430008000033",
					"opcodes": "PUSH1 0x80 PUSH1 0x40 MSTORE CALLVALUE DUP1 ISZERO PUSH2 0x10 JUMPI PUSH1 0x0 DUP1 REVERT JUMPDEST POP CALLER PUSH1 0x0 DUP1 PUSH2 0x100 EXP DUP2 SLOAD DUP2 PUSH20 0xFFFFFFFFFFFFFFFFFFFFFFFFFFFFFFFFFFFFFFFF MUL NOT AND SWAP1 DUP4 PUSH20 0xFFFFFFFFFFFFFFFFFFFFFFFFFFFFFFFFFFFFFFFF AND MUL OR SWAP1 SSTORE POP PUSH2 0xA5E DUP1 PUSH2 0x60 PUSH1 0x0 CODECOPY PUSH1 0x0 RETURN INVALID PUSH1 0x80 PUSH1 0x40 MSTORE CALLVALUE DUP1 ISZERO PUSH2 0x10 JUMPI PUSH1 0x0 DUP1 REVERT JUMPDEST POP PUSH1 0x4 CALLDATASIZE LT PUSH2 0x62 JUMPI PUSH1 0x0 CALLDATALOAD PUSH1 0xE0 SHR DUP1 PUSH4 0x57A2B4D5 EQ PUSH2 0x67 JUMPI DUP1 PUSH4 0x68744046 EQ PUSH2 0x83 JUMPI DUP1 PUSH4 0x772AAEB5 EQ PUSH2 0xB4 JUMPI DUP1 PUSH4 0x8DA5CB5B EQ PUSH2 0xBE JUMPI DUP1 PUSH4 0xBC072787 EQ PUSH2 0xDC JUMPI DUP1 PUSH4 0xEEF2DC68 EQ PUSH2 0xFA JUMPI JUMPDEST PUSH1 0x0 DUP1 REVERT JUMPDEST PUSH2 0x81 PUSH1 0x4 DUP1 CALLDATASIZE SUB DUP2 ADD SWAP1 PUSH2 0x7C SWAP2 SWAP1 PUSH2 0x566 JUMP JUMPDEST PUSH2 0x104 JUMP JUMPDEST STOP JUMPDEST PUSH2 0x9D PUSH1 0x4 DUP1 CALLDATASIZE SUB DUP2 ADD SWAP1 PUSH2 0x98 SWAP2 SWAP1 PUSH2 0x5A7 JUMP JUMPDEST PUSH2 0x229 JUMP JUMPDEST PUSH1 0x40 MLOAD PUSH2 0xAB SWAP3 SWAP2 SWAP1 PUSH2 0x7DB JUMP JUMPDEST PUSH1 0x40 MLOAD DUP1 SWAP2 SUB SWAP1 RETURN JUMPDEST PUSH2 0xBC PUSH2 0x2F9 JUMP JUMPDEST STOP JUMPDEST PUSH2 0xC6 PUSH2 0x2FB JUMP JUMPDEST PUSH1 0x40 MLOAD PUSH2 0xD3 SWAP2 SWAP1 PUSH2 0x79E JUMP JUMPDEST PUSH1 0x40 MLOAD DUP1 SWAP2 SUB SWAP1 RETURN JUMPDEST PUSH2 0xE4 PUSH2 0x31F JUMP JUMPDEST PUSH1 0x40 MLOAD PUSH2 0xF1 SWAP2 SWAP1 PUSH2 0x7B9 JUMP JUMPDEST PUSH1 0x40 MLOAD DUP1 SWAP2 SUB SWAP1 RETURN JUMPDEST PUSH2 0x102 PUSH2 0x42E JUMP JUMPDEST STOP JUMPDEST CALLER PUSH20 0xFFFFFFFFFFFFFFFFFFFFFFFFFFFFFFFFFFFFFFFF AND PUSH1 0x0 DUP1 SLOAD SWAP1 PUSH2 0x100 EXP SWAP1 DIV PUSH20 0xFFFFFFFFFFFFFFFFFFFFFFFFFFFFFFFFFFFFFFFF AND PUSH20 0xFFFFFFFFFFFFFFFFFFFFFFFFFFFFFFFFFFFFFFFF AND EQ PUSH2 0x192 JUMPI PUSH1 0x40 MLOAD PUSH32 0x8C379A000000000000000000000000000000000000000000000000000000000 DUP2 MSTORE PUSH1 0x4 ADD PUSH2 0x189 SWAP1 PUSH2 0x80B JUMP JUMPDEST PUSH1 0x40 MLOAD DUP1 SWAP2 SUB SWAP1 REVERT JUMPDEST PUSH1 0x1 PUSH1 0x40 MLOAD DUP1 PUSH1 0x40 ADD PUSH1 0x40 MSTORE DUP1 DUP4 DUP2 MSTORE PUSH1 0x20 ADD PUSH1 0x2 PUSH1 0x40 MLOAD DUP1 PUSH1 0x20 ADD PUSH1 0x40 MSTORE SWAP1 DUP2 PUSH1 0x0 DUP3 ADD SLOAD DUP2 MSTORE POP POP DUP2 MSTORE POP SWAP1 DUP1 PUSH1 0x1 DUP2 SLOAD ADD DUP1 DUP3 SSTORE DUP1 SWAP2 POP POP PUSH1 0x1 SWAP1 SUB SWAP1 PUSH1 0x0 MSTORE PUSH1 0x20 PUSH1 0x0 KECCAK256 SWAP1 PUSH1 0x2 MUL ADD PUSH1 0x0 SWAP1 SWAP2 SWAP1 SWAP2 SWAP1 SWAP2 POP PUSH1 0x0 DUP3 ADD MLOAD DUP2 PUSH1 0x0 ADD SWAP1 DUP1 MLOAD SWAP1 PUSH1 0x20 ADD SWAP1 PUSH2 0x204 SWAP3 SWAP2 SWAP1 PUSH2 0x446 JUMP JUMPDEST POP PUSH1 0x20 DUP3 ADD MLOAD DUP2 PUSH1 0x1 ADD PUSH1 0x0 DUP3 ADD MLOAD DUP2 PUSH1 0x0 ADD SSTORE POP POP POP POP PUSH2 0x226 PUSH1 0x2 PUSH2 0x430 JUMP JUMPDEST POP JUMP JUMPDEST PUSH1 0x1 DUP2 DUP2 SLOAD DUP2 LT PUSH2 0x239 JUMPI PUSH1 0x0 DUP1 REVERT JUMPDEST SWAP1 PUSH1 0x0 MSTORE PUSH1 0x20 PUSH1 0x0 KECCAK256 SWAP1 PUSH1 0x2 MUL ADD PUSH1 0x0 SWAP2 POP SWAP1 POP DUP1 PUSH1 0x0 ADD DUP1 SLOAD PUSH2 0x25C SWAP1 PUSH2 0x970 JUMP JUMPDEST DUP1 PUSH1 0x1F ADD PUSH1 0x20 DUP1 SWAP2 DIV MUL PUSH1 0x20 ADD PUSH1 0x40 MLOAD SWAP1 DUP2 ADD PUSH1 0x40 MSTORE DUP1 SWAP3 SWAP2 SWAP1 DUP2 DUP2 MSTORE PUSH1 0x20 ADD DUP3 DUP1 SLOAD PUSH2 0x288 SWAP1 PUSH2 0x970 JUMP JUMPDEST DUP1 ISZERO PUSH2 0x2D5 JUMPI DUP1 PUSH1 0x1F LT PUSH2 0x2AA JUMPI PUSH2 0x100 DUP1 DUP4 SLOAD DIV MUL DUP4 MSTORE SWAP2 PUSH1 0x20 ADD SWAP2 PUSH2 0x2D5 JUMP JUMPDEST DUP3 ADD SWAP2 SWAP1 PUSH1 0x0 MSTORE PUSH1 0x20 PUSH1 0x0 KECCAK256 SWAP1 JUMPDEST DUP2 SLOAD DUP2 MSTORE SWAP1 PUSH1 0x1 ADD SWAP1 PUSH1 0x20 ADD DUP1 DUP4 GT PUSH2 0x2B8 JUMPI DUP3 SWAP1 SUB PUSH1 0x1F AND DUP3 ADD SWAP2 JUMPDEST POP POP POP POP POP SWAP1 DUP1 PUSH1 0x1 ADD PUSH1 0x40 MLOAD DUP1 PUSH1 0x20 ADD PUSH1 0x40 MSTORE SWAP1 DUP2 PUSH1 0x0 DUP3 ADD SLOAD DUP2 MSTORE POP POP SWAP1 POP DUP3 JUMP JUMPDEST JUMP JUMPDEST PUSH1 0x0 DUP1 SLOAD SWAP1 PUSH2 0x100 EXP SWAP1 DIV PUSH20 0xFFFFFFFFFFFFFFFFFFFFFFFFFFFFFFFFFFFFFFFF AND DUP2 JUMP JUMPDEST PUSH1 0x60 PUSH1 0x1 DUP1 SLOAD DUP1 PUSH1 0x20 MUL PUSH1 0x20 ADD PUSH1 0x40 MLOAD SWAP1 DUP2 ADD PUSH1 0x40 MSTORE DUP1 SWAP3 SWAP2 SWAP1 DUP2 DUP2 MSTORE PUSH1 0x20 ADD PUSH1 0x0 SWAP1 JUMPDEST DUP3 DUP3 LT ISZERO PUSH2 0x425 JUMPI DUP4 DUP3 SWAP1 PUSH1 0x0 MSTORE PUSH1 0x20 PUSH1 0x0 KECCAK256 SWAP1 PUSH1 0x2 MUL ADD PUSH1 0x40 MLOAD DUP1 PUSH1 0x40 ADD PUSH1 0x40 MSTORE SWAP1 DUP2 PUSH1 0x0 DUP3 ADD DUP1 SLOAD PUSH2 0x376 SWAP1 PUSH2 0x970 JUMP JUMPDEST DUP1 PUSH1 0x1F ADD PUSH1 0x20 DUP1 SWAP2 DIV MUL PUSH1 0x20 ADD PUSH1 0x40 MLOAD SWAP1 DUP2 ADD PUSH1 0x40 MSTORE DUP1 SWAP3 SWAP2 SWAP1 DUP2 DUP2 MSTORE PUSH1 0x20 ADD DUP3 DUP1 SLOAD PUSH2 0x3A2 SWAP1 PUSH2 0x970 JUMP JUMPDEST DUP1 ISZERO PUSH2 0x3EF JUMPI DUP1 PUSH1 0x1F LT PUSH2 0x3C4 JUMPI PUSH2 0x100 DUP1 DUP4 SLOAD DIV MUL DUP4 MSTORE SWAP2 PUSH1 0x20 ADD SWAP2 PUSH2 0x3EF JUMP JUMPDEST DUP3 ADD SWAP2 SWAP1 PUSH1 0x0 MSTORE PUSH1 0x20 PUSH1 0x0 KECCAK256 SWAP1 JUMPDEST DUP2 SLOAD DUP2 MSTORE SWAP1 PUSH1 0x1 ADD SWAP1 PUSH1 0x20 ADD DUP1 DUP4 GT PUSH2 0x3D2 JUMPI DUP3 SWAP1 SUB PUSH1 0x1F AND DUP3 ADD SWAP2 JUMPDEST POP POP POP POP POP DUP2 MSTORE PUSH1 0x20 ADD PUSH1 0x1 DUP3 ADD PUSH1 0x40 MLOAD DUP1 PUSH1 0x20 ADD PUSH1 0x40 MSTORE SWAP1 DUP2 PUSH1 0x0 DUP3 ADD SLOAD DUP2 MSTORE POP POP DUP2 MSTORE POP POP DUP2 MSTORE PUSH1 0x20 ADD SWAP1 PUSH1 0x1 ADD SWAP1 PUSH2 0x343 JUMP JUMPDEST POP POP POP POP SWAP1 POP SWAP1 JUMP JUMPDEST JUMP JUMPDEST PUSH1 0x1 DUP2 PUSH1 0x0 ADD PUSH1 0x0 DUP3 DUP3 SLOAD ADD SWAP3 POP POP DUP2 SWAP1 SSTORE POP POP JUMP JUMPDEST DUP3 DUP1 SLOAD PUSH2 0x452 SWAP1 PUSH2 0x970 JUMP JUMPDEST SWAP1 PUSH1 0x0 MSTORE PUSH1 0x20 PUSH1 0x0 KECCAK256 SWAP1 PUSH1 0x1F ADD PUSH1 0x20 SWAP1 DIV DUP2 ADD SWAP3 DUP3 PUSH2 0x474 JUMPI PUSH1 0x0 DUP6 SSTORE PUSH2 0x4BB JUMP JUMPDEST DUP3 PUSH1 0x1F LT PUSH2 0x48D JUMPI DUP1 MLOAD PUSH1 0xFF NOT AND DUP4 DUP1 ADD OR DUP6 SSTORE PUSH2 0x4BB JUMP JUMPDEST DUP3 DUP1 ADD PUSH1 0x1 ADD DUP6 SSTORE DUP3 ISZERO PUSH2 0x4BB JUMPI SWAP2 DUP3 ADD JUMPDEST DUP3 DUP2 GT ISZERO PUSH2 0x4BA JUMPI DUP3 MLOAD DUP3 SSTORE SWAP2 PUSH1 0x20 ADD SWAP2 SWAP1 PUSH1 0x1 ADD SWAP1 PUSH2 0x49F JUMP JUMPDEST JUMPDEST POP SWAP1 POP PUSH2 0x4C8 SWAP2 SWAP1 PUSH2 0x4CC JUMP JUMPDEST POP SWAP1 JUMP JUMPDEST JUMPDEST DUP1 DUP3 GT ISZERO PUSH2 0x4E5 JUMPI PUSH1 0x0 DUP2 PUSH1 0x0 SWAP1 SSTORE POP PUSH1 0x1 ADD PUSH2 0x4CD JUMP JUMPDEST POP SWAP1 JUMP JUMPDEST PUSH1 0x0 PUSH2 0x4FC PUSH2 0x4F7 DUP5 PUSH2 0x85C JUMP JUMPDEST PUSH2 0x82B JUMP JUMPDEST SWAP1 POP DUP3 DUP2 MSTORE PUSH1 0x20 DUP2 ADD DUP5 DUP5 DUP5 ADD GT ISZERO PUSH2 0x514 JUMPI PUSH1 0x0 DUP1 REVERT JUMPDEST PUSH2 0x51F DUP5 DUP3 DUP6 PUSH2 0x92E JUMP JUMPDEST POP SWAP4 SWAP3 POP POP POP JUMP JUMPDEST PUSH1 0x0 DUP3 PUSH1 0x1F DUP4 ADD SLT PUSH2 0x538 JUMPI PUSH1 0x0 DUP1 REVERT JUMPDEST DUP2 CALLDATALOAD PUSH2 0x548 DUP5 DUP3 PUSH1 0x20 DUP7 ADD PUSH2 0x4E9 JUMP JUMPDEST SWAP2 POP POP SWAP3 SWAP2 POP POP JUMP JUMPDEST PUSH1 0x0 DUP2 CALLDATALOAD SWAP1 POP PUSH2 0x560 DUP2 PUSH2 0xA11 JUMP JUMPDEST SWAP3 SWAP2 POP POP JUMP JUMPDEST PUSH1 0x0 PUSH1 0x20 DUP3 DUP5 SUB SLT ISZERO PUSH2 0x578 JUMPI PUSH1 0x0 DUP1 REVERT JUMPDEST PUSH1 0x0 DUP3 ADD CALLDATALOAD PUSH8 0xFFFFFFFFFFFFFFFF DUP2 GT ISZERO PUSH2 0x592 JUMPI PUSH1 0x0 DUP1 REVERT JUMPDEST PUSH2 0x59E DUP5 DUP3 DUP6 ADD PUSH2 0x527 JUMP JUMPDEST SWAP2 POP POP SWAP3 SWAP2 POP POP JUMP JUMPDEST PUSH1 0x0 PUSH1 0x20 DUP3 DUP5 SUB SLT ISZERO PUSH2 0x5B9 JUMPI PUSH1 0x0 DUP1 REVERT JUMPDEST PUSH1 0x0 PUSH2 0x5C7 DUP5 DUP3 DUP6 ADD PUSH2 0x551 JUMP JUMPDEST SWAP2 POP POP SWAP3 SWAP2 POP POP JUMP JUMPDEST PUSH1 0x0 PUSH2 0x5DC DUP4 DUP4 PUSH2 0x71A JUMP JUMPDEST SWAP1 POP SWAP3 SWAP2 POP POP JUMP JUMPDEST PUSH2 0x5ED DUP2 PUSH2 0x8F2 JUMP JUMPDEST DUP3 MSTORE POP POP JUMP JUMPDEST PUSH1 0x0 PUSH2 0x5FE DUP3 PUSH2 0x89C JUMP JUMPDEST PUSH2 0x608 DUP2 DUP6 PUSH2 0x8BF JUMP JUMPDEST SWAP4 POP DUP4 PUSH1 0x20 DUP3 MUL DUP6 ADD PUSH2 0x61A DUP6 PUSH2 0x88C JUMP JUMPDEST DUP1 PUSH1 0x0 JUMPDEST DUP6 DUP2 LT ISZERO PUSH2 0x656 JUMPI DUP5 DUP5 SUB DUP10 MSTORE DUP2 MLOAD PUSH2 0x637 DUP6 DUP3 PUSH2 0x5D0 JUMP JUMPDEST SWAP5 POP PUSH2 0x642 DUP4 PUSH2 0x8B2 JUMP JUMPDEST SWAP3 POP PUSH1 0x20 DUP11 ADD SWAP10 POP POP PUSH1 0x1 DUP2 ADD SWAP1 POP PUSH2 0x61E JUMP JUMPDEST POP DUP3 SWAP8 POP DUP8 SWAP6 POP POP POP POP POP POP SWAP3 SWAP2 POP POP JUMP JUMPDEST PUSH1 0x0 PUSH2 0x673 DUP3 PUSH2 0x8A7 JUMP JUMPDEST PUSH2 0x67D DUP2 DUP6 PUSH2 0x8D0 JUMP JUMPDEST SWAP4 POP PUSH2 0x68D DUP2 DUP6 PUSH1 0x20 DUP7 ADD PUSH2 0x93D JUMP JUMPDEST PUSH2 0x696 DUP2 PUSH2 0xA00 JUMP JUMPDEST DUP5 ADD SWAP2 POP POP SWAP3 SWAP2 POP POP JUMP JUMPDEST PUSH1 0x0 PUSH2 0x6AC DUP3 PUSH2 0x8A7 JUMP JUMPDEST PUSH2 0x6B6 DUP2 DUP6 PUSH2 0x8E1 JUMP JUMPDEST SWAP4 POP PUSH2 0x6C6 DUP2 DUP6 PUSH1 0x20 DUP7 ADD PUSH2 0x93D JUMP JUMPDEST PUSH2 0x6CF DUP2 PUSH2 0xA00 JUMP JUMPDEST DUP5 ADD SWAP2 POP POP SWAP3 SWAP2 POP POP JUMP JUMPDEST PUSH1 0x0 PUSH2 0x6E7 PUSH1 0x18 DUP4 PUSH2 0x8E1 JUMP JUMPDEST SWAP2 POP PUSH32 0x4E6F7420696E766F6B656420627920746865206F776E65720000000000000000 PUSH1 0x0 DUP4 ADD MSTORE PUSH1 0x20 DUP3 ADD SWAP1 POP SWAP2 SWAP1 POP JUMP JUMPDEST PUSH1 0x0 PUSH1 0x40 DUP4 ADD PUSH1 0x0 DUP4 ADD MLOAD DUP5 DUP3 SUB PUSH1 0x0 DUP7 ADD MSTORE PUSH2 0x737 DUP3 DUP3 PUSH2 0x668 JUMP JUMPDEST SWAP2 POP POP PUSH1 0x20 DUP4 ADD MLOAD PUSH2 0x74C PUSH1 0x20 DUP7 ADD DUP3 PUSH2 0x757 JUMP JUMPDEST POP DUP1 SWAP2 POP POP SWAP3 SWAP2 POP POP JUMP JUMPDEST PUSH1 0x20 DUP3 ADD PUSH1 0x0 DUP3 ADD MLOAD PUSH2 0x76D PUSH1 0x0 DUP6 ADD DUP3 PUSH2 0x78F JUMP JUMPDEST POP POP POP POP JUMP JUMPDEST PUSH1 0x20 DUP3 ADD PUSH1 0x0 DUP3 ADD MLOAD PUSH2 0x789 PUSH1 0x0 DUP6 ADD DUP3 PUSH2 0x78F JUMP JUMPDEST POP POP POP POP JUMP JUMPDEST PUSH2 0x798 DUP2 PUSH2 0x924 JUMP JUMPDEST DUP3 MSTORE POP POP JUMP JUMPDEST PUSH1 0x0 PUSH1 0x20 DUP3 ADD SWAP1 POP PUSH2 0x7B3 PUSH1 0x0 DUP4 ADD DUP5 PUSH2 0x5E4 JUMP JUMPDEST SWAP3 SWAP2 POP POP JUMP JUMPDEST PUSH1 0x0 PUSH1 0x20 DUP3 ADD SWAP1 POP DUP2 DUP2 SUB PUSH1 0x0 DUP4 ADD MSTORE PUSH2 0x7D3 DUP2 DUP5 PUSH2 0x5F3 JUMP JUMPDEST SWAP1 POP SWAP3 SWAP2 POP POP JUMP JUMPDEST PUSH1 0x0 PUSH1 0x40 DUP3 ADD SWAP1 POP DUP2 DUP2 SUB PUSH1 0x0 DUP4 ADD MSTORE PUSH2 0x7F5 DUP2 DUP6 PUSH2 0x6A1 JUMP JUMPDEST SWAP1 POP PUSH2 0x804 PUSH1 0x20 DUP4 ADD DUP5 PUSH2 0x773 JUMP JUMPDEST SWAP4 SWAP3 POP POP POP JUMP JUMPDEST PUSH1 0x0 PUSH1 0x20 DUP3 ADD SWAP1 POP DUP2 DUP2 SUB PUSH1 0x0 DUP4 ADD MSTORE PUSH2 0x824 DUP2 PUSH2 0x6DA JUMP JUMPDEST SWAP1 POP SWAP2 SWAP1 POP JUMP JUMPDEST PUSH1 0x0 PUSH1 0x40 MLOAD SWAP1 POP DUP2 DUP2 ADD DUP2 DUP2 LT PUSH8 0xFFFFFFFFFFFFFFFF DUP3 GT OR ISZERO PUSH2 0x852 JUMPI PUSH2 0x851 PUSH2 0x9D1 JUMP JUMPDEST JUMPDEST DUP1 PUSH1 0x40 MSTORE POP SWAP2 SWAP1 POP JUMP JUMPDEST PUSH1 0x0 PUSH8 0xFFFFFFFFFFFFFFFF DUP3 GT ISZERO PUSH2 0x877 JUMPI PUSH2 0x876 PUSH2 0x9D1 JUMP JUMPDEST JUMPDEST PUSH1 0x1F NOT PUSH1 0x1F DUP4 ADD AND SWAP1 POP PUSH1 0x20 DUP2 ADD SWAP1 POP SWAP2 SWAP1 POP JUMP JUMPDEST PUSH1 0x0 DUP2 SWAP1 POP PUSH1 0x20 DUP3 ADD SWAP1 POP SWAP2 SWAP1 POP JUMP JUMPDEST PUSH1 0x0 DUP2 MLOAD SWAP1 POP SWAP2 SWAP1 POP JUMP JUMPDEST PUSH1 0x0 DUP2 MLOAD SWAP1 POP SWAP2 SWAP1 POP JUMP JUMPDEST PUSH1 0x0 PUSH1 0x20 DUP3 ADD SWAP1 POP SWAP2 SWAP1 POP JUMP JUMPDEST PUSH1 0x0 DUP3 DUP3 MSTORE PUSH1 0x20 DUP3 ADD SWAP1 POP SWAP3 SWAP2 POP POP JUMP JUMPDEST PUSH1 0x0 DUP3 DUP3 MSTORE PUSH1 0x20 DUP3 ADD SWAP1 POP SWAP3 SWAP2 POP POP JUMP JUMPDEST PUSH1 0x0 DUP3 DUP3 MSTORE PUSH1 0x20 DUP3 ADD SWAP1 POP SWAP3 SWAP2 POP POP JUMP JUMPDEST PUSH1 0x0 PUSH2 0x8FD DUP3 PUSH2 0x904 JUMP JUMPDEST SWAP1 POP SWAP2 SWAP1 POP JUMP JUMPDEST PUSH1 0x0 PUSH20 0xFFFFFFFFFFFFFFFFFFFFFFFFFFFFFFFFFFFFFFFF DUP3 AND SWAP1 POP SWAP2 SWAP1 POP JUMP JUMPDEST PUSH1 0x0 DUP2 SWAP1 POP SWAP2 SWAP1 POP JUMP JUMPDEST DUP3 DUP2 DUP4 CALLDATACOPY PUSH1 0x0 DUP4 DUP4 ADD MSTORE POP POP POP JUMP JUMPDEST PUSH1 0x0 JUMPDEST DUP4 DUP2 LT ISZERO PUSH2 0x95B JUMPI DUP1 DUP3 ADD MLOAD DUP2 DUP5 ADD MSTORE PUSH1 0x20 DUP2 ADD SWAP1 POP PUSH2 0x940 JUMP JUMPDEST DUP4 DUP2 GT ISZERO PUSH2 0x96A JUMPI PUSH1 0x0 DUP5 DUP5 ADD MSTORE JUMPDEST POP POP POP POP JUMP JUMPDEST PUSH1 0x0 PUSH1 0x2 DUP3 DIV SWAP1 POP PUSH1 0x1 DUP3 AND DUP1 PUSH2 0x988 JUMPI PUSH1 0x7F DUP3 AND SWAP2 POP JUMPDEST PUSH1 0x20 DUP3 LT DUP2 EQ ISZERO PUSH2 0x99C JUMPI PUSH2 0x99B PUSH2 0x9A2 JUMP JUMPDEST JUMPDEST POP SWAP2 SWAP1 POP JUMP JUMPDEST PUSH32 0x4E487B7100000000000000000000000000000000000000000000000000000000 PUSH1 0x0 MSTORE PUSH1 0x22 PUSH1 0x4 MSTORE PUSH1 0x24 PUSH1 0x0 REVERT JUMPDEST PUSH32 0x4E487B7100000000000000000000000000000000000000000000000000000000 PUSH1 0x0 MSTORE PUSH1 0x41 PUSH1 0x4 MSTORE PUSH1 0x24 PUSH1 0x0 REVERT JUMPDEST PUSH1 0x0 PUSH1 0x1F NOT PUSH1 0x1F DUP4 ADD AND SWAP1 POP SWAP2 SWAP1 POP JUMP JUMPDEST PUSH2 0xA1A DUP2 PUSH2 0x924 JUMP JUMPDEST DUP2 EQ PUSH2 0xA25 JUMPI PUSH1 0x0 DUP1 REVERT JUMPDEST POP JUMP INVALID LOG2 PUSH5 0x6970667358 0x22 SLT KECCAK256 LOG4 0xD1 0x27 BYTE 0xD3 0xC9 0x2B SHL DIFFICULTY 0xB8 DUP10 0xCE 0xBD 0xA9 0xDF DUP1 PUSH19 0xD46182960A1C1B0FAB46D7A03B1E5C64736F6C PUSH4 0x43000800 STOP CALLER "
				},
				"gasEstimates": {
					"creation": {
						"codeDepositCost": "530800",
						"executionCost": "21428",
						"totalCost": "552228"
					},
					"external": {
						"addNewBook(string)": "infinite",
						"books(uint256)": "infinite",
						"borrowBook()": "232",
						"owner()": "1255",
						"returnBook()": "166",
						"seeRecord()": "infinite"
					}
				},
				"methodIdentifiers": {
					"addNewBook(string)": "57a2b4d5",
					"books(uint256)": "68744046",
					"borrowBook()": "eef2dc68",
					"owner()": "8da5cb5b",
					"returnBook()": "772aaeb5",
					"seeRecord()": "bc072787"
				}
			},
			"storageLayout": {
				"storage": [
					{
						"astId": 142,
						"contract": "contracts/Library.sol:Library",
						"label": "owner",
						"offset": 0,
						"slot": "0",
						"type": "t_address"
					},
					{
						"astId": 94,
						"contract": "contracts/Library.sol:Library",
						"label": "books",
						"offset": 0,
						"slot": "1",
						"type": "t_array(t_struct(Book)90_storage)dyn_storage"
					},
					{
						"astId": 97,
						"contract": "contracts/Library.sol:Library",
						"label": "id",
						"offset": 0,
						"slot": "2",
						"type": "t_struct(Counter)5_storage"
					}
				],
				"types": {
					"t_address": {
						"encoding": "inplace",
						"label": "address",
						"numberOfBytes": "20"
					},
					"t_array(t_struct(Book)90_storage)dyn_storage": {
						"base": "t_struct(Book)90_storage",
						"encoding": "dynamic_array",
						"label": "struct Library.Book[]",
						"numberOfBytes": "32"
					},
					"t_string_storage": {
						"encoding": "bytes",
						"label": "string",
						"numberOfBytes": "32"
					},
					"t_struct(Book)90_storage": {
						"encoding": "inplace",
						"label": "struct Library.Book",
						"members": [
							{
								"astId": 86,
								"contract": "contracts/Library.sol:Library",
								"label": "name",
								"offset": 0,
								"slot": "0",
								"type": "t_string_storage"
							},
							{
								"astId": 89,
								"contract": "contracts/Library.sol:Library",
								"label": "id",
								"offset": 0,
								"slot": "1",
								"type": "t_struct(Counter)5_storage"
							}
						],
						"numberOfBytes": "64"
					},
					"t_struct(Counter)5_storage": {
						"encoding": "inplace",
						"label": "struct Counters.Counter",
						"members": [
							{
								"astId": 4,
								"contract": "contracts/Library.sol:Library",
								"label": "_value",
								"offset": 0,
								"slot": "0",
								"type": "t_uint256"
							}
						],
						"numberOfBytes": "32"
					},
					"t_uint256": {
						"encoding": "inplace",
						"label": "uint256",
						"numberOfBytes": "32"
					}
				}
			},
			"userdoc": {
				"kind": "user",
				"methods": {},
				"version": 1
			}
		}
	}
}