{
	"contracts/Library.sol": {
		"Library": {
			"abi": [
				{
					"inputs": [
						{
							"internalType": "string",
							"name": "_name",
							"type": "string"
						}
					],
					"name": "addNewBook",
					"outputs": [],
					"stateMutability": "nonpayable",
					"type": "function"
				},
				{
					"inputs": [
						{
							"internalType": "uint256",
							"name": "",
							"type": "uint256"
						}
					],
					"name": "books",
					"outputs": [
						{
							"internalType": "string",
							"name": "name",
							"type": "string"
						},
						{
							"components": [
								{
									"internalType": "uint256",
									"name": "_value",
									"type": "uint256"
								}
							],
							"internalType": "struct Counters.Counter",
							"name": "id",
							"type": "tuple"
						},
						{
							"internalType": "address",
							"name": "user",
							"type": "address"
						}
					],
					"stateMutability": "view",
					"type": "function"
				},
				{
					"inputs": [
						{
							"internalType": "uint256",
							"name": "_id",
							"type": "uint256"
						}
					],
					"name": "borrowBook",
					"outputs": [],
					"stateMutability": "nonpayable",
					"type": "function"
				},
				{
					"inputs": [],
					"name": "owner",
					"outputs": [
						{
							"internalType": "address",
							"name": "",
							"type": "address"
						}
					],
					"stateMutability": "view",
					"type": "function"
				},
				{
					"inputs": [],
					"name": "returnBook",
					"outputs": [],
					"stateMutability": "nonpayable",
					"type": "function"
				},
				{
					"inputs": [],
					"name": "seeRecord",
					"outputs": [
						{
							"components": [
								{
									"internalType": "string",
									"name": "name",
									"type": "string"
								},
								{
									"components": [
										{
											"internalType": "uint256",
											"name": "_value",
											"type": "uint256"
										}
									],
									"internalType": "struct Counters.Counter",
									"name": "id",
									"type": "tuple"
								},
								{
									"internalType": "address",
									"name": "user",
									"type": "address"
								}
							],
							"internalType": "struct Library.Book[]",
							"name": "",
							"type": "tuple[]"
						}
					],
					"stateMutability": "view",
					"type": "function"
				}
			],
			"devdoc": {
				"kind": "dev",
				"methods": {},
				"version": 1
			},
			"evm": {
				"assembly": "    /* \"contracts/Library.sol\":162:771  contract Library is Ownable {... */\n  mstore(0x40, 0x80)\n  callvalue\n  dup1\n  iszero\n  tag_1\n  jumpi\n  0x00\n  dup1\n  revert\ntag_1:\n  pop\n    /* \"contracts/Ownable.sol\":265:275  msg.sender */\n  caller\n    /* \"contracts/Ownable.sol\":257:262  owner */\n  0x00\n  dup1\n    /* \"contracts/Ownable.sol\":257:275  owner = msg.sender */\n  0x0100\n  exp\n  dup2\n  sload\n  dup2\n  0xffffffffffffffffffffffffffffffffffffffff\n  mul\n  not\n  and\n  swap1\n  dup4\n  0xffffffffffffffffffffffffffffffffffffffff\n  and\n  mul\n  or\n  swap1\n  sstore\n  pop\n    /* \"contracts/Library.sol\":162:771  contract Library is Ownable {... */\n  dataSize(sub_0)\n  dup1\n  dataOffset(sub_0)\n  0x00\n  codecopy\n  0x00\n  return\nstop\n\nsub_0: assembly {\n        /* \"contracts/Library.sol\":162:771  contract Library is Ownable {... */\n      mstore(0x40, 0x80)\n      callvalue\n      dup1\n      iszero\n      tag_1\n      jumpi\n      0x00\n      dup1\n      revert\n    tag_1:\n      pop\n      jumpi(tag_2, lt(calldatasize, 0x04))\n      shr(0xe0, calldataload(0x00))\n      dup1\n      0x57a2b4d5\n      eq\n      tag_3\n      jumpi\n      dup1\n      0x68744046\n      eq\n      tag_4\n      jumpi\n      dup1\n      0x772aaeb5\n      eq\n      tag_5\n      jumpi\n      dup1\n      0x7e490a9e\n      eq\n      tag_6\n      jumpi\n      dup1\n      0x8da5cb5b\n      eq\n      tag_7\n      jumpi\n      dup1\n      0xbc072787\n      eq\n      tag_8\n      jumpi\n    tag_2:\n      0x00\n      dup1\n      revert\n        /* \"contracts/Library.sol\":447:576  function addNewBook (string memory _name) external onlyOwner {... */\n    tag_3:\n      tag_9\n      0x04\n      dup1\n      calldatasize\n      sub\n      dup2\n      add\n      swap1\n      tag_10\n      swap2\n      swap1\n      tag_11\n      jump\t// in\n    tag_10:\n      tag_12\n      jump\t// in\n    tag_9:\n      stop\n        /* \"contracts/Library.sol\":396:415  Book[] public books */\n    tag_4:\n      tag_13\n      0x04\n      dup1\n      calldatasize\n      sub\n      dup2\n      add\n      swap1\n      tag_14\n      swap2\n      swap1\n      tag_15\n      jump\t// in\n    tag_14:\n      tag_16\n      jump\t// in\n    tag_13:\n      mload(0x40)\n      tag_17\n      swap4\n      swap3\n      swap2\n      swap1\n      tag_18\n      jump\t// in\n    tag_17:\n      mload(0x40)\n      dup1\n      swap2\n      sub\n      swap1\n      return\n        /* \"contracts/Library.sol\":654:688  function returnBook () public {... */\n    tag_5:\n      tag_19\n      tag_20\n      jump\t// in\n    tag_19:\n      stop\n        /* \"contracts/Library.sol\":578:652  function borrowBook (uint _id) public {... */\n    tag_6:\n      tag_21\n      0x04\n      dup1\n      calldatasize\n      sub\n      dup2\n      add\n      swap1\n      tag_22\n      swap2\n      swap1\n      tag_15\n      jump\t// in\n    tag_22:\n      tag_23\n      jump\t// in\n    tag_21:\n      stop\n        /* \"contracts/Ownable.sol\":87:107  address public owner */\n    tag_7:\n      tag_24\n      tag_25\n      jump\t// in\n    tag_24:\n      mload(0x40)\n      tag_26\n      swap2\n      swap1\n      tag_27\n      jump\t// in\n    tag_26:\n      mload(0x40)\n      dup1\n      swap2\n      sub\n      swap1\n      return\n        /* \"contracts/Library.sol\":690:768  function seeRecord () public view returns(Book[] memory) {... */\n    tag_8:\n      tag_28\n      tag_29\n      jump\t// in\n    tag_28:\n      mload(0x40)\n      tag_30\n      swap2\n      swap1\n      tag_31\n      jump\t// in\n    tag_30:\n      mload(0x40)\n      dup1\n      swap2\n      sub\n      swap1\n      return\n        /* \"contracts/Library.sol\":447:576  function addNewBook (string memory _name) external onlyOwner {... */\n    tag_12:\n        /* \"contracts/Ownable.sol\":166:176  msg.sender */\n      caller\n        /* \"contracts/Ownable.sol\":157:176  owner == msg.sender */\n      0xffffffffffffffffffffffffffffffffffffffff\n      and\n        /* \"contracts/Ownable.sol\":157:162  owner */\n      0x00\n      dup1\n      sload\n      swap1\n      0x0100\n      exp\n      swap1\n      div\n      0xffffffffffffffffffffffffffffffffffffffff\n      and\n        /* \"contracts/Ownable.sol\":157:176  owner == msg.sender */\n      0xffffffffffffffffffffffffffffffffffffffff\n      and\n      eq\n        /* \"contracts/Ownable.sol\":149:205  require(owner == msg.sender, \"Not invoked by the owner\") */\n      tag_33\n      jumpi\n      mload(0x40)\n      0x08c379a000000000000000000000000000000000000000000000000000000000\n      dup2\n      mstore\n      0x04\n      add\n      tag_34\n      swap1\n      tag_35\n      jump\t// in\n    tag_34:\n      mload(0x40)\n      dup1\n      swap2\n      sub\n      swap1\n      revert\n    tag_33:\n        /* \"contracts/Library.sol\":514:519  books */\n      0x01\n        /* \"contracts/Library.sol\":525:552  Book(_name, id, address(0)) */\n      mload(0x40)\n      dup1\n      0x60\n      add\n      0x40\n      mstore\n      dup1\n        /* \"contracts/Library.sol\":530:535  _name */\n      dup4\n        /* \"contracts/Library.sol\":525:552  Book(_name, id, address(0)) */\n      dup2\n      mstore\n      0x20\n      add\n        /* \"contracts/Library.sol\":537:539  id */\n      0x02\n        /* \"contracts/Library.sol\":525:552  Book(_name, id, address(0)) */\n      mload(0x40)\n      dup1\n      0x20\n      add\n      0x40\n      mstore\n      swap1\n      dup2\n      0x00\n      dup3\n      add\n      sload\n      dup2\n      mstore\n      pop\n      pop\n      dup2\n      mstore\n      0x20\n      add\n        /* \"contracts/Library.sol\":549:550  0 */\n      0x00\n        /* \"contracts/Library.sol\":525:552  Book(_name, id, address(0)) */\n      0xffffffffffffffffffffffffffffffffffffffff\n      and\n      dup2\n      mstore\n      pop\n        /* \"contracts/Library.sol\":514:553  books.push(Book(_name, id, address(0))) */\n      swap1\n      dup1\n      0x01\n      dup2\n      sload\n      add\n      dup1\n      dup3\n      sstore\n      dup1\n      swap2\n      pop\n      pop\n      0x01\n      swap1\n      sub\n      swap1\n      0x00\n      mstore\n      keccak256(0x00, 0x20)\n      swap1\n      0x03\n      mul\n      add\n      0x00\n      swap1\n      swap2\n      swap1\n      swap2\n      swap1\n      swap2\n      pop\n      0x00\n      dup3\n      add\n      mload\n      dup2\n      0x00\n      add\n      swap1\n      dup1\n      mload\n      swap1\n      0x20\n      add\n      swap1\n      tag_38\n      swap3\n      swap2\n      swap1\n      tag_39\n      jump\t// in\n    tag_38:\n      pop\n      0x20\n      dup3\n      add\n      mload\n      dup2\n      0x01\n      add\n      0x00\n      dup3\n      add\n      mload\n      dup2\n      0x00\n      add\n      sstore\n      pop\n      pop\n      0x40\n      dup3\n      add\n      mload\n      dup2\n      0x02\n      add\n      exp(0x0100, 0x00)\n      dup2\n      sload\n      dup2\n      0xffffffffffffffffffffffffffffffffffffffff\n      mul\n      not\n      and\n      swap1\n      dup4\n      0xffffffffffffffffffffffffffffffffffffffff\n      and\n      mul\n      or\n      swap1\n      sstore\n      pop\n      pop\n      pop\n        /* \"contracts/Library.sol\":559:573  id.increment() */\n      tag_40\n        /* \"contracts/Library.sol\":559:561  id */\n      0x02\n        /* \"contracts/Library.sol\":559:571  id.increment */\n      tag_41\n        /* \"contracts/Library.sol\":559:573  id.increment() */\n      jump\t// in\n    tag_40:\n        /* \"contracts/Library.sol\":447:576  function addNewBook (string memory _name) external onlyOwner {... */\n      pop\n      jump\t// out\n        /* \"contracts/Library.sol\":396:415  Book[] public books */\n    tag_16:\n      0x01\n      dup2\n      dup2\n      sload\n      dup2\n      lt\n      tag_42\n      jumpi\n      0x00\n      dup1\n      revert\n    tag_42:\n      swap1\n      0x00\n      mstore\n      keccak256(0x00, 0x20)\n      swap1\n      0x03\n      mul\n      add\n      0x00\n      swap2\n      pop\n      swap1\n      pop\n      dup1\n      0x00\n      add\n      dup1\n      sload\n      tag_44\n      swap1\n      tag_45\n      jump\t// in\n    tag_44:\n      dup1\n      0x1f\n      add\n      0x20\n      dup1\n      swap2\n      div\n      mul\n      0x20\n      add\n      mload(0x40)\n      swap1\n      dup2\n      add\n      0x40\n      mstore\n      dup1\n      swap3\n      swap2\n      swap1\n      dup2\n      dup2\n      mstore\n      0x20\n      add\n      dup3\n      dup1\n      sload\n      tag_46\n      swap1\n      tag_45\n      jump\t// in\n    tag_46:\n      dup1\n      iszero\n      tag_47\n      jumpi\n      dup1\n      0x1f\n      lt\n      tag_48\n      jumpi\n      0x0100\n      dup1\n      dup4\n      sload\n      div\n      mul\n      dup4\n      mstore\n      swap2\n      0x20\n      add\n      swap2\n      jump(tag_47)\n    tag_48:\n      dup3\n      add\n      swap2\n      swap1\n      0x00\n      mstore\n      keccak256(0x00, 0x20)\n      swap1\n    tag_49:\n      dup2\n      sload\n      dup2\n      mstore\n      swap1\n      0x01\n      add\n      swap1\n      0x20\n      add\n      dup1\n      dup4\n      gt\n      tag_49\n      jumpi\n      dup3\n      swap1\n      sub\n      0x1f\n      and\n      dup3\n      add\n      swap2\n    tag_47:\n      pop\n      pop\n      pop\n      pop\n      pop\n      swap1\n      dup1\n      0x01\n      add\n      mload(0x40)\n      dup1\n      0x20\n      add\n      0x40\n      mstore\n      swap1\n      dup2\n      0x00\n      dup3\n      add\n      sload\n      dup2\n      mstore\n      pop\n      pop\n      swap1\n      dup1\n      0x02\n      add\n      0x00\n      swap1\n      sload\n      swap1\n      0x0100\n      exp\n      swap1\n      div\n      0xffffffffffffffffffffffffffffffffffffffff\n      and\n      swap1\n      pop\n      dup4\n      jump\t// out\n        /* \"contracts/Library.sol\":654:688  function returnBook () public {... */\n    tag_20:\n      jump\t// out\n        /* \"contracts/Library.sol\":578:652  function borrowBook (uint _id) public {... */\n    tag_23:\n        /* \"contracts/Library.sol\":639:649  msg.sender */\n      caller\n        /* \"contracts/Library.sol\":622:627  books */\n      0x01\n        /* \"contracts/Library.sol\":628:631  _id */\n      dup3\n        /* \"contracts/Library.sol\":622:632  books[_id] */\n      dup2\n      sload\n      dup2\n      lt\n      tag_52\n      jumpi\n      mstore(0x00, 0x4e487b7100000000000000000000000000000000000000000000000000000000)\n      mstore(0x04, 0x32)\n      revert(0x00, 0x24)\n    tag_52:\n      swap1\n      0x00\n      mstore\n      keccak256(0x00, 0x20)\n      swap1\n      0x03\n      mul\n      add\n        /* \"contracts/Library.sol\":622:637  books[_id].user */\n      0x02\n      add\n      0x00\n        /* \"contracts/Library.sol\":622:649  books[_id].user =msg.sender */\n      0x0100\n      exp\n      dup2\n      sload\n      dup2\n      0xffffffffffffffffffffffffffffffffffffffff\n      mul\n      not\n      and\n      swap1\n      dup4\n      0xffffffffffffffffffffffffffffffffffffffff\n      and\n      mul\n      or\n      swap1\n      sstore\n      pop\n        /* \"contracts/Library.sol\":578:652  function borrowBook (uint _id) public {... */\n      pop\n      jump\t// out\n        /* \"contracts/Ownable.sol\":87:107  address public owner */\n    tag_25:\n      0x00\n      dup1\n      sload\n      swap1\n      0x0100\n      exp\n      swap1\n      div\n      0xffffffffffffffffffffffffffffffffffffffff\n      and\n      dup2\n      jump\t// out\n        /* \"contracts/Library.sol\":690:768  function seeRecord () public view returns(Book[] memory) {... */\n    tag_29:\n        /* \"contracts/Library.sol\":732:745  Book[] memory */\n      0x60\n        /* \"contracts/Library.sol\":760:765  books */\n      0x01\n        /* \"contracts/Library.sol\":753:765  return books */\n      dup1\n      sload\n      dup1\n      0x20\n      mul\n      0x20\n      add\n      mload(0x40)\n      swap1\n      dup2\n      add\n      0x40\n      mstore\n      dup1\n      swap3\n      swap2\n      swap1\n      dup2\n      dup2\n      mstore\n      0x20\n      add\n      0x00\n      swap1\n    tag_55:\n      dup3\n      dup3\n      lt\n      iszero\n      tag_56\n      jumpi\n      dup4\n      dup3\n      swap1\n      0x00\n      mstore\n      keccak256(0x00, 0x20)\n      swap1\n      0x03\n      mul\n      add\n      mload(0x40)\n      dup1\n      0x60\n      add\n      0x40\n      mstore\n      swap1\n      dup2\n      0x00\n      dup3\n      add\n      dup1\n      sload\n      tag_58\n      swap1\n      tag_45\n      jump\t// in\n    tag_58:\n      dup1\n      0x1f\n      add\n      0x20\n      dup1\n      swap2\n      div\n      mul\n      0x20\n      add\n      mload(0x40)\n      swap1\n      dup2\n      add\n      0x40\n      mstore\n      dup1\n      swap3\n      swap2\n      swap1\n      dup2\n      dup2\n      mstore\n      0x20\n      add\n      dup3\n      dup1\n      sload\n      tag_59\n      swap1\n      tag_45\n      jump\t// in\n    tag_59:\n      dup1\n      iszero\n      tag_60\n      jumpi\n      dup1\n      0x1f\n      lt\n      tag_61\n      jumpi\n      0x0100\n      dup1\n      dup4\n      sload\n      div\n      mul\n      dup4\n      mstore\n      swap2\n      0x20\n      add\n      swap2\n      jump(tag_60)\n    tag_61:\n      dup3\n      add\n      swap2\n      swap1\n      0x00\n      mstore\n      keccak256(0x00, 0x20)\n      swap1\n    tag_62:\n      dup2\n      sload\n      dup2\n      mstore\n      swap1\n      0x01\n      add\n      swap1\n      0x20\n      add\n      dup1\n      dup4\n      gt\n      tag_62\n      jumpi\n      dup3\n      swap1\n      sub\n      0x1f\n      and\n      dup3\n      add\n      swap2\n    tag_60:\n      pop\n      pop\n      pop\n      pop\n      pop\n      dup2\n      mstore\n      0x20\n      add\n      0x01\n      dup3\n      add\n      mload(0x40)\n      dup1\n      0x20\n      add\n      0x40\n      mstore\n      swap1\n      dup2\n      0x00\n      dup3\n      add\n      sload\n      dup2\n      mstore\n      pop\n      pop\n      dup2\n      mstore\n      0x20\n      add\n      0x02\n      dup3\n      add\n      0x00\n      swap1\n      sload\n      swap1\n      0x0100\n      exp\n      swap1\n      div\n      0xffffffffffffffffffffffffffffffffffffffff\n      and\n      0xffffffffffffffffffffffffffffffffffffffff\n      and\n      0xffffffffffffffffffffffffffffffffffffffff\n      and\n      dup2\n      mstore\n      pop\n      pop\n      dup2\n      mstore\n      0x20\n      add\n      swap1\n      0x01\n      add\n      swap1\n      jump(tag_55)\n    tag_56:\n      pop\n      pop\n      pop\n      pop\n      swap1\n      pop\n        /* \"contracts/Library.sol\":690:768  function seeRecord () public view returns(Book[] memory) {... */\n      swap1\n      jump\t// out\n        /* \"@openzeppelin/contracts/utils/Counters.sol\":945:1068  function increment(Counter storage counter) internal {... */\n    tag_41:\n        /* \"@openzeppelin/contracts/utils/Counters.sol\":1050:1051  1 */\n      0x01\n        /* \"@openzeppelin/contracts/utils/Counters.sol\":1032:1039  counter */\n      dup2\n        /* \"@openzeppelin/contracts/utils/Counters.sol\":1032:1046  counter._value */\n      0x00\n      add\n      0x00\n        /* \"@openzeppelin/contracts/utils/Counters.sol\":1032:1051  counter._value += 1 */\n      dup3\n      dup3\n      sload\n      add\n      swap3\n      pop\n      pop\n      dup2\n      swap1\n      sstore\n      pop\n        /* \"@openzeppelin/contracts/utils/Counters.sol\":945:1068  function increment(Counter storage counter) internal {... */\n      pop\n      jump\t// out\n    tag_39:\n      dup3\n      dup1\n      sload\n      tag_64\n      swap1\n      tag_45\n      jump\t// in\n    tag_64:\n      swap1\n      0x00\n      mstore\n      keccak256(0x00, 0x20)\n      swap1\n      0x1f\n      add\n      0x20\n      swap1\n      div\n      dup2\n      add\n      swap3\n      dup3\n      tag_66\n      jumpi\n      0x00\n      dup6\n      sstore\n      jump(tag_65)\n    tag_66:\n      dup3\n      0x1f\n      lt\n      tag_67\n      jumpi\n      dup1\n      mload\n      not(0xff)\n      and\n      dup4\n      dup1\n      add\n      or\n      dup6\n      sstore\n      jump(tag_65)\n    tag_67:\n      dup3\n      dup1\n      add\n      0x01\n      add\n      dup6\n      sstore\n      dup3\n      iszero\n      tag_65\n      jumpi\n      swap2\n      dup3\n      add\n    tag_68:\n      dup3\n      dup2\n      gt\n      iszero\n      tag_69\n      jumpi\n      dup3\n      mload\n      dup3\n      sstore\n      swap2\n      0x20\n      add\n      swap2\n      swap1\n      0x01\n      add\n      swap1\n      jump(tag_68)\n    tag_69:\n    tag_65:\n      pop\n      swap1\n      pop\n      tag_70\n      swap2\n      swap1\n      tag_71\n      jump\t// in\n    tag_70:\n      pop\n      swap1\n      jump\t// out\n    tag_71:\n    tag_72:\n      dup1\n      dup3\n      gt\n      iszero\n      tag_73\n      jumpi\n      0x00\n      dup2\n      0x00\n      swap1\n      sstore\n      pop\n      0x01\n      add\n      jump(tag_72)\n    tag_73:\n      pop\n      swap1\n      jump\t// out\n        /* \"#utility.yul\":7:351   */\n    tag_75:\n      0x00\n        /* \"#utility.yul\":110:175   */\n      tag_77\n        /* \"#utility.yul\":125:174   */\n      tag_78\n        /* \"#utility.yul\":167:173   */\n      dup5\n        /* \"#utility.yul\":125:174   */\n      tag_79\n      jump\t// in\n    tag_78:\n        /* \"#utility.yul\":110:175   */\n      tag_80\n      jump\t// in\n    tag_77:\n        /* \"#utility.yul\":101:175   */\n      swap1\n      pop\n        /* \"#utility.yul\":198:204   */\n      dup3\n        /* \"#utility.yul\":191:196   */\n      dup2\n        /* \"#utility.yul\":184:205   */\n      mstore\n        /* \"#utility.yul\":236:240   */\n      0x20\n        /* \"#utility.yul\":229:234   */\n      dup2\n        /* \"#utility.yul\":225:241   */\n      add\n        /* \"#utility.yul\":274:277   */\n      dup5\n        /* \"#utility.yul\":265:271   */\n      dup5\n        /* \"#utility.yul\":260:263   */\n      dup5\n        /* \"#utility.yul\":256:272   */\n      add\n        /* \"#utility.yul\":253:278   */\n      gt\n        /* \"#utility.yul\":250:252   */\n      iszero\n      tag_81\n      jumpi\n        /* \"#utility.yul\":291:292   */\n      0x00\n        /* \"#utility.yul\":288:289   */\n      dup1\n        /* \"#utility.yul\":281:293   */\n      revert\n        /* \"#utility.yul\":250:252   */\n    tag_81:\n        /* \"#utility.yul\":304:345   */\n      tag_82\n        /* \"#utility.yul\":338:344   */\n      dup5\n        /* \"#utility.yul\":333:336   */\n      dup3\n        /* \"#utility.yul\":328:331   */\n      dup6\n        /* \"#utility.yul\":304:345   */\n      tag_83\n      jump\t// in\n    tag_82:\n        /* \"#utility.yul\":91:351   */\n      pop\n      swap4\n      swap3\n      pop\n      pop\n      pop\n      jump\t// out\n        /* \"#utility.yul\":371:644   */\n    tag_84:\n      0x00\n        /* \"#utility.yul\":476:479   */\n      dup3\n        /* \"#utility.yul\":469:473   */\n      0x1f\n        /* \"#utility.yul\":461:467   */\n      dup4\n        /* \"#utility.yul\":457:474   */\n      add\n        /* \"#utility.yul\":453:480   */\n      slt\n        /* \"#utility.yul\":443:445   */\n      tag_86\n      jumpi\n        /* \"#utility.yul\":494:495   */\n      0x00\n        /* \"#utility.yul\":491:492   */\n      dup1\n        /* \"#utility.yul\":484:496   */\n      revert\n        /* \"#utility.yul\":443:445   */\n    tag_86:\n        /* \"#utility.yul\":534:540   */\n      dup2\n        /* \"#utility.yul\":521:541   */\n      calldataload\n        /* \"#utility.yul\":559:638   */\n      tag_87\n        /* \"#utility.yul\":634:637   */\n      dup5\n        /* \"#utility.yul\":626:632   */\n      dup3\n        /* \"#utility.yul\":619:623   */\n      0x20\n        /* \"#utility.yul\":611:617   */\n      dup7\n        /* \"#utility.yul\":607:624   */\n      add\n        /* \"#utility.yul\":559:638   */\n      tag_75\n      jump\t// in\n    tag_87:\n        /* \"#utility.yul\":550:638   */\n      swap2\n      pop\n        /* \"#utility.yul\":433:644   */\n      pop\n      swap3\n      swap2\n      pop\n      pop\n      jump\t// out\n        /* \"#utility.yul\":650:789   */\n    tag_88:\n      0x00\n        /* \"#utility.yul\":734:740   */\n      dup2\n        /* \"#utility.yul\":721:741   */\n      calldataload\n        /* \"#utility.yul\":712:741   */\n      swap1\n      pop\n        /* \"#utility.yul\":750:783   */\n      tag_90\n        /* \"#utility.yul\":777:782   */\n      dup2\n        /* \"#utility.yul\":750:783   */\n      tag_91\n      jump\t// in\n    tag_90:\n        /* \"#utility.yul\":702:789   */\n      swap3\n      swap2\n      pop\n      pop\n      jump\t// out\n        /* \"#utility.yul\":795:1170   */\n    tag_11:\n      0x00\n        /* \"#utility.yul\":913:915   */\n      0x20\n        /* \"#utility.yul\":901:910   */\n      dup3\n        /* \"#utility.yul\":892:899   */\n      dup5\n        /* \"#utility.yul\":888:911   */\n      sub\n        /* \"#utility.yul\":884:916   */\n      slt\n        /* \"#utility.yul\":881:883   */\n      iszero\n      tag_93\n      jumpi\n        /* \"#utility.yul\":929:930   */\n      0x00\n        /* \"#utility.yul\":926:927   */\n      dup1\n        /* \"#utility.yul\":919:931   */\n      revert\n        /* \"#utility.yul\":881:883   */\n    tag_93:\n        /* \"#utility.yul\":1000:1001   */\n      0x00\n        /* \"#utility.yul\":989:998   */\n      dup3\n        /* \"#utility.yul\":985:1002   */\n      add\n        /* \"#utility.yul\":972:1003   */\n      calldataload\n        /* \"#utility.yul\":1030:1048   */\n      0xffffffffffffffff\n        /* \"#utility.yul\":1022:1028   */\n      dup2\n        /* \"#utility.yul\":1019:1049   */\n      gt\n        /* \"#utility.yul\":1016:1018   */\n      iszero\n      tag_94\n      jumpi\n        /* \"#utility.yul\":1062:1063   */\n      0x00\n        /* \"#utility.yul\":1059:1060   */\n      dup1\n        /* \"#utility.yul\":1052:1064   */\n      revert\n        /* \"#utility.yul\":1016:1018   */\n    tag_94:\n        /* \"#utility.yul\":1090:1153   */\n      tag_95\n        /* \"#utility.yul\":1145:1152   */\n      dup5\n        /* \"#utility.yul\":1136:1142   */\n      dup3\n        /* \"#utility.yul\":1125:1134   */\n      dup6\n        /* \"#utility.yul\":1121:1143   */\n      add\n        /* \"#utility.yul\":1090:1153   */\n      tag_84\n      jump\t// in\n    tag_95:\n        /* \"#utility.yul\":1080:1153   */\n      swap2\n      pop\n        /* \"#utility.yul\":943:1163   */\n      pop\n        /* \"#utility.yul\":871:1170   */\n      swap3\n      swap2\n      pop\n      pop\n      jump\t// out\n        /* \"#utility.yul\":1176:1438   */\n    tag_15:\n      0x00\n        /* \"#utility.yul\":1284:1286   */\n      0x20\n        /* \"#utility.yul\":1272:1281   */\n      dup3\n        /* \"#utility.yul\":1263:1270   */\n      dup5\n        /* \"#utility.yul\":1259:1282   */\n      sub\n        /* \"#utility.yul\":1255:1287   */\n      slt\n        /* \"#utility.yul\":1252:1254   */\n      iszero\n      tag_97\n      jumpi\n        /* \"#utility.yul\":1300:1301   */\n      0x00\n        /* \"#utility.yul\":1297:1298   */\n      dup1\n        /* \"#utility.yul\":1290:1302   */\n      revert\n        /* \"#utility.yul\":1252:1254   */\n    tag_97:\n        /* \"#utility.yul\":1343:1344   */\n      0x00\n        /* \"#utility.yul\":1368:1421   */\n      tag_98\n        /* \"#utility.yul\":1413:1420   */\n      dup5\n        /* \"#utility.yul\":1404:1410   */\n      dup3\n        /* \"#utility.yul\":1393:1402   */\n      dup6\n        /* \"#utility.yul\":1389:1411   */\n      add\n        /* \"#utility.yul\":1368:1421   */\n      tag_88\n      jump\t// in\n    tag_98:\n        /* \"#utility.yul\":1358:1421   */\n      swap2\n      pop\n        /* \"#utility.yul\":1314:1431   */\n      pop\n        /* \"#utility.yul\":1242:1438   */\n      swap3\n      swap2\n      pop\n      pop\n      jump\t// out\n        /* \"#utility.yul\":1444:1680   */\n    tag_99:\n      0x00\n        /* \"#utility.yul\":1588:1674   */\n      tag_101\n        /* \"#utility.yul\":1670:1673   */\n      dup4\n        /* \"#utility.yul\":1662:1668   */\n      dup4\n        /* \"#utility.yul\":1588:1674   */\n      tag_102\n      jump\t// in\n    tag_101:\n        /* \"#utility.yul\":1574:1674   */\n      swap1\n      pop\n        /* \"#utility.yul\":1564:1680   */\n      swap3\n      swap2\n      pop\n      pop\n      jump\t// out\n        /* \"#utility.yul\":1686:1794   */\n    tag_103:\n        /* \"#utility.yul\":1763:1787   */\n      tag_105\n        /* \"#utility.yul\":1781:1786   */\n      dup2\n        /* \"#utility.yul\":1763:1787   */\n      tag_106\n      jump\t// in\n    tag_105:\n        /* \"#utility.yul\":1758:1761   */\n      dup3\n        /* \"#utility.yul\":1751:1788   */\n      mstore\n        /* \"#utility.yul\":1741:1794   */\n      pop\n      pop\n      jump\t// out\n        /* \"#utility.yul\":1800:1918   */\n    tag_107:\n        /* \"#utility.yul\":1887:1911   */\n      tag_109\n        /* \"#utility.yul\":1905:1910   */\n      dup2\n        /* \"#utility.yul\":1887:1911   */\n      tag_106\n      jump\t// in\n    tag_109:\n        /* \"#utility.yul\":1882:1885   */\n      dup3\n        /* \"#utility.yul\":1875:1912   */\n      mstore\n        /* \"#utility.yul\":1865:1918   */\n      pop\n      pop\n      jump\t// out\n        /* \"#utility.yul\":1978:3049   */\n    tag_110:\n      0x00\n        /* \"#utility.yul\":2166:2240   */\n      tag_112\n        /* \"#utility.yul\":2234:2239   */\n      dup3\n        /* \"#utility.yul\":2166:2240   */\n      tag_113\n      jump\t// in\n    tag_112:\n        /* \"#utility.yul\":2256:2362   */\n      tag_114\n        /* \"#utility.yul\":2355:2361   */\n      dup2\n        /* \"#utility.yul\":2350:2353   */\n      dup6\n        /* \"#utility.yul\":2256:2362   */\n      tag_115\n      jump\t// in\n    tag_114:\n        /* \"#utility.yul\":2249:2362   */\n      swap4\n      pop\n        /* \"#utility.yul\":2388:2391   */\n      dup4\n        /* \"#utility.yul\":2433:2437   */\n      0x20\n        /* \"#utility.yul\":2425:2431   */\n      dup3\n        /* \"#utility.yul\":2421:2438   */\n      mul\n        /* \"#utility.yul\":2416:2419   */\n      dup6\n        /* \"#utility.yul\":2412:2439   */\n      add\n        /* \"#utility.yul\":2463:2539   */\n      tag_116\n        /* \"#utility.yul\":2533:2538   */\n      dup6\n        /* \"#utility.yul\":2463:2539   */\n      tag_117\n      jump\t// in\n    tag_116:\n        /* \"#utility.yul\":2562:2569   */\n      dup1\n        /* \"#utility.yul\":2593:2594   */\n      0x00\n        /* \"#utility.yul\":2578:3004   */\n    tag_118:\n        /* \"#utility.yul\":2603:2609   */\n      dup6\n        /* \"#utility.yul\":2600:2601   */\n      dup2\n        /* \"#utility.yul\":2597:2610   */\n      lt\n        /* \"#utility.yul\":2578:3004   */\n      iszero\n      tag_120\n      jumpi\n        /* \"#utility.yul\":2674:2683   */\n      dup5\n        /* \"#utility.yul\":2668:2672   */\n      dup5\n        /* \"#utility.yul\":2664:2684   */\n      sub\n        /* \"#utility.yul\":2659:2662   */\n      dup10\n        /* \"#utility.yul\":2652:2685   */\n      mstore\n        /* \"#utility.yul\":2725:2731   */\n      dup2\n        /* \"#utility.yul\":2719:2732   */\n      mload\n        /* \"#utility.yul\":2753:2857   */\n      tag_121\n        /* \"#utility.yul\":2852:2856   */\n      dup6\n        /* \"#utility.yul\":2837:2850   */\n      dup3\n        /* \"#utility.yul\":2753:2857   */\n      tag_99\n      jump\t// in\n    tag_121:\n        /* \"#utility.yul\":2745:2857   */\n      swap5\n      pop\n        /* \"#utility.yul\":2880:2960   */\n      tag_122\n        /* \"#utility.yul\":2953:2959   */\n      dup4\n        /* \"#utility.yul\":2880:2960   */\n      tag_123\n      jump\t// in\n    tag_122:\n        /* \"#utility.yul\":2870:2960   */\n      swap3\n      pop\n        /* \"#utility.yul\":2989:2993   */\n      0x20\n        /* \"#utility.yul\":2984:2987   */\n      dup11\n        /* \"#utility.yul\":2980:2994   */\n      add\n        /* \"#utility.yul\":2973:2994   */\n      swap10\n      pop\n        /* \"#utility.yul\":2638:3004   */\n      pop\n        /* \"#utility.yul\":2625:2626   */\n      0x01\n        /* \"#utility.yul\":2622:2623   */\n      dup2\n        /* \"#utility.yul\":2618:2627   */\n      add\n        /* \"#utility.yul\":2613:2627   */\n      swap1\n      pop\n        /* \"#utility.yul\":2578:3004   */\n      jump(tag_118)\n    tag_120:\n        /* \"#utility.yul\":2582:2596   */\n      pop\n        /* \"#utility.yul\":3020:3024   */\n      dup3\n        /* \"#utility.yul\":3013:3024   */\n      swap8\n      pop\n        /* \"#utility.yul\":3040:3043   */\n      dup8\n        /* \"#utility.yul\":3033:3043   */\n      swap6\n      pop\n        /* \"#utility.yul\":2142:3049   */\n      pop\n      pop\n      pop\n      pop\n      pop\n      swap3\n      swap2\n      pop\n      pop\n      jump\t// out\n        /* \"#utility.yul\":3055:3399   */\n    tag_124:\n      0x00\n        /* \"#utility.yul\":3161:3200   */\n      tag_126\n        /* \"#utility.yul\":3194:3199   */\n      dup3\n        /* \"#utility.yul\":3161:3200   */\n      tag_127\n      jump\t// in\n    tag_126:\n        /* \"#utility.yul\":3216:3277   */\n      tag_128\n        /* \"#utility.yul\":3270:3276   */\n      dup2\n        /* \"#utility.yul\":3265:3268   */\n      dup6\n        /* \"#utility.yul\":3216:3277   */\n      tag_129\n      jump\t// in\n    tag_128:\n        /* \"#utility.yul\":3209:3277   */\n      swap4\n      pop\n        /* \"#utility.yul\":3286:3338   */\n      tag_130\n        /* \"#utility.yul\":3331:3337   */\n      dup2\n        /* \"#utility.yul\":3326:3329   */\n      dup6\n        /* \"#utility.yul\":3319:3323   */\n      0x20\n        /* \"#utility.yul\":3312:3317   */\n      dup7\n        /* \"#utility.yul\":3308:3324   */\n      add\n        /* \"#utility.yul\":3286:3338   */\n      tag_131\n      jump\t// in\n    tag_130:\n        /* \"#utility.yul\":3363:3392   */\n      tag_132\n        /* \"#utility.yul\":3385:3391   */\n      dup2\n        /* \"#utility.yul\":3363:3392   */\n      tag_133\n      jump\t// in\n    tag_132:\n        /* \"#utility.yul\":3358:3361   */\n      dup5\n        /* \"#utility.yul\":3354:3393   */\n      add\n        /* \"#utility.yul\":3347:3393   */\n      swap2\n      pop\n        /* \"#utility.yul\":3137:3399   */\n      pop\n      swap3\n      swap2\n      pop\n      pop\n      jump\t// out\n        /* \"#utility.yul\":3405:3769   */\n    tag_134:\n      0x00\n        /* \"#utility.yul\":3521:3560   */\n      tag_136\n        /* \"#utility.yul\":3554:3559   */\n      dup3\n        /* \"#utility.yul\":3521:3560   */\n      tag_127\n      jump\t// in\n    tag_136:\n        /* \"#utility.yul\":3576:3647   */\n      tag_137\n        /* \"#utility.yul\":3640:3646   */\n      dup2\n        /* \"#utility.yul\":3635:3638   */\n      dup6\n        /* \"#utility.yul\":3576:3647   */\n      tag_138\n      jump\t// in\n    tag_137:\n        /* \"#utility.yul\":3569:3647   */\n      swap4\n      pop\n        /* \"#utility.yul\":3656:3708   */\n      tag_139\n        /* \"#utility.yul\":3701:3707   */\n      dup2\n        /* \"#utility.yul\":3696:3699   */\n      dup6\n        /* \"#utility.yul\":3689:3693   */\n      0x20\n        /* \"#utility.yul\":3682:3687   */\n      dup7\n        /* \"#utility.yul\":3678:3694   */\n      add\n        /* \"#utility.yul\":3656:3708   */\n      tag_131\n      jump\t// in\n    tag_139:\n        /* \"#utility.yul\":3733:3762   */\n      tag_140\n        /* \"#utility.yul\":3755:3761   */\n      dup2\n        /* \"#utility.yul\":3733:3762   */\n      tag_133\n      jump\t// in\n    tag_140:\n        /* \"#utility.yul\":3728:3731   */\n      dup5\n        /* \"#utility.yul\":3724:3763   */\n      add\n        /* \"#utility.yul\":3717:3763   */\n      swap2\n      pop\n        /* \"#utility.yul\":3497:3769   */\n      pop\n      swap3\n      swap2\n      pop\n      pop\n      jump\t// out\n        /* \"#utility.yul\":3775:4097   */\n    tag_141:\n      0x00\n        /* \"#utility.yul\":3938:4005   */\n      tag_143\n        /* \"#utility.yul\":4002:4004   */\n      0x18\n        /* \"#utility.yul\":3997:4000   */\n      dup4\n        /* \"#utility.yul\":3938:4005   */\n      tag_138\n      jump\t// in\n    tag_143:\n        /* \"#utility.yul\":3931:4005   */\n      swap2\n      pop\n        /* \"#utility.yul\":4035:4061   */\n      0x4e6f7420696e766f6b656420627920746865206f776e65720000000000000000\n        /* \"#utility.yul\":4031:4032   */\n      0x00\n        /* \"#utility.yul\":4026:4029   */\n      dup4\n        /* \"#utility.yul\":4022:4033   */\n      add\n        /* \"#utility.yul\":4015:4062   */\n      mstore\n        /* \"#utility.yul\":4088:4090   */\n      0x20\n        /* \"#utility.yul\":4083:4086   */\n      dup3\n        /* \"#utility.yul\":4079:4091   */\n      add\n        /* \"#utility.yul\":4072:4091   */\n      swap1\n      pop\n        /* \"#utility.yul\":3921:4097   */\n      swap2\n      swap1\n      pop\n      jump\t// out\n        /* \"#utility.yul\":4153:4955   */\n    tag_102:\n      0x00\n        /* \"#utility.yul\":4288:4292   */\n      0x60\n        /* \"#utility.yul\":4283:4286   */\n      dup4\n        /* \"#utility.yul\":4279:4293   */\n      add\n        /* \"#utility.yul\":4375:4379   */\n      0x00\n        /* \"#utility.yul\":4368:4373   */\n      dup4\n        /* \"#utility.yul\":4364:4380   */\n      add\n        /* \"#utility.yul\":4358:4381   */\n      mload\n        /* \"#utility.yul\":4428:4431   */\n      dup5\n        /* \"#utility.yul\":4422:4426   */\n      dup3\n        /* \"#utility.yul\":4418:4432   */\n      sub\n        /* \"#utility.yul\":4411:4415   */\n      0x00\n        /* \"#utility.yul\":4406:4409   */\n      dup7\n        /* \"#utility.yul\":4402:4416   */\n      add\n        /* \"#utility.yul\":4395:4433   */\n      mstore\n        /* \"#utility.yul\":4454:4527   */\n      tag_145\n        /* \"#utility.yul\":4522:4526   */\n      dup3\n        /* \"#utility.yul\":4508:4520   */\n      dup3\n        /* \"#utility.yul\":4454:4527   */\n      tag_124\n      jump\t// in\n    tag_145:\n        /* \"#utility.yul\":4446:4527   */\n      swap2\n      pop\n        /* \"#utility.yul\":4303:4538   */\n      pop\n        /* \"#utility.yul\":4618:4622   */\n      0x20\n        /* \"#utility.yul\":4611:4616   */\n      dup4\n        /* \"#utility.yul\":4607:4623   */\n      add\n        /* \"#utility.yul\":4601:4624   */\n      mload\n        /* \"#utility.yul\":4637:4744   */\n      tag_146\n        /* \"#utility.yul\":4738:4742   */\n      0x20\n        /* \"#utility.yul\":4733:4736   */\n      dup7\n        /* \"#utility.yul\":4729:4743   */\n      add\n        /* \"#utility.yul\":4715:4727   */\n      dup3\n        /* \"#utility.yul\":4637:4744   */\n      tag_147\n      jump\t// in\n    tag_146:\n        /* \"#utility.yul\":4548:4754   */\n      pop\n        /* \"#utility.yul\":4836:4840   */\n      0x40\n        /* \"#utility.yul\":4829:4834   */\n      dup4\n        /* \"#utility.yul\":4825:4841   */\n      add\n        /* \"#utility.yul\":4819:4842   */\n      mload\n        /* \"#utility.yul\":4855:4918   */\n      tag_148\n        /* \"#utility.yul\":4912:4916   */\n      0x40\n        /* \"#utility.yul\":4907:4910   */\n      dup7\n        /* \"#utility.yul\":4903:4917   */\n      add\n        /* \"#utility.yul\":4889:4901   */\n      dup3\n        /* \"#utility.yul\":4855:4918   */\n      tag_103\n      jump\t// in\n    tag_148:\n        /* \"#utility.yul\":4764:4928   */\n      pop\n        /* \"#utility.yul\":4945:4949   */\n      dup1\n        /* \"#utility.yul\":4938:4949   */\n      swap2\n      pop\n        /* \"#utility.yul\":4257:4955   */\n      pop\n      swap3\n      swap2\n      pop\n      pop\n      jump\t// out\n        /* \"#utility.yul\":5019:5338   */\n    tag_147:\n        /* \"#utility.yul\":5150:5154   */\n      0x20\n        /* \"#utility.yul\":5145:5148   */\n      dup3\n        /* \"#utility.yul\":5141:5155   */\n      add\n        /* \"#utility.yul\":5239:5243   */\n      0x00\n        /* \"#utility.yul\":5232:5237   */\n      dup3\n        /* \"#utility.yul\":5228:5244   */\n      add\n        /* \"#utility.yul\":5222:5245   */\n      mload\n        /* \"#utility.yul\":5258:5321   */\n      tag_150\n        /* \"#utility.yul\":5315:5319   */\n      0x00\n        /* \"#utility.yul\":5310:5313   */\n      dup6\n        /* \"#utility.yul\":5306:5320   */\n      add\n        /* \"#utility.yul\":5292:5304   */\n      dup3\n        /* \"#utility.yul\":5258:5321   */\n      tag_151\n      jump\t// in\n    tag_150:\n        /* \"#utility.yul\":5165:5331   */\n      pop\n        /* \"#utility.yul\":5119:5338   */\n      pop\n      pop\n      pop\n      jump\t// out\n        /* \"#utility.yul\":5402:5731   */\n    tag_152:\n        /* \"#utility.yul\":5543:5547   */\n      0x20\n        /* \"#utility.yul\":5538:5541   */\n      dup3\n        /* \"#utility.yul\":5534:5548   */\n      add\n        /* \"#utility.yul\":5632:5636   */\n      0x00\n        /* \"#utility.yul\":5625:5630   */\n      dup3\n        /* \"#utility.yul\":5621:5637   */\n      add\n        /* \"#utility.yul\":5615:5638   */\n      mload\n        /* \"#utility.yul\":5651:5714   */\n      tag_154\n        /* \"#utility.yul\":5708:5712   */\n      0x00\n        /* \"#utility.yul\":5703:5706   */\n      dup6\n        /* \"#utility.yul\":5699:5713   */\n      add\n        /* \"#utility.yul\":5685:5697   */\n      dup3\n        /* \"#utility.yul\":5651:5714   */\n      tag_151\n      jump\t// in\n    tag_154:\n        /* \"#utility.yul\":5558:5724   */\n      pop\n        /* \"#utility.yul\":5512:5731   */\n      pop\n      pop\n      pop\n      jump\t// out\n        /* \"#utility.yul\":5737:5845   */\n    tag_151:\n        /* \"#utility.yul\":5814:5838   */\n      tag_156\n        /* \"#utility.yul\":5832:5837   */\n      dup2\n        /* \"#utility.yul\":5814:5838   */\n      tag_157\n      jump\t// in\n    tag_156:\n        /* \"#utility.yul\":5809:5812   */\n      dup3\n        /* \"#utility.yul\":5802:5839   */\n      mstore\n        /* \"#utility.yul\":5792:5845   */\n      pop\n      pop\n      jump\t// out\n        /* \"#utility.yul\":5851:6073   */\n    tag_27:\n      0x00\n        /* \"#utility.yul\":5982:5984   */\n      0x20\n        /* \"#utility.yul\":5971:5980   */\n      dup3\n        /* \"#utility.yul\":5967:5985   */\n      add\n        /* \"#utility.yul\":5959:5985   */\n      swap1\n      pop\n        /* \"#utility.yul\":5995:6066   */\n      tag_159\n        /* \"#utility.yul\":6063:6064   */\n      0x00\n        /* \"#utility.yul\":6052:6061   */\n      dup4\n        /* \"#utility.yul\":6048:6065   */\n      add\n        /* \"#utility.yul\":6039:6045   */\n      dup5\n        /* \"#utility.yul\":5995:6066   */\n      tag_107\n      jump\t// in\n    tag_159:\n        /* \"#utility.yul\":5949:6073   */\n      swap3\n      swap2\n      pop\n      pop\n      jump\t// out\n        /* \"#utility.yul\":6079:6532   */\n    tag_31:\n      0x00\n        /* \"#utility.yul\":6300:6302   */\n      0x20\n        /* \"#utility.yul\":6289:6298   */\n      dup3\n        /* \"#utility.yul\":6285:6303   */\n      add\n        /* \"#utility.yul\":6277:6303   */\n      swap1\n      pop\n        /* \"#utility.yul\":6349:6358   */\n      dup2\n        /* \"#utility.yul\":6343:6347   */\n      dup2\n        /* \"#utility.yul\":6339:6359   */\n      sub\n        /* \"#utility.yul\":6335:6336   */\n      0x00\n        /* \"#utility.yul\":6324:6333   */\n      dup4\n        /* \"#utility.yul\":6320:6337   */\n      add\n        /* \"#utility.yul\":6313:6360   */\n      mstore\n        /* \"#utility.yul\":6377:6525   */\n      tag_161\n        /* \"#utility.yul\":6520:6524   */\n      dup2\n        /* \"#utility.yul\":6511:6517   */\n      dup5\n        /* \"#utility.yul\":6377:6525   */\n      tag_110\n      jump\t// in\n    tag_161:\n        /* \"#utility.yul\":6369:6525   */\n      swap1\n      pop\n        /* \"#utility.yul\":6267:6532   */\n      swap3\n      swap2\n      pop\n      pop\n      jump\t// out\n        /* \"#utility.yul\":6538:7159   */\n    tag_18:\n      0x00\n        /* \"#utility.yul\":6789:6791   */\n      0x60\n        /* \"#utility.yul\":6778:6787   */\n      dup3\n        /* \"#utility.yul\":6774:6792   */\n      add\n        /* \"#utility.yul\":6766:6792   */\n      swap1\n      pop\n        /* \"#utility.yul\":6838:6847   */\n      dup2\n        /* \"#utility.yul\":6832:6836   */\n      dup2\n        /* \"#utility.yul\":6828:6848   */\n      sub\n        /* \"#utility.yul\":6824:6825   */\n      0x00\n        /* \"#utility.yul\":6813:6822   */\n      dup4\n        /* \"#utility.yul\":6809:6826   */\n      add\n        /* \"#utility.yul\":6802:6849   */\n      mstore\n        /* \"#utility.yul\":6866:6944   */\n      tag_163\n        /* \"#utility.yul\":6939:6943   */\n      dup2\n        /* \"#utility.yul\":6930:6936   */\n      dup7\n        /* \"#utility.yul\":6866:6944   */\n      tag_134\n      jump\t// in\n    tag_163:\n        /* \"#utility.yul\":6858:6944   */\n      swap1\n      pop\n        /* \"#utility.yul\":6954:7070   */\n      tag_164\n        /* \"#utility.yul\":7066:7068   */\n      0x20\n        /* \"#utility.yul\":7055:7064   */\n      dup4\n        /* \"#utility.yul\":7051:7069   */\n      add\n        /* \"#utility.yul\":7042:7048   */\n      dup6\n        /* \"#utility.yul\":6954:7070   */\n      tag_152\n      jump\t// in\n    tag_164:\n        /* \"#utility.yul\":7080:7152   */\n      tag_165\n        /* \"#utility.yul\":7148:7150   */\n      0x40\n        /* \"#utility.yul\":7137:7146   */\n      dup4\n        /* \"#utility.yul\":7133:7151   */\n      add\n        /* \"#utility.yul\":7124:7130   */\n      dup5\n        /* \"#utility.yul\":7080:7152   */\n      tag_107\n      jump\t// in\n    tag_165:\n        /* \"#utility.yul\":6756:7159   */\n      swap5\n      swap4\n      pop\n      pop\n      pop\n      pop\n      jump\t// out\n        /* \"#utility.yul\":7165:7584   */\n    tag_35:\n      0x00\n        /* \"#utility.yul\":7369:7371   */\n      0x20\n        /* \"#utility.yul\":7358:7367   */\n      dup3\n        /* \"#utility.yul\":7354:7372   */\n      add\n        /* \"#utility.yul\":7346:7372   */\n      swap1\n      pop\n        /* \"#utility.yul\":7418:7427   */\n      dup2\n        /* \"#utility.yul\":7412:7416   */\n      dup2\n        /* \"#utility.yul\":7408:7428   */\n      sub\n        /* \"#utility.yul\":7404:7405   */\n      0x00\n        /* \"#utility.yul\":7393:7402   */\n      dup4\n        /* \"#utility.yul\":7389:7406   */\n      add\n        /* \"#utility.yul\":7382:7429   */\n      mstore\n        /* \"#utility.yul\":7446:7577   */\n      tag_167\n        /* \"#utility.yul\":7572:7576   */\n      dup2\n        /* \"#utility.yul\":7446:7577   */\n      tag_141\n      jump\t// in\n    tag_167:\n        /* \"#utility.yul\":7438:7577   */\n      swap1\n      pop\n        /* \"#utility.yul\":7336:7584   */\n      swap2\n      swap1\n      pop\n      jump\t// out\n        /* \"#utility.yul\":7590:7873   */\n    tag_80:\n      0x00\n        /* \"#utility.yul\":7656:7658   */\n      0x40\n        /* \"#utility.yul\":7650:7659   */\n      mload\n        /* \"#utility.yul\":7640:7659   */\n      swap1\n      pop\n        /* \"#utility.yul\":7698:7702   */\n      dup2\n        /* \"#utility.yul\":7690:7696   */\n      dup2\n        /* \"#utility.yul\":7686:7703   */\n      add\n        /* \"#utility.yul\":7805:7811   */\n      dup2\n        /* \"#utility.yul\":7793:7803   */\n      dup2\n        /* \"#utility.yul\":7790:7812   */\n      lt\n        /* \"#utility.yul\":7769:7787   */\n      0xffffffffffffffff\n        /* \"#utility.yul\":7757:7767   */\n      dup3\n        /* \"#utility.yul\":7754:7788   */\n      gt\n        /* \"#utility.yul\":7751:7813   */\n      or\n        /* \"#utility.yul\":7748:7750   */\n      iszero\n      tag_169\n      jumpi\n        /* \"#utility.yul\":7816:7834   */\n      tag_170\n      tag_171\n      jump\t// in\n    tag_170:\n        /* \"#utility.yul\":7748:7750   */\n    tag_169:\n        /* \"#utility.yul\":7856:7866   */\n      dup1\n        /* \"#utility.yul\":7852:7854   */\n      0x40\n        /* \"#utility.yul\":7845:7867   */\n      mstore\n        /* \"#utility.yul\":7630:7873   */\n      pop\n      swap2\n      swap1\n      pop\n      jump\t// out\n        /* \"#utility.yul\":7879:8211   */\n    tag_79:\n      0x00\n        /* \"#utility.yul\":8031:8049   */\n      0xffffffffffffffff\n        /* \"#utility.yul\":8023:8029   */\n      dup3\n        /* \"#utility.yul\":8020:8050   */\n      gt\n        /* \"#utility.yul\":8017:8019   */\n      iszero\n      tag_173\n      jumpi\n        /* \"#utility.yul\":8053:8071   */\n      tag_174\n      tag_171\n      jump\t// in\n    tag_174:\n        /* \"#utility.yul\":8017:8019   */\n    tag_173:\n        /* \"#utility.yul\":8138:8142   */\n      0x1f\n        /* \"#utility.yul\":8134:8143   */\n      not\n        /* \"#utility.yul\":8127:8131   */\n      0x1f\n        /* \"#utility.yul\":8119:8125   */\n      dup4\n        /* \"#utility.yul\":8115:8132   */\n      add\n        /* \"#utility.yul\":8111:8144   */\n      and\n        /* \"#utility.yul\":8103:8144   */\n      swap1\n      pop\n        /* \"#utility.yul\":8199:8203   */\n      0x20\n        /* \"#utility.yul\":8193:8197   */\n      dup2\n        /* \"#utility.yul\":8189:8204   */\n      add\n        /* \"#utility.yul\":8181:8204   */\n      swap1\n      pop\n        /* \"#utility.yul\":7946:8211   */\n      swap2\n      swap1\n      pop\n      jump\t// out\n        /* \"#utility.yul\":8217:8369   */\n    tag_117:\n      0x00\n        /* \"#utility.yul\":8327:8330   */\n      dup2\n        /* \"#utility.yul\":8319:8330   */\n      swap1\n      pop\n        /* \"#utility.yul\":8357:8361   */\n      0x20\n        /* \"#utility.yul\":8352:8355   */\n      dup3\n        /* \"#utility.yul\":8348:8362   */\n      add\n        /* \"#utility.yul\":8340:8362   */\n      swap1\n      pop\n        /* \"#utility.yul\":8309:8369   */\n      swap2\n      swap1\n      pop\n      jump\t// out\n        /* \"#utility.yul\":8375:8509   */\n    tag_113:\n      0x00\n        /* \"#utility.yul\":8496:8501   */\n      dup2\n        /* \"#utility.yul\":8490:8502   */\n      mload\n        /* \"#utility.yul\":8480:8502   */\n      swap1\n      pop\n        /* \"#utility.yul\":8469:8509   */\n      swap2\n      swap1\n      pop\n      jump\t// out\n        /* \"#utility.yul\":8515:8614   */\n    tag_127:\n      0x00\n        /* \"#utility.yul\":8601:8606   */\n      dup2\n        /* \"#utility.yul\":8595:8607   */\n      mload\n        /* \"#utility.yul\":8585:8607   */\n      swap1\n      pop\n        /* \"#utility.yul\":8574:8614   */\n      swap2\n      swap1\n      pop\n      jump\t// out\n        /* \"#utility.yul\":8620:8753   */\n    tag_123:\n      0x00\n        /* \"#utility.yul\":8742:8746   */\n      0x20\n        /* \"#utility.yul\":8737:8740   */\n      dup3\n        /* \"#utility.yul\":8733:8747   */\n      add\n        /* \"#utility.yul\":8725:8747   */\n      swap1\n      pop\n        /* \"#utility.yul\":8715:8753   */\n      swap2\n      swap1\n      pop\n      jump\t// out\n        /* \"#utility.yul\":8759:8963   */\n    tag_115:\n      0x00\n        /* \"#utility.yul\":8912:8918   */\n      dup3\n        /* \"#utility.yul\":8907:8910   */\n      dup3\n        /* \"#utility.yul\":8900:8919   */\n      mstore\n        /* \"#utility.yul\":8952:8956   */\n      0x20\n        /* \"#utility.yul\":8947:8950   */\n      dup3\n        /* \"#utility.yul\":8943:8957   */\n      add\n        /* \"#utility.yul\":8928:8957   */\n      swap1\n      pop\n        /* \"#utility.yul\":8890:8963   */\n      swap3\n      swap2\n      pop\n      pop\n      jump\t// out\n        /* \"#utility.yul\":8969:9128   */\n    tag_129:\n      0x00\n        /* \"#utility.yul\":9077:9083   */\n      dup3\n        /* \"#utility.yul\":9072:9075   */\n      dup3\n        /* \"#utility.yul\":9065:9084   */\n      mstore\n        /* \"#utility.yul\":9117:9121   */\n      0x20\n        /* \"#utility.yul\":9112:9115   */\n      dup3\n        /* \"#utility.yul\":9108:9122   */\n      add\n        /* \"#utility.yul\":9093:9122   */\n      swap1\n      pop\n        /* \"#utility.yul\":9055:9128   */\n      swap3\n      swap2\n      pop\n      pop\n      jump\t// out\n        /* \"#utility.yul\":9134:9303   */\n    tag_138:\n      0x00\n        /* \"#utility.yul\":9252:9258   */\n      dup3\n        /* \"#utility.yul\":9247:9250   */\n      dup3\n        /* \"#utility.yul\":9240:9259   */\n      mstore\n        /* \"#utility.yul\":9292:9296   */\n      0x20\n        /* \"#utility.yul\":9287:9290   */\n      dup3\n        /* \"#utility.yul\":9283:9297   */\n      add\n        /* \"#utility.yul\":9268:9297   */\n      swap1\n      pop\n        /* \"#utility.yul\":9230:9303   */\n      swap3\n      swap2\n      pop\n      pop\n      jump\t// out\n        /* \"#utility.yul\":9309:9405   */\n    tag_106:\n      0x00\n        /* \"#utility.yul\":9375:9399   */\n      tag_183\n        /* \"#utility.yul\":9393:9398   */\n      dup3\n        /* \"#utility.yul\":9375:9399   */\n      tag_184\n      jump\t// in\n    tag_183:\n        /* \"#utility.yul\":9364:9399   */\n      swap1\n      pop\n        /* \"#utility.yul\":9354:9405   */\n      swap2\n      swap1\n      pop\n      jump\t// out\n        /* \"#utility.yul\":9411:9537   */\n    tag_184:\n      0x00\n        /* \"#utility.yul\":9488:9530   */\n      0xffffffffffffffffffffffffffffffffffffffff\n        /* \"#utility.yul\":9481:9486   */\n      dup3\n        /* \"#utility.yul\":9477:9531   */\n      and\n        /* \"#utility.yul\":9466:9531   */\n      swap1\n      pop\n        /* \"#utility.yul\":9456:9537   */\n      swap2\n      swap1\n      pop\n      jump\t// out\n        /* \"#utility.yul\":9543:9620   */\n    tag_157:\n      0x00\n        /* \"#utility.yul\":9609:9614   */\n      dup2\n        /* \"#utility.yul\":9598:9614   */\n      swap1\n      pop\n        /* \"#utility.yul\":9588:9620   */\n      swap2\n      swap1\n      pop\n      jump\t// out\n        /* \"#utility.yul\":9626:9780   */\n    tag_83:\n        /* \"#utility.yul\":9710:9716   */\n      dup3\n        /* \"#utility.yul\":9705:9708   */\n      dup2\n        /* \"#utility.yul\":9700:9703   */\n      dup4\n        /* \"#utility.yul\":9687:9717   */\n      calldatacopy\n        /* \"#utility.yul\":9772:9773   */\n      0x00\n        /* \"#utility.yul\":9763:9769   */\n      dup4\n        /* \"#utility.yul\":9758:9761   */\n      dup4\n        /* \"#utility.yul\":9754:9770   */\n      add\n        /* \"#utility.yul\":9747:9774   */\n      mstore\n        /* \"#utility.yul\":9677:9780   */\n      pop\n      pop\n      pop\n      jump\t// out\n        /* \"#utility.yul\":9786:10093   */\n    tag_131:\n        /* \"#utility.yul\":9854:9855   */\n      0x00\n        /* \"#utility.yul\":9864:9977   */\n    tag_189:\n        /* \"#utility.yul\":9878:9884   */\n      dup4\n        /* \"#utility.yul\":9875:9876   */\n      dup2\n        /* \"#utility.yul\":9872:9885   */\n      lt\n        /* \"#utility.yul\":9864:9977   */\n      iszero\n      tag_191\n      jumpi\n        /* \"#utility.yul\":9963:9964   */\n      dup1\n        /* \"#utility.yul\":9958:9961   */\n      dup3\n        /* \"#utility.yul\":9954:9965   */\n      add\n        /* \"#utility.yul\":9948:9966   */\n      mload\n        /* \"#utility.yul\":9944:9945   */\n      dup2\n        /* \"#utility.yul\":9939:9942   */\n      dup5\n        /* \"#utility.yul\":9935:9946   */\n      add\n        /* \"#utility.yul\":9928:9967   */\n      mstore\n        /* \"#utility.yul\":9900:9902   */\n      0x20\n        /* \"#utility.yul\":9897:9898   */\n      dup2\n        /* \"#utility.yul\":9893:9903   */\n      add\n        /* \"#utility.yul\":9888:9903   */\n      swap1\n      pop\n        /* \"#utility.yul\":9864:9977   */\n      jump(tag_189)\n    tag_191:\n        /* \"#utility.yul\":9995:10001   */\n      dup4\n        /* \"#utility.yul\":9992:9993   */\n      dup2\n        /* \"#utility.yul\":9989:10002   */\n      gt\n        /* \"#utility.yul\":9986:9988   */\n      iszero\n      tag_192\n      jumpi\n        /* \"#utility.yul\":10075:10076   */\n      0x00\n        /* \"#utility.yul\":10066:10072   */\n      dup5\n        /* \"#utility.yul\":10061:10064   */\n      dup5\n        /* \"#utility.yul\":10057:10073   */\n      add\n        /* \"#utility.yul\":10050:10077   */\n      mstore\n        /* \"#utility.yul\":9986:9988   */\n    tag_192:\n        /* \"#utility.yul\":9835:10093   */\n      pop\n      pop\n      pop\n      pop\n      jump\t// out\n        /* \"#utility.yul\":10099:10419   */\n    tag_45:\n      0x00\n        /* \"#utility.yul\":10180:10181   */\n      0x02\n        /* \"#utility.yul\":10174:10178   */\n      dup3\n        /* \"#utility.yul\":10170:10182   */\n      div\n        /* \"#utility.yul\":10160:10182   */\n      swap1\n      pop\n        /* \"#utility.yul\":10227:10228   */\n      0x01\n        /* \"#utility.yul\":10221:10225   */\n      dup3\n        /* \"#utility.yul\":10217:10229   */\n      and\n        /* \"#utility.yul\":10248:10266   */\n      dup1\n        /* \"#utility.yul\":10238:10240   */\n      tag_194\n      jumpi\n        /* \"#utility.yul\":10304:10308   */\n      0x7f\n        /* \"#utility.yul\":10296:10302   */\n      dup3\n        /* \"#utility.yul\":10292:10309   */\n      and\n        /* \"#utility.yul\":10282:10309   */\n      swap2\n      pop\n        /* \"#utility.yul\":10238:10240   */\n    tag_194:\n        /* \"#utility.yul\":10366:10368   */\n      0x20\n        /* \"#utility.yul\":10358:10364   */\n      dup3\n        /* \"#utility.yul\":10355:10369   */\n      lt\n        /* \"#utility.yul\":10335:10353   */\n      dup2\n        /* \"#utility.yul\":10332:10370   */\n      eq\n        /* \"#utility.yul\":10329:10331   */\n      iszero\n      tag_195\n      jumpi\n        /* \"#utility.yul\":10385:10403   */\n      tag_196\n      tag_197\n      jump\t// in\n    tag_196:\n        /* \"#utility.yul\":10329:10331   */\n    tag_195:\n        /* \"#utility.yul\":10150:10419   */\n      pop\n      swap2\n      swap1\n      pop\n      jump\t// out\n        /* \"#utility.yul\":10425:10605   */\n    tag_197:\n        /* \"#utility.yul\":10473:10550   */\n      0x4e487b7100000000000000000000000000000000000000000000000000000000\n        /* \"#utility.yul\":10470:10471   */\n      0x00\n        /* \"#utility.yul\":10463:10551   */\n      mstore\n        /* \"#utility.yul\":10570:10574   */\n      0x22\n        /* \"#utility.yul\":10567:10568   */\n      0x04\n        /* \"#utility.yul\":10560:10575   */\n      mstore\n        /* \"#utility.yul\":10594:10598   */\n      0x24\n        /* \"#utility.yul\":10591:10592   */\n      0x00\n        /* \"#utility.yul\":10584:10599   */\n      revert\n        /* \"#utility.yul\":10611:10791   */\n    tag_171:\n        /* \"#utility.yul\":10659:10736   */\n      0x4e487b7100000000000000000000000000000000000000000000000000000000\n        /* \"#utility.yul\":10656:10657   */\n      0x00\n        /* \"#utility.yul\":10649:10737   */\n      mstore\n        /* \"#utility.yul\":10756:10760   */\n      0x41\n        /* \"#utility.yul\":10753:10754   */\n      0x04\n        /* \"#utility.yul\":10746:10761   */\n      mstore\n        /* \"#utility.yul\":10780:10784   */\n      0x24\n        /* \"#utility.yul\":10777:10778   */\n      0x00\n        /* \"#utility.yul\":10770:10785   */\n      revert\n        /* \"#utility.yul\":10797:10899   */\n    tag_133:\n      0x00\n        /* \"#utility.yul\":10889:10891   */\n      0x1f\n        /* \"#utility.yul\":10885:10892   */\n      not\n        /* \"#utility.yul\":10880:10882   */\n      0x1f\n        /* \"#utility.yul\":10873:10878   */\n      dup4\n        /* \"#utility.yul\":10869:10883   */\n      add\n        /* \"#utility.yul\":10865:10893   */\n      and\n        /* \"#utility.yul\":10855:10893   */\n      swap1\n      pop\n        /* \"#utility.yul\":10845:10899   */\n      swap2\n      swap1\n      pop\n      jump\t// out\n        /* \"#utility.yul\":10905:11027   */\n    tag_91:\n        /* \"#utility.yul\":10978:11002   */\n      tag_202\n        /* \"#utility.yul\":10996:11001   */\n      dup2\n        /* \"#utility.yul\":10978:11002   */\n      tag_157\n      jump\t// in\n    tag_202:\n        /* \"#utility.yul\":10971:10976   */\n      dup2\n        /* \"#utility.yul\":10968:11003   */\n      eq\n        /* \"#utility.yul\":10958:10960   */\n      tag_203\n      jumpi\n        /* \"#utility.yul\":11017:11018   */\n      0x00\n        /* \"#utility.yul\":11014:11015   */\n      dup1\n        /* \"#utility.yul\":11007:11019   */\n      revert\n        /* \"#utility.yul\":10958:10960   */\n    tag_203:\n        /* \"#utility.yul\":10948:11027   */\n      pop\n      jump\t// out\n\n    auxdata: 0xa264697066735822122008a3e2733637ef051af03c3995b5508d31871544066e980d4d103e3e80d24fdc64736f6c63430008000033\n}\n",
				"bytecode": {
					"linkReferences": {},
					"object": "608060405234801561001057600080fd5b50336000806101000a81548173ffffffffffffffffffffffffffffffffffffffff021916908373ffffffffffffffffffffffffffffffffffffffff160217905550610c0c806100606000396000f3fe608060405234801561001057600080fd5b50600436106100625760003560e01c806357a2b4d5146100675780636874404614610083578063772aaeb5146100b55780637e490a9e146100bf5780638da5cb5b146100db578063bc072787146100f9575b600080fd5b610081600480360381019061007c91906106e4565b610117565b005b61009d60048036038101906100989190610725565b6102a0565b6040516100ac9392919061097b565b60405180910390f35b6100bd610396565b005b6100d960048036038101906100d49190610725565b610398565b005b6100e3610425565b6040516100f0919061093e565b60405180910390f35b610101610449565b60405161010e9190610959565b60405180910390f35b3373ffffffffffffffffffffffffffffffffffffffff1660008054906101000a900473ffffffffffffffffffffffffffffffffffffffff1673ffffffffffffffffffffffffffffffffffffffff16146101a5576040517f08c379a000000000000000000000000000000000000000000000000000000000815260040161019c906109b9565b60405180910390fd5b6001604051806060016040528083815260200160026040518060200160405290816000820154815250508152602001600073ffffffffffffffffffffffffffffffffffffffff16815250908060018154018082558091505060019003906000526020600020906003020160009091909190915060008201518160000190805190602001906102349291906105c4565b5060208201518160010160008201518160000155505060408201518160020160006101000a81548173ffffffffffffffffffffffffffffffffffffffff021916908373ffffffffffffffffffffffffffffffffffffffff160217905550505061029d60026105ae565b50565b600181815481106102b057600080fd5b90600052602060002090600302016000915090508060000180546102d390610b1e565b80601f01602080910402602001604051908101604052809291908181526020018280546102ff90610b1e565b801561034c5780601f106103215761010080835404028352916020019161034c565b820191906000526020600020905b81548152906001019060200180831161032f57829003601f168201915b50505050509080600101604051806020016040529081600082015481525050908060020160009054906101000a900473ffffffffffffffffffffffffffffffffffffffff16905083565b565b33600182815481106103d3577f4e487b7100000000000000000000000000000000000000000000000000000000600052603260045260246000fd5b906000526020600020906003020160020160006101000a81548173ffffffffffffffffffffffffffffffffffffffff021916908373ffffffffffffffffffffffffffffffffffffffff16021790555050565b60008054906101000a900473ffffffffffffffffffffffffffffffffffffffff1681565b60606001805480602002602001604051908101604052809291908181526020016000905b828210156105a557838290600052602060002090600302016040518060600160405290816000820180546104a090610b1e565b80601f01602080910402602001604051908101604052809291908181526020018280546104cc90610b1e565b80156105195780601f106104ee57610100808354040283529160200191610519565b820191906000526020600020905b8154815290600101906020018083116104fc57829003601f168201915b505050505081526020016001820160405180602001604052908160008201548152505081526020016002820160009054906101000a900473ffffffffffffffffffffffffffffffffffffffff1673ffffffffffffffffffffffffffffffffffffffff1673ffffffffffffffffffffffffffffffffffffffff16815250508152602001906001019061046d565b50505050905090565b6001816000016000828254019250508190555050565b8280546105d090610b1e565b90600052602060002090601f0160209004810192826105f25760008555610639565b82601f1061060b57805160ff1916838001178555610639565b82800160010185558215610639579182015b8281111561063857825182559160200191906001019061061d565b5b509050610646919061064a565b5090565b5b8082111561066357600081600090555060010161064b565b5090565b600061067a61067584610a0a565b6109d9565b90508281526020810184848401111561069257600080fd5b61069d848285610adc565b509392505050565b600082601f8301126106b657600080fd5b81356106c6848260208601610667565b91505092915050565b6000813590506106de81610bbf565b92915050565b6000602082840312156106f657600080fd5b600082013567ffffffffffffffff81111561071057600080fd5b61071c848285016106a5565b91505092915050565b60006020828403121561073757600080fd5b6000610745848285016106cf565b91505092915050565b600061075a83836108a7565b905092915050565b61076b81610aa0565b82525050565b61077a81610aa0565b82525050565b600061078b82610a4a565b6107958185610a6d565b9350836020820285016107a785610a3a565b8060005b858110156107e357848403895281516107c4858261074e565b94506107cf83610a60565b925060208a019950506001810190506107ab565b50829750879550505050505092915050565b600061080082610a55565b61080a8185610a7e565b935061081a818560208601610aeb565b61082381610bae565b840191505092915050565b600061083982610a55565b6108438185610a8f565b9350610853818560208601610aeb565b61085c81610bae565b840191505092915050565b6000610874601883610a8f565b91507f4e6f7420696e766f6b656420627920746865206f776e657200000000000000006000830152602082019050919050565b600060608301600083015184820360008601526108c482826107f5565b91505060208301516108d960208601826108f7565b5060408301516108ec6040860182610762565b508091505092915050565b60208201600082015161090d600085018261092f565b50505050565b602082016000820151610929600085018261092f565b50505050565b61093881610ad2565b82525050565b60006020820190506109536000830184610771565b92915050565b600060208201905081810360008301526109738184610780565b905092915050565b60006060820190508181036000830152610995818661082e565b90506109a46020830185610913565b6109b16040830184610771565b949350505050565b600060208201905081810360008301526109d281610867565b9050919050565b6000604051905081810181811067ffffffffffffffff82111715610a00576109ff610b7f565b5b8060405250919050565b600067ffffffffffffffff821115610a2557610a24610b7f565b5b601f19601f8301169050602081019050919050565b6000819050602082019050919050565b600081519050919050565b600081519050919050565b6000602082019050919050565b600082825260208201905092915050565b600082825260208201905092915050565b600082825260208201905092915050565b6000610aab82610ab2565b9050919050565b600073ffffffffffffffffffffffffffffffffffffffff82169050919050565b6000819050919050565b82818337600083830152505050565b60005b83811015610b09578082015181840152602081019050610aee565b83811115610b18576000848401525b50505050565b60006002820490506001821680610b3657607f821691505b60208210811415610b4a57610b49610b50565b5b50919050565b7f4e487b7100000000000000000000000000000000000000000000000000000000600052602260045260246000fd5b7f4e487b7100000000000000000000000000000000000000000000000000000000600052604160045260246000fd5b6000601f19601f8301169050919050565b610bc881610ad2565b8114610bd357600080fd5b5056fea264697066735822122008a3e2733637ef051af03c3995b5508d31871544066e980d4d103e3e80d24fdc64736f6c63430008000033",
					"opcodes": "PUSH1 0x80 PUSH1 0x40 MSTORE CALLVALUE DUP1 ISZERO PUSH2 0x10 JUMPI PUSH1 0x0 DUP1 REVERT JUMPDEST POP CALLER PUSH1 0x0 DUP1 PUSH2 0x100 EXP DUP2 SLOAD DUP2 PUSH20 0xFFFFFFFFFFFFFFFFFFFFFFFFFFFFFFFFFFFFFFFF MUL NOT AND SWAP1 DUP4 PUSH20 0xFFFFFFFFFFFFFFFFFFFFFFFFFFFFFFFFFFFFFFFF AND MUL OR SWAP1 SSTORE POP PUSH2 0xC0C DUP1 PUSH2 0x60 PUSH1 0x0 CODECOPY PUSH1 0x0 RETURN INVALID PUSH1 0x80 PUSH1 0x40 MSTORE CALLVALUE DUP1 ISZERO PUSH2 0x10 JUMPI PUSH1 0x0 DUP1 REVERT JUMPDEST POP PUSH1 0x4 CALLDATASIZE LT PUSH2 0x62 JUMPI PUSH1 0x0 CALLDATALOAD PUSH1 0xE0 SHR DUP1 PUSH4 0x57A2B4D5 EQ PUSH2 0x67 JUMPI DUP1 PUSH4 0x68744046 EQ PUSH2 0x83 JUMPI DUP1 PUSH4 0x772AAEB5 EQ PUSH2 0xB5 JUMPI DUP1 PUSH4 0x7E490A9E EQ PUSH2 0xBF JUMPI DUP1 PUSH4 0x8DA5CB5B EQ PUSH2 0xDB JUMPI DUP1 PUSH4 0xBC072787 EQ PUSH2 0xF9 JUMPI JUMPDEST PUSH1 0x0 DUP1 REVERT JUMPDEST PUSH2 0x81 PUSH1 0x4 DUP1 CALLDATASIZE SUB DUP2 ADD SWAP1 PUSH2 0x7C SWAP2 SWAP1 PUSH2 0x6E4 JUMP JUMPDEST PUSH2 0x117 JUMP JUMPDEST STOP JUMPDEST PUSH2 0x9D PUSH1 0x4 DUP1 CALLDATASIZE SUB DUP2 ADD SWAP1 PUSH2 0x98 SWAP2 SWAP1 PUSH2 0x725 JUMP JUMPDEST PUSH2 0x2A0 JUMP JUMPDEST PUSH1 0x40 MLOAD PUSH2 0xAC SWAP4 SWAP3 SWAP2 SWAP1 PUSH2 0x97B JUMP JUMPDEST PUSH1 0x40 MLOAD DUP1 SWAP2 SUB SWAP1 RETURN JUMPDEST PUSH2 0xBD PUSH2 0x396 JUMP JUMPDEST STOP JUMPDEST PUSH2 0xD9 PUSH1 0x4 DUP1 CALLDATASIZE SUB DUP2 ADD SWAP1 PUSH2 0xD4 SWAP2 SWAP1 PUSH2 0x725 JUMP JUMPDEST PUSH2 0x398 JUMP JUMPDEST STOP JUMPDEST PUSH2 0xE3 PUSH2 0x425 JUMP JUMPDEST PUSH1 0x40 MLOAD PUSH2 0xF0 SWAP2 SWAP1 PUSH2 0x93E JUMP JUMPDEST PUSH1 0x40 MLOAD DUP1 SWAP2 SUB SWAP1 RETURN JUMPDEST PUSH2 0x101 PUSH2 0x449 JUMP JUMPDEST PUSH1 0x40 MLOAD PUSH2 0x10E SWAP2 SWAP1 PUSH2 0x959 JUMP JUMPDEST PUSH1 0x40 MLOAD DUP1 SWAP2 SUB SWAP1 RETURN JUMPDEST CALLER PUSH20 0xFFFFFFFFFFFFFFFFFFFFFFFFFFFFFFFFFFFFFFFF AND PUSH1 0x0 DUP1 SLOAD SWAP1 PUSH2 0x100 EXP SWAP1 DIV PUSH20 0xFFFFFFFFFFFFFFFFFFFFFFFFFFFFFFFFFFFFFFFF AND PUSH20 0xFFFFFFFFFFFFFFFFFFFFFFFFFFFFFFFFFFFFFFFF AND EQ PUSH2 0x1A5 JUMPI PUSH1 0x40 MLOAD PUSH32 0x8C379A000000000000000000000000000000000000000000000000000000000 DUP2 MSTORE PUSH1 0x4 ADD PUSH2 0x19C SWAP1 PUSH2 0x9B9 JUMP JUMPDEST PUSH1 0x40 MLOAD DUP1 SWAP2 SUB SWAP1 REVERT JUMPDEST PUSH1 0x1 PUSH1 0x40 MLOAD DUP1 PUSH1 0x60 ADD PUSH1 0x40 MSTORE DUP1 DUP4 DUP2 MSTORE PUSH1 0x20 ADD PUSH1 0x2 PUSH1 0x40 MLOAD DUP1 PUSH1 0x20 ADD PUSH1 0x40 MSTORE SWAP1 DUP2 PUSH1 0x0 DUP3 ADD SLOAD DUP2 MSTORE POP POP DUP2 MSTORE PUSH1 0x20 ADD PUSH1 0x0 PUSH20 0xFFFFFFFFFFFFFFFFFFFFFFFFFFFFFFFFFFFFFFFF AND DUP2 MSTORE POP SWAP1 DUP1 PUSH1 0x1 DUP2 SLOAD ADD DUP1 DUP3 SSTORE DUP1 SWAP2 POP POP PUSH1 0x1 SWAP1 SUB SWAP1 PUSH1 0x0 MSTORE PUSH1 0x20 PUSH1 0x0 KECCAK256 SWAP1 PUSH1 0x3 MUL ADD PUSH1 0x0 SWAP1 SWAP2 SWAP1 SWAP2 SWAP1 SWAP2 POP PUSH1 0x0 DUP3 ADD MLOAD DUP2 PUSH1 0x0 ADD SWAP1 DUP1 MLOAD SWAP1 PUSH1 0x20 ADD SWAP1 PUSH2 0x234 SWAP3 SWAP2 SWAP1 PUSH2 0x5C4 JUMP JUMPDEST POP PUSH1 0x20 DUP3 ADD MLOAD DUP2 PUSH1 0x1 ADD PUSH1 0x0 DUP3 ADD MLOAD DUP2 PUSH1 0x0 ADD SSTORE POP POP PUSH1 0x40 DUP3 ADD MLOAD DUP2 PUSH1 0x2 ADD PUSH1 0x0 PUSH2 0x100 EXP DUP2 SLOAD DUP2 PUSH20 0xFFFFFFFFFFFFFFFFFFFFFFFFFFFFFFFFFFFFFFFF MUL NOT AND SWAP1 DUP4 PUSH20 0xFFFFFFFFFFFFFFFFFFFFFFFFFFFFFFFFFFFFFFFF AND MUL OR SWAP1 SSTORE POP POP POP PUSH2 0x29D PUSH1 0x2 PUSH2 0x5AE JUMP JUMPDEST POP JUMP JUMPDEST PUSH1 0x1 DUP2 DUP2 SLOAD DUP2 LT PUSH2 0x2B0 JUMPI PUSH1 0x0 DUP1 REVERT JUMPDEST SWAP1 PUSH1 0x0 MSTORE PUSH1 0x20 PUSH1 0x0 KECCAK256 SWAP1 PUSH1 0x3 MUL ADD PUSH1 0x0 SWAP2 POP SWAP1 POP DUP1 PUSH1 0x0 ADD DUP1 SLOAD PUSH2 0x2D3 SWAP1 PUSH2 0xB1E JUMP JUMPDEST DUP1 PUSH1 0x1F ADD PUSH1 0x20 DUP1 SWAP2 DIV MUL PUSH1 0x20 ADD PUSH1 0x40 MLOAD SWAP1 DUP2 ADD PUSH1 0x40 MSTORE DUP1 SWAP3 SWAP2 SWAP1 DUP2 DUP2 MSTORE PUSH1 0x20 ADD DUP3 DUP1 SLOAD PUSH2 0x2FF SWAP1 PUSH2 0xB1E JUMP JUMPDEST DUP1 ISZERO PUSH2 0x34C JUMPI DUP1 PUSH1 0x1F LT PUSH2 0x321 JUMPI PUSH2 0x100 DUP1 DUP4 SLOAD DIV MUL DUP4 MSTORE SWAP2 PUSH1 0x20 ADD SWAP2 PUSH2 0x34C JUMP JUMPDEST DUP3 ADD SWAP2 SWAP1 PUSH1 0x0 MSTORE PUSH1 0x20 PUSH1 0x0 KECCAK256 SWAP1 JUMPDEST DUP2 SLOAD DUP2 MSTORE SWAP1 PUSH1 0x1 ADD SWAP1 PUSH1 0x20 ADD DUP1 DUP4 GT PUSH2 0x32F JUMPI DUP3 SWAP1 SUB PUSH1 0x1F AND DUP3 ADD SWAP2 JUMPDEST POP POP POP POP POP SWAP1 DUP1 PUSH1 0x1 ADD PUSH1 0x40 MLOAD DUP1 PUSH1 0x20 ADD PUSH1 0x40 MSTORE SWAP1 DUP2 PUSH1 0x0 DUP3 ADD SLOAD DUP2 MSTORE POP POP SWAP1 DUP1 PUSH1 0x2 ADD PUSH1 0x0 SWAP1 SLOAD SWAP1 PUSH2 0x100 EXP SWAP1 DIV PUSH20 0xFFFFFFFFFFFFFFFFFFFFFFFFFFFFFFFFFFFFFFFF AND SWAP1 POP DUP4 JUMP JUMPDEST JUMP JUMPDEST CALLER PUSH1 0x1 DUP3 DUP2 SLOAD DUP2 LT PUSH2 0x3D3 JUMPI PUSH32 0x4E487B7100000000000000000000000000000000000000000000000000000000 PUSH1 0x0 MSTORE PUSH1 0x32 PUSH1 0x4 MSTORE PUSH1 0x24 PUSH1 0x0 REVERT JUMPDEST SWAP1 PUSH1 0x0 MSTORE PUSH1 0x20 PUSH1 0x0 KECCAK256 SWAP1 PUSH1 0x3 MUL ADD PUSH1 0x2 ADD PUSH1 0x0 PUSH2 0x100 EXP DUP2 SLOAD DUP2 PUSH20 0xFFFFFFFFFFFFFFFFFFFFFFFFFFFFFFFFFFFFFFFF MUL NOT AND SWAP1 DUP4 PUSH20 0xFFFFFFFFFFFFFFFFFFFFFFFFFFFFFFFFFFFFFFFF AND MUL OR SWAP1 SSTORE POP POP JUMP JUMPDEST PUSH1 0x0 DUP1 SLOAD SWAP1 PUSH2 0x100 EXP SWAP1 DIV PUSH20 0xFFFFFFFFFFFFFFFFFFFFFFFFFFFFFFFFFFFFFFFF AND DUP2 JUMP JUMPDEST PUSH1 0x60 PUSH1 0x1 DUP1 SLOAD DUP1 PUSH1 0x20 MUL PUSH1 0x20 ADD PUSH1 0x40 MLOAD SWAP1 DUP2 ADD PUSH1 0x40 MSTORE DUP1 SWAP3 SWAP2 SWAP1 DUP2 DUP2 MSTORE PUSH1 0x20 ADD PUSH1 0x0 SWAP1 JUMPDEST DUP3 DUP3 LT ISZERO PUSH2 0x5A5 JUMPI DUP4 DUP3 SWAP1 PUSH1 0x0 MSTORE PUSH1 0x20 PUSH1 0x0 KECCAK256 SWAP1 PUSH1 0x3 MUL ADD PUSH1 0x40 MLOAD DUP1 PUSH1 0x60 ADD PUSH1 0x40 MSTORE SWAP1 DUP2 PUSH1 0x0 DUP3 ADD DUP1 SLOAD PUSH2 0x4A0 SWAP1 PUSH2 0xB1E JUMP JUMPDEST DUP1 PUSH1 0x1F ADD PUSH1 0x20 DUP1 SWAP2 DIV MUL PUSH1 0x20 ADD PUSH1 0x40 MLOAD SWAP1 DUP2 ADD PUSH1 0x40 MSTORE DUP1 SWAP3 SWAP2 SWAP1 DUP2 DUP2 MSTORE PUSH1 0x20 ADD DUP3 DUP1 SLOAD PUSH2 0x4CC SWAP1 PUSH2 0xB1E JUMP JUMPDEST DUP1 ISZERO PUSH2 0x519 JUMPI DUP1 PUSH1 0x1F LT PUSH2 0x4EE JUMPI PUSH2 0x100 DUP1 DUP4 SLOAD DIV MUL DUP4 MSTORE SWAP2 PUSH1 0x20 ADD SWAP2 PUSH2 0x519 JUMP JUMPDEST DUP3 ADD SWAP2 SWAP1 PUSH1 0x0 MSTORE PUSH1 0x20 PUSH1 0x0 KECCAK256 SWAP1 JUMPDEST DUP2 SLOAD DUP2 MSTORE SWAP1 PUSH1 0x1 ADD SWAP1 PUSH1 0x20 ADD DUP1 DUP4 GT PUSH2 0x4FC JUMPI DUP3 SWAP1 SUB PUSH1 0x1F AND DUP3 ADD SWAP2 JUMPDEST POP POP POP POP POP DUP2 MSTORE PUSH1 0x20 ADD PUSH1 0x1 DUP3 ADD PUSH1 0x40 MLOAD DUP1 PUSH1 0x20 ADD PUSH1 0x40 MSTORE SWAP1 DUP2 PUSH1 0x0 DUP3 ADD SLOAD DUP2 MSTORE POP POP DUP2 MSTORE PUSH1 0x20 ADD PUSH1 0x2 DUP3 ADD PUSH1 0x0 SWAP1 SLOAD SWAP1 PUSH2 0x100 EXP SWAP1 DIV PUSH20 0xFFFFFFFFFFFFFFFFFFFFFFFFFFFFFFFFFFFFFFFF AND PUSH20 0xFFFFFFFFFFFFFFFFFFFFFFFFFFFFFFFFFFFFFFFF AND PUSH20 0xFFFFFFFFFFFFFFFFFFFFFFFFFFFFFFFFFFFFFFFF AND DUP2 MSTORE POP POP DUP2 MSTORE PUSH1 0x20 ADD SWAP1 PUSH1 0x1 ADD SWAP1 PUSH2 0x46D JUMP JUMPDEST POP POP POP POP SWAP1 POP SWAP1 JUMP JUMPDEST PUSH1 0x1 DUP2 PUSH1 0x0 ADD PUSH1 0x0 DUP3 DUP3 SLOAD ADD SWAP3 POP POP DUP2 SWAP1 SSTORE POP POP JUMP JUMPDEST DUP3 DUP1 SLOAD PUSH2 0x5D0 SWAP1 PUSH2 0xB1E JUMP JUMPDEST SWAP1 PUSH1 0x0 MSTORE PUSH1 0x20 PUSH1 0x0 KECCAK256 SWAP1 PUSH1 0x1F ADD PUSH1 0x20 SWAP1 DIV DUP2 ADD SWAP3 DUP3 PUSH2 0x5F2 JUMPI PUSH1 0x0 DUP6 SSTORE PUSH2 0x639 JUMP JUMPDEST DUP3 PUSH1 0x1F LT PUSH2 0x60B JUMPI DUP1 MLOAD PUSH1 0xFF NOT AND DUP4 DUP1 ADD OR DUP6 SSTORE PUSH2 0x639 JUMP JUMPDEST DUP3 DUP1 ADD PUSH1 0x1 ADD DUP6 SSTORE DUP3 ISZERO PUSH2 0x639 JUMPI SWAP2 DUP3 ADD JUMPDEST DUP3 DUP2 GT ISZERO PUSH2 0x638 JUMPI DUP3 MLOAD DUP3 SSTORE SWAP2 PUSH1 0x20 ADD SWAP2 SWAP1 PUSH1 0x1 ADD SWAP1 PUSH2 0x61D JUMP JUMPDEST JUMPDEST POP SWAP1 POP PUSH2 0x646 SWAP2 SWAP1 PUSH2 0x64A JUMP JUMPDEST POP SWAP1 JUMP JUMPDEST JUMPDEST DUP1 DUP3 GT ISZERO PUSH2 0x663 JUMPI PUSH1 0x0 DUP2 PUSH1 0x0 SWAP1 SSTORE POP PUSH1 0x1 ADD PUSH2 0x64B JUMP JUMPDEST POP SWAP1 JUMP JUMPDEST PUSH1 0x0 PUSH2 0x67A PUSH2 0x675 DUP5 PUSH2 0xA0A JUMP JUMPDEST PUSH2 0x9D9 JUMP JUMPDEST SWAP1 POP DUP3 DUP2 MSTORE PUSH1 0x20 DUP2 ADD DUP5 DUP5 DUP5 ADD GT ISZERO PUSH2 0x692 JUMPI PUSH1 0x0 DUP1 REVERT JUMPDEST PUSH2 0x69D DUP5 DUP3 DUP6 PUSH2 0xADC JUMP JUMPDEST POP SWAP4 SWAP3 POP POP POP JUMP JUMPDEST PUSH1 0x0 DUP3 PUSH1 0x1F DUP4 ADD SLT PUSH2 0x6B6 JUMPI PUSH1 0x0 DUP1 REVERT JUMPDEST DUP2 CALLDATALOAD PUSH2 0x6C6 DUP5 DUP3 PUSH1 0x20 DUP7 ADD PUSH2 0x667 JUMP JUMPDEST SWAP2 POP POP SWAP3 SWAP2 POP POP JUMP JUMPDEST PUSH1 0x0 DUP2 CALLDATALOAD SWAP1 POP PUSH2 0x6DE DUP2 PUSH2 0xBBF JUMP JUMPDEST SWAP3 SWAP2 POP POP JUMP JUMPDEST PUSH1 0x0 PUSH1 0x20 DUP3 DUP5 SUB SLT ISZERO PUSH2 0x6F6 JUMPI PUSH1 0x0 DUP1 REVERT JUMPDEST PUSH1 0x0 DUP3 ADD CALLDATALOAD PUSH8 0xFFFFFFFFFFFFFFFF DUP2 GT ISZERO PUSH2 0x710 JUMPI PUSH1 0x0 DUP1 REVERT JUMPDEST PUSH2 0x71C DUP5 DUP3 DUP6 ADD PUSH2 0x6A5 JUMP JUMPDEST SWAP2 POP POP SWAP3 SWAP2 POP POP JUMP JUMPDEST PUSH1 0x0 PUSH1 0x20 DUP3 DUP5 SUB SLT ISZERO PUSH2 0x737 JUMPI PUSH1 0x0 DUP1 REVERT JUMPDEST PUSH1 0x0 PUSH2 0x745 DUP5 DUP3 DUP6 ADD PUSH2 0x6CF JUMP JUMPDEST SWAP2 POP POP SWAP3 SWAP2 POP POP JUMP JUMPDEST PUSH1 0x0 PUSH2 0x75A DUP4 DUP4 PUSH2 0x8A7 JUMP JUMPDEST SWAP1 POP SWAP3 SWAP2 POP POP JUMP JUMPDEST PUSH2 0x76B DUP2 PUSH2 0xAA0 JUMP JUMPDEST DUP3 MSTORE POP POP JUMP JUMPDEST PUSH2 0x77A DUP2 PUSH2 0xAA0 JUMP JUMPDEST DUP3 MSTORE POP POP JUMP JUMPDEST PUSH1 0x0 PUSH2 0x78B DUP3 PUSH2 0xA4A JUMP JUMPDEST PUSH2 0x795 DUP2 DUP6 PUSH2 0xA6D JUMP JUMPDEST SWAP4 POP DUP4 PUSH1 0x20 DUP3 MUL DUP6 ADD PUSH2 0x7A7 DUP6 PUSH2 0xA3A JUMP JUMPDEST DUP1 PUSH1 0x0 JUMPDEST DUP6 DUP2 LT ISZERO PUSH2 0x7E3 JUMPI DUP5 DUP5 SUB DUP10 MSTORE DUP2 MLOAD PUSH2 0x7C4 DUP6 DUP3 PUSH2 0x74E JUMP JUMPDEST SWAP5 POP PUSH2 0x7CF DUP4 PUSH2 0xA60 JUMP JUMPDEST SWAP3 POP PUSH1 0x20 DUP11 ADD SWAP10 POP POP PUSH1 0x1 DUP2 ADD SWAP1 POP PUSH2 0x7AB JUMP JUMPDEST POP DUP3 SWAP8 POP DUP8 SWAP6 POP POP POP POP POP POP SWAP3 SWAP2 POP POP JUMP JUMPDEST PUSH1 0x0 PUSH2 0x800 DUP3 PUSH2 0xA55 JUMP JUMPDEST PUSH2 0x80A DUP2 DUP6 PUSH2 0xA7E JUMP JUMPDEST SWAP4 POP PUSH2 0x81A DUP2 DUP6 PUSH1 0x20 DUP7 ADD PUSH2 0xAEB JUMP JUMPDEST PUSH2 0x823 DUP2 PUSH2 0xBAE JUMP JUMPDEST DUP5 ADD SWAP2 POP POP SWAP3 SWAP2 POP POP JUMP JUMPDEST PUSH1 0x0 PUSH2 0x839 DUP3 PUSH2 0xA55 JUMP JUMPDEST PUSH2 0x843 DUP2 DUP6 PUSH2 0xA8F JUMP JUMPDEST SWAP4 POP PUSH2 0x853 DUP2 DUP6 PUSH1 0x20 DUP7 ADD PUSH2 0xAEB JUMP JUMPDEST PUSH2 0x85C DUP2 PUSH2 0xBAE JUMP JUMPDEST DUP5 ADD SWAP2 POP POP SWAP3 SWAP2 POP POP JUMP JUMPDEST PUSH1 0x0 PUSH2 0x874 PUSH1 0x18 DUP4 PUSH2 0xA8F JUMP JUMPDEST SWAP2 POP PUSH32 0x4E6F7420696E766F6B656420627920746865206F776E65720000000000000000 PUSH1 0x0 DUP4 ADD MSTORE PUSH1 0x20 DUP3 ADD SWAP1 POP SWAP2 SWAP1 POP JUMP JUMPDEST PUSH1 0x0 PUSH1 0x60 DUP4 ADD PUSH1 0x0 DUP4 ADD MLOAD DUP5 DUP3 SUB PUSH1 0x0 DUP7 ADD MSTORE PUSH2 0x8C4 DUP3 DUP3 PUSH2 0x7F5 JUMP JUMPDEST SWAP2 POP POP PUSH1 0x20 DUP4 ADD MLOAD PUSH2 0x8D9 PUSH1 0x20 DUP7 ADD DUP3 PUSH2 0x8F7 JUMP JUMPDEST POP PUSH1 0x40 DUP4 ADD MLOAD PUSH2 0x8EC PUSH1 0x40 DUP7 ADD DUP3 PUSH2 0x762 JUMP JUMPDEST POP DUP1 SWAP2 POP POP SWAP3 SWAP2 POP POP JUMP JUMPDEST PUSH1 0x20 DUP3 ADD PUSH1 0x0 DUP3 ADD MLOAD PUSH2 0x90D PUSH1 0x0 DUP6 ADD DUP3 PUSH2 0x92F JUMP JUMPDEST POP POP POP POP JUMP JUMPDEST PUSH1 0x20 DUP3 ADD PUSH1 0x0 DUP3 ADD MLOAD PUSH2 0x929 PUSH1 0x0 DUP6 ADD DUP3 PUSH2 0x92F JUMP JUMPDEST POP POP POP POP JUMP JUMPDEST PUSH2 0x938 DUP2 PUSH2 0xAD2 JUMP JUMPDEST DUP3 MSTORE POP POP JUMP JUMPDEST PUSH1 0x0 PUSH1 0x20 DUP3 ADD SWAP1 POP PUSH2 0x953 PUSH1 0x0 DUP4 ADD DUP5 PUSH2 0x771 JUMP JUMPDEST SWAP3 SWAP2 POP POP JUMP JUMPDEST PUSH1 0x0 PUSH1 0x20 DUP3 ADD SWAP1 POP DUP2 DUP2 SUB PUSH1 0x0 DUP4 ADD MSTORE PUSH2 0x973 DUP2 DUP5 PUSH2 0x780 JUMP JUMPDEST SWAP1 POP SWAP3 SWAP2 POP POP JUMP JUMPDEST PUSH1 0x0 PUSH1 0x60 DUP3 ADD SWAP1 POP DUP2 DUP2 SUB PUSH1 0x0 DUP4 ADD MSTORE PUSH2 0x995 DUP2 DUP7 PUSH2 0x82E JUMP JUMPDEST SWAP1 POP PUSH2 0x9A4 PUSH1 0x20 DUP4 ADD DUP6 PUSH2 0x913 JUMP JUMPDEST PUSH2 0x9B1 PUSH1 0x40 DUP4 ADD DUP5 PUSH2 0x771 JUMP JUMPDEST SWAP5 SWAP4 POP POP POP POP JUMP JUMPDEST PUSH1 0x0 PUSH1 0x20 DUP3 ADD SWAP1 POP DUP2 DUP2 SUB PUSH1 0x0 DUP4 ADD MSTORE PUSH2 0x9D2 DUP2 PUSH2 0x867 JUMP JUMPDEST SWAP1 POP SWAP2 SWAP1 POP JUMP JUMPDEST PUSH1 0x0 PUSH1 0x40 MLOAD SWAP1 POP DUP2 DUP2 ADD DUP2 DUP2 LT PUSH8 0xFFFFFFFFFFFFFFFF DUP3 GT OR ISZERO PUSH2 0xA00 JUMPI PUSH2 0x9FF PUSH2 0xB7F JUMP JUMPDEST JUMPDEST DUP1 PUSH1 0x40 MSTORE POP SWAP2 SWAP1 POP JUMP JUMPDEST PUSH1 0x0 PUSH8 0xFFFFFFFFFFFFFFFF DUP3 GT ISZERO PUSH2 0xA25 JUMPI PUSH2 0xA24 PUSH2 0xB7F JUMP JUMPDEST JUMPDEST PUSH1 0x1F NOT PUSH1 0x1F DUP4 ADD AND SWAP1 POP PUSH1 0x20 DUP2 ADD SWAP1 POP SWAP2 SWAP1 POP JUMP JUMPDEST PUSH1 0x0 DUP2 SWAP1 POP PUSH1 0x20 DUP3 ADD SWAP1 POP SWAP2 SWAP1 POP JUMP JUMPDEST PUSH1 0x0 DUP2 MLOAD SWAP1 POP SWAP2 SWAP1 POP JUMP JUMPDEST PUSH1 0x0 DUP2 MLOAD SWAP1 POP SWAP2 SWAP1 POP JUMP JUMPDEST PUSH1 0x0 PUSH1 0x20 DUP3 ADD SWAP1 POP SWAP2 SWAP1 POP JUMP JUMPDEST PUSH1 0x0 DUP3 DUP3 MSTORE PUSH1 0x20 DUP3 ADD SWAP1 POP SWAP3 SWAP2 POP POP JUMP JUMPDEST PUSH1 0x0 DUP3 DUP3 MSTORE PUSH1 0x20 DUP3 ADD SWAP1 POP SWAP3 SWAP2 POP POP JUMP JUMPDEST PUSH1 0x0 DUP3 DUP3 MSTORE PUSH1 0x20 DUP3 ADD SWAP1 POP SWAP3 SWAP2 POP POP JUMP JUMPDEST PUSH1 0x0 PUSH2 0xAAB DUP3 PUSH2 0xAB2 JUMP JUMPDEST SWAP1 POP SWAP2 SWAP1 POP JUMP JUMPDEST PUSH1 0x0 PUSH20 0xFFFFFFFFFFFFFFFFFFFFFFFFFFFFFFFFFFFFFFFF DUP3 AND SWAP1 POP SWAP2 SWAP1 POP JUMP JUMPDEST PUSH1 0x0 DUP2 SWAP1 POP SWAP2 SWAP1 POP JUMP JUMPDEST DUP3 DUP2 DUP4 CALLDATACOPY PUSH1 0x0 DUP4 DUP4 ADD MSTORE POP POP POP JUMP JUMPDEST PUSH1 0x0 JUMPDEST DUP4 DUP2 LT ISZERO PUSH2 0xB09 JUMPI DUP1 DUP3 ADD MLOAD DUP2 DUP5 ADD MSTORE PUSH1 0x20 DUP2 ADD SWAP1 POP PUSH2 0xAEE JUMP JUMPDEST DUP4 DUP2 GT ISZERO PUSH2 0xB18 JUMPI PUSH1 0x0 DUP5 DUP5 ADD MSTORE JUMPDEST POP POP POP POP JUMP JUMPDEST PUSH1 0x0 PUSH1 0x2 DUP3 DIV SWAP1 POP PUSH1 0x1 DUP3 AND DUP1 PUSH2 0xB36 JUMPI PUSH1 0x7F DUP3 AND SWAP2 POP JUMPDEST PUSH1 0x20 DUP3 LT DUP2 EQ ISZERO PUSH2 0xB4A JUMPI PUSH2 0xB49 PUSH2 0xB50 JUMP JUMPDEST JUMPDEST POP SWAP2 SWAP1 POP JUMP JUMPDEST PUSH32 0x4E487B7100000000000000000000000000000000000000000000000000000000 PUSH1 0x0 MSTORE PUSH1 0x22 PUSH1 0x4 MSTORE PUSH1 0x24 PUSH1 0x0 REVERT JUMPDEST PUSH32 0x4E487B7100000000000000000000000000000000000000000000000000000000 PUSH1 0x0 MSTORE PUSH1 0x41 PUSH1 0x4 MSTORE PUSH1 0x24 PUSH1 0x0 REVERT JUMPDEST PUSH1 0x0 PUSH1 0x1F NOT PUSH1 0x1F DUP4 ADD AND SWAP1 POP SWAP2 SWAP1 POP JUMP JUMPDEST PUSH2 0xBC8 DUP2 PUSH2 0xAD2 JUMP JUMPDEST DUP2 EQ PUSH2 0xBD3 JUMPI PUSH1 0x0 DUP1 REVERT JUMPDEST POP JUMP INVALID LOG2 PUSH5 0x6970667358 0x22 SLT KECCAK256 ADDMOD LOG3 0xE2 PUSH20 0x3637EF051AF03C3995B5508D31871544066E980D 0x4D LT RETURNDATACOPY RETURNDATACOPY DUP1 0xD2 0x4F 0xDC PUSH5 0x736F6C6343 STOP ADDMOD STOP STOP CALLER "
				},
				"gasEstimates": {
					"creation": {
						"codeDepositCost": "616800",
						"executionCost": "21517",
						"totalCost": "638317"
					},
					"external": {
						"addNewBook(string)": "infinite",
						"books(uint256)": "infinite",
						"borrowBook(uint256)": "22213",
						"owner()": "1277",
						"returnBook()": "166",
						"seeRecord()": "infinite"
					}
				},
				"methodIdentifiers": {
					"addNewBook(string)": "57a2b4d5",
					"books(uint256)": "68744046",
					"borrowBook(uint256)": "7e490a9e",
					"owner()": "8da5cb5b",
					"returnBook()": "772aaeb5",
					"seeRecord()": "bc072787"
				}
			},
			"storageLayout": {
				"storage": [
					{
						"astId": 158,
						"contract": "contracts/Library.sol:Library",
						"label": "owner",
						"offset": 0,
						"slot": "0",
						"type": "t_address"
					},
					{
						"astId": 96,
						"contract": "contracts/Library.sol:Library",
						"label": "books",
						"offset": 0,
						"slot": "1",
						"type": "t_array(t_struct(Book)92_storage)dyn_storage"
					},
					{
						"astId": 99,
						"contract": "contracts/Library.sol:Library",
						"label": "id",
						"offset": 0,
						"slot": "2",
						"type": "t_struct(Counter)5_storage"
					}
				],
				"types": {
					"t_address": {
						"encoding": "inplace",
						"label": "address",
						"numberOfBytes": "20"
					},
					"t_array(t_struct(Book)92_storage)dyn_storage": {
						"base": "t_struct(Book)92_storage",
						"encoding": "dynamic_array",
						"label": "struct Library.Book[]",
						"numberOfBytes": "32"
					},
					"t_string_storage": {
						"encoding": "bytes",
						"label": "string",
						"numberOfBytes": "32"
					},
					"t_struct(Book)92_storage": {
						"encoding": "inplace",
						"label": "struct Library.Book",
						"members": [
							{
								"astId": 86,
								"contract": "contracts/Library.sol:Library",
								"label": "name",
								"offset": 0,
								"slot": "0",
								"type": "t_string_storage"
							},
							{
								"astId": 89,
								"contract": "contracts/Library.sol:Library",
								"label": "id",
								"offset": 0,
								"slot": "1",
								"type": "t_struct(Counter)5_storage"
							},
							{
								"astId": 91,
								"contract": "contracts/Library.sol:Library",
								"label": "user",
								"offset": 0,
								"slot": "2",
								"type": "t_address"
							}
						],
						"numberOfBytes": "96"
					},
					"t_struct(Counter)5_storage": {
						"encoding": "inplace",
						"label": "struct Counters.Counter",
						"members": [
							{
								"astId": 4,
								"contract": "contracts/Library.sol:Library",
								"label": "_value",
								"offset": 0,
								"slot": "0",
								"type": "t_uint256"
							}
						],
						"numberOfBytes": "32"
					},
					"t_uint256": {
						"encoding": "inplace",
						"label": "uint256",
						"numberOfBytes": "32"
					}
				}
			},
			"userdoc": {
				"kind": "user",
				"methods": {},
				"version": 1
			}
		}
	}
}