{
	"contracts/Library.sol": {
		"Library": {
			"abi": [
				{
					"inputs": [
						{
							"internalType": "string",
							"name": "_name",
							"type": "string"
						},
						{
							"internalType": "uint256",
							"name": "_copies",
							"type": "uint256"
						}
					],
					"name": "addNewBook",
					"outputs": [],
					"stateMutability": "nonpayable",
					"type": "function"
				},
				{
					"inputs": [
						{
							"internalType": "uint256",
							"name": "",
							"type": "uint256"
						}
					],
					"name": "books",
					"outputs": [
						{
							"internalType": "string",
							"name": "name",
							"type": "string"
						},
						{
							"components": [
								{
									"internalType": "uint256",
									"name": "_value",
									"type": "uint256"
								}
							],
							"internalType": "struct Counters.Counter",
							"name": "id",
							"type": "tuple"
						},
						{
							"internalType": "address",
							"name": "user",
							"type": "address"
						},
						{
							"internalType": "uint256",
							"name": "copies",
							"type": "uint256"
						}
					],
					"stateMutability": "view",
					"type": "function"
				},
				{
					"inputs": [
						{
							"internalType": "uint256",
							"name": "_id",
							"type": "uint256"
						}
					],
					"name": "borrowBook",
					"outputs": [],
					"stateMutability": "nonpayable",
					"type": "function"
				},
				{
					"inputs": [],
					"name": "owner",
					"outputs": [
						{
							"internalType": "address",
							"name": "",
							"type": "address"
						}
					],
					"stateMutability": "view",
					"type": "function"
				},
				{
					"inputs": [
						{
							"internalType": "uint256",
							"name": "_id",
							"type": "uint256"
						}
					],
					"name": "returnBook",
					"outputs": [],
					"stateMutability": "nonpayable",
					"type": "function"
				},
				{
					"inputs": [],
					"name": "seeRecord",
					"outputs": [
						{
							"components": [
								{
									"internalType": "string",
									"name": "name",
									"type": "string"
								},
								{
									"components": [
										{
											"internalType": "uint256",
											"name": "_value",
											"type": "uint256"
										}
									],
									"internalType": "struct Counters.Counter",
									"name": "id",
									"type": "tuple"
								},
								{
									"internalType": "address",
									"name": "user",
									"type": "address"
								},
								{
									"internalType": "uint256",
									"name": "copies",
									"type": "uint256"
								}
							],
							"internalType": "struct Library.Book[]",
							"name": "",
							"type": "tuple[]"
						}
					],
					"stateMutability": "view",
					"type": "function"
				}
			],
			"devdoc": {
				"kind": "dev",
				"methods": {},
				"version": 1
			},
			"evm": {
				"assembly": "    /* \"contracts/Library.sol\":162:901  contract Library is Ownable {... */\n  mstore(0x40, 0x80)\n  callvalue\n  dup1\n  iszero\n  tag_1\n  jumpi\n  0x00\n  dup1\n  revert\ntag_1:\n  pop\n    /* \"contracts/Ownable.sol\":265:275  msg.sender */\n  caller\n    /* \"contracts/Ownable.sol\":257:262  owner */\n  0x00\n  dup1\n    /* \"contracts/Ownable.sol\":257:275  owner = msg.sender */\n  0x0100\n  exp\n  dup2\n  sload\n  dup2\n  0xffffffffffffffffffffffffffffffffffffffff\n  mul\n  not\n  and\n  swap1\n  dup4\n  0xffffffffffffffffffffffffffffffffffffffff\n  and\n  mul\n  or\n  swap1\n  sstore\n  pop\n    /* \"contracts/Library.sol\":162:901  contract Library is Ownable {... */\n  dataSize(sub_0)\n  dup1\n  dataOffset(sub_0)\n  0x00\n  codecopy\n  0x00\n  return\nstop\n\nsub_0: assembly {\n        /* \"contracts/Library.sol\":162:901  contract Library is Ownable {... */\n      mstore(0x40, 0x80)\n      callvalue\n      dup1\n      iszero\n      tag_1\n      jumpi\n      0x00\n      dup1\n      revert\n    tag_1:\n      pop\n      jumpi(tag_2, lt(calldatasize, 0x04))\n      shr(0xe0, calldataload(0x00))\n      dup1\n      0x45b8a73e\n      eq\n      tag_3\n      jumpi\n      dup1\n      0x68744046\n      eq\n      tag_4\n      jumpi\n      dup1\n      0x7e490a9e\n      eq\n      tag_5\n      jumpi\n      dup1\n      0x8da5cb5b\n      eq\n      tag_6\n      jumpi\n      dup1\n      0xbc072787\n      eq\n      tag_7\n      jumpi\n      dup1\n      0xca5140c9\n      eq\n      tag_8\n      jumpi\n    tag_2:\n      0x00\n      dup1\n      revert\n        /* \"contracts/Library.sol\":464:616  function addNewBook (string memory _name, uint _copies) external onlyOwner {... */\n    tag_3:\n      tag_9\n      0x04\n      dup1\n      calldatasize\n      sub\n      dup2\n      add\n      swap1\n      tag_10\n      swap2\n      swap1\n      tag_11\n      jump\t// in\n    tag_10:\n      tag_12\n      jump\t// in\n    tag_9:\n      stop\n        /* \"contracts/Library.sol\":413:432  Book[] public books */\n    tag_4:\n      tag_13\n      0x04\n      dup1\n      calldatasize\n      sub\n      dup2\n      add\n      swap1\n      tag_14\n      swap2\n      swap1\n      tag_15\n      jump\t// in\n    tag_14:\n      tag_16\n      jump\t// in\n    tag_13:\n      mload(0x40)\n      tag_17\n      swap5\n      swap4\n      swap3\n      swap2\n      swap1\n      tag_18\n      jump\t// in\n    tag_17:\n      mload(0x40)\n      dup1\n      swap2\n      sub\n      swap1\n      return\n        /* \"contracts/Library.sol\":618:717  function borrowBook (uint _id) public {... */\n    tag_5:\n      tag_19\n      0x04\n      dup1\n      calldatasize\n      sub\n      dup2\n      add\n      swap1\n      tag_20\n      swap2\n      swap1\n      tag_15\n      jump\t// in\n    tag_20:\n      tag_21\n      jump\t// in\n    tag_19:\n      stop\n        /* \"contracts/Ownable.sol\":87:107  address public owner */\n    tag_6:\n      tag_22\n      tag_23\n      jump\t// in\n    tag_22:\n      mload(0x40)\n      tag_24\n      swap2\n      swap1\n      tag_25\n      jump\t// in\n    tag_24:\n      mload(0x40)\n      dup1\n      swap2\n      sub\n      swap1\n      return\n        /* \"contracts/Library.sol\":820:898  function seeRecord () public view returns(Book[] memory) {... */\n    tag_7:\n      tag_26\n      tag_27\n      jump\t// in\n    tag_26:\n      mload(0x40)\n      tag_28\n      swap2\n      swap1\n      tag_29\n      jump\t// in\n    tag_28:\n      mload(0x40)\n      dup1\n      swap2\n      sub\n      swap1\n      return\n        /* \"contracts/Library.sol\":719:818  function returnBook (uint _id) public {... */\n    tag_8:\n      tag_30\n      0x04\n      dup1\n      calldatasize\n      sub\n      dup2\n      add\n      swap1\n      tag_31\n      swap2\n      swap1\n      tag_15\n      jump\t// in\n    tag_31:\n      tag_32\n      jump\t// in\n    tag_30:\n      stop\n        /* \"contracts/Library.sol\":464:616  function addNewBook (string memory _name, uint _copies) external onlyOwner {... */\n    tag_12:\n        /* \"contracts/Ownable.sol\":166:176  msg.sender */\n      caller\n        /* \"contracts/Ownable.sol\":157:176  owner == msg.sender */\n      0xffffffffffffffffffffffffffffffffffffffff\n      and\n        /* \"contracts/Ownable.sol\":157:162  owner */\n      0x00\n      dup1\n      sload\n      swap1\n      0x0100\n      exp\n      swap1\n      div\n      0xffffffffffffffffffffffffffffffffffffffff\n      and\n        /* \"contracts/Ownable.sol\":157:176  owner == msg.sender */\n      0xffffffffffffffffffffffffffffffffffffffff\n      and\n      eq\n        /* \"contracts/Ownable.sol\":149:205  require(owner == msg.sender, \"Not invoked by the owner\") */\n      tag_34\n      jumpi\n      mload(0x40)\n      0x08c379a000000000000000000000000000000000000000000000000000000000\n      dup2\n      mstore\n      0x04\n      add\n      tag_35\n      swap1\n      tag_36\n      jump\t// in\n    tag_35:\n      mload(0x40)\n      dup1\n      swap2\n      sub\n      swap1\n      revert\n    tag_34:\n        /* \"contracts/Library.sol\":545:550  books */\n      0x01\n        /* \"contracts/Library.sol\":556:592  Book(_name, id, address(0), _copies) */\n      mload(0x40)\n      dup1\n      0x80\n      add\n      0x40\n      mstore\n      dup1\n        /* \"contracts/Library.sol\":561:566  _name */\n      dup5\n        /* \"contracts/Library.sol\":556:592  Book(_name, id, address(0), _copies) */\n      dup2\n      mstore\n      0x20\n      add\n        /* \"contracts/Library.sol\":568:570  id */\n      0x02\n        /* \"contracts/Library.sol\":556:592  Book(_name, id, address(0), _copies) */\n      mload(0x40)\n      dup1\n      0x20\n      add\n      0x40\n      mstore\n      swap1\n      dup2\n      0x00\n      dup3\n      add\n      sload\n      dup2\n      mstore\n      pop\n      pop\n      dup2\n      mstore\n      0x20\n      add\n        /* \"contracts/Library.sol\":580:581  0 */\n      0x00\n        /* \"contracts/Library.sol\":556:592  Book(_name, id, address(0), _copies) */\n      0xffffffffffffffffffffffffffffffffffffffff\n      and\n      dup2\n      mstore\n      0x20\n      add\n        /* \"contracts/Library.sol\":584:591  _copies */\n      dup4\n        /* \"contracts/Library.sol\":556:592  Book(_name, id, address(0), _copies) */\n      dup2\n      mstore\n      pop\n        /* \"contracts/Library.sol\":545:593  books.push(Book(_name, id, address(0), _copies)) */\n      swap1\n      dup1\n      0x01\n      dup2\n      sload\n      add\n      dup1\n      dup3\n      sstore\n      dup1\n      swap2\n      pop\n      pop\n      0x01\n      swap1\n      sub\n      swap1\n      0x00\n      mstore\n      keccak256(0x00, 0x20)\n      swap1\n      0x04\n      mul\n      add\n      0x00\n      swap1\n      swap2\n      swap1\n      swap2\n      swap1\n      swap2\n      pop\n      0x00\n      dup3\n      add\n      mload\n      dup2\n      0x00\n      add\n      swap1\n      dup1\n      mload\n      swap1\n      0x20\n      add\n      swap1\n      tag_39\n      swap3\n      swap2\n      swap1\n      tag_40\n      jump\t// in\n    tag_39:\n      pop\n      0x20\n      dup3\n      add\n      mload\n      dup2\n      0x01\n      add\n      0x00\n      dup3\n      add\n      mload\n      dup2\n      0x00\n      add\n      sstore\n      pop\n      pop\n      0x40\n      dup3\n      add\n      mload\n      dup2\n      0x02\n      add\n      exp(0x0100, 0x00)\n      dup2\n      sload\n      dup2\n      0xffffffffffffffffffffffffffffffffffffffff\n      mul\n      not\n      and\n      swap1\n      dup4\n      0xffffffffffffffffffffffffffffffffffffffff\n      and\n      mul\n      or\n      swap1\n      sstore\n      pop\n      0x60\n      dup3\n      add\n      mload\n      dup2\n      0x03\n      add\n      sstore\n      pop\n      pop\n        /* \"contracts/Library.sol\":599:613  id.increment() */\n      tag_41\n        /* \"contracts/Library.sol\":599:601  id */\n      0x02\n        /* \"contracts/Library.sol\":599:611  id.increment */\n      tag_42\n        /* \"contracts/Library.sol\":599:613  id.increment() */\n      jump\t// in\n    tag_41:\n        /* \"contracts/Library.sol\":464:616  function addNewBook (string memory _name, uint _copies) external onlyOwner {... */\n      pop\n      pop\n      jump\t// out\n        /* \"contracts/Library.sol\":413:432  Book[] public books */\n    tag_16:\n      0x01\n      dup2\n      dup2\n      sload\n      dup2\n      lt\n      tag_43\n      jumpi\n      0x00\n      dup1\n      revert\n    tag_43:\n      swap1\n      0x00\n      mstore\n      keccak256(0x00, 0x20)\n      swap1\n      0x04\n      mul\n      add\n      0x00\n      swap2\n      pop\n      swap1\n      pop\n      dup1\n      0x00\n      add\n      dup1\n      sload\n      tag_45\n      swap1\n      tag_46\n      jump\t// in\n    tag_45:\n      dup1\n      0x1f\n      add\n      0x20\n      dup1\n      swap2\n      div\n      mul\n      0x20\n      add\n      mload(0x40)\n      swap1\n      dup2\n      add\n      0x40\n      mstore\n      dup1\n      swap3\n      swap2\n      swap1\n      dup2\n      dup2\n      mstore\n      0x20\n      add\n      dup3\n      dup1\n      sload\n      tag_47\n      swap1\n      tag_46\n      jump\t// in\n    tag_47:\n      dup1\n      iszero\n      tag_48\n      jumpi\n      dup1\n      0x1f\n      lt\n      tag_49\n      jumpi\n      0x0100\n      dup1\n      dup4\n      sload\n      div\n      mul\n      dup4\n      mstore\n      swap2\n      0x20\n      add\n      swap2\n      jump(tag_48)\n    tag_49:\n      dup3\n      add\n      swap2\n      swap1\n      0x00\n      mstore\n      keccak256(0x00, 0x20)\n      swap1\n    tag_50:\n      dup2\n      sload\n      dup2\n      mstore\n      swap1\n      0x01\n      add\n      swap1\n      0x20\n      add\n      dup1\n      dup4\n      gt\n      tag_50\n      jumpi\n      dup3\n      swap1\n      sub\n      0x1f\n      and\n      dup3\n      add\n      swap2\n    tag_48:\n      pop\n      pop\n      pop\n      pop\n      pop\n      swap1\n      dup1\n      0x01\n      add\n      mload(0x40)\n      dup1\n      0x20\n      add\n      0x40\n      mstore\n      swap1\n      dup2\n      0x00\n      dup3\n      add\n      sload\n      dup2\n      mstore\n      pop\n      pop\n      swap1\n      dup1\n      0x02\n      add\n      0x00\n      swap1\n      sload\n      swap1\n      0x0100\n      exp\n      swap1\n      div\n      0xffffffffffffffffffffffffffffffffffffffff\n      and\n      swap1\n      dup1\n      0x03\n      add\n      sload\n      swap1\n      pop\n      dup5\n      jump\t// out\n        /* \"contracts/Library.sol\":618:717  function borrowBook (uint _id) public {... */\n    tag_21:\n        /* \"contracts/Library.sol\":679:689  msg.sender */\n      caller\n        /* \"contracts/Library.sol\":662:667  books */\n      0x01\n        /* \"contracts/Library.sol\":668:671  _id */\n      dup3\n        /* \"contracts/Library.sol\":662:672  books[_id] */\n      dup2\n      sload\n      dup2\n      lt\n      tag_52\n      jumpi\n      mstore(0x00, 0x4e487b7100000000000000000000000000000000000000000000000000000000)\n      mstore(0x04, 0x32)\n      revert(0x00, 0x24)\n    tag_52:\n      swap1\n      0x00\n      mstore\n      keccak256(0x00, 0x20)\n      swap1\n      0x04\n      mul\n      add\n        /* \"contracts/Library.sol\":662:677  books[_id].user */\n      0x02\n      add\n      0x00\n        /* \"contracts/Library.sol\":662:689  books[_id].user =msg.sender */\n      0x0100\n      exp\n      dup2\n      sload\n      dup2\n      0xffffffffffffffffffffffffffffffffffffffff\n      mul\n      not\n      and\n      swap1\n      dup4\n      0xffffffffffffffffffffffffffffffffffffffff\n      and\n      mul\n      or\n      swap1\n      sstore\n      pop\n        /* \"contracts/Library.sol\":695:700  books */\n      0x01\n        /* \"contracts/Library.sol\":701:704  _id */\n      dup2\n        /* \"contracts/Library.sol\":695:705  books[_id] */\n      dup2\n      sload\n      dup2\n      lt\n      tag_54\n      jumpi\n      mstore(0x00, 0x4e487b7100000000000000000000000000000000000000000000000000000000)\n      mstore(0x04, 0x32)\n      revert(0x00, 0x24)\n    tag_54:\n      swap1\n      0x00\n      mstore\n      keccak256(0x00, 0x20)\n      swap1\n      0x04\n      mul\n      add\n        /* \"contracts/Library.sol\":695:712  books[_id].copies */\n      0x03\n      add\n      0x00\n        /* \"contracts/Library.sol\":695:714  books[_id].copies-- */\n      dup2\n      sload\n      dup1\n      swap3\n      swap2\n      swap1\n      tag_56\n      swap1\n      tag_57\n      jump\t// in\n    tag_56:\n      swap2\n      swap1\n      pop\n      sstore\n      pop\n        /* \"contracts/Library.sol\":618:717  function borrowBook (uint _id) public {... */\n      pop\n      jump\t// out\n        /* \"contracts/Ownable.sol\":87:107  address public owner */\n    tag_23:\n      0x00\n      dup1\n      sload\n      swap1\n      0x0100\n      exp\n      swap1\n      div\n      0xffffffffffffffffffffffffffffffffffffffff\n      and\n      dup2\n      jump\t// out\n        /* \"contracts/Library.sol\":820:898  function seeRecord () public view returns(Book[] memory) {... */\n    tag_27:\n        /* \"contracts/Library.sol\":862:875  Book[] memory */\n      0x60\n        /* \"contracts/Library.sol\":890:895  books */\n      0x01\n        /* \"contracts/Library.sol\":883:895  return books */\n      dup1\n      sload\n      dup1\n      0x20\n      mul\n      0x20\n      add\n      mload(0x40)\n      swap1\n      dup2\n      add\n      0x40\n      mstore\n      dup1\n      swap3\n      swap2\n      swap1\n      dup2\n      dup2\n      mstore\n      0x20\n      add\n      0x00\n      swap1\n    tag_59:\n      dup3\n      dup3\n      lt\n      iszero\n      tag_60\n      jumpi\n      dup4\n      dup3\n      swap1\n      0x00\n      mstore\n      keccak256(0x00, 0x20)\n      swap1\n      0x04\n      mul\n      add\n      mload(0x40)\n      dup1\n      0x80\n      add\n      0x40\n      mstore\n      swap1\n      dup2\n      0x00\n      dup3\n      add\n      dup1\n      sload\n      tag_62\n      swap1\n      tag_46\n      jump\t// in\n    tag_62:\n      dup1\n      0x1f\n      add\n      0x20\n      dup1\n      swap2\n      div\n      mul\n      0x20\n      add\n      mload(0x40)\n      swap1\n      dup2\n      add\n      0x40\n      mstore\n      dup1\n      swap3\n      swap2\n      swap1\n      dup2\n      dup2\n      mstore\n      0x20\n      add\n      dup3\n      dup1\n      sload\n      tag_63\n      swap1\n      tag_46\n      jump\t// in\n    tag_63:\n      dup1\n      iszero\n      tag_64\n      jumpi\n      dup1\n      0x1f\n      lt\n      tag_65\n      jumpi\n      0x0100\n      dup1\n      dup4\n      sload\n      div\n      mul\n      dup4\n      mstore\n      swap2\n      0x20\n      add\n      swap2\n      jump(tag_64)\n    tag_65:\n      dup3\n      add\n      swap2\n      swap1\n      0x00\n      mstore\n      keccak256(0x00, 0x20)\n      swap1\n    tag_66:\n      dup2\n      sload\n      dup2\n      mstore\n      swap1\n      0x01\n      add\n      swap1\n      0x20\n      add\n      dup1\n      dup4\n      gt\n      tag_66\n      jumpi\n      dup3\n      swap1\n      sub\n      0x1f\n      and\n      dup3\n      add\n      swap2\n    tag_64:\n      pop\n      pop\n      pop\n      pop\n      pop\n      dup2\n      mstore\n      0x20\n      add\n      0x01\n      dup3\n      add\n      mload(0x40)\n      dup1\n      0x20\n      add\n      0x40\n      mstore\n      swap1\n      dup2\n      0x00\n      dup3\n      add\n      sload\n      dup2\n      mstore\n      pop\n      pop\n      dup2\n      mstore\n      0x20\n      add\n      0x02\n      dup3\n      add\n      0x00\n      swap1\n      sload\n      swap1\n      0x0100\n      exp\n      swap1\n      div\n      0xffffffffffffffffffffffffffffffffffffffff\n      and\n      0xffffffffffffffffffffffffffffffffffffffff\n      and\n      0xffffffffffffffffffffffffffffffffffffffff\n      and\n      dup2\n      mstore\n      0x20\n      add\n      0x03\n      dup3\n      add\n      sload\n      dup2\n      mstore\n      pop\n      pop\n      dup2\n      mstore\n      0x20\n      add\n      swap1\n      0x01\n      add\n      swap1\n      jump(tag_59)\n    tag_60:\n      pop\n      pop\n      pop\n      pop\n      swap1\n      pop\n        /* \"contracts/Library.sol\":820:898  function seeRecord () public view returns(Book[] memory) {... */\n      swap1\n      jump\t// out\n        /* \"contracts/Library.sol\":719:818  function returnBook (uint _id) public {... */\n    tag_32:\n        /* \"contracts/Library.sol\":788:789  0 */\n      0x00\n        /* \"contracts/Library.sol\":763:768  books */\n      0x01\n        /* \"contracts/Library.sol\":769:772  _id */\n      dup3\n        /* \"contracts/Library.sol\":763:773  books[_id] */\n      dup2\n      sload\n      dup2\n      lt\n      tag_68\n      jumpi\n      mstore(0x00, 0x4e487b7100000000000000000000000000000000000000000000000000000000)\n      mstore(0x04, 0x32)\n      revert(0x00, 0x24)\n    tag_68:\n      swap1\n      0x00\n      mstore\n      keccak256(0x00, 0x20)\n      swap1\n      0x04\n      mul\n      add\n        /* \"contracts/Library.sol\":763:778  books[_id].user */\n      0x02\n      add\n      0x00\n        /* \"contracts/Library.sol\":763:790  books[_id].user =address(0) */\n      0x0100\n      exp\n      dup2\n      sload\n      dup2\n      0xffffffffffffffffffffffffffffffffffffffff\n      mul\n      not\n      and\n      swap1\n      dup4\n      0xffffffffffffffffffffffffffffffffffffffff\n      and\n      mul\n      or\n      swap1\n      sstore\n      pop\n        /* \"contracts/Library.sol\":796:801  books */\n      0x01\n        /* \"contracts/Library.sol\":802:805  _id */\n      dup2\n        /* \"contracts/Library.sol\":796:806  books[_id] */\n      dup2\n      sload\n      dup2\n      lt\n      tag_70\n      jumpi\n      mstore(0x00, 0x4e487b7100000000000000000000000000000000000000000000000000000000)\n      mstore(0x04, 0x32)\n      revert(0x00, 0x24)\n    tag_70:\n      swap1\n      0x00\n      mstore\n      keccak256(0x00, 0x20)\n      swap1\n      0x04\n      mul\n      add\n        /* \"contracts/Library.sol\":796:813  books[_id].copies */\n      0x03\n      add\n      0x00\n        /* \"contracts/Library.sol\":796:815  books[_id].copies++ */\n      dup2\n      sload\n      dup1\n      swap3\n      swap2\n      swap1\n      tag_72\n      swap1\n      tag_73\n      jump\t// in\n    tag_72:\n      swap2\n      swap1\n      pop\n      sstore\n      pop\n        /* \"contracts/Library.sol\":719:818  function returnBook (uint _id) public {... */\n      pop\n      jump\t// out\n        /* \"@openzeppelin/contracts/utils/Counters.sol\":945:1068  function increment(Counter storage counter) internal {... */\n    tag_42:\n        /* \"@openzeppelin/contracts/utils/Counters.sol\":1050:1051  1 */\n      0x01\n        /* \"@openzeppelin/contracts/utils/Counters.sol\":1032:1039  counter */\n      dup2\n        /* \"@openzeppelin/contracts/utils/Counters.sol\":1032:1046  counter._value */\n      0x00\n      add\n      0x00\n        /* \"@openzeppelin/contracts/utils/Counters.sol\":1032:1051  counter._value += 1 */\n      dup3\n      dup3\n      sload\n      add\n      swap3\n      pop\n      pop\n      dup2\n      swap1\n      sstore\n      pop\n        /* \"@openzeppelin/contracts/utils/Counters.sol\":945:1068  function increment(Counter storage counter) internal {... */\n      pop\n      jump\t// out\n    tag_40:\n      dup3\n      dup1\n      sload\n      tag_75\n      swap1\n      tag_46\n      jump\t// in\n    tag_75:\n      swap1\n      0x00\n      mstore\n      keccak256(0x00, 0x20)\n      swap1\n      0x1f\n      add\n      0x20\n      swap1\n      div\n      dup2\n      add\n      swap3\n      dup3\n      tag_77\n      jumpi\n      0x00\n      dup6\n      sstore\n      jump(tag_76)\n    tag_77:\n      dup3\n      0x1f\n      lt\n      tag_78\n      jumpi\n      dup1\n      mload\n      not(0xff)\n      and\n      dup4\n      dup1\n      add\n      or\n      dup6\n      sstore\n      jump(tag_76)\n    tag_78:\n      dup3\n      dup1\n      add\n      0x01\n      add\n      dup6\n      sstore\n      dup3\n      iszero\n      tag_76\n      jumpi\n      swap2\n      dup3\n      add\n    tag_79:\n      dup3\n      dup2\n      gt\n      iszero\n      tag_80\n      jumpi\n      dup3\n      mload\n      dup3\n      sstore\n      swap2\n      0x20\n      add\n      swap2\n      swap1\n      0x01\n      add\n      swap1\n      jump(tag_79)\n    tag_80:\n    tag_76:\n      pop\n      swap1\n      pop\n      tag_81\n      swap2\n      swap1\n      tag_82\n      jump\t// in\n    tag_81:\n      pop\n      swap1\n      jump\t// out\n    tag_82:\n    tag_83:\n      dup1\n      dup3\n      gt\n      iszero\n      tag_84\n      jumpi\n      0x00\n      dup2\n      0x00\n      swap1\n      sstore\n      pop\n      0x01\n      add\n      jump(tag_83)\n    tag_84:\n      pop\n      swap1\n      jump\t// out\n        /* \"#utility.yul\":7:351   */\n    tag_86:\n      0x00\n        /* \"#utility.yul\":110:175   */\n      tag_88\n        /* \"#utility.yul\":125:174   */\n      tag_89\n        /* \"#utility.yul\":167:173   */\n      dup5\n        /* \"#utility.yul\":125:174   */\n      tag_90\n      jump\t// in\n    tag_89:\n        /* \"#utility.yul\":110:175   */\n      tag_91\n      jump\t// in\n    tag_88:\n        /* \"#utility.yul\":101:175   */\n      swap1\n      pop\n        /* \"#utility.yul\":198:204   */\n      dup3\n        /* \"#utility.yul\":191:196   */\n      dup2\n        /* \"#utility.yul\":184:205   */\n      mstore\n        /* \"#utility.yul\":236:240   */\n      0x20\n        /* \"#utility.yul\":229:234   */\n      dup2\n        /* \"#utility.yul\":225:241   */\n      add\n        /* \"#utility.yul\":274:277   */\n      dup5\n        /* \"#utility.yul\":265:271   */\n      dup5\n        /* \"#utility.yul\":260:263   */\n      dup5\n        /* \"#utility.yul\":256:272   */\n      add\n        /* \"#utility.yul\":253:278   */\n      gt\n        /* \"#utility.yul\":250:252   */\n      iszero\n      tag_92\n      jumpi\n        /* \"#utility.yul\":291:292   */\n      0x00\n        /* \"#utility.yul\":288:289   */\n      dup1\n        /* \"#utility.yul\":281:293   */\n      revert\n        /* \"#utility.yul\":250:252   */\n    tag_92:\n        /* \"#utility.yul\":304:345   */\n      tag_93\n        /* \"#utility.yul\":338:344   */\n      dup5\n        /* \"#utility.yul\":333:336   */\n      dup3\n        /* \"#utility.yul\":328:331   */\n      dup6\n        /* \"#utility.yul\":304:345   */\n      tag_94\n      jump\t// in\n    tag_93:\n        /* \"#utility.yul\":91:351   */\n      pop\n      swap4\n      swap3\n      pop\n      pop\n      pop\n      jump\t// out\n        /* \"#utility.yul\":371:644   */\n    tag_95:\n      0x00\n        /* \"#utility.yul\":476:479   */\n      dup3\n        /* \"#utility.yul\":469:473   */\n      0x1f\n        /* \"#utility.yul\":461:467   */\n      dup4\n        /* \"#utility.yul\":457:474   */\n      add\n        /* \"#utility.yul\":453:480   */\n      slt\n        /* \"#utility.yul\":443:445   */\n      tag_97\n      jumpi\n        /* \"#utility.yul\":494:495   */\n      0x00\n        /* \"#utility.yul\":491:492   */\n      dup1\n        /* \"#utility.yul\":484:496   */\n      revert\n        /* \"#utility.yul\":443:445   */\n    tag_97:\n        /* \"#utility.yul\":534:540   */\n      dup2\n        /* \"#utility.yul\":521:541   */\n      calldataload\n        /* \"#utility.yul\":559:638   */\n      tag_98\n        /* \"#utility.yul\":634:637   */\n      dup5\n        /* \"#utility.yul\":626:632   */\n      dup3\n        /* \"#utility.yul\":619:623   */\n      0x20\n        /* \"#utility.yul\":611:617   */\n      dup7\n        /* \"#utility.yul\":607:624   */\n      add\n        /* \"#utility.yul\":559:638   */\n      tag_86\n      jump\t// in\n    tag_98:\n        /* \"#utility.yul\":550:638   */\n      swap2\n      pop\n        /* \"#utility.yul\":433:644   */\n      pop\n      swap3\n      swap2\n      pop\n      pop\n      jump\t// out\n        /* \"#utility.yul\":650:789   */\n    tag_99:\n      0x00\n        /* \"#utility.yul\":734:740   */\n      dup2\n        /* \"#utility.yul\":721:741   */\n      calldataload\n        /* \"#utility.yul\":712:741   */\n      swap1\n      pop\n        /* \"#utility.yul\":750:783   */\n      tag_101\n        /* \"#utility.yul\":777:782   */\n      dup2\n        /* \"#utility.yul\":750:783   */\n      tag_102\n      jump\t// in\n    tag_101:\n        /* \"#utility.yul\":702:789   */\n      swap3\n      swap2\n      pop\n      pop\n      jump\t// out\n        /* \"#utility.yul\":795:1315   */\n    tag_11:\n      0x00\n      dup1\n        /* \"#utility.yul\":930:932   */\n      0x40\n        /* \"#utility.yul\":918:927   */\n      dup4\n        /* \"#utility.yul\":909:916   */\n      dup6\n        /* \"#utility.yul\":905:928   */\n      sub\n        /* \"#utility.yul\":901:933   */\n      slt\n        /* \"#utility.yul\":898:900   */\n      iszero\n      tag_104\n      jumpi\n        /* \"#utility.yul\":946:947   */\n      0x00\n        /* \"#utility.yul\":943:944   */\n      dup1\n        /* \"#utility.yul\":936:948   */\n      revert\n        /* \"#utility.yul\":898:900   */\n    tag_104:\n        /* \"#utility.yul\":1017:1018   */\n      0x00\n        /* \"#utility.yul\":1006:1015   */\n      dup4\n        /* \"#utility.yul\":1002:1019   */\n      add\n        /* \"#utility.yul\":989:1020   */\n      calldataload\n        /* \"#utility.yul\":1047:1065   */\n      0xffffffffffffffff\n        /* \"#utility.yul\":1039:1045   */\n      dup2\n        /* \"#utility.yul\":1036:1066   */\n      gt\n        /* \"#utility.yul\":1033:1035   */\n      iszero\n      tag_105\n      jumpi\n        /* \"#utility.yul\":1079:1080   */\n      0x00\n        /* \"#utility.yul\":1076:1077   */\n      dup1\n        /* \"#utility.yul\":1069:1081   */\n      revert\n        /* \"#utility.yul\":1033:1035   */\n    tag_105:\n        /* \"#utility.yul\":1107:1170   */\n      tag_106\n        /* \"#utility.yul\":1162:1169   */\n      dup6\n        /* \"#utility.yul\":1153:1159   */\n      dup3\n        /* \"#utility.yul\":1142:1151   */\n      dup7\n        /* \"#utility.yul\":1138:1160   */\n      add\n        /* \"#utility.yul\":1107:1170   */\n      tag_95\n      jump\t// in\n    tag_106:\n        /* \"#utility.yul\":1097:1170   */\n      swap3\n      pop\n        /* \"#utility.yul\":960:1180   */\n      pop\n        /* \"#utility.yul\":1219:1221   */\n      0x20\n        /* \"#utility.yul\":1245:1298   */\n      tag_107\n        /* \"#utility.yul\":1290:1297   */\n      dup6\n        /* \"#utility.yul\":1281:1287   */\n      dup3\n        /* \"#utility.yul\":1270:1279   */\n      dup7\n        /* \"#utility.yul\":1266:1288   */\n      add\n        /* \"#utility.yul\":1245:1298   */\n      tag_99\n      jump\t// in\n    tag_107:\n        /* \"#utility.yul\":1235:1298   */\n      swap2\n      pop\n        /* \"#utility.yul\":1190:1308   */\n      pop\n        /* \"#utility.yul\":888:1315   */\n      swap3\n      pop\n      swap3\n      swap1\n      pop\n      jump\t// out\n        /* \"#utility.yul\":1321:1583   */\n    tag_15:\n      0x00\n        /* \"#utility.yul\":1429:1431   */\n      0x20\n        /* \"#utility.yul\":1417:1426   */\n      dup3\n        /* \"#utility.yul\":1408:1415   */\n      dup5\n        /* \"#utility.yul\":1404:1427   */\n      sub\n        /* \"#utility.yul\":1400:1432   */\n      slt\n        /* \"#utility.yul\":1397:1399   */\n      iszero\n      tag_109\n      jumpi\n        /* \"#utility.yul\":1445:1446   */\n      0x00\n        /* \"#utility.yul\":1442:1443   */\n      dup1\n        /* \"#utility.yul\":1435:1447   */\n      revert\n        /* \"#utility.yul\":1397:1399   */\n    tag_109:\n        /* \"#utility.yul\":1488:1489   */\n      0x00\n        /* \"#utility.yul\":1513:1566   */\n      tag_110\n        /* \"#utility.yul\":1558:1565   */\n      dup5\n        /* \"#utility.yul\":1549:1555   */\n      dup3\n        /* \"#utility.yul\":1538:1547   */\n      dup6\n        /* \"#utility.yul\":1534:1556   */\n      add\n        /* \"#utility.yul\":1513:1566   */\n      tag_99\n      jump\t// in\n    tag_110:\n        /* \"#utility.yul\":1503:1566   */\n      swap2\n      pop\n        /* \"#utility.yul\":1459:1576   */\n      pop\n        /* \"#utility.yul\":1387:1583   */\n      swap3\n      swap2\n      pop\n      pop\n      jump\t// out\n        /* \"#utility.yul\":1589:1825   */\n    tag_111:\n      0x00\n        /* \"#utility.yul\":1733:1819   */\n      tag_113\n        /* \"#utility.yul\":1815:1818   */\n      dup4\n        /* \"#utility.yul\":1807:1813   */\n      dup4\n        /* \"#utility.yul\":1733:1819   */\n      tag_114\n      jump\t// in\n    tag_113:\n        /* \"#utility.yul\":1719:1819   */\n      swap1\n      pop\n        /* \"#utility.yul\":1709:1825   */\n      swap3\n      swap2\n      pop\n      pop\n      jump\t// out\n        /* \"#utility.yul\":1831:1939   */\n    tag_115:\n        /* \"#utility.yul\":1908:1932   */\n      tag_117\n        /* \"#utility.yul\":1926:1931   */\n      dup2\n        /* \"#utility.yul\":1908:1932   */\n      tag_118\n      jump\t// in\n    tag_117:\n        /* \"#utility.yul\":1903:1906   */\n      dup3\n        /* \"#utility.yul\":1896:1933   */\n      mstore\n        /* \"#utility.yul\":1886:1939   */\n      pop\n      pop\n      jump\t// out\n        /* \"#utility.yul\":1945:2063   */\n    tag_119:\n        /* \"#utility.yul\":2032:2056   */\n      tag_121\n        /* \"#utility.yul\":2050:2055   */\n      dup2\n        /* \"#utility.yul\":2032:2056   */\n      tag_118\n      jump\t// in\n    tag_121:\n        /* \"#utility.yul\":2027:2030   */\n      dup3\n        /* \"#utility.yul\":2020:2057   */\n      mstore\n        /* \"#utility.yul\":2010:2063   */\n      pop\n      pop\n      jump\t// out\n        /* \"#utility.yul\":2123:3194   */\n    tag_122:\n      0x00\n        /* \"#utility.yul\":2311:2385   */\n      tag_124\n        /* \"#utility.yul\":2379:2384   */\n      dup3\n        /* \"#utility.yul\":2311:2385   */\n      tag_125\n      jump\t// in\n    tag_124:\n        /* \"#utility.yul\":2401:2507   */\n      tag_126\n        /* \"#utility.yul\":2500:2506   */\n      dup2\n        /* \"#utility.yul\":2495:2498   */\n      dup6\n        /* \"#utility.yul\":2401:2507   */\n      tag_127\n      jump\t// in\n    tag_126:\n        /* \"#utility.yul\":2394:2507   */\n      swap4\n      pop\n        /* \"#utility.yul\":2533:2536   */\n      dup4\n        /* \"#utility.yul\":2578:2582   */\n      0x20\n        /* \"#utility.yul\":2570:2576   */\n      dup3\n        /* \"#utility.yul\":2566:2583   */\n      mul\n        /* \"#utility.yul\":2561:2564   */\n      dup6\n        /* \"#utility.yul\":2557:2584   */\n      add\n        /* \"#utility.yul\":2608:2684   */\n      tag_128\n        /* \"#utility.yul\":2678:2683   */\n      dup6\n        /* \"#utility.yul\":2608:2684   */\n      tag_129\n      jump\t// in\n    tag_128:\n        /* \"#utility.yul\":2707:2714   */\n      dup1\n        /* \"#utility.yul\":2738:2739   */\n      0x00\n        /* \"#utility.yul\":2723:3149   */\n    tag_130:\n        /* \"#utility.yul\":2748:2754   */\n      dup6\n        /* \"#utility.yul\":2745:2746   */\n      dup2\n        /* \"#utility.yul\":2742:2755   */\n      lt\n        /* \"#utility.yul\":2723:3149   */\n      iszero\n      tag_132\n      jumpi\n        /* \"#utility.yul\":2819:2828   */\n      dup5\n        /* \"#utility.yul\":2813:2817   */\n      dup5\n        /* \"#utility.yul\":2809:2829   */\n      sub\n        /* \"#utility.yul\":2804:2807   */\n      dup10\n        /* \"#utility.yul\":2797:2830   */\n      mstore\n        /* \"#utility.yul\":2870:2876   */\n      dup2\n        /* \"#utility.yul\":2864:2877   */\n      mload\n        /* \"#utility.yul\":2898:3002   */\n      tag_133\n        /* \"#utility.yul\":2997:3001   */\n      dup6\n        /* \"#utility.yul\":2982:2995   */\n      dup3\n        /* \"#utility.yul\":2898:3002   */\n      tag_111\n      jump\t// in\n    tag_133:\n        /* \"#utility.yul\":2890:3002   */\n      swap5\n      pop\n        /* \"#utility.yul\":3025:3105   */\n      tag_134\n        /* \"#utility.yul\":3098:3104   */\n      dup4\n        /* \"#utility.yul\":3025:3105   */\n      tag_135\n      jump\t// in\n    tag_134:\n        /* \"#utility.yul\":3015:3105   */\n      swap3\n      pop\n        /* \"#utility.yul\":3134:3138   */\n      0x20\n        /* \"#utility.yul\":3129:3132   */\n      dup11\n        /* \"#utility.yul\":3125:3139   */\n      add\n        /* \"#utility.yul\":3118:3139   */\n      swap10\n      pop\n        /* \"#utility.yul\":2783:3149   */\n      pop\n        /* \"#utility.yul\":2770:2771   */\n      0x01\n        /* \"#utility.yul\":2767:2768   */\n      dup2\n        /* \"#utility.yul\":2763:2772   */\n      add\n        /* \"#utility.yul\":2758:2772   */\n      swap1\n      pop\n        /* \"#utility.yul\":2723:3149   */\n      jump(tag_130)\n    tag_132:\n        /* \"#utility.yul\":2727:2741   */\n      pop\n        /* \"#utility.yul\":3165:3169   */\n      dup3\n        /* \"#utility.yul\":3158:3169   */\n      swap8\n      pop\n        /* \"#utility.yul\":3185:3188   */\n      dup8\n        /* \"#utility.yul\":3178:3188   */\n      swap6\n      pop\n        /* \"#utility.yul\":2287:3194   */\n      pop\n      pop\n      pop\n      pop\n      pop\n      swap3\n      swap2\n      pop\n      pop\n      jump\t// out\n        /* \"#utility.yul\":3200:3544   */\n    tag_136:\n      0x00\n        /* \"#utility.yul\":3306:3345   */\n      tag_138\n        /* \"#utility.yul\":3339:3344   */\n      dup3\n        /* \"#utility.yul\":3306:3345   */\n      tag_139\n      jump\t// in\n    tag_138:\n        /* \"#utility.yul\":3361:3422   */\n      tag_140\n        /* \"#utility.yul\":3415:3421   */\n      dup2\n        /* \"#utility.yul\":3410:3413   */\n      dup6\n        /* \"#utility.yul\":3361:3422   */\n      tag_141\n      jump\t// in\n    tag_140:\n        /* \"#utility.yul\":3354:3422   */\n      swap4\n      pop\n        /* \"#utility.yul\":3431:3483   */\n      tag_142\n        /* \"#utility.yul\":3476:3482   */\n      dup2\n        /* \"#utility.yul\":3471:3474   */\n      dup6\n        /* \"#utility.yul\":3464:3468   */\n      0x20\n        /* \"#utility.yul\":3457:3462   */\n      dup7\n        /* \"#utility.yul\":3453:3469   */\n      add\n        /* \"#utility.yul\":3431:3483   */\n      tag_143\n      jump\t// in\n    tag_142:\n        /* \"#utility.yul\":3508:3537   */\n      tag_144\n        /* \"#utility.yul\":3530:3536   */\n      dup2\n        /* \"#utility.yul\":3508:3537   */\n      tag_145\n      jump\t// in\n    tag_144:\n        /* \"#utility.yul\":3503:3506   */\n      dup5\n        /* \"#utility.yul\":3499:3538   */\n      add\n        /* \"#utility.yul\":3492:3538   */\n      swap2\n      pop\n        /* \"#utility.yul\":3282:3544   */\n      pop\n      swap3\n      swap2\n      pop\n      pop\n      jump\t// out\n        /* \"#utility.yul\":3550:3914   */\n    tag_146:\n      0x00\n        /* \"#utility.yul\":3666:3705   */\n      tag_148\n        /* \"#utility.yul\":3699:3704   */\n      dup3\n        /* \"#utility.yul\":3666:3705   */\n      tag_139\n      jump\t// in\n    tag_148:\n        /* \"#utility.yul\":3721:3792   */\n      tag_149\n        /* \"#utility.yul\":3785:3791   */\n      dup2\n        /* \"#utility.yul\":3780:3783   */\n      dup6\n        /* \"#utility.yul\":3721:3792   */\n      tag_150\n      jump\t// in\n    tag_149:\n        /* \"#utility.yul\":3714:3792   */\n      swap4\n      pop\n        /* \"#utility.yul\":3801:3853   */\n      tag_151\n        /* \"#utility.yul\":3846:3852   */\n      dup2\n        /* \"#utility.yul\":3841:3844   */\n      dup6\n        /* \"#utility.yul\":3834:3838   */\n      0x20\n        /* \"#utility.yul\":3827:3832   */\n      dup7\n        /* \"#utility.yul\":3823:3839   */\n      add\n        /* \"#utility.yul\":3801:3853   */\n      tag_143\n      jump\t// in\n    tag_151:\n        /* \"#utility.yul\":3878:3907   */\n      tag_152\n        /* \"#utility.yul\":3900:3906   */\n      dup2\n        /* \"#utility.yul\":3878:3907   */\n      tag_145\n      jump\t// in\n    tag_152:\n        /* \"#utility.yul\":3873:3876   */\n      dup5\n        /* \"#utility.yul\":3869:3908   */\n      add\n        /* \"#utility.yul\":3862:3908   */\n      swap2\n      pop\n        /* \"#utility.yul\":3642:3914   */\n      pop\n      swap3\n      swap2\n      pop\n      pop\n      jump\t// out\n        /* \"#utility.yul\":3920:4242   */\n    tag_153:\n      0x00\n        /* \"#utility.yul\":4083:4150   */\n      tag_155\n        /* \"#utility.yul\":4147:4149   */\n      0x18\n        /* \"#utility.yul\":4142:4145   */\n      dup4\n        /* \"#utility.yul\":4083:4150   */\n      tag_150\n      jump\t// in\n    tag_155:\n        /* \"#utility.yul\":4076:4150   */\n      swap2\n      pop\n        /* \"#utility.yul\":4180:4206   */\n      0x4e6f7420696e766f6b656420627920746865206f776e65720000000000000000\n        /* \"#utility.yul\":4176:4177   */\n      0x00\n        /* \"#utility.yul\":4171:4174   */\n      dup4\n        /* \"#utility.yul\":4167:4178   */\n      add\n        /* \"#utility.yul\":4160:4207   */\n      mstore\n        /* \"#utility.yul\":4233:4235   */\n      0x20\n        /* \"#utility.yul\":4228:4231   */\n      dup3\n        /* \"#utility.yul\":4224:4236   */\n      add\n        /* \"#utility.yul\":4217:4236   */\n      swap1\n      pop\n        /* \"#utility.yul\":4066:4242   */\n      swap2\n      swap1\n      pop\n      jump\t// out\n        /* \"#utility.yul\":4298:5276   */\n    tag_114:\n      0x00\n        /* \"#utility.yul\":4433:4437   */\n      0x80\n        /* \"#utility.yul\":4428:4431   */\n      dup4\n        /* \"#utility.yul\":4424:4438   */\n      add\n        /* \"#utility.yul\":4520:4524   */\n      0x00\n        /* \"#utility.yul\":4513:4518   */\n      dup4\n        /* \"#utility.yul\":4509:4525   */\n      add\n        /* \"#utility.yul\":4503:4526   */\n      mload\n        /* \"#utility.yul\":4573:4576   */\n      dup5\n        /* \"#utility.yul\":4567:4571   */\n      dup3\n        /* \"#utility.yul\":4563:4577   */\n      sub\n        /* \"#utility.yul\":4556:4560   */\n      0x00\n        /* \"#utility.yul\":4551:4554   */\n      dup7\n        /* \"#utility.yul\":4547:4561   */\n      add\n        /* \"#utility.yul\":4540:4578   */\n      mstore\n        /* \"#utility.yul\":4599:4672   */\n      tag_157\n        /* \"#utility.yul\":4667:4671   */\n      dup3\n        /* \"#utility.yul\":4653:4665   */\n      dup3\n        /* \"#utility.yul\":4599:4672   */\n      tag_136\n      jump\t// in\n    tag_157:\n        /* \"#utility.yul\":4591:4672   */\n      swap2\n      pop\n        /* \"#utility.yul\":4448:4683   */\n      pop\n        /* \"#utility.yul\":4763:4767   */\n      0x20\n        /* \"#utility.yul\":4756:4761   */\n      dup4\n        /* \"#utility.yul\":4752:4768   */\n      add\n        /* \"#utility.yul\":4746:4769   */\n      mload\n        /* \"#utility.yul\":4782:4889   */\n      tag_158\n        /* \"#utility.yul\":4883:4887   */\n      0x20\n        /* \"#utility.yul\":4878:4881   */\n      dup7\n        /* \"#utility.yul\":4874:4888   */\n      add\n        /* \"#utility.yul\":4860:4872   */\n      dup3\n        /* \"#utility.yul\":4782:4889   */\n      tag_159\n      jump\t// in\n    tag_158:\n        /* \"#utility.yul\":4693:4899   */\n      pop\n        /* \"#utility.yul\":4981:4985   */\n      0x40\n        /* \"#utility.yul\":4974:4979   */\n      dup4\n        /* \"#utility.yul\":4970:4986   */\n      add\n        /* \"#utility.yul\":4964:4987   */\n      mload\n        /* \"#utility.yul\":5000:5063   */\n      tag_160\n        /* \"#utility.yul\":5057:5061   */\n      0x40\n        /* \"#utility.yul\":5052:5055   */\n      dup7\n        /* \"#utility.yul\":5048:5062   */\n      add\n        /* \"#utility.yul\":5034:5046   */\n      dup3\n        /* \"#utility.yul\":5000:5063   */\n      tag_115\n      jump\t// in\n    tag_160:\n        /* \"#utility.yul\":4909:5073   */\n      pop\n        /* \"#utility.yul\":5157:5161   */\n      0x60\n        /* \"#utility.yul\":5150:5155   */\n      dup4\n        /* \"#utility.yul\":5146:5162   */\n      add\n        /* \"#utility.yul\":5140:5163   */\n      mload\n        /* \"#utility.yul\":5176:5239   */\n      tag_161\n        /* \"#utility.yul\":5233:5237   */\n      0x60\n        /* \"#utility.yul\":5228:5231   */\n      dup7\n        /* \"#utility.yul\":5224:5238   */\n      add\n        /* \"#utility.yul\":5210:5222   */\n      dup3\n        /* \"#utility.yul\":5176:5239   */\n      tag_162\n      jump\t// in\n    tag_161:\n        /* \"#utility.yul\":5083:5249   */\n      pop\n        /* \"#utility.yul\":5266:5270   */\n      dup1\n        /* \"#utility.yul\":5259:5270   */\n      swap2\n      pop\n        /* \"#utility.yul\":4402:5276   */\n      pop\n      swap3\n      swap2\n      pop\n      pop\n      jump\t// out\n        /* \"#utility.yul\":5340:5659   */\n    tag_159:\n        /* \"#utility.yul\":5471:5475   */\n      0x20\n        /* \"#utility.yul\":5466:5469   */\n      dup3\n        /* \"#utility.yul\":5462:5476   */\n      add\n        /* \"#utility.yul\":5560:5564   */\n      0x00\n        /* \"#utility.yul\":5553:5558   */\n      dup3\n        /* \"#utility.yul\":5549:5565   */\n      add\n        /* \"#utility.yul\":5543:5566   */\n      mload\n        /* \"#utility.yul\":5579:5642   */\n      tag_164\n        /* \"#utility.yul\":5636:5640   */\n      0x00\n        /* \"#utility.yul\":5631:5634   */\n      dup6\n        /* \"#utility.yul\":5627:5641   */\n      add\n        /* \"#utility.yul\":5613:5625   */\n      dup3\n        /* \"#utility.yul\":5579:5642   */\n      tag_162\n      jump\t// in\n    tag_164:\n        /* \"#utility.yul\":5486:5652   */\n      pop\n        /* \"#utility.yul\":5440:5659   */\n      pop\n      pop\n      pop\n      jump\t// out\n        /* \"#utility.yul\":5723:6052   */\n    tag_165:\n        /* \"#utility.yul\":5864:5868   */\n      0x20\n        /* \"#utility.yul\":5859:5862   */\n      dup3\n        /* \"#utility.yul\":5855:5869   */\n      add\n        /* \"#utility.yul\":5953:5957   */\n      0x00\n        /* \"#utility.yul\":5946:5951   */\n      dup3\n        /* \"#utility.yul\":5942:5958   */\n      add\n        /* \"#utility.yul\":5936:5959   */\n      mload\n        /* \"#utility.yul\":5972:6035   */\n      tag_167\n        /* \"#utility.yul\":6029:6033   */\n      0x00\n        /* \"#utility.yul\":6024:6027   */\n      dup6\n        /* \"#utility.yul\":6020:6034   */\n      add\n        /* \"#utility.yul\":6006:6018   */\n      dup3\n        /* \"#utility.yul\":5972:6035   */\n      tag_162\n      jump\t// in\n    tag_167:\n        /* \"#utility.yul\":5879:6045   */\n      pop\n        /* \"#utility.yul\":5833:6052   */\n      pop\n      pop\n      pop\n      jump\t// out\n        /* \"#utility.yul\":6058:6166   */\n    tag_162:\n        /* \"#utility.yul\":6135:6159   */\n      tag_169\n        /* \"#utility.yul\":6153:6158   */\n      dup2\n        /* \"#utility.yul\":6135:6159   */\n      tag_170\n      jump\t// in\n    tag_169:\n        /* \"#utility.yul\":6130:6133   */\n      dup3\n        /* \"#utility.yul\":6123:6160   */\n      mstore\n        /* \"#utility.yul\":6113:6166   */\n      pop\n      pop\n      jump\t// out\n        /* \"#utility.yul\":6172:6290   */\n    tag_171:\n        /* \"#utility.yul\":6259:6283   */\n      tag_173\n        /* \"#utility.yul\":6277:6282   */\n      dup2\n        /* \"#utility.yul\":6259:6283   */\n      tag_170\n      jump\t// in\n    tag_173:\n        /* \"#utility.yul\":6254:6257   */\n      dup3\n        /* \"#utility.yul\":6247:6284   */\n      mstore\n        /* \"#utility.yul\":6237:6290   */\n      pop\n      pop\n      jump\t// out\n        /* \"#utility.yul\":6296:6518   */\n    tag_25:\n      0x00\n        /* \"#utility.yul\":6427:6429   */\n      0x20\n        /* \"#utility.yul\":6416:6425   */\n      dup3\n        /* \"#utility.yul\":6412:6430   */\n      add\n        /* \"#utility.yul\":6404:6430   */\n      swap1\n      pop\n        /* \"#utility.yul\":6440:6511   */\n      tag_175\n        /* \"#utility.yul\":6508:6509   */\n      0x00\n        /* \"#utility.yul\":6497:6506   */\n      dup4\n        /* \"#utility.yul\":6493:6510   */\n      add\n        /* \"#utility.yul\":6484:6490   */\n      dup5\n        /* \"#utility.yul\":6440:6511   */\n      tag_119\n      jump\t// in\n    tag_175:\n        /* \"#utility.yul\":6394:6518   */\n      swap3\n      swap2\n      pop\n      pop\n      jump\t// out\n        /* \"#utility.yul\":6524:6977   */\n    tag_29:\n      0x00\n        /* \"#utility.yul\":6745:6747   */\n      0x20\n        /* \"#utility.yul\":6734:6743   */\n      dup3\n        /* \"#utility.yul\":6730:6748   */\n      add\n        /* \"#utility.yul\":6722:6748   */\n      swap1\n      pop\n        /* \"#utility.yul\":6794:6803   */\n      dup2\n        /* \"#utility.yul\":6788:6792   */\n      dup2\n        /* \"#utility.yul\":6784:6804   */\n      sub\n        /* \"#utility.yul\":6780:6781   */\n      0x00\n        /* \"#utility.yul\":6769:6778   */\n      dup4\n        /* \"#utility.yul\":6765:6782   */\n      add\n        /* \"#utility.yul\":6758:6805   */\n      mstore\n        /* \"#utility.yul\":6822:6970   */\n      tag_177\n        /* \"#utility.yul\":6965:6969   */\n      dup2\n        /* \"#utility.yul\":6956:6962   */\n      dup5\n        /* \"#utility.yul\":6822:6970   */\n      tag_122\n      jump\t// in\n    tag_177:\n        /* \"#utility.yul\":6814:6970   */\n      swap1\n      pop\n        /* \"#utility.yul\":6712:6977   */\n      swap3\n      swap2\n      pop\n      pop\n      jump\t// out\n        /* \"#utility.yul\":6983:7715   */\n    tag_18:\n      0x00\n        /* \"#utility.yul\":7262:7265   */\n      0x80\n        /* \"#utility.yul\":7251:7260   */\n      dup3\n        /* \"#utility.yul\":7247:7266   */\n      add\n        /* \"#utility.yul\":7239:7266   */\n      swap1\n      pop\n        /* \"#utility.yul\":7312:7321   */\n      dup2\n        /* \"#utility.yul\":7306:7310   */\n      dup2\n        /* \"#utility.yul\":7302:7322   */\n      sub\n        /* \"#utility.yul\":7298:7299   */\n      0x00\n        /* \"#utility.yul\":7287:7296   */\n      dup4\n        /* \"#utility.yul\":7283:7300   */\n      add\n        /* \"#utility.yul\":7276:7323   */\n      mstore\n        /* \"#utility.yul\":7340:7418   */\n      tag_179\n        /* \"#utility.yul\":7413:7417   */\n      dup2\n        /* \"#utility.yul\":7404:7410   */\n      dup8\n        /* \"#utility.yul\":7340:7418   */\n      tag_146\n      jump\t// in\n    tag_179:\n        /* \"#utility.yul\":7332:7418   */\n      swap1\n      pop\n        /* \"#utility.yul\":7428:7544   */\n      tag_180\n        /* \"#utility.yul\":7540:7542   */\n      0x20\n        /* \"#utility.yul\":7529:7538   */\n      dup4\n        /* \"#utility.yul\":7525:7543   */\n      add\n        /* \"#utility.yul\":7516:7522   */\n      dup7\n        /* \"#utility.yul\":7428:7544   */\n      tag_165\n      jump\t// in\n    tag_180:\n        /* \"#utility.yul\":7554:7626   */\n      tag_181\n        /* \"#utility.yul\":7622:7624   */\n      0x40\n        /* \"#utility.yul\":7611:7620   */\n      dup4\n        /* \"#utility.yul\":7607:7625   */\n      add\n        /* \"#utility.yul\":7598:7604   */\n      dup6\n        /* \"#utility.yul\":7554:7626   */\n      tag_119\n      jump\t// in\n    tag_181:\n        /* \"#utility.yul\":7636:7708   */\n      tag_182\n        /* \"#utility.yul\":7704:7706   */\n      0x60\n        /* \"#utility.yul\":7693:7702   */\n      dup4\n        /* \"#utility.yul\":7689:7707   */\n      add\n        /* \"#utility.yul\":7680:7686   */\n      dup5\n        /* \"#utility.yul\":7636:7708   */\n      tag_171\n      jump\t// in\n    tag_182:\n        /* \"#utility.yul\":7229:7715   */\n      swap6\n      swap5\n      pop\n      pop\n      pop\n      pop\n      pop\n      jump\t// out\n        /* \"#utility.yul\":7721:8140   */\n    tag_36:\n      0x00\n        /* \"#utility.yul\":7925:7927   */\n      0x20\n        /* \"#utility.yul\":7914:7923   */\n      dup3\n        /* \"#utility.yul\":7910:7928   */\n      add\n        /* \"#utility.yul\":7902:7928   */\n      swap1\n      pop\n        /* \"#utility.yul\":7974:7983   */\n      dup2\n        /* \"#utility.yul\":7968:7972   */\n      dup2\n        /* \"#utility.yul\":7964:7984   */\n      sub\n        /* \"#utility.yul\":7960:7961   */\n      0x00\n        /* \"#utility.yul\":7949:7958   */\n      dup4\n        /* \"#utility.yul\":7945:7962   */\n      add\n        /* \"#utility.yul\":7938:7985   */\n      mstore\n        /* \"#utility.yul\":8002:8133   */\n      tag_184\n        /* \"#utility.yul\":8128:8132   */\n      dup2\n        /* \"#utility.yul\":8002:8133   */\n      tag_153\n      jump\t// in\n    tag_184:\n        /* \"#utility.yul\":7994:8133   */\n      swap1\n      pop\n        /* \"#utility.yul\":7892:8140   */\n      swap2\n      swap1\n      pop\n      jump\t// out\n        /* \"#utility.yul\":8146:8429   */\n    tag_91:\n      0x00\n        /* \"#utility.yul\":8212:8214   */\n      0x40\n        /* \"#utility.yul\":8206:8215   */\n      mload\n        /* \"#utility.yul\":8196:8215   */\n      swap1\n      pop\n        /* \"#utility.yul\":8254:8258   */\n      dup2\n        /* \"#utility.yul\":8246:8252   */\n      dup2\n        /* \"#utility.yul\":8242:8259   */\n      add\n        /* \"#utility.yul\":8361:8367   */\n      dup2\n        /* \"#utility.yul\":8349:8359   */\n      dup2\n        /* \"#utility.yul\":8346:8368   */\n      lt\n        /* \"#utility.yul\":8325:8343   */\n      0xffffffffffffffff\n        /* \"#utility.yul\":8313:8323   */\n      dup3\n        /* \"#utility.yul\":8310:8344   */\n      gt\n        /* \"#utility.yul\":8307:8369   */\n      or\n        /* \"#utility.yul\":8304:8306   */\n      iszero\n      tag_186\n      jumpi\n        /* \"#utility.yul\":8372:8390   */\n      tag_187\n      tag_188\n      jump\t// in\n    tag_187:\n        /* \"#utility.yul\":8304:8306   */\n    tag_186:\n        /* \"#utility.yul\":8412:8422   */\n      dup1\n        /* \"#utility.yul\":8408:8410   */\n      0x40\n        /* \"#utility.yul\":8401:8423   */\n      mstore\n        /* \"#utility.yul\":8186:8429   */\n      pop\n      swap2\n      swap1\n      pop\n      jump\t// out\n        /* \"#utility.yul\":8435:8767   */\n    tag_90:\n      0x00\n        /* \"#utility.yul\":8587:8605   */\n      0xffffffffffffffff\n        /* \"#utility.yul\":8579:8585   */\n      dup3\n        /* \"#utility.yul\":8576:8606   */\n      gt\n        /* \"#utility.yul\":8573:8575   */\n      iszero\n      tag_190\n      jumpi\n        /* \"#utility.yul\":8609:8627   */\n      tag_191\n      tag_188\n      jump\t// in\n    tag_191:\n        /* \"#utility.yul\":8573:8575   */\n    tag_190:\n        /* \"#utility.yul\":8694:8698   */\n      0x1f\n        /* \"#utility.yul\":8690:8699   */\n      not\n        /* \"#utility.yul\":8683:8687   */\n      0x1f\n        /* \"#utility.yul\":8675:8681   */\n      dup4\n        /* \"#utility.yul\":8671:8688   */\n      add\n        /* \"#utility.yul\":8667:8700   */\n      and\n        /* \"#utility.yul\":8659:8700   */\n      swap1\n      pop\n        /* \"#utility.yul\":8755:8759   */\n      0x20\n        /* \"#utility.yul\":8749:8753   */\n      dup2\n        /* \"#utility.yul\":8745:8760   */\n      add\n        /* \"#utility.yul\":8737:8760   */\n      swap1\n      pop\n        /* \"#utility.yul\":8502:8767   */\n      swap2\n      swap1\n      pop\n      jump\t// out\n        /* \"#utility.yul\":8773:8925   */\n    tag_129:\n      0x00\n        /* \"#utility.yul\":8883:8886   */\n      dup2\n        /* \"#utility.yul\":8875:8886   */\n      swap1\n      pop\n        /* \"#utility.yul\":8913:8917   */\n      0x20\n        /* \"#utility.yul\":8908:8911   */\n      dup3\n        /* \"#utility.yul\":8904:8918   */\n      add\n        /* \"#utility.yul\":8896:8918   */\n      swap1\n      pop\n        /* \"#utility.yul\":8865:8925   */\n      swap2\n      swap1\n      pop\n      jump\t// out\n        /* \"#utility.yul\":8931:9065   */\n    tag_125:\n      0x00\n        /* \"#utility.yul\":9052:9057   */\n      dup2\n        /* \"#utility.yul\":9046:9058   */\n      mload\n        /* \"#utility.yul\":9036:9058   */\n      swap1\n      pop\n        /* \"#utility.yul\":9025:9065   */\n      swap2\n      swap1\n      pop\n      jump\t// out\n        /* \"#utility.yul\":9071:9170   */\n    tag_139:\n      0x00\n        /* \"#utility.yul\":9157:9162   */\n      dup2\n        /* \"#utility.yul\":9151:9163   */\n      mload\n        /* \"#utility.yul\":9141:9163   */\n      swap1\n      pop\n        /* \"#utility.yul\":9130:9170   */\n      swap2\n      swap1\n      pop\n      jump\t// out\n        /* \"#utility.yul\":9176:9309   */\n    tag_135:\n      0x00\n        /* \"#utility.yul\":9298:9302   */\n      0x20\n        /* \"#utility.yul\":9293:9296   */\n      dup3\n        /* \"#utility.yul\":9289:9303   */\n      add\n        /* \"#utility.yul\":9281:9303   */\n      swap1\n      pop\n        /* \"#utility.yul\":9271:9309   */\n      swap2\n      swap1\n      pop\n      jump\t// out\n        /* \"#utility.yul\":9315:9519   */\n    tag_127:\n      0x00\n        /* \"#utility.yul\":9468:9474   */\n      dup3\n        /* \"#utility.yul\":9463:9466   */\n      dup3\n        /* \"#utility.yul\":9456:9475   */\n      mstore\n        /* \"#utility.yul\":9508:9512   */\n      0x20\n        /* \"#utility.yul\":9503:9506   */\n      dup3\n        /* \"#utility.yul\":9499:9513   */\n      add\n        /* \"#utility.yul\":9484:9513   */\n      swap1\n      pop\n        /* \"#utility.yul\":9446:9519   */\n      swap3\n      swap2\n      pop\n      pop\n      jump\t// out\n        /* \"#utility.yul\":9525:9684   */\n    tag_141:\n      0x00\n        /* \"#utility.yul\":9633:9639   */\n      dup3\n        /* \"#utility.yul\":9628:9631   */\n      dup3\n        /* \"#utility.yul\":9621:9640   */\n      mstore\n        /* \"#utility.yul\":9673:9677   */\n      0x20\n        /* \"#utility.yul\":9668:9671   */\n      dup3\n        /* \"#utility.yul\":9664:9678   */\n      add\n        /* \"#utility.yul\":9649:9678   */\n      swap1\n      pop\n        /* \"#utility.yul\":9611:9684   */\n      swap3\n      swap2\n      pop\n      pop\n      jump\t// out\n        /* \"#utility.yul\":9690:9859   */\n    tag_150:\n      0x00\n        /* \"#utility.yul\":9808:9814   */\n      dup3\n        /* \"#utility.yul\":9803:9806   */\n      dup3\n        /* \"#utility.yul\":9796:9815   */\n      mstore\n        /* \"#utility.yul\":9848:9852   */\n      0x20\n        /* \"#utility.yul\":9843:9846   */\n      dup3\n        /* \"#utility.yul\":9839:9853   */\n      add\n        /* \"#utility.yul\":9824:9853   */\n      swap1\n      pop\n        /* \"#utility.yul\":9786:9859   */\n      swap3\n      swap2\n      pop\n      pop\n      jump\t// out\n        /* \"#utility.yul\":9865:9961   */\n    tag_118:\n      0x00\n        /* \"#utility.yul\":9931:9955   */\n      tag_200\n        /* \"#utility.yul\":9949:9954   */\n      dup3\n        /* \"#utility.yul\":9931:9955   */\n      tag_201\n      jump\t// in\n    tag_200:\n        /* \"#utility.yul\":9920:9955   */\n      swap1\n      pop\n        /* \"#utility.yul\":9910:9961   */\n      swap2\n      swap1\n      pop\n      jump\t// out\n        /* \"#utility.yul\":9967:10093   */\n    tag_201:\n      0x00\n        /* \"#utility.yul\":10044:10086   */\n      0xffffffffffffffffffffffffffffffffffffffff\n        /* \"#utility.yul\":10037:10042   */\n      dup3\n        /* \"#utility.yul\":10033:10087   */\n      and\n        /* \"#utility.yul\":10022:10087   */\n      swap1\n      pop\n        /* \"#utility.yul\":10012:10093   */\n      swap2\n      swap1\n      pop\n      jump\t// out\n        /* \"#utility.yul\":10099:10176   */\n    tag_170:\n      0x00\n        /* \"#utility.yul\":10165:10170   */\n      dup2\n        /* \"#utility.yul\":10154:10170   */\n      swap1\n      pop\n        /* \"#utility.yul\":10144:10176   */\n      swap2\n      swap1\n      pop\n      jump\t// out\n        /* \"#utility.yul\":10182:10336   */\n    tag_94:\n        /* \"#utility.yul\":10266:10272   */\n      dup3\n        /* \"#utility.yul\":10261:10264   */\n      dup2\n        /* \"#utility.yul\":10256:10259   */\n      dup4\n        /* \"#utility.yul\":10243:10273   */\n      calldatacopy\n        /* \"#utility.yul\":10328:10329   */\n      0x00\n        /* \"#utility.yul\":10319:10325   */\n      dup4\n        /* \"#utility.yul\":10314:10317   */\n      dup4\n        /* \"#utility.yul\":10310:10326   */\n      add\n        /* \"#utility.yul\":10303:10330   */\n      mstore\n        /* \"#utility.yul\":10233:10336   */\n      pop\n      pop\n      pop\n      jump\t// out\n        /* \"#utility.yul\":10342:10649   */\n    tag_143:\n        /* \"#utility.yul\":10410:10411   */\n      0x00\n        /* \"#utility.yul\":10420:10533   */\n    tag_206:\n        /* \"#utility.yul\":10434:10440   */\n      dup4\n        /* \"#utility.yul\":10431:10432   */\n      dup2\n        /* \"#utility.yul\":10428:10441   */\n      lt\n        /* \"#utility.yul\":10420:10533   */\n      iszero\n      tag_208\n      jumpi\n        /* \"#utility.yul\":10519:10520   */\n      dup1\n        /* \"#utility.yul\":10514:10517   */\n      dup3\n        /* \"#utility.yul\":10510:10521   */\n      add\n        /* \"#utility.yul\":10504:10522   */\n      mload\n        /* \"#utility.yul\":10500:10501   */\n      dup2\n        /* \"#utility.yul\":10495:10498   */\n      dup5\n        /* \"#utility.yul\":10491:10502   */\n      add\n        /* \"#utility.yul\":10484:10523   */\n      mstore\n        /* \"#utility.yul\":10456:10458   */\n      0x20\n        /* \"#utility.yul\":10453:10454   */\n      dup2\n        /* \"#utility.yul\":10449:10459   */\n      add\n        /* \"#utility.yul\":10444:10459   */\n      swap1\n      pop\n        /* \"#utility.yul\":10420:10533   */\n      jump(tag_206)\n    tag_208:\n        /* \"#utility.yul\":10551:10557   */\n      dup4\n        /* \"#utility.yul\":10548:10549   */\n      dup2\n        /* \"#utility.yul\":10545:10558   */\n      gt\n        /* \"#utility.yul\":10542:10544   */\n      iszero\n      tag_209\n      jumpi\n        /* \"#utility.yul\":10631:10632   */\n      0x00\n        /* \"#utility.yul\":10622:10628   */\n      dup5\n        /* \"#utility.yul\":10617:10620   */\n      dup5\n        /* \"#utility.yul\":10613:10629   */\n      add\n        /* \"#utility.yul\":10606:10633   */\n      mstore\n        /* \"#utility.yul\":10542:10544   */\n    tag_209:\n        /* \"#utility.yul\":10391:10649   */\n      pop\n      pop\n      pop\n      pop\n      jump\t// out\n        /* \"#utility.yul\":10655:10826   */\n    tag_57:\n      0x00\n        /* \"#utility.yul\":10717:10741   */\n      tag_211\n        /* \"#utility.yul\":10735:10740   */\n      dup3\n        /* \"#utility.yul\":10717:10741   */\n      tag_170\n      jump\t// in\n    tag_211:\n        /* \"#utility.yul\":10708:10741   */\n      swap2\n      pop\n        /* \"#utility.yul\":10763:10767   */\n      0x00\n        /* \"#utility.yul\":10756:10761   */\n      dup3\n        /* \"#utility.yul\":10753:10768   */\n      eq\n        /* \"#utility.yul\":10750:10752   */\n      iszero\n      tag_212\n      jumpi\n        /* \"#utility.yul\":10771:10789   */\n      tag_213\n      tag_214\n      jump\t// in\n    tag_213:\n        /* \"#utility.yul\":10750:10752   */\n    tag_212:\n        /* \"#utility.yul\":10818:10819   */\n      0x01\n        /* \"#utility.yul\":10811:10816   */\n      dup3\n        /* \"#utility.yul\":10807:10820   */\n      sub\n        /* \"#utility.yul\":10800:10820   */\n      swap1\n      pop\n        /* \"#utility.yul\":10698:10826   */\n      swap2\n      swap1\n      pop\n      jump\t// out\n        /* \"#utility.yul\":10832:11152   */\n    tag_46:\n      0x00\n        /* \"#utility.yul\":10913:10914   */\n      0x02\n        /* \"#utility.yul\":10907:10911   */\n      dup3\n        /* \"#utility.yul\":10903:10915   */\n      div\n        /* \"#utility.yul\":10893:10915   */\n      swap1\n      pop\n        /* \"#utility.yul\":10960:10961   */\n      0x01\n        /* \"#utility.yul\":10954:10958   */\n      dup3\n        /* \"#utility.yul\":10950:10962   */\n      and\n        /* \"#utility.yul\":10981:10999   */\n      dup1\n        /* \"#utility.yul\":10971:10973   */\n      tag_216\n      jumpi\n        /* \"#utility.yul\":11037:11041   */\n      0x7f\n        /* \"#utility.yul\":11029:11035   */\n      dup3\n        /* \"#utility.yul\":11025:11042   */\n      and\n        /* \"#utility.yul\":11015:11042   */\n      swap2\n      pop\n        /* \"#utility.yul\":10971:10973   */\n    tag_216:\n        /* \"#utility.yul\":11099:11101   */\n      0x20\n        /* \"#utility.yul\":11091:11097   */\n      dup3\n        /* \"#utility.yul\":11088:11102   */\n      lt\n        /* \"#utility.yul\":11068:11086   */\n      dup2\n        /* \"#utility.yul\":11065:11103   */\n      eq\n        /* \"#utility.yul\":11062:11064   */\n      iszero\n      tag_217\n      jumpi\n        /* \"#utility.yul\":11118:11136   */\n      tag_218\n      tag_219\n      jump\t// in\n    tag_218:\n        /* \"#utility.yul\":11062:11064   */\n    tag_217:\n        /* \"#utility.yul\":10883:11152   */\n      pop\n      swap2\n      swap1\n      pop\n      jump\t// out\n        /* \"#utility.yul\":11158:11391   */\n    tag_73:\n      0x00\n        /* \"#utility.yul\":11220:11244   */\n      tag_221\n        /* \"#utility.yul\":11238:11243   */\n      dup3\n        /* \"#utility.yul\":11220:11244   */\n      tag_170\n      jump\t// in\n    tag_221:\n        /* \"#utility.yul\":11211:11244   */\n      swap2\n      pop\n        /* \"#utility.yul\":11266:11332   */\n      0xffffffffffffffffffffffffffffffffffffffffffffffffffffffffffffffff\n        /* \"#utility.yul\":11259:11264   */\n      dup3\n        /* \"#utility.yul\":11256:11333   */\n      eq\n        /* \"#utility.yul\":11253:11255   */\n      iszero\n      tag_222\n      jumpi\n        /* \"#utility.yul\":11336:11354   */\n      tag_223\n      tag_214\n      jump\t// in\n    tag_223:\n        /* \"#utility.yul\":11253:11255   */\n    tag_222:\n        /* \"#utility.yul\":11383:11384   */\n      0x01\n        /* \"#utility.yul\":11376:11381   */\n      dup3\n        /* \"#utility.yul\":11372:11385   */\n      add\n        /* \"#utility.yul\":11365:11385   */\n      swap1\n      pop\n        /* \"#utility.yul\":11201:11391   */\n      swap2\n      swap1\n      pop\n      jump\t// out\n        /* \"#utility.yul\":11397:11577   */\n    tag_214:\n        /* \"#utility.yul\":11445:11522   */\n      0x4e487b7100000000000000000000000000000000000000000000000000000000\n        /* \"#utility.yul\":11442:11443   */\n      0x00\n        /* \"#utility.yul\":11435:11523   */\n      mstore\n        /* \"#utility.yul\":11542:11546   */\n      0x11\n        /* \"#utility.yul\":11539:11540   */\n      0x04\n        /* \"#utility.yul\":11532:11547   */\n      mstore\n        /* \"#utility.yul\":11566:11570   */\n      0x24\n        /* \"#utility.yul\":11563:11564   */\n      0x00\n        /* \"#utility.yul\":11556:11571   */\n      revert\n        /* \"#utility.yul\":11583:11763   */\n    tag_219:\n        /* \"#utility.yul\":11631:11708   */\n      0x4e487b7100000000000000000000000000000000000000000000000000000000\n        /* \"#utility.yul\":11628:11629   */\n      0x00\n        /* \"#utility.yul\":11621:11709   */\n      mstore\n        /* \"#utility.yul\":11728:11732   */\n      0x22\n        /* \"#utility.yul\":11725:11726   */\n      0x04\n        /* \"#utility.yul\":11718:11733   */\n      mstore\n        /* \"#utility.yul\":11752:11756   */\n      0x24\n        /* \"#utility.yul\":11749:11750   */\n      0x00\n        /* \"#utility.yul\":11742:11757   */\n      revert\n        /* \"#utility.yul\":11769:11949   */\n    tag_188:\n        /* \"#utility.yul\":11817:11894   */\n      0x4e487b7100000000000000000000000000000000000000000000000000000000\n        /* \"#utility.yul\":11814:11815   */\n      0x00\n        /* \"#utility.yul\":11807:11895   */\n      mstore\n        /* \"#utility.yul\":11914:11918   */\n      0x41\n        /* \"#utility.yul\":11911:11912   */\n      0x04\n        /* \"#utility.yul\":11904:11919   */\n      mstore\n        /* \"#utility.yul\":11938:11942   */\n      0x24\n        /* \"#utility.yul\":11935:11936   */\n      0x00\n        /* \"#utility.yul\":11928:11943   */\n      revert\n        /* \"#utility.yul\":11955:12057   */\n    tag_145:\n      0x00\n        /* \"#utility.yul\":12047:12049   */\n      0x1f\n        /* \"#utility.yul\":12043:12050   */\n      not\n        /* \"#utility.yul\":12038:12040   */\n      0x1f\n        /* \"#utility.yul\":12031:12036   */\n      dup4\n        /* \"#utility.yul\":12027:12041   */\n      add\n        /* \"#utility.yul\":12023:12051   */\n      and\n        /* \"#utility.yul\":12013:12051   */\n      swap1\n      pop\n        /* \"#utility.yul\":12003:12057   */\n      swap2\n      swap1\n      pop\n      jump\t// out\n        /* \"#utility.yul\":12063:12185   */\n    tag_102:\n        /* \"#utility.yul\":12136:12160   */\n      tag_229\n        /* \"#utility.yul\":12154:12159   */\n      dup2\n        /* \"#utility.yul\":12136:12160   */\n      tag_170\n      jump\t// in\n    tag_229:\n        /* \"#utility.yul\":12129:12134   */\n      dup2\n        /* \"#utility.yul\":12126:12161   */\n      eq\n        /* \"#utility.yul\":12116:12118   */\n      tag_230\n      jumpi\n        /* \"#utility.yul\":12175:12176   */\n      0x00\n        /* \"#utility.yul\":12172:12173   */\n      dup1\n        /* \"#utility.yul\":12165:12177   */\n      revert\n        /* \"#utility.yul\":12116:12118   */\n    tag_230:\n        /* \"#utility.yul\":12106:12185   */\n      pop\n      jump\t// out\n\n    auxdata: 0xa264697066735822122081c0c08bbd6b9779475f0f87576a31df26e8bca463e46f5064cb9003d4e94bc864736f6c63430008000033\n}\n",
				"bytecode": {
					"linkReferences": {},
					"object": "608060405234801561001057600080fd5b50336000806101000a81548173ffffffffffffffffffffffffffffffffffffffff021916908373ffffffffffffffffffffffffffffffffffffffff160217905550610e73806100606000396000f3fe608060405234801561001057600080fd5b50600436106100625760003560e01c806345b8a73e1461006757806368744046146100835780637e490a9e146100b65780638da5cb5b146100d2578063bc072787146100f0578063ca5140c91461010e575b600080fd5b610081600480360381019061007c9190610866565b61012a565b005b61009d600480360381019061009891906108ba565b6102c4565b6040516100ad9493929190610b32565b60405180910390f35b6100d060048036038101906100cb91906108ba565b6103c0565b005b6100da6104ae565b6040516100e79190610af5565b60405180910390f35b6100f86104d2565b6040516101059190610b10565b60405180910390f35b610128600480360381019061012391906108ba565b610641565b005b3373ffffffffffffffffffffffffffffffffffffffff1660008054906101000a900473ffffffffffffffffffffffffffffffffffffffff1673ffffffffffffffffffffffffffffffffffffffff16146101b8576040517f08c379a00000000000000000000000000000000000000000000000000000000081526004016101af90610b7e565b60405180910390fd5b6001604051806080016040528084815260200160026040518060200160405290816000820154815250508152602001600073ffffffffffffffffffffffffffffffffffffffff168152602001838152509080600181540180825580915050600190039060005260206000209060040201600090919091909150600082015181600001908051906020019061024d929190610746565b5060208201518160010160008201518160000155505060408201518160020160006101000a81548173ffffffffffffffffffffffffffffffffffffffff021916908373ffffffffffffffffffffffffffffffffffffffff1602179055506060820151816003015550506102c06002610730565b5050565b600181815481106102d457600080fd5b90600052602060002090600402016000915090508060000180546102f790610d0d565b80601f016020809104026020016040519081016040528092919081815260200182805461032390610d0d565b80156103705780601f1061034557610100808354040283529160200191610370565b820191906000526020600020905b81548152906001019060200180831161035357829003601f168201915b50505050509080600101604051806020016040529081600082015481525050908060020160009054906101000a900473ffffffffffffffffffffffffffffffffffffffff16908060030154905084565b33600182815481106103fb577f4e487b7100000000000000000000000000000000000000000000000000000000600052603260045260246000fd5b906000526020600020906004020160020160006101000a81548173ffffffffffffffffffffffffffffffffffffffff021916908373ffffffffffffffffffffffffffffffffffffffff16021790555060018181548110610484577f4e487b7100000000000000000000000000000000000000000000000000000000600052603260045260246000fd5b906000526020600020906004020160030160008154809291906104a690610ce3565b919050555050565b60008054906101000a900473ffffffffffffffffffffffffffffffffffffffff1681565b60606001805480602002602001604051908101604052809291908181526020016000905b82821015610638578382906000526020600020906004020160405180608001604052908160008201805461052990610d0d565b80601f016020809104026020016040519081016040528092919081815260200182805461055590610d0d565b80156105a25780601f10610577576101008083540402835291602001916105a2565b820191906000526020600020905b81548152906001019060200180831161058557829003601f168201915b505050505081526020016001820160405180602001604052908160008201548152505081526020016002820160009054906101000a900473ffffffffffffffffffffffffffffffffffffffff1673ffffffffffffffffffffffffffffffffffffffff1673ffffffffffffffffffffffffffffffffffffffff168152602001600382015481525050815260200190600101906104f6565b50505050905090565b60006001828154811061067d577f4e487b7100000000000000000000000000000000000000000000000000000000600052603260045260246000fd5b906000526020600020906004020160020160006101000a81548173ffffffffffffffffffffffffffffffffffffffff021916908373ffffffffffffffffffffffffffffffffffffffff16021790555060018181548110610706577f4e487b7100000000000000000000000000000000000000000000000000000000600052603260045260246000fd5b9060005260206000209060040201600301600081548092919061072890610d3f565b919050555050565b6001816000016000828254019250508190555050565b82805461075290610d0d565b90600052602060002090601f01602090048101928261077457600085556107bb565b82601f1061078d57805160ff19168380011785556107bb565b828001600101855582156107bb579182015b828111156107ba57825182559160200191906001019061079f565b5b5090506107c891906107cc565b5090565b5b808211156107e55760008160009055506001016107cd565b5090565b60006107fc6107f784610bcf565b610b9e565b90508281526020810184848401111561081457600080fd5b61081f848285610ca1565b509392505050565b600082601f83011261083857600080fd5b81356108488482602086016107e9565b91505092915050565b60008135905061086081610e26565b92915050565b6000806040838503121561087957600080fd5b600083013567ffffffffffffffff81111561089357600080fd5b61089f85828601610827565b92505060206108b085828601610851565b9150509250929050565b6000602082840312156108cc57600080fd5b60006108da84828501610851565b91505092915050565b60006108ef8383610a3c565b905092915050565b61090081610c65565b82525050565b61090f81610c65565b82525050565b600061092082610c0f565b61092a8185610c32565b93508360208202850161093c85610bff565b8060005b85811015610978578484038952815161095985826108e3565b945061096483610c25565b925060208a01995050600181019050610940565b50829750879550505050505092915050565b600061099582610c1a565b61099f8185610c43565b93506109af818560208601610cb0565b6109b881610e15565b840191505092915050565b60006109ce82610c1a565b6109d88185610c54565b93506109e8818560208601610cb0565b6109f181610e15565b840191505092915050565b6000610a09601883610c54565b91507f4e6f7420696e766f6b656420627920746865206f776e657200000000000000006000830152602082019050919050565b60006080830160008301518482036000860152610a59828261098a565b9150506020830151610a6e6020860182610a9f565b506040830151610a8160408601826108f7565b506060830151610a946060860182610ad7565b508091505092915050565b602082016000820151610ab56000850182610ad7565b50505050565b602082016000820151610ad16000850182610ad7565b50505050565b610ae081610c97565b82525050565b610aef81610c97565b82525050565b6000602082019050610b0a6000830184610906565b92915050565b60006020820190508181036000830152610b2a8184610915565b905092915050565b60006080820190508181036000830152610b4c81876109c3565b9050610b5b6020830186610abb565b610b686040830185610906565b610b756060830184610ae6565b95945050505050565b60006020820190508181036000830152610b97816109fc565b9050919050565b6000604051905081810181811067ffffffffffffffff82111715610bc557610bc4610de6565b5b8060405250919050565b600067ffffffffffffffff821115610bea57610be9610de6565b5b601f19601f8301169050602081019050919050565b6000819050602082019050919050565b600081519050919050565b600081519050919050565b6000602082019050919050565b600082825260208201905092915050565b600082825260208201905092915050565b600082825260208201905092915050565b6000610c7082610c77565b9050919050565b600073ffffffffffffffffffffffffffffffffffffffff82169050919050565b6000819050919050565b82818337600083830152505050565b60005b83811015610cce578082015181840152602081019050610cb3565b83811115610cdd576000848401525b50505050565b6000610cee82610c97565b91506000821415610d0257610d01610d88565b5b600182039050919050565b60006002820490506001821680610d2557607f821691505b60208210811415610d3957610d38610db7565b5b50919050565b6000610d4a82610c97565b91507fffffffffffffffffffffffffffffffffffffffffffffffffffffffffffffffff821415610d7d57610d7c610d88565b5b600182019050919050565b7f4e487b7100000000000000000000000000000000000000000000000000000000600052601160045260246000fd5b7f4e487b7100000000000000000000000000000000000000000000000000000000600052602260045260246000fd5b7f4e487b7100000000000000000000000000000000000000000000000000000000600052604160045260246000fd5b6000601f19601f8301169050919050565b610e2f81610c97565b8114610e3a57600080fd5b5056fea264697066735822122081c0c08bbd6b9779475f0f87576a31df26e8bca463e46f5064cb9003d4e94bc864736f6c63430008000033",
					"opcodes": "PUSH1 0x80 PUSH1 0x40 MSTORE CALLVALUE DUP1 ISZERO PUSH2 0x10 JUMPI PUSH1 0x0 DUP1 REVERT JUMPDEST POP CALLER PUSH1 0x0 DUP1 PUSH2 0x100 EXP DUP2 SLOAD DUP2 PUSH20 0xFFFFFFFFFFFFFFFFFFFFFFFFFFFFFFFFFFFFFFFF MUL NOT AND SWAP1 DUP4 PUSH20 0xFFFFFFFFFFFFFFFFFFFFFFFFFFFFFFFFFFFFFFFF AND MUL OR SWAP1 SSTORE POP PUSH2 0xE73 DUP1 PUSH2 0x60 PUSH1 0x0 CODECOPY PUSH1 0x0 RETURN INVALID PUSH1 0x80 PUSH1 0x40 MSTORE CALLVALUE DUP1 ISZERO PUSH2 0x10 JUMPI PUSH1 0x0 DUP1 REVERT JUMPDEST POP PUSH1 0x4 CALLDATASIZE LT PUSH2 0x62 JUMPI PUSH1 0x0 CALLDATALOAD PUSH1 0xE0 SHR DUP1 PUSH4 0x45B8A73E EQ PUSH2 0x67 JUMPI DUP1 PUSH4 0x68744046 EQ PUSH2 0x83 JUMPI DUP1 PUSH4 0x7E490A9E EQ PUSH2 0xB6 JUMPI DUP1 PUSH4 0x8DA5CB5B EQ PUSH2 0xD2 JUMPI DUP1 PUSH4 0xBC072787 EQ PUSH2 0xF0 JUMPI DUP1 PUSH4 0xCA5140C9 EQ PUSH2 0x10E JUMPI JUMPDEST PUSH1 0x0 DUP1 REVERT JUMPDEST PUSH2 0x81 PUSH1 0x4 DUP1 CALLDATASIZE SUB DUP2 ADD SWAP1 PUSH2 0x7C SWAP2 SWAP1 PUSH2 0x866 JUMP JUMPDEST PUSH2 0x12A JUMP JUMPDEST STOP JUMPDEST PUSH2 0x9D PUSH1 0x4 DUP1 CALLDATASIZE SUB DUP2 ADD SWAP1 PUSH2 0x98 SWAP2 SWAP1 PUSH2 0x8BA JUMP JUMPDEST PUSH2 0x2C4 JUMP JUMPDEST PUSH1 0x40 MLOAD PUSH2 0xAD SWAP5 SWAP4 SWAP3 SWAP2 SWAP1 PUSH2 0xB32 JUMP JUMPDEST PUSH1 0x40 MLOAD DUP1 SWAP2 SUB SWAP1 RETURN JUMPDEST PUSH2 0xD0 PUSH1 0x4 DUP1 CALLDATASIZE SUB DUP2 ADD SWAP1 PUSH2 0xCB SWAP2 SWAP1 PUSH2 0x8BA JUMP JUMPDEST PUSH2 0x3C0 JUMP JUMPDEST STOP JUMPDEST PUSH2 0xDA PUSH2 0x4AE JUMP JUMPDEST PUSH1 0x40 MLOAD PUSH2 0xE7 SWAP2 SWAP1 PUSH2 0xAF5 JUMP JUMPDEST PUSH1 0x40 MLOAD DUP1 SWAP2 SUB SWAP1 RETURN JUMPDEST PUSH2 0xF8 PUSH2 0x4D2 JUMP JUMPDEST PUSH1 0x40 MLOAD PUSH2 0x105 SWAP2 SWAP1 PUSH2 0xB10 JUMP JUMPDEST PUSH1 0x40 MLOAD DUP1 SWAP2 SUB SWAP1 RETURN JUMPDEST PUSH2 0x128 PUSH1 0x4 DUP1 CALLDATASIZE SUB DUP2 ADD SWAP1 PUSH2 0x123 SWAP2 SWAP1 PUSH2 0x8BA JUMP JUMPDEST PUSH2 0x641 JUMP JUMPDEST STOP JUMPDEST CALLER PUSH20 0xFFFFFFFFFFFFFFFFFFFFFFFFFFFFFFFFFFFFFFFF AND PUSH1 0x0 DUP1 SLOAD SWAP1 PUSH2 0x100 EXP SWAP1 DIV PUSH20 0xFFFFFFFFFFFFFFFFFFFFFFFFFFFFFFFFFFFFFFFF AND PUSH20 0xFFFFFFFFFFFFFFFFFFFFFFFFFFFFFFFFFFFFFFFF AND EQ PUSH2 0x1B8 JUMPI PUSH1 0x40 MLOAD PUSH32 0x8C379A000000000000000000000000000000000000000000000000000000000 DUP2 MSTORE PUSH1 0x4 ADD PUSH2 0x1AF SWAP1 PUSH2 0xB7E JUMP JUMPDEST PUSH1 0x40 MLOAD DUP1 SWAP2 SUB SWAP1 REVERT JUMPDEST PUSH1 0x1 PUSH1 0x40 MLOAD DUP1 PUSH1 0x80 ADD PUSH1 0x40 MSTORE DUP1 DUP5 DUP2 MSTORE PUSH1 0x20 ADD PUSH1 0x2 PUSH1 0x40 MLOAD DUP1 PUSH1 0x20 ADD PUSH1 0x40 MSTORE SWAP1 DUP2 PUSH1 0x0 DUP3 ADD SLOAD DUP2 MSTORE POP POP DUP2 MSTORE PUSH1 0x20 ADD PUSH1 0x0 PUSH20 0xFFFFFFFFFFFFFFFFFFFFFFFFFFFFFFFFFFFFFFFF AND DUP2 MSTORE PUSH1 0x20 ADD DUP4 DUP2 MSTORE POP SWAP1 DUP1 PUSH1 0x1 DUP2 SLOAD ADD DUP1 DUP3 SSTORE DUP1 SWAP2 POP POP PUSH1 0x1 SWAP1 SUB SWAP1 PUSH1 0x0 MSTORE PUSH1 0x20 PUSH1 0x0 KECCAK256 SWAP1 PUSH1 0x4 MUL ADD PUSH1 0x0 SWAP1 SWAP2 SWAP1 SWAP2 SWAP1 SWAP2 POP PUSH1 0x0 DUP3 ADD MLOAD DUP2 PUSH1 0x0 ADD SWAP1 DUP1 MLOAD SWAP1 PUSH1 0x20 ADD SWAP1 PUSH2 0x24D SWAP3 SWAP2 SWAP1 PUSH2 0x746 JUMP JUMPDEST POP PUSH1 0x20 DUP3 ADD MLOAD DUP2 PUSH1 0x1 ADD PUSH1 0x0 DUP3 ADD MLOAD DUP2 PUSH1 0x0 ADD SSTORE POP POP PUSH1 0x40 DUP3 ADD MLOAD DUP2 PUSH1 0x2 ADD PUSH1 0x0 PUSH2 0x100 EXP DUP2 SLOAD DUP2 PUSH20 0xFFFFFFFFFFFFFFFFFFFFFFFFFFFFFFFFFFFFFFFF MUL NOT AND SWAP1 DUP4 PUSH20 0xFFFFFFFFFFFFFFFFFFFFFFFFFFFFFFFFFFFFFFFF AND MUL OR SWAP1 SSTORE POP PUSH1 0x60 DUP3 ADD MLOAD DUP2 PUSH1 0x3 ADD SSTORE POP POP PUSH2 0x2C0 PUSH1 0x2 PUSH2 0x730 JUMP JUMPDEST POP POP JUMP JUMPDEST PUSH1 0x1 DUP2 DUP2 SLOAD DUP2 LT PUSH2 0x2D4 JUMPI PUSH1 0x0 DUP1 REVERT JUMPDEST SWAP1 PUSH1 0x0 MSTORE PUSH1 0x20 PUSH1 0x0 KECCAK256 SWAP1 PUSH1 0x4 MUL ADD PUSH1 0x0 SWAP2 POP SWAP1 POP DUP1 PUSH1 0x0 ADD DUP1 SLOAD PUSH2 0x2F7 SWAP1 PUSH2 0xD0D JUMP JUMPDEST DUP1 PUSH1 0x1F ADD PUSH1 0x20 DUP1 SWAP2 DIV MUL PUSH1 0x20 ADD PUSH1 0x40 MLOAD SWAP1 DUP2 ADD PUSH1 0x40 MSTORE DUP1 SWAP3 SWAP2 SWAP1 DUP2 DUP2 MSTORE PUSH1 0x20 ADD DUP3 DUP1 SLOAD PUSH2 0x323 SWAP1 PUSH2 0xD0D JUMP JUMPDEST DUP1 ISZERO PUSH2 0x370 JUMPI DUP1 PUSH1 0x1F LT PUSH2 0x345 JUMPI PUSH2 0x100 DUP1 DUP4 SLOAD DIV MUL DUP4 MSTORE SWAP2 PUSH1 0x20 ADD SWAP2 PUSH2 0x370 JUMP JUMPDEST DUP3 ADD SWAP2 SWAP1 PUSH1 0x0 MSTORE PUSH1 0x20 PUSH1 0x0 KECCAK256 SWAP1 JUMPDEST DUP2 SLOAD DUP2 MSTORE SWAP1 PUSH1 0x1 ADD SWAP1 PUSH1 0x20 ADD DUP1 DUP4 GT PUSH2 0x353 JUMPI DUP3 SWAP1 SUB PUSH1 0x1F AND DUP3 ADD SWAP2 JUMPDEST POP POP POP POP POP SWAP1 DUP1 PUSH1 0x1 ADD PUSH1 0x40 MLOAD DUP1 PUSH1 0x20 ADD PUSH1 0x40 MSTORE SWAP1 DUP2 PUSH1 0x0 DUP3 ADD SLOAD DUP2 MSTORE POP POP SWAP1 DUP1 PUSH1 0x2 ADD PUSH1 0x0 SWAP1 SLOAD SWAP1 PUSH2 0x100 EXP SWAP1 DIV PUSH20 0xFFFFFFFFFFFFFFFFFFFFFFFFFFFFFFFFFFFFFFFF AND SWAP1 DUP1 PUSH1 0x3 ADD SLOAD SWAP1 POP DUP5 JUMP JUMPDEST CALLER PUSH1 0x1 DUP3 DUP2 SLOAD DUP2 LT PUSH2 0x3FB JUMPI PUSH32 0x4E487B7100000000000000000000000000000000000000000000000000000000 PUSH1 0x0 MSTORE PUSH1 0x32 PUSH1 0x4 MSTORE PUSH1 0x24 PUSH1 0x0 REVERT JUMPDEST SWAP1 PUSH1 0x0 MSTORE PUSH1 0x20 PUSH1 0x0 KECCAK256 SWAP1 PUSH1 0x4 MUL ADD PUSH1 0x2 ADD PUSH1 0x0 PUSH2 0x100 EXP DUP2 SLOAD DUP2 PUSH20 0xFFFFFFFFFFFFFFFFFFFFFFFFFFFFFFFFFFFFFFFF MUL NOT AND SWAP1 DUP4 PUSH20 0xFFFFFFFFFFFFFFFFFFFFFFFFFFFFFFFFFFFFFFFF AND MUL OR SWAP1 SSTORE POP PUSH1 0x1 DUP2 DUP2 SLOAD DUP2 LT PUSH2 0x484 JUMPI PUSH32 0x4E487B7100000000000000000000000000000000000000000000000000000000 PUSH1 0x0 MSTORE PUSH1 0x32 PUSH1 0x4 MSTORE PUSH1 0x24 PUSH1 0x0 REVERT JUMPDEST SWAP1 PUSH1 0x0 MSTORE PUSH1 0x20 PUSH1 0x0 KECCAK256 SWAP1 PUSH1 0x4 MUL ADD PUSH1 0x3 ADD PUSH1 0x0 DUP2 SLOAD DUP1 SWAP3 SWAP2 SWAP1 PUSH2 0x4A6 SWAP1 PUSH2 0xCE3 JUMP JUMPDEST SWAP2 SWAP1 POP SSTORE POP POP JUMP JUMPDEST PUSH1 0x0 DUP1 SLOAD SWAP1 PUSH2 0x100 EXP SWAP1 DIV PUSH20 0xFFFFFFFFFFFFFFFFFFFFFFFFFFFFFFFFFFFFFFFF AND DUP2 JUMP JUMPDEST PUSH1 0x60 PUSH1 0x1 DUP1 SLOAD DUP1 PUSH1 0x20 MUL PUSH1 0x20 ADD PUSH1 0x40 MLOAD SWAP1 DUP2 ADD PUSH1 0x40 MSTORE DUP1 SWAP3 SWAP2 SWAP1 DUP2 DUP2 MSTORE PUSH1 0x20 ADD PUSH1 0x0 SWAP1 JUMPDEST DUP3 DUP3 LT ISZERO PUSH2 0x638 JUMPI DUP4 DUP3 SWAP1 PUSH1 0x0 MSTORE PUSH1 0x20 PUSH1 0x0 KECCAK256 SWAP1 PUSH1 0x4 MUL ADD PUSH1 0x40 MLOAD DUP1 PUSH1 0x80 ADD PUSH1 0x40 MSTORE SWAP1 DUP2 PUSH1 0x0 DUP3 ADD DUP1 SLOAD PUSH2 0x529 SWAP1 PUSH2 0xD0D JUMP JUMPDEST DUP1 PUSH1 0x1F ADD PUSH1 0x20 DUP1 SWAP2 DIV MUL PUSH1 0x20 ADD PUSH1 0x40 MLOAD SWAP1 DUP2 ADD PUSH1 0x40 MSTORE DUP1 SWAP3 SWAP2 SWAP1 DUP2 DUP2 MSTORE PUSH1 0x20 ADD DUP3 DUP1 SLOAD PUSH2 0x555 SWAP1 PUSH2 0xD0D JUMP JUMPDEST DUP1 ISZERO PUSH2 0x5A2 JUMPI DUP1 PUSH1 0x1F LT PUSH2 0x577 JUMPI PUSH2 0x100 DUP1 DUP4 SLOAD DIV MUL DUP4 MSTORE SWAP2 PUSH1 0x20 ADD SWAP2 PUSH2 0x5A2 JUMP JUMPDEST DUP3 ADD SWAP2 SWAP1 PUSH1 0x0 MSTORE PUSH1 0x20 PUSH1 0x0 KECCAK256 SWAP1 JUMPDEST DUP2 SLOAD DUP2 MSTORE SWAP1 PUSH1 0x1 ADD SWAP1 PUSH1 0x20 ADD DUP1 DUP4 GT PUSH2 0x585 JUMPI DUP3 SWAP1 SUB PUSH1 0x1F AND DUP3 ADD SWAP2 JUMPDEST POP POP POP POP POP DUP2 MSTORE PUSH1 0x20 ADD PUSH1 0x1 DUP3 ADD PUSH1 0x40 MLOAD DUP1 PUSH1 0x20 ADD PUSH1 0x40 MSTORE SWAP1 DUP2 PUSH1 0x0 DUP3 ADD SLOAD DUP2 MSTORE POP POP DUP2 MSTORE PUSH1 0x20 ADD PUSH1 0x2 DUP3 ADD PUSH1 0x0 SWAP1 SLOAD SWAP1 PUSH2 0x100 EXP SWAP1 DIV PUSH20 0xFFFFFFFFFFFFFFFFFFFFFFFFFFFFFFFFFFFFFFFF AND PUSH20 0xFFFFFFFFFFFFFFFFFFFFFFFFFFFFFFFFFFFFFFFF AND PUSH20 0xFFFFFFFFFFFFFFFFFFFFFFFFFFFFFFFFFFFFFFFF AND DUP2 MSTORE PUSH1 0x20 ADD PUSH1 0x3 DUP3 ADD SLOAD DUP2 MSTORE POP POP DUP2 MSTORE PUSH1 0x20 ADD SWAP1 PUSH1 0x1 ADD SWAP1 PUSH2 0x4F6 JUMP JUMPDEST POP POP POP POP SWAP1 POP SWAP1 JUMP JUMPDEST PUSH1 0x0 PUSH1 0x1 DUP3 DUP2 SLOAD DUP2 LT PUSH2 0x67D JUMPI PUSH32 0x4E487B7100000000000000000000000000000000000000000000000000000000 PUSH1 0x0 MSTORE PUSH1 0x32 PUSH1 0x4 MSTORE PUSH1 0x24 PUSH1 0x0 REVERT JUMPDEST SWAP1 PUSH1 0x0 MSTORE PUSH1 0x20 PUSH1 0x0 KECCAK256 SWAP1 PUSH1 0x4 MUL ADD PUSH1 0x2 ADD PUSH1 0x0 PUSH2 0x100 EXP DUP2 SLOAD DUP2 PUSH20 0xFFFFFFFFFFFFFFFFFFFFFFFFFFFFFFFFFFFFFFFF MUL NOT AND SWAP1 DUP4 PUSH20 0xFFFFFFFFFFFFFFFFFFFFFFFFFFFFFFFFFFFFFFFF AND MUL OR SWAP1 SSTORE POP PUSH1 0x1 DUP2 DUP2 SLOAD DUP2 LT PUSH2 0x706 JUMPI PUSH32 0x4E487B7100000000000000000000000000000000000000000000000000000000 PUSH1 0x0 MSTORE PUSH1 0x32 PUSH1 0x4 MSTORE PUSH1 0x24 PUSH1 0x0 REVERT JUMPDEST SWAP1 PUSH1 0x0 MSTORE PUSH1 0x20 PUSH1 0x0 KECCAK256 SWAP1 PUSH1 0x4 MUL ADD PUSH1 0x3 ADD PUSH1 0x0 DUP2 SLOAD DUP1 SWAP3 SWAP2 SWAP1 PUSH2 0x728 SWAP1 PUSH2 0xD3F JUMP JUMPDEST SWAP2 SWAP1 POP SSTORE POP POP JUMP JUMPDEST PUSH1 0x1 DUP2 PUSH1 0x0 ADD PUSH1 0x0 DUP3 DUP3 SLOAD ADD SWAP3 POP POP DUP2 SWAP1 SSTORE POP POP JUMP JUMPDEST DUP3 DUP1 SLOAD PUSH2 0x752 SWAP1 PUSH2 0xD0D JUMP JUMPDEST SWAP1 PUSH1 0x0 MSTORE PUSH1 0x20 PUSH1 0x0 KECCAK256 SWAP1 PUSH1 0x1F ADD PUSH1 0x20 SWAP1 DIV DUP2 ADD SWAP3 DUP3 PUSH2 0x774 JUMPI PUSH1 0x0 DUP6 SSTORE PUSH2 0x7BB JUMP JUMPDEST DUP3 PUSH1 0x1F LT PUSH2 0x78D JUMPI DUP1 MLOAD PUSH1 0xFF NOT AND DUP4 DUP1 ADD OR DUP6 SSTORE PUSH2 0x7BB JUMP JUMPDEST DUP3 DUP1 ADD PUSH1 0x1 ADD DUP6 SSTORE DUP3 ISZERO PUSH2 0x7BB JUMPI SWAP2 DUP3 ADD JUMPDEST DUP3 DUP2 GT ISZERO PUSH2 0x7BA JUMPI DUP3 MLOAD DUP3 SSTORE SWAP2 PUSH1 0x20 ADD SWAP2 SWAP1 PUSH1 0x1 ADD SWAP1 PUSH2 0x79F JUMP JUMPDEST JUMPDEST POP SWAP1 POP PUSH2 0x7C8 SWAP2 SWAP1 PUSH2 0x7CC JUMP JUMPDEST POP SWAP1 JUMP JUMPDEST JUMPDEST DUP1 DUP3 GT ISZERO PUSH2 0x7E5 JUMPI PUSH1 0x0 DUP2 PUSH1 0x0 SWAP1 SSTORE POP PUSH1 0x1 ADD PUSH2 0x7CD JUMP JUMPDEST POP SWAP1 JUMP JUMPDEST PUSH1 0x0 PUSH2 0x7FC PUSH2 0x7F7 DUP5 PUSH2 0xBCF JUMP JUMPDEST PUSH2 0xB9E JUMP JUMPDEST SWAP1 POP DUP3 DUP2 MSTORE PUSH1 0x20 DUP2 ADD DUP5 DUP5 DUP5 ADD GT ISZERO PUSH2 0x814 JUMPI PUSH1 0x0 DUP1 REVERT JUMPDEST PUSH2 0x81F DUP5 DUP3 DUP6 PUSH2 0xCA1 JUMP JUMPDEST POP SWAP4 SWAP3 POP POP POP JUMP JUMPDEST PUSH1 0x0 DUP3 PUSH1 0x1F DUP4 ADD SLT PUSH2 0x838 JUMPI PUSH1 0x0 DUP1 REVERT JUMPDEST DUP2 CALLDATALOAD PUSH2 0x848 DUP5 DUP3 PUSH1 0x20 DUP7 ADD PUSH2 0x7E9 JUMP JUMPDEST SWAP2 POP POP SWAP3 SWAP2 POP POP JUMP JUMPDEST PUSH1 0x0 DUP2 CALLDATALOAD SWAP1 POP PUSH2 0x860 DUP2 PUSH2 0xE26 JUMP JUMPDEST SWAP3 SWAP2 POP POP JUMP JUMPDEST PUSH1 0x0 DUP1 PUSH1 0x40 DUP4 DUP6 SUB SLT ISZERO PUSH2 0x879 JUMPI PUSH1 0x0 DUP1 REVERT JUMPDEST PUSH1 0x0 DUP4 ADD CALLDATALOAD PUSH8 0xFFFFFFFFFFFFFFFF DUP2 GT ISZERO PUSH2 0x893 JUMPI PUSH1 0x0 DUP1 REVERT JUMPDEST PUSH2 0x89F DUP6 DUP3 DUP7 ADD PUSH2 0x827 JUMP JUMPDEST SWAP3 POP POP PUSH1 0x20 PUSH2 0x8B0 DUP6 DUP3 DUP7 ADD PUSH2 0x851 JUMP JUMPDEST SWAP2 POP POP SWAP3 POP SWAP3 SWAP1 POP JUMP JUMPDEST PUSH1 0x0 PUSH1 0x20 DUP3 DUP5 SUB SLT ISZERO PUSH2 0x8CC JUMPI PUSH1 0x0 DUP1 REVERT JUMPDEST PUSH1 0x0 PUSH2 0x8DA DUP5 DUP3 DUP6 ADD PUSH2 0x851 JUMP JUMPDEST SWAP2 POP POP SWAP3 SWAP2 POP POP JUMP JUMPDEST PUSH1 0x0 PUSH2 0x8EF DUP4 DUP4 PUSH2 0xA3C JUMP JUMPDEST SWAP1 POP SWAP3 SWAP2 POP POP JUMP JUMPDEST PUSH2 0x900 DUP2 PUSH2 0xC65 JUMP JUMPDEST DUP3 MSTORE POP POP JUMP JUMPDEST PUSH2 0x90F DUP2 PUSH2 0xC65 JUMP JUMPDEST DUP3 MSTORE POP POP JUMP JUMPDEST PUSH1 0x0 PUSH2 0x920 DUP3 PUSH2 0xC0F JUMP JUMPDEST PUSH2 0x92A DUP2 DUP6 PUSH2 0xC32 JUMP JUMPDEST SWAP4 POP DUP4 PUSH1 0x20 DUP3 MUL DUP6 ADD PUSH2 0x93C DUP6 PUSH2 0xBFF JUMP JUMPDEST DUP1 PUSH1 0x0 JUMPDEST DUP6 DUP2 LT ISZERO PUSH2 0x978 JUMPI DUP5 DUP5 SUB DUP10 MSTORE DUP2 MLOAD PUSH2 0x959 DUP6 DUP3 PUSH2 0x8E3 JUMP JUMPDEST SWAP5 POP PUSH2 0x964 DUP4 PUSH2 0xC25 JUMP JUMPDEST SWAP3 POP PUSH1 0x20 DUP11 ADD SWAP10 POP POP PUSH1 0x1 DUP2 ADD SWAP1 POP PUSH2 0x940 JUMP JUMPDEST POP DUP3 SWAP8 POP DUP8 SWAP6 POP POP POP POP POP POP SWAP3 SWAP2 POP POP JUMP JUMPDEST PUSH1 0x0 PUSH2 0x995 DUP3 PUSH2 0xC1A JUMP JUMPDEST PUSH2 0x99F DUP2 DUP6 PUSH2 0xC43 JUMP JUMPDEST SWAP4 POP PUSH2 0x9AF DUP2 DUP6 PUSH1 0x20 DUP7 ADD PUSH2 0xCB0 JUMP JUMPDEST PUSH2 0x9B8 DUP2 PUSH2 0xE15 JUMP JUMPDEST DUP5 ADD SWAP2 POP POP SWAP3 SWAP2 POP POP JUMP JUMPDEST PUSH1 0x0 PUSH2 0x9CE DUP3 PUSH2 0xC1A JUMP JUMPDEST PUSH2 0x9D8 DUP2 DUP6 PUSH2 0xC54 JUMP JUMPDEST SWAP4 POP PUSH2 0x9E8 DUP2 DUP6 PUSH1 0x20 DUP7 ADD PUSH2 0xCB0 JUMP JUMPDEST PUSH2 0x9F1 DUP2 PUSH2 0xE15 JUMP JUMPDEST DUP5 ADD SWAP2 POP POP SWAP3 SWAP2 POP POP JUMP JUMPDEST PUSH1 0x0 PUSH2 0xA09 PUSH1 0x18 DUP4 PUSH2 0xC54 JUMP JUMPDEST SWAP2 POP PUSH32 0x4E6F7420696E766F6B656420627920746865206F776E65720000000000000000 PUSH1 0x0 DUP4 ADD MSTORE PUSH1 0x20 DUP3 ADD SWAP1 POP SWAP2 SWAP1 POP JUMP JUMPDEST PUSH1 0x0 PUSH1 0x80 DUP4 ADD PUSH1 0x0 DUP4 ADD MLOAD DUP5 DUP3 SUB PUSH1 0x0 DUP7 ADD MSTORE PUSH2 0xA59 DUP3 DUP3 PUSH2 0x98A JUMP JUMPDEST SWAP2 POP POP PUSH1 0x20 DUP4 ADD MLOAD PUSH2 0xA6E PUSH1 0x20 DUP7 ADD DUP3 PUSH2 0xA9F JUMP JUMPDEST POP PUSH1 0x40 DUP4 ADD MLOAD PUSH2 0xA81 PUSH1 0x40 DUP7 ADD DUP3 PUSH2 0x8F7 JUMP JUMPDEST POP PUSH1 0x60 DUP4 ADD MLOAD PUSH2 0xA94 PUSH1 0x60 DUP7 ADD DUP3 PUSH2 0xAD7 JUMP JUMPDEST POP DUP1 SWAP2 POP POP SWAP3 SWAP2 POP POP JUMP JUMPDEST PUSH1 0x20 DUP3 ADD PUSH1 0x0 DUP3 ADD MLOAD PUSH2 0xAB5 PUSH1 0x0 DUP6 ADD DUP3 PUSH2 0xAD7 JUMP JUMPDEST POP POP POP POP JUMP JUMPDEST PUSH1 0x20 DUP3 ADD PUSH1 0x0 DUP3 ADD MLOAD PUSH2 0xAD1 PUSH1 0x0 DUP6 ADD DUP3 PUSH2 0xAD7 JUMP JUMPDEST POP POP POP POP JUMP JUMPDEST PUSH2 0xAE0 DUP2 PUSH2 0xC97 JUMP JUMPDEST DUP3 MSTORE POP POP JUMP JUMPDEST PUSH2 0xAEF DUP2 PUSH2 0xC97 JUMP JUMPDEST DUP3 MSTORE POP POP JUMP JUMPDEST PUSH1 0x0 PUSH1 0x20 DUP3 ADD SWAP1 POP PUSH2 0xB0A PUSH1 0x0 DUP4 ADD DUP5 PUSH2 0x906 JUMP JUMPDEST SWAP3 SWAP2 POP POP JUMP JUMPDEST PUSH1 0x0 PUSH1 0x20 DUP3 ADD SWAP1 POP DUP2 DUP2 SUB PUSH1 0x0 DUP4 ADD MSTORE PUSH2 0xB2A DUP2 DUP5 PUSH2 0x915 JUMP JUMPDEST SWAP1 POP SWAP3 SWAP2 POP POP JUMP JUMPDEST PUSH1 0x0 PUSH1 0x80 DUP3 ADD SWAP1 POP DUP2 DUP2 SUB PUSH1 0x0 DUP4 ADD MSTORE PUSH2 0xB4C DUP2 DUP8 PUSH2 0x9C3 JUMP JUMPDEST SWAP1 POP PUSH2 0xB5B PUSH1 0x20 DUP4 ADD DUP7 PUSH2 0xABB JUMP JUMPDEST PUSH2 0xB68 PUSH1 0x40 DUP4 ADD DUP6 PUSH2 0x906 JUMP JUMPDEST PUSH2 0xB75 PUSH1 0x60 DUP4 ADD DUP5 PUSH2 0xAE6 JUMP JUMPDEST SWAP6 SWAP5 POP POP POP POP POP JUMP JUMPDEST PUSH1 0x0 PUSH1 0x20 DUP3 ADD SWAP1 POP DUP2 DUP2 SUB PUSH1 0x0 DUP4 ADD MSTORE PUSH2 0xB97 DUP2 PUSH2 0x9FC JUMP JUMPDEST SWAP1 POP SWAP2 SWAP1 POP JUMP JUMPDEST PUSH1 0x0 PUSH1 0x40 MLOAD SWAP1 POP DUP2 DUP2 ADD DUP2 DUP2 LT PUSH8 0xFFFFFFFFFFFFFFFF DUP3 GT OR ISZERO PUSH2 0xBC5 JUMPI PUSH2 0xBC4 PUSH2 0xDE6 JUMP JUMPDEST JUMPDEST DUP1 PUSH1 0x40 MSTORE POP SWAP2 SWAP1 POP JUMP JUMPDEST PUSH1 0x0 PUSH8 0xFFFFFFFFFFFFFFFF DUP3 GT ISZERO PUSH2 0xBEA JUMPI PUSH2 0xBE9 PUSH2 0xDE6 JUMP JUMPDEST JUMPDEST PUSH1 0x1F NOT PUSH1 0x1F DUP4 ADD AND SWAP1 POP PUSH1 0x20 DUP2 ADD SWAP1 POP SWAP2 SWAP1 POP JUMP JUMPDEST PUSH1 0x0 DUP2 SWAP1 POP PUSH1 0x20 DUP3 ADD SWAP1 POP SWAP2 SWAP1 POP JUMP JUMPDEST PUSH1 0x0 DUP2 MLOAD SWAP1 POP SWAP2 SWAP1 POP JUMP JUMPDEST PUSH1 0x0 DUP2 MLOAD SWAP1 POP SWAP2 SWAP1 POP JUMP JUMPDEST PUSH1 0x0 PUSH1 0x20 DUP3 ADD SWAP1 POP SWAP2 SWAP1 POP JUMP JUMPDEST PUSH1 0x0 DUP3 DUP3 MSTORE PUSH1 0x20 DUP3 ADD SWAP1 POP SWAP3 SWAP2 POP POP JUMP JUMPDEST PUSH1 0x0 DUP3 DUP3 MSTORE PUSH1 0x20 DUP3 ADD SWAP1 POP SWAP3 SWAP2 POP POP JUMP JUMPDEST PUSH1 0x0 DUP3 DUP3 MSTORE PUSH1 0x20 DUP3 ADD SWAP1 POP SWAP3 SWAP2 POP POP JUMP JUMPDEST PUSH1 0x0 PUSH2 0xC70 DUP3 PUSH2 0xC77 JUMP JUMPDEST SWAP1 POP SWAP2 SWAP1 POP JUMP JUMPDEST PUSH1 0x0 PUSH20 0xFFFFFFFFFFFFFFFFFFFFFFFFFFFFFFFFFFFFFFFF DUP3 AND SWAP1 POP SWAP2 SWAP1 POP JUMP JUMPDEST PUSH1 0x0 DUP2 SWAP1 POP SWAP2 SWAP1 POP JUMP JUMPDEST DUP3 DUP2 DUP4 CALLDATACOPY PUSH1 0x0 DUP4 DUP4 ADD MSTORE POP POP POP JUMP JUMPDEST PUSH1 0x0 JUMPDEST DUP4 DUP2 LT ISZERO PUSH2 0xCCE JUMPI DUP1 DUP3 ADD MLOAD DUP2 DUP5 ADD MSTORE PUSH1 0x20 DUP2 ADD SWAP1 POP PUSH2 0xCB3 JUMP JUMPDEST DUP4 DUP2 GT ISZERO PUSH2 0xCDD JUMPI PUSH1 0x0 DUP5 DUP5 ADD MSTORE JUMPDEST POP POP POP POP JUMP JUMPDEST PUSH1 0x0 PUSH2 0xCEE DUP3 PUSH2 0xC97 JUMP JUMPDEST SWAP2 POP PUSH1 0x0 DUP3 EQ ISZERO PUSH2 0xD02 JUMPI PUSH2 0xD01 PUSH2 0xD88 JUMP JUMPDEST JUMPDEST PUSH1 0x1 DUP3 SUB SWAP1 POP SWAP2 SWAP1 POP JUMP JUMPDEST PUSH1 0x0 PUSH1 0x2 DUP3 DIV SWAP1 POP PUSH1 0x1 DUP3 AND DUP1 PUSH2 0xD25 JUMPI PUSH1 0x7F DUP3 AND SWAP2 POP JUMPDEST PUSH1 0x20 DUP3 LT DUP2 EQ ISZERO PUSH2 0xD39 JUMPI PUSH2 0xD38 PUSH2 0xDB7 JUMP JUMPDEST JUMPDEST POP SWAP2 SWAP1 POP JUMP JUMPDEST PUSH1 0x0 PUSH2 0xD4A DUP3 PUSH2 0xC97 JUMP JUMPDEST SWAP2 POP PUSH32 0xFFFFFFFFFFFFFFFFFFFFFFFFFFFFFFFFFFFFFFFFFFFFFFFFFFFFFFFFFFFFFFFF DUP3 EQ ISZERO PUSH2 0xD7D JUMPI PUSH2 0xD7C PUSH2 0xD88 JUMP JUMPDEST JUMPDEST PUSH1 0x1 DUP3 ADD SWAP1 POP SWAP2 SWAP1 POP JUMP JUMPDEST PUSH32 0x4E487B7100000000000000000000000000000000000000000000000000000000 PUSH1 0x0 MSTORE PUSH1 0x11 PUSH1 0x4 MSTORE PUSH1 0x24 PUSH1 0x0 REVERT JUMPDEST PUSH32 0x4E487B7100000000000000000000000000000000000000000000000000000000 PUSH1 0x0 MSTORE PUSH1 0x22 PUSH1 0x4 MSTORE PUSH1 0x24 PUSH1 0x0 REVERT JUMPDEST PUSH32 0x4E487B7100000000000000000000000000000000000000000000000000000000 PUSH1 0x0 MSTORE PUSH1 0x41 PUSH1 0x4 MSTORE PUSH1 0x24 PUSH1 0x0 REVERT JUMPDEST PUSH1 0x0 PUSH1 0x1F NOT PUSH1 0x1F DUP4 ADD AND SWAP1 POP SWAP2 SWAP1 POP JUMP JUMPDEST PUSH2 0xE2F DUP2 PUSH2 0xC97 JUMP JUMPDEST DUP2 EQ PUSH2 0xE3A JUMPI PUSH1 0x0 DUP1 REVERT JUMPDEST POP JUMP INVALID LOG2 PUSH5 0x6970667358 0x22 SLT KECCAK256 DUP2 0xC0 0xC0 DUP12 0xBD PUSH12 0x9779475F0F87576A31DF26E8 0xBC LOG4 PUSH4 0xE46F5064 0xCB SWAP1 SUB 0xD4 0xE9 0x4B 0xC8 PUSH5 0x736F6C6343 STOP ADDMOD STOP STOP CALLER "
				},
				"gasEstimates": {
					"creation": {
						"codeDepositCost": "739800",
						"executionCost": "21639",
						"totalCost": "761439"
					},
					"external": {
						"addNewBook(string,uint256)": "infinite",
						"books(uint256)": "infinite",
						"borrowBook(uint256)": "infinite",
						"owner()": "1255",
						"returnBook(uint256)": "infinite",
						"seeRecord()": "infinite"
					}
				},
				"methodIdentifiers": {
					"addNewBook(string,uint256)": "45b8a73e",
					"books(uint256)": "68744046",
					"borrowBook(uint256)": "7e490a9e",
					"owner()": "8da5cb5b",
					"returnBook(uint256)": "ca5140c9",
					"seeRecord()": "bc072787"
				}
			},
			"storageLayout": {
				"storage": [
					{
						"astId": 187,
						"contract": "contracts/Library.sol:Library",
						"label": "owner",
						"offset": 0,
						"slot": "0",
						"type": "t_address"
					},
					{
						"astId": 98,
						"contract": "contracts/Library.sol:Library",
						"label": "books",
						"offset": 0,
						"slot": "1",
						"type": "t_array(t_struct(Book)94_storage)dyn_storage"
					},
					{
						"astId": 101,
						"contract": "contracts/Library.sol:Library",
						"label": "id",
						"offset": 0,
						"slot": "2",
						"type": "t_struct(Counter)5_storage"
					}
				],
				"types": {
					"t_address": {
						"encoding": "inplace",
						"label": "address",
						"numberOfBytes": "20"
					},
					"t_array(t_struct(Book)94_storage)dyn_storage": {
						"base": "t_struct(Book)94_storage",
						"encoding": "dynamic_array",
						"label": "struct Library.Book[]",
						"numberOfBytes": "32"
					},
					"t_string_storage": {
						"encoding": "bytes",
						"label": "string",
						"numberOfBytes": "32"
					},
					"t_struct(Book)94_storage": {
						"encoding": "inplace",
						"label": "struct Library.Book",
						"members": [
							{
								"astId": 86,
								"contract": "contracts/Library.sol:Library",
								"label": "name",
								"offset": 0,
								"slot": "0",
								"type": "t_string_storage"
							},
							{
								"astId": 89,
								"contract": "contracts/Library.sol:Library",
								"label": "id",
								"offset": 0,
								"slot": "1",
								"type": "t_struct(Counter)5_storage"
							},
							{
								"astId": 91,
								"contract": "contracts/Library.sol:Library",
								"label": "user",
								"offset": 0,
								"slot": "2",
								"type": "t_address"
							},
							{
								"astId": 93,
								"contract": "contracts/Library.sol:Library",
								"label": "copies",
								"offset": 0,
								"slot": "3",
								"type": "t_uint256"
							}
						],
						"numberOfBytes": "128"
					},
					"t_struct(Counter)5_storage": {
						"encoding": "inplace",
						"label": "struct Counters.Counter",
						"members": [
							{
								"astId": 4,
								"contract": "contracts/Library.sol:Library",
								"label": "_value",
								"offset": 0,
								"slot": "0",
								"type": "t_uint256"
							}
						],
						"numberOfBytes": "32"
					},
					"t_uint256": {
						"encoding": "inplace",
						"label": "uint256",
						"numberOfBytes": "32"
					}
				}
			},
			"userdoc": {
				"kind": "user",
				"methods": {},
				"version": 1
			}
		}
	}
}